:020000040000fa
:080000000001040000000000f3
:020000040000fa
:100200002f0b2200807922000001880000000000ee
:10021000050007000c000700d203020000000000e8
:100220000040da000000fe004440a900c0cf2a00d0
:100230000000e0000300320000002000a001880060
:100240004440a80000000600601f270001002000b5
:100250001600370062004000e080480091018800ed
:100260009001ba0062004000e080480091018800df
:100270009002ba0062004000e08048000002eb00fb
:100280006028e10005003a008301e900070033001f
:10029000038009000059eb00040037006128e100e9
:1002a000010032000082eb00050007009101880088
:1002b0001001ba000200e000e6ff3a00000005006d
:1002c000910188008002780062004000e0804800d0
:1002d0003559ba008301e900080032002559ba00f7
:1002e0008301e900050032000400e000f4ff320061
:1002f00015d9ba008301e900f1ff3a0000000600b9
:10030000881f780000047800f04680000000e000bc
:100310000100320000000100e068ef00c0468000ec
:100320000000e00001003200000001006140b80060
:10033000d0468800e14688004f047800000006009f
:10034000889fbe00f04680000000e00001003200ff
:1003500000000100c04680000000e0000100320003
:1003600000000100b04280000000e0000100320007
:1003700000000100804280000000e0000100320027
:1003800000000100e048e20027003a00d04680006b
:10039000e14680000004eb00d260260093012000bb
:1003a0003c000700f2352f00e3c6230000004100a7
:1003b000818049000804e800e80f5400f6ff3a0085
:1003c000d0468800e14688000004eb0089852000c3
:1003d000d260260093012000d0468000e1468000d4
:1003e0002c000700f2352f00e3c623000000410077
:1003f00081804900d0468800e1468800809cbe008c
:100400000804e80000022000800f5400f0ff3a00ca
:10041000a0468000b146800090428800a14288003a
:1004200010c0b300e0e8b700d260260093012000be
:10043000d0468000e146800016000700f2352f000c
:10044000e3c623000000410081804900d0468800b7
:10045000e1468800924280000201d000e203b2002f
:100460008201410082852000028141001202be000b
:1004700094428800a54288000089be009042800016
:10048000a14280000100780000f0a1004f04be00ee
:1004900000000600020ab900001bb9000200b80003
:1004a0008100420081004300000006008920a9006d
:1004b000c401dd000347b200810a200091407800aa
:1004c000f2c8b30082c0600083c070008000fd00ed
:1004d000a8e0b7008000fd00680060004300de0077
:1004e0000040400011092000914078000114a10053
:1004f00080c070000100780091e0b70000000600a5
:10050000221288000012880011128800431288000d
:1005100064128800000006008cc0a90011e1a90047
:1005200084c0a9000000060084c0a900e741600063
:10053000710920009140780082cfb30082c0600032
:1005400083c070008000fd0097e0b7008000fd00d0
:10055000680060004300de000040400000404000b2
:10056000004040000040400000404000004040008b
:10057000c1082000914078000164a10080c0700093
:10058000010078008ce0b700000006000621ef00b3
:1005900061088800800888001061a900000006003a
:1005a0009183a800000006009183a800801c8800a9
:1005b00000000600901c8800a11c880000000600b6
:1005c000401ade000500200004037800e24f5000ce
:1005d0001300320005003c000004e0000900320076
:1005e000e14f50001e003a0009003700e44f500070
:1005f000130032000e003500e54f500018003a009d
:1006000013003700011888001418880016003700fe
:1006100041188800541888006218880000000600fd
:100620008118880094188800a2188800000006002d
:10063000c1188800d4188800e2188800000006005d
:10064000011988001419880022198800000006008a
:1006500041198800541988006219880000000600ba
:10066000011888001618880022188800000006006b
:10067000401ade00050020000004e0000600320001
:10068000e14f500004003a00c1198800d4198800d5
:10069000e21988000000060081198800941988007a
:1006a000a219880000000600e14f5000030032004c
:1006b000e24f50000300320004003700f11a8800b6
:1006c00000000600711a880000000600711b8800f7
:1006d000000006000004e00004003200e14f50007a
:1006e00002003a00f11b880000000600711c88001f
:1006f000000006009623ef008760a900c01c880058
:10070000c409dd000347b200a1c0bf00f2c8b300b6
:100710000240600003407000a1e0b700e880600084
:10072000c308de0081c0400081c0400081c040009d
:100730008fc0bf000034a100014070008fe0b700ff
:1007400000000600801c8800000006004315880099
:10075000541588002215880011158800001588009e
:100760000000d1006140600000404000012a2000ec
:10077000914078000114a10080c070000100780051
:10078000a0e2b70000000600301588000000060057
:100790000080fb00000040000128200060807800fd
:1007a000000006000200fa000000eb00000f7800d5
:1007b0004087a9008e1a020000000000e1d121004c
:1007c0000040eb0080487800130020000e01780004
:1007d00001c02f00f0072000da0a0200000000002c
:1007e0001e0078000000e000070035001e007800c1
:1007f000ef0f500004003c001e007800804078009d
:10080000e0d1210001487800361b02000000000002
:100810001e0902000000000020100200000000007d
:100820001206020000000000241b0200000000006d
:10083000521b0200000000008001020000000000c6
:100840000060fe00a001020000000000040e020093
:1008500000000000fa10020000000000680402001e
:1008600000000000f41a0200000000003e0a02002e
:10087000000000003809020000000000dc05020052
:1008800000000000eeff37000000fa00a10822007f
:100890000040eb0080487800a10822000040eb00f7
:1008a00090409800a10822000040eb00a040980072
:1008b0000000eb00400589000000eb0050058900b6
:1008c0000000eb00600589000080fa0000000600cf
:1008d0000400fa0070092200104078000004e000d3
:1008e000a0003200600581000000e00088003200b6
:1008f0005105810060058100808f50008400310027
:10090000500581000000e800500589005005810075
:1009100000004000000040000000400000004000d7
:1009200000004000000040000000400000004000c7
:1009300062058100110009000280d800010020003a
:10094000008fbe0000092200104078000003fb0069
:10095000cfb3de001e0078000602b8001e0078004b
:100960000780b90005017800000141001e009000d9
:1009700000b0b9000001410082027800048fbe007f
:100980001e00be004809dd004800de0000007100c6
:10099000c808de00008fbe00d0082200904078001a
:1009a0001e00780000c04000f2c3b3008240600027
:1009b000a008220001487800500581000000400096
:1009c0000000400000004000000040000000400027
:1009d000000040000000400000004000620581006f
:1009e000110009000280d80001002000008fbe0025
:1009f00000092200104090000003fb00cfb3de008e
:100a00001e0078000602b8001e0078000780b900ba
:100a100005017800000141001e00900000b0b900ff
:100a20000001410082027800048fbe001e00be005b
:100a30004809dd004800de0000007100c808de0043
:100a4000008fbe00d0082200904090001e00780069
:100a500000c04000f2c3b30082406000a008220042
:100a60001140980050058100000040000000400047
:100a70000000400000004000000040000000400076
:100a800000004000000040006205810011000900e4
:100a90000280d80001002000008fbe000009220063
:100aa000204090000003fb00cfb3de001e00780062
:100ab0000602b8001e0078000780b9000501780022
:100ac000000141001e00900000b0b900000141008b
:100ad00082027800048fbe001e00be004809dd00bf
:100ae0004800de0000007100c808de00008fbe0074
:100af000d0082200a04090001e00780000c04000f6
:100b0000f2c3b30082406000a00822002140980098
:100b1000400581000000e0000f0032004005810028
:100b20000000e90040058900400581000000e00068
:100b300009003a00a10822000040eb00804878003c
:100b4000a10822000040eb0090409800a10822007c
:100b50000040eb00a0409800710922000040eb002b
:100b6000804878000080fa00000006000000fa00cb
:100b7000f10622000040eb00804878000000eb0006
:100b8000900389000080eb00a00389001107220078
:100b900000c0eb0080487800010722000040eb0015
:100ba00080487800610722000040eb008048780010
:100bb0000080fa00000006000000fa00a003810097
:100bc000e10f40001500320091038100a003810075
:100bd000808f500011003900d00222009040780030
:100be000f006220001487800c00222009040780000
:100bf0001007220001487800e002220090407800af
:100c00000007220001487800e106220010c0b3006e
:100c1000804878000080eb00a00389000080fa0083
:100c2000000006000000fa009120a8000080eb0000
:100c300056020200000000000002eb00130020003a
:100c400072002000f1e32f00d0012f00800202008b
:100c5000000000000080fa0000000600809fbe0037
:100c60003400f80000c0b300a00188000400fa00be
:100c70000000eb00000f780080128000000f780069
:100c800090128000000f7800a0128000000f780002
:100c9000b0128000000f780060072200104078003a
:100ca0000080fb00100798001e0090000000e0008c
:100cb000040032001e009000e10f50001a003200c4
:100cc0004f003700f0062200104078000004e000da
:100cd00012003200e0062200104078000004e0001c
:100ce0000e003a0061038100c0f2210061407800eb
:100cf0000000fb00000f7800100722001040780071
:100d00000080fb000000e800800078001e007800f2
:100d10000180b900000f78003b0037000000eb00b5
:100d2000000f780038003700000381001040780081
:100d30000000fb00000f78007007220010407800d0
:100d40000080fb000000e800800078001e007800b2
:100d50000180b900000f7800000381000000e80066
:100d600000038900200381000000e80020038900bf
:100d70002103810010038100808f500022003a007f
:100d800080072200104078008040e90080072200a0
:100d90000148780080072200104078000004e0003d
:100da00010003a00610722000040eb008048780004
:100db000d002220090407800f0062200014878001e
:100dc000c0022200904078001007220001487800fd
:100dd000e0022200904078000007220001487800dd
:100de00009003700010381001003810000805000da
:100df000000389000000eb00200389000200370097
:100e00000000eb00000f78001e007800c012880080
:100e10001e007800d01288001e007800e0128800c2
:100e20001e007800f0128800600381000000e800d6
:100e30006003890061038100f00f200000806000e2
:100e40006003890060062200104078000040e8003e
:100e50008040780060062200014878006006220089
:100e6000104090000040e8008040780060062200ba
:100e70001140980060062200204090000040e800e9
:100e80008040780060062200214098006006220021
:100e9000304090000040e80080407800600622006a
:100ea0003140980060062200104078008080fb00ee
:100eb000f0032000008060000000e00008003a001d
:100ec00060062200104078000080fb004600de0033
:100ed0000040e8008040780080f22100014878005e
:100ee00060062200104090008080fb00f00320008c
:100ef000008060000000e00008003a006006220068
:100f0000104090000080fb004600de000040e8003a
:100f10008040780080f22100114098006006220095
:100f2000204090008080fb00f003200000806000e3
:100f30000000e00008003a00600622002040900017
:100f40000080fb004600de000040e80080407800a2
:100f500080f221002140980060062200304090007d
:100f60008080fb00f0032000008060000000e000b3
:100f700008003a0060062200304090000080fb002c
:100f80004600de000040e8008040780080f221004a
:100f9000314098008920a9000080fa003400f9004f
:100fa0004f00be00004006000800fa00004f780025
:100fb000114798002247980033479800444798000b
:100fc000554798001e80fb0030079800be00900037
:100fd000e38f5000460032003e009000e30f5000c7
:100fe00007003c00be009000e18f50001c00320062
:100ff0003e009000e20f50002b0032000600370048
:10100000be009000e48f50004b0032003e00900084
:10101000e50f50005a00320080b729000003890014
:101020007036210010038900700722009e40900056
:10103000014878002e4090000004e00004003200d7
:1010400080072200ae409000014878005d00370024
:101050008107220010c0b300804878005900370093
:10106000f0ed2a000003890030d120001003890030
:10107000700722009e409000014878002e409000aa
:101080000004e0000400320080072200ae4090001f
:10109000014878004b0037008107220010c0b300e0
:1010a000804878004700370020bf2b0000038900ec
:1010b0007080200010038900700722009e4090007d
:1010c000014878002e4090000004e0000400320047
:1010d00080072200ae4090000148780039003700b8
:1010e0008107220010c0b300804878003500370027
:1010f000903f2c0000038900502820001003890035
:10110000700722009e409000014878002e40900019
:101110000004e0000400320080072200ae4090008e
:1011200001487800270037008107220010c0b30073
:101130008048780023003700e0672c000003890016
:10114000b0e0210010038900700722009e4090004b
:10115000014878002e4090000004e00004003200b6
:1011600080072200ae40900001487800150037004b
:101170008107220010c0b3008048780011003700ba
:1011800090482e0000038900c0d62000100389007b
:10119000700722009e409000014878002e40900089
:1011a0000004e0000400320080072200ae409000fe
:1011b00001487800030037008107220010c0b30007
:1011c00080487800e002220010407800e14f4000a3
:1011d000040032003e409000e3406000e002220044
:1011e00001487800c002220010407800e14f400022
:1011f00003003200c0022200ce4090000148780077
:10120000d002220010407800e14f4000040032007c
:101210005e409000e1406000d0022200014878006a
:101220000000eb00200389006107220010c0b3001a
:10123000804878000080fa00000006000000fa00f4
:101240008c02020000000000c0ff2f009402020088
:101250000000000091e4200050f82f00c6020200b8
:10126000000000008cc0a8000080fa00000006000a
:101270000000fa004009220010407800e14f5000c1
:1012800014003a00400922008040eb000148780039
:1012900090038100e10f40000300320090038100c1
:1012a0000000e80090038900c0048100d10481009f
:1012b000e00f5000e08f580006003200c0048100ab
:1012c000d104810061005000e0805800c004890012
:1012d000d10489000080fa0000000600809fbe0053
:1012e000829fbe003400f80000c0b300a001880057
:1012f0000200fa0050092200104078000040e80087
:1013000080407800500922000148780050092200ee
:1013100090407800c0c2b30080cf50002500360056
:10132000510922000040eb0080487800410922006a
:1013300010c0b300804878007109220010c0b300cb
:10134000804878000040eb00004f78001000370024
:101350001e80fb00a1072200000040006080780092
:10136000e10f4000090032009e80fb00a20722002e
:1013700001804000600079008001e800a20722009f
:101380000180400002004000030878001e4fe80082
:1013900070c0b3009e4f1000edff3600e0048100e6
:1013a0000000e00003003200e00481000000e900da
:1013b000e0048900000b2200104078000004e000e7
:1013c00028003a0060092200104078000040e80040
:1013d00080407800600922000148780060092200fe
:1013e00010407800f2c3b300824060006009220020
:1013f00001487800a008220090407800600922008f
:101400001040780080cf500005003e00b0168000ec
:10141000e1ff2f0001006000b016880003003700d4
:10142000b01680000000a000b0168800a0082200be
:1014300090409000600922001040780080cf50005a
:1014400005003e00b0168000d1ff2f0001006000b3
:10145000b016880003003700b01680000010a0000e
:10146000b016880084c0a9000080fa003400f9009a
:101470004f01be004f00be00004006000200fa000f
:1014800030178000620f6000e00481000000e0007f
:1014900017003a001e00e00015003200e00a2200aa
:1014a000104078000004e00011003200e009220042
:1014b000d210020000000000e1092200100f2000fd
:1014c00080087800e0d1210090407800e0092200f7
:1014d00021409800a08e2000e10922003a0c020071
:1014e00000000000e10a22000040eb008048780084
:1014f0001e00e0002d003a00a0002000e00489005a
:10150000e00a2200104078000004e00027003a00c2
:10151000e0092200d210020000000000e1092200d0
:10152000000f200080087800e0d121009040780072
:10153000e009220021409800a08e2000e10922004d
:101540003a0c02000000000020d221001040780078
:10155000e14f500012003a001200200001c02f009d
:10156000f0072000f40a02000000000000d2210071
:101570001300200002c02f00f10720003c0b0200e6
:101580000000000000e9800080407800e0d12100e8
:101590000148780021d221000040eb00804878000b
:1015a000e10a220010c0b300804878000080fa00f1
:1015b000000006003200f800900188006118e10088
:1015c000040032007018e10002003200f0ff2f002a
:1015d000030037003119ba008301e900fdff3a002a
:1015e0003200f90000000600849fbe004220a900de
:1015f000440424006110e1000a0032005404240075
:101600007010e1000700320064042400f5ff2f0091
:101610000510e10003003200f0ff2f004f02be0072
:10162000000006003200f800203b8800113b8800d3
:10163000043b88004200f800000e20004220b70062
:1016400050052000303b8800a00a2000303b880075
:1016500061e7a800000000000000000061e7af00a3
:10166000feff37000000eb004200f9003200f900f5
:101670004f02be0000000600841f78004220a9002f
:10168000440024006118e1000600320054002400e8
:101690007018e100030032004f027800f0ff2f00c5
:1016a000000006003200f80091018800821f7800d7
:1016b0003019bb008301e900fdff3a00213b88009f
:1016c0004f017800123b8800043b88004200f8007c
:1016d000000e20004220b70050052000303b88005b
:1016e000a00a2000303b880061e7a800000000004d
:1016f0000000000061e7af00feff37000000eb00d4
:101700004200f9003200f9004f02780000000600a4
:101710000200fa00218e20001000200090009800a6
:10172000218e200010002000a0009800218e2000b3
:1017300000102000b0009800218e2000a031210070
:1017400080087800a18e20001000200090009800f2
:10175000a18e200010002000a0009800a18e200083
:1017600000102000b0009800a18e2000a091200061
:10177000800878000000eb00000f780007003700b9
:10178000208e2000100178001e0078006a00b90049
:1017900000004100830207001e0fe800f00f200048
:1017a0009e0f1000f6ff36000000eb00000f7800df
:1017b00007003700a08e2000100178001e0078007e
:1017c0006a00b90000004100760207001e0fe80021
:1017d000f00f20009e0f1000f6ff36000080fa0088
:1017e000000006000400fa00000f78001e007800d8
:1017f000900090001e00780020009000808f500024
:101800000a0036001e007800b00090001e0078002c
:1018100010009000808050001e0078002000900092
:1018200080804000110798000f0037001e007800ec
:10183000a00090001e00780010009000808f5000e3
:10184000070036001e007800a00090001e007800ff
:1018500010009000808050001107980002003700af
:101860000000eb00100798001e0090000080fa00b6
:10187000000006000600fa001007980021079800f3
:101880001e009000100178001e00900020009000c3
:101890006a00b900800041002e009000100078001e
:1018a000800878000040eb00004f780010003700ff
:1018b0001e009000100178001e0090002000900093
:1018c0006a00b900000141009e81fb001e80fb0000
:1018d000ae0090000080e8000100400090407800d9
:1018e000030041000080e800014878001e4fe80036
:1018f00070c0b3009e4f1000edff36001e00900038
:10190000200090008000e8001e0090002100980058
:101910001e009000a00090001e009000300090007b
:10192000808f5000030039009e0090000000eb0003
:10193000a00098000080fa00000006000600fa00ef
:1019400010079800210798001e00900010017800f1
:101950001e009000100090006a00b90000004100d5
:10196000900078002e009000010878000040eb0005
:10197000004f7800100037009e81fb001e00900091
:10198000100178001e009000100090006a00b9005d
:10199000800041001e80fb000080e8000100400044
:1019a000904078002e009000030040000080e80086
:1019b000014878001e4fe80070c0b3009e4f100031
:1019c000edff36001e009000100090008000e8003f
:1019d0001e009000110098001e00900090009000e2
:1019e0001e00900030009000808f500003003900ee
:1019f0009e0090000000eb00900098000080fa002c
:101a0000000006003600f800809fbe00829fbe00e6
:101a1000849fbe00869fbe003400f80000c0b30063
:101a2000a00188000200fa008760a90096c3bf00e9
:101a3000614060000004e0002f003200001c8000c4
:101a40004200de00000f7800c08f20001e087800e2
:101a5000301c800080407800c08f2000214098001a
:101a6000301c80004800de0080407800c08f2000dd
:101a700031409800401c800080407800c08f2000da
:101a800041409800401c80004800de008040780003
:101a9000c08f200051409800501c8000804078008a
:101aa000c08f200061409800501c80004800de007c
:101ab00080407800c08f200071409800601c80003a
:101ac00080407800c08f200001489800601c800092
:101ad0004800de0080407800c08f20001148980048
:101ae000208e2000c18f200062ff07009603a9000e
:101af0000000eb00701c880096c3bf0062406000cd
:101b00000004e0002f003200001c80004200de00d4
:101b1000000f7800c08f20001e087800301c800065
:101b200080407800c08f200021409800301c800049
:101b30004800de0080407800c08f200031409800cf
:101b4000401c800080407800c08f200041409800f9
:101b5000401c80004800de0080407800c08f2000dc
:101b600051409800501c800080407800c08f2000b9
:101b700061409800501c80004800de0080407800e2
:101b8000c08f200071409800601c80008040780069
:101b9000c08f200001489800601c80004800de00d3
:101ba00080407800c08f200011489800208e2000cf
:101bb000c18f20002fff07009623a9000000eb0033
:101bc000f01b880096c3bf000042b2000004e00092
:101bd00005003200d00202000000000097e3a900d7
:101be00097c3a90096a3a9000080fa003400f90069
:101bf0004f03be004f02be004f01be004f00be00ab
:101c00003600f900004006000000fa00a08e200017
:101c1000f4fe07000000e00055003200701b800059
:101c20004300de000000a200610060000004e0004c
:101c30004f0032009643a90000042000201b8800ba
:101c4000a08e2000619020003cff070060902000e3
:101c50001000780020060700001b8800609020001c
:101c6000204090008080fb00609020003040900079
:101c70000080fb0000004000000040000000400029
:101c80000000400000004000000040000000400054
:101c90000000400000807000301b88006090200031
:101ca000404090008080fb006090200050409000f9
:101cb0000080fb00000040000000400000004000e9
:101cc0000000400000004000000040000000400014
:101cd0000000400000807000401b880060902000e1
:101ce000604090008080fb00609020007040900079
:101cf0000080fb00000040000000400000004000a9
:101d000000004000000040000000400000004000d3
:101d10000000400000807000501b88006090200090
:101d2000004890008080fb006090200010489000e8
:101d30000080fb0000004000000040000000400068
:101d40000000400000004000000040000000400093
:101d50000000400000807000601b88003000200000
:101d6000701b8800701b80000030a000701b880072
:101d7000a08e20009bfe07000000e000550032000e
:101d8000f01a80004300de000000a2006100600045
:101d90000004e0004f0032009663a9000004200018
:101da000a01a8800a08e200061902000e3fe0700aa
:101db0006090200010007800c7050700801a880096
:101dc00060902000204090008080fb006090200008
:101dd000304090000080fb00000040000000400008
:101de00000004000000040000000400000004000f3
:101df000000040000000400000807000b01a880021
:101e000060902000404090008080fb0060902000a7
:101e1000504090000080fb000000400000004000a7
:101e200000004000000040000000400000004000b2
:101e3000000040000000400000807000c01a8800d0
:101e400060902000604090008080fb006090200047
:101e5000704090000080fb00000040000000400047
:101e60000000400000004000000040000000400072
:101e7000000040000000400000807000d01a880080
:101e800060902000004890008080fb00609020005f
:101e9000104890000080fb0000004000000040005f
:101ea0000000400000004000000040000000400032
:101eb000000040000000400000807000e01a880030
:101ec00030002000f01a8800f01a80000030a000d6
:101ed000f01a8800a08e200042fe07000000e000fb
:101ee00055003200701a80004300de000000a2009e
:101ef000610060000004e0004f0032009683a900fa
:101f000000042000201a8800a08e2000619020008c
:101f10008afe070060902000100078006e05070020
:101f2000001a880060902000204090008080fb0014
:101f300060902000304090000080fb0000004000d6
:101f40000000400000004000000040000000400091
:101f500000004000000040000000400000807000d1
:101f6000301a880060902000404090008080fb0084
:101f700060902000504090000080fb000000400076
:101f80000000400000004000000040000000400051
:101f90000000400000004000000040000080700091
:101fa000401a880060902000604090008080fb0014
:101fb00060902000704090000080fb000000400016
:101fc0000000400000004000000040000000400011
:101fd0000000400000004000000040000080700051
:101fe000501a880060902000004890008080fb001c
:101ff00060902000104890000080fb00000040002e
:1020000000004000000040000000400000004000d0
:102010000000400000004000000040000080700010
:10202000601a880030002000701a8800701a800042
:102030000030a000701a88000080fa00000006003e
:102040000000fa0000c02000d402020000000000de
:1020500090c3bf000080fb004500de000080fb0055
:10206000e30f5000faff3400912820000000eb003d
:10207000da020200000000006011b8008000eb00ee
:102080000040eb00e0020200000000006011b80018
:102090008000eb0010c0b300e0020200000000006e
:1020a0006011b8008000eb0020c0b300e002020025
:1020b000000000006011b8008000eb0030c0b300e9
:1020c000e0020200000000006011b8008000eb0098
:1020d00040c0b300e0020200000000006011b80040
:1020e0008000eb000040eb0038030200000000001d
:1020f0006011b8008000eb0010c0b300380302008c
:1021000000000000310020000040eb0054030200fa
:10211000000000003100200010c0b3005403020092
:10212000000000003100200020c0b3005403020072
:1021300000000000410020000040eb006a030200a4
:10214000000000004100200010c0b3006a0302003c
:1021500000000000e1ff2f00300220007a0302009f
:102160000000000000802000a20302000000000028
:1021700090c3bf0001ceb300014060000004e00046
:10218000fbff3a000080fa00000006000000fa00a1
:102190008f60a9005efd07008f60a8000080fa0034
:1021a000000006000400fa00100798000040eb0051
:1021b000004f7800070037009e80fb001e00900053
:1021c000010040008080e8000040eb00804878007b
:1021d0001e4fe80070c0b3009e4f1000f6ff36009f
:1021e0009e0090000000eb00800878000080fa005c
:1021f000000006001e00fa00208e200079fd070076
:10220000500798000000eb0060079800ac0437000e
:10221000208e2000218f2000c8fd0700208f200085
:1022200090007800f00f2000808f5000880036006a
:10223000208f200090007800f01f2000808f500039
:1022400083003e0000072200104078000080fb0061
:10225000000040000000400000004000000040007e
:10226000000040000000400000017800208f2000a6
:1022700090007800000c200000806000800f51006a
:1022800073003a00208f2000100078006f0060007b
:10229000000040000000400000004000300f9800a7
:1022a000208f200090007800000220000080600055
:1022b0000000400000004000200f9800be08900081
:1022c0002e08900000804000100f9800e0062200c9
:1022d000104078000004e000140032001e08900056
:1022e0000000e00004003a00e106220020c0b30034
:1022f000804878000d0037009e08900000082000fc
:10230000808f500009003a00e0062200104078005b
:10231000e24f500005003a000000eb006003890026
:10232000e10622000040eb00804878001e09900082
:10233000208f20002040900080407800c0f22100d3
:10234000017178001e0890000000e800100f98004e
:102350001e099000208f20003040900080407800bf
:10236000c0f22100017178001e0890000000e80012
:10237000100f98001e099000208f20004040900010
:1023800080407800c0f22100017178001e089000a2
:102390000000e800100f98001e099000208f200018
:1023a0005040900080407800c0f221000171780018
:1023b0001e0890000000e800100f98001e09900011
:1023c000208f20006040900080407800c0f2210003
:1023d000017178001e0890000000e800100f9800be
:1023e0001e099000208f20007040900080407800ef
:1023f000c0f22100017178001e0890000000e80082
:10240000100f98001e099000208f200000489000b7
:1024100080407800c0f22100017178001e08900011
:102420000000e800100f98001e099000208f200087
:102430001048900080407800c0f2210001717800bf
:102440001e0890000000e800100f980019043700e3
:10245000208f200090007800f01f2000808f500017
:102460003e003600208f200090007800f0232000ee
:10247000808f500039003e00100b22001040780081
:10248000e14f500035003a000077210001002000a4
:10249000c0048900d1048900208f2000100078003a
:1024a0000000400000004000000040008000780074
:1024b00000002f0000804000400798000000eb0063
:1024c000700798000d003700ce0090007e0090004d
:1024d000008140007e009000218f20000080e800f5
:1024e000010040009040780030d221000171780056
:1024f0007e0090000000e800700798007e009000c9
:10250000e70f5000f0ff36000091200025ff070084
:1025100001912000002f200080087800e0d12100e8
:102520009040780000912000214098000191200007
:1025300060c8b300b0409800208f200010007800e1
:10254000804078000091200041409800a08e20003b
:1025500001912000c7fc0700d60337000077210057
:1025600001002000c0048900d1048900208f2000d0
:1025700010007800600f9800c0082000ee0890005e
:10258000808f5000cb033200c00820006e099000fd
:10259000800f510019003e0090082000ee089000c6
:1025a000808f50001c013200900820006e099000be
:1025b000800f510008003e006e089000f00f5000a0
:1025c0002c00320080082000ee089000808f500020
:1025d000d2003200b7033700a00820006e09900037
:1025e000800f510016013200b0082000ee08900064
:1025f000808f500025013200ae033700300e2000de
:102600006e099000800f510041013200300e200011
:10261000ee089000808f500009003e00e008200086
:102620006e099000800f510012013200000e200050
:10263000ee089000808f5000320132009d03370079
:10264000002f20006e099000800f5100100332000f
:10265000202f2000ee089000808f500038013200bb
:10266000400e20006e099000800f510030013200b2
:1026700090033700208f200090489000e0d1210087
:102680001040780080cf500004003200208f2000de
:1026900010489000e14f400086033a00208f200050
:1026a000204090008080fb00208f20003040900070
:1026b0000080fb00000040000000400000004000df
:1026c000000040000000400000004000000040000a
:1026d000000040000080700030079800208f20002c
:1026e000404090008080fb00208f200050409000f0
:1026f0000080fb000000400000004000000040009f
:1027000000004000000040000000400000004000c9
:10271000000040000080700020079800208f2000fb
:10272000604090008080fb00208f2000704090006f
:102730000080fb000000400000004000000040005e
:102740000000400000004000000040000000400089
:10275000000040000080700010079800208f2000cb
:10276000004890008080fb00208f200010489000df
:102770000080fb000000400000004000000040001e
:102780000000400000004000000040000000400049
:1027900000004000008f70003e009000f2c3b300c4
:1027a00082406000a008220001487800be0090002e
:1027b00000fc2000008060004600de0080407800c1
:1027c000a008220011409800be009000000f2000d9
:1027d000008060004c00de00804078002e009000f9
:1027e0006340600000404000004040000040400066
:1027f0000040400080c04000a00822002140980016
:10280000a008220090407800d008220001487800fb
:10281000a008220090409000d008220011409800ab
:10282000a0082200a0409000d0082200214098007b
:10283000ae009000c00f2000008060004200de006b
:1028400080407800a00822001040780000c05000ae
:10285000804078000009220001487800ae00900016
:1028600000f02300008060004800de008040780017
:10287000a00822001040900000c050008040780066
:102880000009220011409800ae00900000002c00ca
:10289000008060004e00de00804078001e00900046
:1028a0006f406000004040000040400080c0400099
:1028b000a00822002040900000c050008040780016
:1028c00000092200214098009e00900000ff230094
:1028d000008060004400de00400589009e009000fa
:1028e00000002c0000806000ce00de00f00f200011
:1028f0001e0060000000400000004000008040001a
:10290000600589000000eb0050058900010b2200e2
:102910000040eb0080487800e6023700208f20005e
:10292000a0409000e0d121001040780080cf5000fe
:1029300004003200208f200020409000e14f400032
:10294000dc023a00208f200030409000e34060001d
:102950000007220001487800208f200030409000be
:102960000080fb004200de00e3406000e002220045
:1029700001487800208f2000304090000080fb004c
:102980004400de00e1406000f006220001487800cb
:10299000208f2000304090000080fb004500de00ca
:1029a000e1406000d002220001487800208f200022
:1029b000404090008080fb00208f2000504090001d
:1029c0000080fb00000040000000400000004000cc
:1029d00000004000000040000000400000004000f7
:1029e0000000400000807000a0038900208f2000bc
:1029f000e04090001007220001487800208f20005e
:102a0000f0409000c0022200014878000000eb0076
:102a100090038900a7023700208f2000a04090007b
:102a2000e0d121001040780080cf5000a1023a0090
:102a3000e106220010c0b300804878009d023700f4
:102a400000072200104078008080fb00208f2000cb
:102a5000204090000080fb0063006000808f5000e9
:102a600094023a00e106220010c0b30080487800ca
:102a700090023700f00622008040eb000148780009
:102a80000080eb00a00389008a023700208f20001d
:102a9000a0409000e0d121001040780080cf50008d
:102aa00004003200208f200020409000e14f4000c1
:102ab00080023a00208f200000489000e141600031
:102ac000208f200070429000208f200060409000f6
:102ad000e3406000208f200050419000208f2000b4
:102ae00040439000208f20003040900083427800c7
:102af0008141780086407800d40702000000000081
:102b00006c023700241b020000000000690237003d
:102b1000208f2000204090000080fb0000e988000a
:102b200021d2210010c0b300804878006102370034
:102b300021d221000040eb00804878005d02370080
:102b4000208f2000b0409000e0d12100104078009c
:102b500080cf500057023a00208f20002040900084
:102b60000080fb00500f98005e089000e40f5000ba
:102b70003b013200de089000e48f500007003c006b
:102b80005e099000e10f51004f0032005e08900096
:102b9000e30f5000a000320046023700de0890002c
:102ba000e58f5000040032005e099000e70f5100ed
:102bb0001d0032003f023700521b020000000000df
:102bc000e0e888000091200076fd070001912000d8
:102bd000202f2000800878000191200060c0b30001
:102be000a0409800e0d121009040780000912000a2
:102bf00031409800e0e8800080407800009120009b
:102c000041409800e0e880004800de008040780005
:102c10000091200051409800a08e200001912000da
:102c200014fb070023023700009120005dfd070020
:102c300001912000202f20008008780001912000c1
:102c400080c0b300a0409800e0d1210090407800ff
:102c50000091200031409800208f2000c04090005b
:102c60000091200041409800208f2000d04090002b
:102c70000091200051409800208f2000e0409000fb
:102c80000091200061409800208f2000f0409000cb
:102c90000091200071409800208f20008048900013
:102ca0000091200001489800208f2000904890005b
:102cb0000091200011489800a08e20000191200072
:102cc000ecfa0700fb013700010b220010c0b30033
:102cd00080487800b01680000000a000b016880080
:102ce000b01680000010a000b016880000912000ef
:102cf0002cfd070001912000202f20008008780083
:102d00000191200020c0b300a0409800e0d1210034
:102d1000904078000091200031409800a00102000e
:102d200000000000804078000091200041409800a1
:102d3000a001020000000000804078000091200007
:102d400051409800a001020000000000804078007f
:102d50000091200061409800a001020000000000e6
:102d6000804078000091200071409800a00102008e
:102d70000000000080407800009120000148980089
:102d8000a0010200000000008040780000912000b7
:102d900011489800a10722000000eb00800878008d
:102da000a0010200000000000074a1002043b00058
:102db00080407800a0d12100014878000100370050
:102dc0000060fe00a007220090007800a0d1210042
:102dd000104078000080fb00808f5000f8ff390021
:102de000a08e200001912000a2fa0700010b220012
:102df00010c0b30080487800b1168000e0ff2f00bb
:102e000000806000b0168800b01680000010a0009e
:102e1000b0168800a7013700a001020000000000e2
:102e2000000f98000e0890000000e0005a003500e6
:102e3000208f2000404090000081fb000300200014
:102e4000208f2000504090000080fb0001002000f7
:102e50000000400081804800000040008180480060
:102e60000000400081804800000040008180480050
:102e70000000400081804800000040008180480040
:102e80000000400081804800000040008180480030
:102e90000201400083814800208f200060409000a4
:102ea0000080fb0001002000c000dd0000002000c9
:102eb0000201400083814800208f20007040900074
:102ec0000080fb00010020000000400081804800dd
:102ed00000004000818048000000400081804800e0
:102ee00000004000818048000000400081804800d0
:102ef00000004000818048000000400081804800c0
:102f000000004000818048000000400081804800af
:102f1000000040008180480000004000818048009f
:102f2000000040008180480000004000818048008f
:102f3000000040008180480000004000818048007f
:102f4000000040008180480000004000818048006f
:102f5000000040008180480000004000818048005f
:102f6000000040008180480000004000818048004f
:102f7000000040008180480000004000818048003f
:102f8000000040008180480002004000838048002b
:102f900020f9880031f988000091200081fc0700a9
:102fa00001912000202f200080087800019120004e
:102fb00020c0b300a0409800e0d1210090407800ec
:102fc000009120003140980020f9800031f9800004
:102fd00080407800009120004140980020f9800056
:102fe00031f980004809dd004800de000000710072
:102ff000c808de0080407800009120005140980011
:1030000020f9800031f980004008de000100200036
:1030100080407800009120006140980020f98000f5
:1030200031f980004808de0001002000804078006f
:103030000091200071409800019120000040eb00b9
:1030400080489800019120000040eb0090489800d3
:10305000a08e20000191200006fa0700150137001c
:10306000208f2000404090000081fb0003002000e2
:10307000208f2000504090000080fb0001002000c5
:10308000000040008180480000004000818048002e
:10309000000040008180480000004000818048001e
:1030a000000040008180480000004000818048000e
:1030b00000004000818048000000400081804800fe
:1030c0000201400083814800208f20006040900072
:1030d0000080fb0001002000c000dd000000200097
:1030e0000201400083814800208f20007040900042
:1030f0000080fb00010020000000400081804800ab
:1031000000004000818048000000400081804800ad
:10311000000040008180480000004000818048009d
:10312000000040008180480000004000818048008d
:10313000000040008180480000004000818048007d
:10314000000040008180480000004000818048006d
:10315000000040008180480000004000818048005d
:10316000000040008180480000004000818048004d
:10317000000040008180480000004000818048003d
:10318000000040008180480000004000818048002d
:10319000000040008180480000004000818048001d
:1031a000000040008180480000004000818048000d
:1031b00000004000818048000200400083804800f9
:1031c00020f9880031f9880000912000f5fb070004
:1031d00001912000202f200080087800019120001c
:1031e00020c0b300a0409800e0d1210090407800ba
:1031f000009120003140980020f9800031f98000d2
:1032000080407800009120004140980020f9800023
:1032100031f980004809dd004800de00000071003f
:10322000c808de00804078000091200051409800de
:1032300020f9800031f980004008de000100200004
:1032400080407800009120006140980020f98000c3
:1032500031f980004808de0001002000804078003d
:103260000091200071409800019120000040eb0087
:1032700080489800019120000040eb0090489800a1
:10328000a08e2000019120007af907008900370004
:10329000208f2000a0409000e0d121001040780055
:1032a00080cf500083003a00208f200030409000f3
:1032b0000080fb00400f98004e089000e20f500085
:1032c0002c003200ce089000e28f500004003c0039
:1032d0004e099000e10f51000800320075003700e0
:1032e0004e089000e30f500035003200ce089000e9
:1032f000e48f5000450032006e0037000000eb0004
:1033000070079800070037007e01900031d221003d
:103310000040eb0000f178007e0090000000e80023
:1033200070079800fe009000f01f2000808f500072
:10333000f5ff3600009120009afb07000191200064
:10334000002f200080087800e0d121009040780014
:1033500000912000214098000191200010c8b30086
:10336000b0409800a08e20000191200041f9070094
:1033700050003700110b220010c0b30080487800c5
:103380000091200087fb070001912000002f200002
:1033900080087800e0d12100904078000091200062
:1033a000214098000191200020c8b300b04098004f
:1033b000a08e2000019120002ef907003d0037006b
:1033c000110b22000040eb008048780000912000a3
:1033d00074fb070001912000002f20008008780076
:1033e000e0d1210090407800009120002140980019
:1033f0000191200030c8b300b0409800a08e20009a
:10340000019120001bf907002a003700100b220051
:1034100010407800e14f500026003a00208f200035
:10342000404090000080fb00000040000000400091
:1034300000004000400798000091200059fb070061
:10344000208f2000404090000080fb000024b0004e
:103450008000780000912000010878000000eb0057
:10346000700798000d0037007e019000ce0090009c
:103470007e0090008080400030d22100e140780042
:1034800000912000020040000080e8000148780020
:103490007e0090000000e800700798007e00900019
:1034a000e70f5000f0ff3600a08e200001912000b1
:1034b000f0f807006e0090000000e8006007980038
:1034c000ee0090005e009000808f500050fb3900ad
:1034d0000080fa00000006000200fa00000f7800e9
:1034e000f00320001e0060000000400000004000cb
:1034f00080007800007c20001e006000000040007a
:1035000000004000000040000000400000004000bb
:10351000008040000080fa00000006000000fa0071
:103520000080eb004015880031168000f0ff290074
:103530000080600030168800301680000020a00057
:103540003016880051168000f0ff2d0000806000ca
:103550005016880051168000000024000080700082
:1035600050168800b1168000e0ff2f000080600038
:10357000b0168800b1168000d0ff2f0000806000d8
:10358000b0168800010b22000040eb008048780054
:1035900091168000c0ff2f00008060009016880008
:1035a00091168000000820000080700090168800ae
:1035b0002117800020002100008070002017880063
:1035c0002117800070ff2f00008060002017880006
:1035d0004117800070ff2f000080600040178800b6
:1035e0000080fa00000006000000fa00c00481001c
:1035f000d1048100e00f5000e08f58000900320034
:1036000051168000000024000080700050168800d1
:103610004117800070ff2f00008060004017880075
:103620000700370051168000f0ff2b00008060007b
:1036300050168800401780000030a0004017880016
:103640000080fa00000006000000fa00c610020028
:1036500000000000b6050200000000004404020063
:10366000000000000080fa00000006000000fa00e0
:10367000a1e2a90044002000b3ff2f00f20d2f00ab
:10368000c1ff2000f0cf2f00a603020000000000c1
:1036900020fe2f00c4030200000000000080fa009a
:1036a000000006000200fa000040eb00c803020020
:1036b00000000000000f7800900d20001e0f400059
:1036c0001e0078000080fa00000006003400f800b8
:1036d000881f780008c0b300a80188004f04780054
:1036e0000000fa000080fa003400f90000400600f3
:020000040000fa
:0200000401f009
:04000000e6ff000017
:020000040000fa
:0200000401f009
:04000800fcff0000f9
:020000040000fa
:0200000401f009
:04001400ffff0000ea
:020000040000fa
:100008006c7200006c7200006c7200006c72000070
:100018006c7200006c7200006c7200006c72000060
:100028006c7200006c7200006c7200006c72000050
:100038006c7200006c7200006e0900006c720000a7
:100048006c7200006c7200006c720000661b00008d
:100058006c7200006c7200006c7200006c72000020
:100068006c7200006c7200006c7200006c72000010
:100078006c7200006c7200006c7200006c72000000
:100088006c7200006c7200006c720000020d0000bf
:100098006c7200006c7200006c7200006c720000e0
:1000a8006c7200006c7200006c7200006c720000d0
:1000b8006c7200006c7200006c7200006c720000c0
:1000c8006c7200002e0600006c7200006c7200005a
:1000d8006c7200006c7200006c7200006c720000a0
:1000e8006c7200006c7200006c7200006c72000090
:0800f8006c7200006c72000044
:020000040000fa
:100108006c7200006c7200006c7200006c7200006f
:100118006c7200006c7200006c7200006c7200005f
:100128006c7200006c7200006c7200006c7200004f
:100138006c7200006c7200006e0900006c720000a6
:100148006c7200006c7200006c720000661b00008c
:100158006c7200006c7200006c7200006c7200001f
:100168006c7200006c7200006c7200006c7200000f
:100178006c7200006c7200006c7200006c720000ff
:100188006c7200006c7200006c720000020d0000be
:100198006c7200006c7200006c7200006c720000df
:1001a8006c7200006c7200006c7200006c720000cf
:1001b8006c7200006c7200006c7200006c720000bf
:1001c8006c7200002e0600006c7200006c72000059
:1001d8006c7200006c7200006c7200006c7200009f
:1001e8006c7200006c7200006c7200006c7200008f
:0801f8006c7200006c72000043
:020000040000fa
:1036f000eded0000eded0000eded0000eded000062
:10370000eded0000fe0e0000fff90000ece200000d
:10371000d8cf0000c7bf0000b9b50000134f0000ac
:10372000302a000011fe0000ead70000c7b70000f1
:10373000aba00000979d00005c7500003c2c0000d1
:1037400012fe0000ead80000c8ba0000ada50000d3
:10375000abad00004d7900003521000003eb000007
:10376000d3bf0000acaa0000eccd0000baaf00004f
:10377000347e00003221000003eb0000d4c10000c1
:10378000b0b20000efcd0000bcaf0000187f000019
:103790003020000003ec0000d7c40000b4b50000e6
:1037a000f2d10000c0b20000fc7e00002d1e00001f
:1037b00003ed0000d8c70000b7b90000f4d4000042
:1037c000c4b60000e67b00002d1d000003ef0000e2
:1037d000dbca0000bbbc0000f5d80000c7ba00007f
:1037e000d67500002d1b000003f00000ddcd0000a9
:1037f000bfbf0000f5db0000c9bc0000c96d0000c0
:103800002f1b000004f10000e0cf0000c3c1000046
:10381000f6dc0000ccbe0000c361000032190000dd
:1038200005f20000e1d20000c5c40000f6de000091
:10383000cdc00000c05100003618000007f20000a3
:10384000e2d30000c8c70000f6e10000d1c30000c9
:10385000bf4000003917000007f20000e3d6000067
:10386000cac90000f6e30000d2c50000c02f000066
:103870003b16000007f40000e5d70000cdca0000a9
:10388000f7e60000d4c80000c31d00003c1400008f
:1038900008f40000e6d80000cfce0000f7e70000f3
:1038a000d7ca0000c40d00003f14000008f5000056
:1038b000e7db0000d2d10000f6e70000d8cc000022
:1038c000c5ff00003f14000008f50000e7dc000021
:1038d000d4d30000f6e80000d9cd0000c7f4000002
:1038e0003c14000008f50000e8dd0000d7d6000019
:1038f000f7e80000dbcf0000c9ec0000391300003e
:1039000007f50000e8de0000d8d80000f7ea000064
:10391000dcd20000cce600003214000007f6000004
:10392000e8e00000dbdb0000f7ea0000dcd3000089
:10393000cde100002d14000007f60000e8e00000d3
:10394000dcdc0000f9ea0000dcd30000cede000081
:103950002816000005f60000eae10000ddde0000a8
:10396000f9eb0000ddd40000cfdc000022160000df
:1039700005f60000eae10000dee00000f9eb0000df
:10398000ddd40000d1dc00001c16000005f60000ac
:10399000e8e10000e0e10000faec0000ded6000003
:1039a000d1db00001717000005f60000e8e2000078
:1039b000e1e30000faec0000e0d60000d1d90000fd
:1039c0001217000005f60000eae20000e1e5000041
:1039d000fbed0000e0d60000d1d900000e1600007b
:1039e00005f70000eae20000e2e60000fbed00005f
:1039f000e1d70000d1d800000a16000007f7000048
:103a0000eae20000e2e70000fbed0000e2d7000080
:103a1000d1d700000714000007f70000eae2000019
:103a2000e2e80000fbef0000e2d80000d2d700007f
:103a30000412000008f90000ebe30000e2e80000d7
:103a4000fcef0000e3d80000d2d60000020f000017
:103a500008f90000ebe30000e3ea0000fbef0000e0
:103a6000e3d90000d2d60000ff0d000008fa0000e4
:103a7000ece50000e3eb0000fbef0000e5db0000fd
:103a8000d3d60000fc0a000008fa0000ede50000b3
:103a9000e3eb0000fbf00000e5db0000d4d6000003
:103aa000fa07000008fa0000efe60000e5ec00006d
:103ab000fbf00000e6dc0000d4d60000f9030000b3
:103ac00008fb0000efe70000e5ec0000faf0000062
:103ad000e7dd0000d6d70000f600000007fb00007d
:103ae000f0e80000e6ed0000faf00000e7de00007c
:103af000d8d80000f4fb000004fa0000f1ea00004e
:103b0000e7ef0000f9f00000e8e00000d9d900007c
:103b1000f1f7000000f90000f1eb0000e8f0000010
:103b2000f9f10000eae20000dddd0000f0f4000041
:103b3000fbf60000f0ec0000eaf10000f7f00000f6
:103b4000ebe50000e0e00000edf00000f7f400001d
:103b5000f0ed0000ecf20000f5f00000ece70000f2
:103b6000e3e30000eced0000f4f10000f0ef0000f2
:103b7000edf20000f4f00000ece80000e6e50000e3
:103b8000eced0000f1f00000eff00000eff40000b9
:103b9000f4ef0000ece80000e7e70000ecec0000c8
:103ba000f0ef0000eff00000f1f40000f2ef000091
:103bb000ebe80000e8e80000ecec0000efed0000ae
:103bc000eff00000f1f40000f2ef0000ebea00007b
:103bd000e8ea0000ebec0000edec0000edf0000086
:103be000f2f50000f2ef0000ebea0000eaea000064
:103bf000ebeb0000ecec0000ecf00000f2f5000054
:103c0000f2ef0000ebea0000ebeb0000ebeb000052
:103c1000eceb0000ecf00000f2f50000f4ef000027
:103c2000ebea0000ebec0000ebeb0000ebeb00003c
:103c3000ecf00000f1f40000f4f00000ebea00000a
:103c4000ebec0000ebeb0000ebeb0000ebef000017
:103c5000f1f40000f4f00000ebea0000ebec0000ef
:103c6000ebeb0000ebeb0000ebef0000f1f20000eb
:103c7000f4f10000ecea0000ebec0000ebeb0000dc
:103c8000ebeb0000ebef0000f1f20000f4f10000bc
:103c9000edeb0000ebec0000ebeb0000ebeb0000c9
:103ca000ebef0000f0f20000f2f10000edeb00009d
:103cb000ecec0000ebeb0000ebeb0000ecef0000a5
:103cc000f0f10000f2f10000efeb0000ecec00007e
:103cd000ebeb0000ebeb0000ecef0000f0f100007c
:103ce000f2f10000efec0000ecec0000ebea000069
:103cf000ebeb0000ecef0000f0f00000f1f1000051
:103d0000f5f10000efed0000eae70000e6e5000055
:103d1000e3e60000e6e7000005fe0000f9f400001d
:103d2000f0ef0000ebe70000e6e50000e3e500004f
:103d3000e5e6000004fb0000f7f70000f2ef0000ea
:103d4000ebe70000e6e60000e5e60000e5e5000040
:103d500000fa0000f6f70000f1ed0000ecea0000c8
:103d6000e7e60000e5e60000e5e30000fefb0000fa
:103d7000f6f70000f2ed0000ecea0000e7e70000d3
:103d8000e6e60000e5e50000fafb0000f5f70000bc
:103d9000f2ef0000eceb0000e7e70000e6e70000d0
:103da000e6e50000f7fb0000f5f70000f2ef000089
:103db000eceb0000e7e70000e7e70000e6e50000c5
:103dc000f4fb0000f5f60000f4ef0000eceb00005f
:103dd000e7e80000e7e80000e7e50000f1fb00008d
:103de000f4f60000f4ef0000eceb0000e8e800005f
:103df000e8e80000e7e50000effb0000f4f5000054
:103e0000f4ef0000edeb0000e8e80000e8e8000057
:103e1000e7e50000ecfb0000f4f50000f4ef000023
:103e2000edeb0000e8e80000eaea0000e8e6000048
:103e3000ebfb0000f4f40000f4ef0000eceb0000fa
:103e4000e8e80000eaea0000e8e60000eafb00001b
:103e5000f4f40000f4ef0000ecec0000e8e80000ef
:103e6000ebeb0000e8e60000e8fb0000f4f40000e3
:103e7000f4ef0000ecec0000e8e80000ebeb0000e1
:103e8000e8e60000e7fa0000f5f20000f2ef0000bb
:103e9000ecec0000eae80000ebec0000eae60000d1
:103ea000e7fa0000f5f40000f2ef0000ecec00008f
:103eb000eae80000ebec0000eae60000e6f90000aa
:103ec000f6f40000f1ef0000ecec0000eae800007e
:103ed000ebed0000ebe70000e6f70000f6f5000070
:103ee000f0ef0000ecec0000eae80000ebed000071
:103ef000ebe70000e6f60000f7f50000f0f1000047
:103f0000f0ef0000ebe80000e8eb0000e8e2000062
:103f1000e0ef0000f1000000fbf40000f0ef000013
:103f2000ebe80000e8eb0000e8e20000e0ec000055
:103f3000f0000000faf20000eff10000edea0000ee
:103f4000e8ec0000eae20000e0eb0000f0ff000017
:103f5000fbf10000edf00000edec0000eaec0000e9
:103f6000eae30000e0eb0000f0fc0000fcf10000e0
:103f7000ecef0000efec0000eaec0000ebe50000e5
:103f8000e0ea0000f0fa0000fef10000eced0000b5
:103f9000efed0000eaec0000ebe50000e1ea0000d4
:103fa000f0f90000fef10000ecec0000efed000085
:103fb000eaec0000ebe60000e1ea0000f1f60000a8
:103fc000fff10000eceb0000efef0000ebeb000076
:103fd000ebe60000e1e80000f1f5000000f1000070
:103fe000ecea0000edef0000ebec0000ebe7000076
:103ff000e2e80000f2f4000000f10000ede800004b
:10400000eced0000ebec0000ebe70000e2e8000064
:10401000f2f2000000f20000ede80000ebed00001d
:10402000ebec0000ebe70000e2e80000f2f2000039
:1040300000f20000ede80000ebec0000ebed00000a
:10404000ece70000e2e70000f4f2000000f40000fa
:10405000ede80000eaec0000ebed0000ece700000a
:10406000e2e70000f4f4000000f40000efe80000d4
:10407000e8eb0000ebed0000ede80000e2e70000f7
:10408000f4f4000000f50000efea0000e8eb0000a7
:10409000eaed0000edea0000e2e60000f2f40000c4
:1040a00000f60000efea0000e7eb0000e8ec00009b
:1040b000efeb0000e2e60000f1f40000fff6000084
:1040c000f0eb0000e7ea0000e8ec0000edeb000098
:1040d000e3e60000f1f40000fff70000f0eb000061
:1040e000e7ea0000e7eb0000edec0000e5e6000089
:1040f000eff20000fef90000f0eb0000e7ea00003c
:10410000e7eb0000eded0000e7e60000edf1000058
:10411000fcfa0000f1ec0000e8ea0000e7eb000028
:10412000eced0000e8e70000ecf00000fafa000017
:10413000f1ec0000e8ea0000e7eb0000eced000025
:10414000eae80000ecef0000f7fa0000f1ed0000f3
:10415000eaea0000e8ec00000cf70000e1c700000c
:10416000afa800007126000003e50000c7af000003
:10417000a16000001dfc0000e0c50000b4bf00000d
:1041800070180000e7b90000a5fb0000cf6a00002e
:1041900005de0000b49e000008e800006af9000097
:1041a000c3920000d61e0000f05b0000e7bb0000d9
:1041b0008dd6000020fc000057eb0000bf930000ec
:1041c000e217000002450000deb9000093e800009d
:1041d000120f000040e30000bca00000ef0a000046
:1041e000162f0000d9b60000a3ef0000082200003f
:1041f0002ae00000bab10000f20300002519000017
:10420000d6b40000b6f00000002f000017dc00005c
:10421000b7c50000f2fc00002f090000d3b4000075
:10422000caf00000fb35000008db0000b7d7000033
:10423000f1f7000032fc0000d2b50000d9ef000019
:10424000f7350000fcd90000bbe20000f0f60000ea
:1042500030f20000d2ba0000e0ed0000f7300000bc
:10426000f4d90000c1e60000edf600002bed0000df
:10427000d2c10000e1eb0000f92b0000f0d90000f2
:10428000cce50000edfa000023ea0000d1cc0000ec
:10429000ddec0000ff220000ecd80000d7e10000b8
:1042a000ef0200001be70000d1d70000dbec0000ac
:1042b00007190000ead80000e2dd0000ef09000065
:1042c00011e50000d1e10000d7ec00000e0f000066
:1042d000e8d80000ead90000f011000007e3000070
:1042e000d1e70000d3ed000014070000e7d900007b
:1042f000efd70000f1160000fee20000d7ed00004d
:10430000d2ed000017fc0000e2d90000ebd1000064
:10431000eb17000004e60000deef0000d2ef000023
:1043200018f60000e2e00000ead10000ec170000ff
:10433000fce30000e5eb0000d3f1000018f1000001
:10434000e1e70000e6d20000ed110000f7e2000016
:10435000ebe80000d7f4000013ec0000e0ed0000f3
:10436000e3d40000f10a0000f4e10000f0e60000f0
:10437000d8f900000eea0000e0f20000e2d70000e9
:10438000f6050000f0e10000f4e30000dbfc0000b3
:1043900009e70000e0f40000e0d90000fb000000a5
:1043a000ede30000f4e10000dc03000004e600009f
:1043b000e2f20000dedc000002fb0000ebe60000a1
:1043c000f1e10000de070000ffe50000e6f000007c
:1043d000dedd000007f60000e8eb0000efe0000083
:1043e000e00a0000fbe30000eaed0000dde0000071
:1043f00009f20000e7ef0000ece00000e10d000032
:10440000f7e30000edea0000dde200000cf0000040
:10441000e6f20000e8e00000e30d0000f4e5000033
:10442000efe70000dde500000ced0000e6f4000021
:10443000e6e10000e70c0000f0e50000f0e6000017
:10444000dee8000009eb0000e6f50000e5e1000011
:10445000ec080000ece70000f1e50000e1ec0000f2
:1044600004e80000e7f50000e5e20000f0030000ca
:10447000ebea0000f0e50000e2f00000ffe70000da
:10448000eaf40000e5e50000f4fe0000eaec0000bc
:10449000ede60000e5f20000fae70000ecf20000b3
:1044a000e6e60000f6fa0000eaed0000ece70000a6
:1044b000e6f50000f6e70000edf10000e6e600009a
:1044c000f6f90000ebef0000ebe70000e7f6000074
:1044d000f5e80000ecf00000e7e60000f6f7000069
:1044e000eded0000eae60000e7f60000f5eb000065
:1044f000ecef0000e7e60000f6f90000f1ef000045
:10450000eae60000e6f40000f1e80000e7eb000056
:10451000e5f00000fafa0000f4f00000ebe600001d
:10452000e5f40000f0ea0000e7eb0000e6f0000030
:10453000f7f70000f4ef0000ebe60000e7f2000000
:10454000f0eb0000e7eb0000e5ef0000f6f70000fd
:10455000f6f00000ece60000e6f10000f0ec0000f0
:10456000e7ec0000e5ed0000f5f60000f6f10000d4
:10457000ede70000e6f00000f0ed0000e7ec0000e1
:10458000e5ec0000f4f60000f6f10000efe70000b3
:10459000e5ed0000efed0000e8ed0000e6eb0000c7
:1045a000f2f50000f6f20000f1e80000e5ec000092
:1045b000efed0000eaef0000e7eb0000f1f400008f
:1045c000f5f20000f2ea0000e5ea0000edec000080
:1045d000eaef0000e8ea0000f0f20000f5f2000067
:1045e000f4ec0000e6ea0000ecec0000eaf0000069
:1045f000eaea0000eff10000f4f20000f4ed000040
:10460000e6e80000ebeb0000eaf00000ebea000057
:10461000eff00000f2f20000f4f00000e7e8000024
:10462000ebeb0000eaf00000ecea0000edef000028
:10463000f2f20000f4f10000e8e80000eaea00000d
:10464000e8f00000edea0000efef0000f1f10000fb
:10465000f4f10000ebe80000eaea0000e8ef0000f7
:10466000edeb0000efed0000f1f10000f2f20000d0
:10467000ecea0000eaea0000e7ed0000edeb0000e4
:10468000efed0000f0f10000f1f20000edea0000b3
:10469000eaea0000e7ec0000edec0000f0ed0000bd
:1046a000f0f00000f1f10000efeb0000ebeb000098
:1046b000e7eb0000ebec0000f1ef0000f0f0000091
:1046c000f1f00000efec0000ebeb0000e8ea000086
:1046d000eaec0000f2ef0000f0f00000f0ef000064
:1046e000efed0000eceb0000eaea0000e7eb000071
:1046f000f2f00000eff10000f0ef0000efef00003b
:10470000edec0000ebea0000e6e80000f2f100004a
:10471000eff10000f1ef0000edef0000edec000024
:10472000eceb0000e6e70000f2f10000edf1000024
:10473000f2ef0000ecef0000efec0000edec000009
:10474000e6e60000f1f20000edf00000f2ef0000fc
:10475000ecf10000f6ed0000e7e00000d2e500001b
:104760000ffa0000f1e80000e6dc0000e80f0000ae
:10477000f5ef0000e7e10000d4e500000cf90000cf
:10478000f2e80000e5dc0000f0070000faf00000ad
:10479000e7e00000d2ea000000000000f2e80000bc
:1047a000e3db0000f6ff0000fcef0000e7e00000a4
:1047b000d4f10000fbfe0000f1e70000e2dd0000a4
:1047c000fefb0000faec0000e7e10000d6f7000075
:1047d000f7fa0000efe80000e2de000002fa000055
:1047e000f7eb0000e7e10000d9fa0000f6f700005f
:1047f000ece80000e2e1000004fa0000f5ea000045
:10480000e7e20000ddfa0000f5f40000ebe700004d
:10481000e2e3000003fa0000f2e80000e6e2000034
:10482000e1fa0000f4f20000eae70000e3e800002b
:1048300002fa0000f1e70000e6e30000e7f70000fd
:10484000f4f10000e8e60000e3ed0000fff90000ed
:10485000f1e70000e5e30000ecf60000f2f00000f4
:10486000e7e50000e3f10000fcf90000f1e70000db
:10487000e5e30000f1f50000f2f00000e7e50000dc
:10488000e2f60000faf90000f1e70000e5e30000bd
:10489000f4f20000f1f00000e8e30000e1f70000ae
:1048a000f7f70000f1e80000e6e30000f6f1000091
:1048b000f1ef0000eae30000e1f90000f5f7000085
:1048c000f1e80000e6e30000f7ef0000f0ef000081
:1048d000ebe50000e1f70000f2f60000f0ea00006e
:1048e000e7e60000f7ec0000efed0000ebe600006b
:1048f000e3f60000f0f50000f2ec0000e8e800004c
:10490000f6ea0000ebea0000eae50000e2f9000048
:10491000f5f60000f2ed0000eaec0000f5e800001a
:10492000eae80000ebe60000e6f60000f2f4000022
:10493000f1ef0000eaef0000f4e80000eae8000010
:10494000ebe70000eaf40000f2f20000f1ef0000f3
:10495000ebf60000f4e60000e2de0000e5fa0000fd
:10496000f1f40000efeb0000e7ea0000fcf90000c2
:10497000f4e60000e1dd0000e6fa0000f4f10000da
:10498000efea0000e6ec0000fafa0000f6e70000ab
:10499000e0dc0000e7f90000f5f20000ede70000c0
:1049a000e2ef0000fbfa0000f5e70000e0db0000aa
:1049b000ecf70000f6f10000ece60000e2f4000085
:1049c000f9fb0000f4e70000e0db0000f0f5000078
:1049d000f6f00000ebe50000e1f60000f7fb000058
:1049e000f4e70000e0dc0000f4f20000f6ef000065
:1049f000ebe30000e1f90000f5fb0000f2e7000046
:104a0000e0dc0000f5f10000f6ef0000ebe3000051
:104a1000e1fa0000f4fb0000f2e80000e0dd000035
:104a2000f6f10000f6ed0000ebe30000e2f9000013
:104a3000f4fa0000f2e80000e1e00000f5f1000007
:104a4000f5ed0000ebe30000e5f70000f2f70000f1
:104a5000f2ea0000e1e30000f5f10000f4ec0000f0
:104a6000ebe30000e8f60000f2f60000f2ea0000d6
:104a7000e2e70000f4f10000f2ec0000eae30000dd
:104a8000ebf50000f2f50000f1ea0000e2eb0000b7
:104a9000f2f00000f1ec0000eae30000eff20000a9
:104aa000f1f20000f1ea0000e3ef0000f1f0000095
:104ab000f0ec0000eae50000f0f10000f0f2000088
:104ac000f1eb0000e3f10000f1f00000f0ec000079
:104ad000eae50000f1f00000f0f10000f0eb00006a
:104ae000e5f20000f0f00000efec0000eae6000064
:104af000f1ef0000eff20000f1eb0000e6f2000041
:104b0000efef0000edeb0000e7e50000f2f1000040
:104b1000f0f20000f1eb0000e7f20000efef000020
:104b2000edeb0000e7e70000f2f00000eff100001d
:104b3000f1ea0000eaf20000efed0000edeb00000a
:104b4000e7ea0000f1f00000edf10000f1eb0000f9
:104b5000ebf10000eded0000edec0000e7ec0000f3
:104b6000f1ef0000ecf00000f1eb0000ecf00000d1
:104b7000eded0000edec0000e8ed0000f0ef0000ce
:104b8000ebef0000f0ec0000edef0000eded0000b9
:104b9000edec0000e8ef0000efef0000ebed0000af
:104ba000efed0000efef0000eced0000efec000097
:104bb000eaf00000efef0000ebed0000efed000089
:104bc000f1ed0000eced0000efec0000eaf1000078
:104bd000edef0000ebec0000eded0000f1ec00006b
:104be000eced0000efec0000ebf10000edef000059
:104bf000ebec0000eced0000f2ec0000ecec00004f
:104c0000efec0000ebf10000ecef0000ecec00003a
:104c1000ebec0000f2ec0000ecec0000efed00002b
:104c2000ecf10000eced0000ecec0000ebec00001f
:104c3000f1ec0000ebec0000efef0000edf1000004
:104c4000eced0000edec0000ecec0000f0ec0000fe
:104c5000ebec0000efef0000edf10000eced0000e8
:104c6000eded0000ecec0000efed0000ebec0000df
:104c7000eff00000eff00000eced0000eded0000c3
:104c8000edec0000ecec0000ebec0000eff00000bd
:104c9000eff00000edec0000efed0000edec0000a7
:104ca000ebec0000ebec0000eff00000f0f0000097
:104cb000edec0000efef0000edec0000eaec00008e
:104cc000ebec0000edf00000f0ef0000efec000076
:104cd000efef0000efec0000eaeb0000ebec00006f
:104ce000edf00000f0ef0000efec0000efef00004f
:104cf000efec0000eaeb0000ebec0000edf0000050
:104d0000efef0000efed0000efef0000f0ed00002e
:104d1000eaea0000ebec0000edf00000efed00002f
:104d2000efed0000efef0000f0ed0000eaea000018
:104d3000ebec0000edf00000efed0000efed000007
:104d4000efef0000f1ef0000eaea0000ebef0000f7
:104d5000eff00000ebe60000e6f70000f9f10000dc
:104d6000f0eb0000e3e10000f2f60000eff00000dd
:104d7000ebe50000e5f90000f9f10000f0ec0000bf
:104d8000e5e20000f5f20000eced0000ebe80000c9
:104d9000e6fb0000f6ef0000edeb0000e8e30000aa
:104da000f6f10000ecec0000ebe80000e6fb000090
:104db000f5ef0000edec0000eae60000f6f0000080
:104dc000ebeb0000ece80000e7f90000f4ef000076
:104dd000ecec0000eae70000f5ef0000ebea000071
:104de000ecea0000eaf60000f2ef0000eced000053
:104df000ebeb0000f2ed0000ebea0000ecea000053
:104e0000ecf40000f1ef0000ecef0000ebed00002f
:104e1000f1ed0000ebea0000edeb0000eff1000027
:104e2000f0ed0000ecef0000ebf00000f0ec000013
:104e3000ebea0000edeb0000f1ef0000efed000009
:104e4000edf00000ecf20000efec0000ebeb0000f6
:104e5000edea0000f2ec0000eded0000edf00000e6
:104e6000ecf40000edec0000ebeb0000edea0000dc
:104e7000f4eb0000ecec0000edf00000ecf50000bd
:104e8000ecec0000ebec0000edea0000f4eb0000bd
:104e9000ecec0000eff00000edf50000ecec0000a1
:104ea000ebec0000edeb0000f2ea0000ebeb0000a1
:104eb000eff00000edf50000ecec0000ebec000082
:104ec000edec0000f1ea0000ebeb0000eff0000079
:104ed000f0f40000edec0000ebec0000edef000062
:104ee000f0ea0000eaea0000edf00000f1f2000054
:104ef000edf00000efef0000efef0000ede6000046
:104f0000e3e30000e6e70000ec020000f7f4000035
:104f1000f1f00000eff10000ece60000e3e3000038
:104f2000e6e60000ed020000f7f40000f1ef0000fb
:104f3000edf10000ebe50000e1e10000e6ea000031
:104f4000f0000000f9f40000f2f00000eff20000c1
:104f5000eae30000dedc0000e8f00000f1ff000002
:104f6000f7f10000eff10000f4f40000eae30000c4
:104f7000dedd0000e8ef0000f1fb0000f7f10000cb
:104f8000eff40000f2f20000e8e30000e0de0000d1
:104f9000eaed0000f0f70000f7f10000f1f6000084
:104fa000f2f20000e8e30000e0e00000ebeb0000bc
:104fb000f0f40000f7f10000f1f70000f2f2000059
:104fc000e8e50000e1e00000ebea0000eff100009e
:104fd000f7f10000f1f70000f2f10000eae500004f
:104fe000e2e10000ebea0000edef0000f7f1000065
:104ff000f2f70000f2f10000eae60000e3e2000050
:10500000ebea0000eced0000f7f10000f4f700001f
:10501000f4f10000ebe60000e3e50000eaea00003e
:10502000ebec0000f6f10000f5f60000f4f10000f2
:10503000ebe60000e5e60000eaea0000ebeb00002a
:10504000f5f20000f5f50000f4f10000ece70000d7
:10505000e6e70000e8ea0000eaea0000f4f10000f8
:10506000f6f50000f4f10000ece70000e6e80000cf
:10507000e8ea0000e8ea0000f2f10000f6f40000bf
:10508000f4f10000ede80000e7ea0000e8ea0000c3
:10509000e8e80000f2f10000f7f40000f4f100008d
:1050a000ede80000e8ea0000e8ea0000e8e80000b7
:1050b000f1f10000f6f20000f2f10000efea00006a
:1050c000e8eb0000e7e80000e8e80000f0f100008d
:1050d000f6f20000f2f20000efeb0000eaeb000055
:1050e000e7e80000e8e80000eff10000f5f200005a
:1050f000f2f20000f0ec0000ebeb0000e7e700004c
:10510000e8e80000edf00000f5f40000f2f2000025
:10511000f1ed0000eceb0000e7e70000e8e800003c
:10512000edf10000f5f40000f1f10000f1ed0000f8
:10513000edeb0000e7e60000e7e80000edf100001d
:10514000f4f40000f1f10000f1ef0000efeb0000db
:10515000e7e60000e7e80000edf10000f1f20000f2
:10516000f1f00000f0f00000f1eb0000e7e70000d4
:10517000e6e80000edf10000f0f20000f1ef0000c1
:10518000f0f00000f1eb0000e8e70000e6e80000c6
:10519000eff10000eff10000f1ef0000eff100008f
:1051a000f2eb0000e8e80000e6e70000eff20000a4
:1051b000edf00000f1ef0000eff10000f4ec000072
:1051c000e8e80000e6e70000eff20000ecef000086
:1051d000f1ef0000edf10000f4ec0000eaea00005d
:1051e000e6e60000eff20000ecef0000f1ef000057
:1051f000edf10000f4ed0000eaea0000e7e600004f
:10520000eff40000eced0000f1ef0000edf1000024
:10521000f4ed0000ebea0000e7e60000eff4000028
:10522000ecec0000f0f00000edf10000f2ed000009
:10523000ebeb0000e8e60000eff20000ecec000011
:10524000eff00000edf10000f2ed0000ebeb0000ec
:10525000eae70000edf20000edec0000edf00000e8
:10526000eff20000f2ed0000eaeb0000eae70000d8
:10527000edf20000edeb0000edef0000eff20000ba
:10528000f1ed0000eaeb0000ebe80000edf10000ba
:10529000edeb0000edef0000eff20000f1ef000099
:1052a000eaea0000ebe80000edf10000efeb00009f
:1052b000ecef0000eff20000f1ef0000eaea00007e
:1052c000ecea0000edf10000efeb0000ecef000075
:1052d000eff20000f2ef0000eaea0000eceb000061
:1052e000edf10000efeb0000ebed0000eff200004d
:1052f000f2f00000eae80000ebeb0000edf1000046
:10530000efec0000ebed0000eff10000f4f0000026
:10531000ebe80000ebeb0000edf00000efec00002c
:10532000ebec0000edf10000f4f10000ebe8000010
:10533000ebec0000edf00000efec0000ebeb000008
:10534000edf10000f2f10000eceb0000ebeb0000ef
:10535000ecec0000ecf20000edec0000ecef0000e3
:10536000f0ef0000f2ec0000ebeb0000ebec0000d3
:10537000ecf20000edeb0000eced0000f0f00000be
:10538000f2eb0000ebeb0000ebeb0000ecf20000b6
:10539000edec0000ebed0000eff00000f4ec00009d
:1053a000ebeb0000ebeb0000edf20000efec000097
:1053b000ebec0000eff10000f4ed0000eaeb000080
:1053c000ebeb0000eff20000efec0000ebeb000075
:1053d000eff20000f2ed0000eaea0000ebeb000063
:1053e000eff10000efec0000ebeb0000eff4000049
:1053f000f2ef0000eaea0000ebeb0000f0f0000042
:10540000f0ec0000ebeb0000eff40000f2ef000026
:10541000eaea0000eaeb0000f0f00000efec000028
:10542000ebea0000edf50000f2ef0000ebea00000f
:10543000eaeb0000f0ef0000efec0000ebea000008
:10544000edf50000f2ef0000ebe80000eaec0000f0
:10545000f0ef0000efec0000ebea0000edf40000dc
:10546000f2ef0000ebe80000eaec0000f0ef0000d3
:10547000edec0000ebea0000edf40000f2ef0000bc
:10548000ebe80000eaec0000f0ef0000edec0000bb
:10549000ebeb0000eff40000f2f00000ebe800009e
:1054a000eaed0000f0f00000edeb0000ebeb000097
:1054b000eff20000f2f00000ece80000eaed00007e
:1054c000f0f00000edeb0000eaeb0000eff200006e
:1054d000f2f10000ece80000eaed0000eff000005f
:1054e000efeb0000eaeb0000eff10000f4f2000047
:1054f000edea0000e8ec0000eded0000ecea000051
:10550000e6e70000eff70000f6f40000efea000025
:10551000e8ec0000eded0000edea0000e6e600003a
:10552000eff60000f5f50000f0ea0000e8ec0000fe
:10553000ecef0000edeb0000e6e60000edf6000009
:10554000f6f50000f1eb0000e8ec0000eced0000e7
:10555000ecea0000e8e70000ecf50000f5f50000db
:10556000f0ed0000ebec0000ecec0000eceb0000d8
:10557000eae70000ebf40000f5f50000f1ef0000b1
:10558000ebeb0000ebec0000eceb0000eae70000c6
:10559000eaf20000f4f40000f1ef0000ebeb000091
:1055a000ebec0000ecec0000ebe70000e8f10000a1
:1055b000f4f40000f2f00000eceb0000eaec000074
:1055c000eced0000ece80000e8ef0000f2f4000071
:1055d000f4f10000eceb0000eaeb0000eced000061
:1055e000ece80000e8ed0000f1f40000f5f1000047
:1055f000edeb0000eaeb0000ecef0000edea00004c
:10560000e8ec0000f0f40000f5f20000edeb000023
:10561000e8ea0000ecef0000edea0000e7eb000034
:10562000eff20000f6f40000efeb0000e8ea000003
:10563000ecf00000edeb0000e7ea0000edf1000007
:10564000f6f40000f0eb0000e8ea0000ebf00000e8
:10565000efec0000e8ea0000edf00000f5f40000d7
:10566000f1ec0000eae80000ebf00000efec0000d5
:10567000e8e80000ecf00000f5f40000f2ec0000b7
:10568000eae80000ebef0000efed0000e8e80000c2
:10569000ecef0000f4f40000f2ed0000eae8000096
:1056a000ebef0000eded0000eae80000ecef000099
:1056b000f4f20000f2ef0000ebea0000ebed000076
:1056c000eded0000eae80000ecef0000f2f1000070
:1056d000f2ef0000ecea0000ebed0000ecef000060
:1056e000ebea0000ecef0000f1f10000f2f0000046
:1056f000ecea0000ebec0000eced0000ebea00004f
:10570000eced0000f1f10000f2f00000edeb000024
:10571000eceb0000ebed0000ebea0000eced00002c
:10572000f0f00000f2f00000edec0000eceb000007
:10573000ebed0000ecea0000edef0000eff0000000
:10574000f1f00000efed0000edeb0000eaec0000ee
:10575000eceb0000edef0000edef0000f1f00000d9
:10576000efef0000efea0000eaec0000eceb0000d5
:10577000efef0000edef0000f0f00000efef0000b1
:10578000efea0000eaeb0000eceb0000eff00000b5
:10579000eced0000f0f00000eff00000f0eb000096
:1057a000e8eb0000ebeb0000f0f00000eced000097
:1057b000eff00000eff00000f0eb0000e8ea00007e
:1057c000ebeb0000f0f10000ecec0000eff000006b
:1057d000eff10000f1eb0000e8ea0000ebeb000065
:1057e000f0f10000ecec0000edf00000eff1000043
:1057f000f1ec0000e8ea0000ebeb0000f0f1000043
:10580000ecec0000edef0000f0f10000f1ec000026
:10581000e8ea0000eaeb0000f0f10000edeb000028
:10582000edef0000f0f10000f1ec0000eaea00000a
:10583000eaeb0000f0f10000edec0000ecef0000fe
:10584000f0f10000f1ed0000eaea0000eaeb0000f0
:10585000eff10000edec0000ecef0000f0f10000d3
:10586000f1ed0000eaea0000ebeb0000eff00000d1
:10587000edec0000ecef0000f0f10000f1ed0000b5
:10588000eaea0000ebeb0000eff00000edec0000b6
:10589000eded0000f0f10000f0ed0000ebea00009b
:1058a000ebeb0000eff00000edec0000eded000090
:1058b000f0f10000f1ed0000ebeb0000ebec00007c
:1058c000eff00000edec0000edef0000f0f1000063
:1058d000f1ed0000ebeb0000ebec0000efef00005f
:1058e000ecec0000edef0000f0f10000f0ed000046
:1058f000ebeb0000ebec0000efef0000ecec000045
:10590000edef0000f0f00000f0ed0000ebeb000028
:10591000ecec0000efed0000ecec0000ecef000020
:10592000f0f00000f0ed0000ebeb0000eced00000b
:10593000efed0000ecec0000ecef0000f0f00000f8
:10594000f0ed0000eced0000eceb0000eae50000fb
:10595000ecfa0000f0ef0000edeb0000e7ec0000d7
:10596000faed0000eceb0000eae60000ecf90000c4
:10597000efed0000ecea0000e8f20000f7ed0000b7
:10598000ebea0000e8e70000f1f60000edec0000b3
:10599000edeb0000eaf50000f5ec0000eaeb00009a
:1059a000eae80000f4f40000edeb0000eceb00008e
:1059b000ebf60000f2ec0000eaeb0000eae8000081
:1059c000f5f10000edeb0000eceb0000ebf7000060
:1059d000f0ec0000e8eb0000ebea0000f5f000005e
:1059e000edeb0000eceb0000ecf70000efec00004a
:1059f000e8eb0000ebeb0000f4ed0000edeb000045
:105a0000eceb0000edf60000efec0000eaeb00002c
:105a1000ebed0000f4ed0000edeb0000eceb00001e
:105a2000eff50000edeb0000eaeb0000ecef00000a
:105a3000f2ec0000edec0000ecec0000f1f40000f2
:105a4000edeb0000eaeb0000ecf00000f1ec0000f0
:105a5000ecec0000ecec0000f2f20000edeb0000da
:105a6000eaeb0000ecf20000f0ec0000ecec0000cf
:105a7000eceb0000f2f10000edeb0000eaeb0000bf
:105a8000ecf40000f0ec0000ecec0000eceb0000ab
