:020000040000fa
:080000000001040000000000f3
:020000040000fa
:100200008fed21000079220000018800000000002d
:100210000c00070080c02000010020001100070032
:10022000000020000000e000020032000000020098
:10023000000000005a0c0200000000000040da003c
:100240000000fe004440a900000020000000e00083
:100250000300320000002000a00188004440a800f4
:100260000000060091018800800078000000eb008b
:1002700015003700e280400032a0b4009101ba00be
:10028000e280400032a0b4009102ba00e280400057
:1002900032a0b4000002eb00472bde00f507b200ed
:1002a000602ce10004003a000059eb008301e900f2
:1002b000fdff3e00040037006128e100010032002c
:1002c0000082eb00040007001101ba000200e00008
:1002d000e8ff3a00000006003159ba008301e90046
:1002e0000c0032002159ba008301e90008003200f5
:1002f0000400e00003003a00e280400032a0b400b5
:10030000f5ff370011d9ba008301e900faff3a007e
:100310008100e800e180400032a0b4000000060047
:100320008cc0a90011e1a90084c0a900000006004a
:1003300084c0a900e7416000710920009140780065
:1003400082cfb30082c0600083c070008000fd00d7
:1003500097e0b7008000fd00680060004300de0009
:100360004600dd00c1082000914078000164a10032
:1003700080c07000010078008ce0b700000006002b
:100380000621ef0061088800800888001061a9003c
:10039000000006009183a800000006009183a800d9
:1003a000801c880000000600901c8800a11c8800aa
:1003b00000000600401ade0005002000040378005b
:1003c000e24f50001300320005003c000004e00042
:1003d00009003200e14f50001e003a0009003700ca
:1003e000e44f5000130032000e003500e54f50007e
:1003f00018003a001300370001188800141888000c
:1004000016003700411888005418880062188800c8
:10041000000006008118880094188800a21888003f
:1004200000000600c1188800d4188800e21888006f
:10043000000006000119880014198800221988009c
:1004400000000600411988005419880062198800cc
:10045000000006000118880016188800221888007d
:1004600000000600401ade00050020000004e00045
:1004700006003200e14f500004003a00c119880024
:10048000d4198800e219880000000600811988004c
:1004900094198800a219880000000600e14f50005e
:1004a00003003200e24f5000030032000400370026
:1004b000f11a880000000600711a8800000006008a
:1004c000711b8800000006000004e00004003200f8
:1004d000e14f500002003a00f11b880000000600c6
:1004e000711c8800000006009623ef008760a900b9
:1004f000c01c8800e7c16000c419dd00a1c0bf00b6
:10050000f2c8b3000240600003407000a1e0b700f1
:10051000e8806000c308de00c308dd008fc0bf00b4
:100520000034a100014070008fe0b7000000060019
:08053000801c88000000060099
:020000040000fa
:0200000401f009
:04000000e6ff000017
:020000040000fa
:0200000401f009
:04000800fcff0000f9
:020000040000fa
:0200000401f009
:04001400ffff0000ea
:020000040000fa
:10000800940c0000940c0000940c0000940c000068
:10001800940c0000940c0000940c0000940c000058
:10002800940c0000940c0000940c0000940c000048
:10003800940c0000940c00003e0b0000940c00008f
:10004800940c0000940c0000940c0000940c000028
:10005800940c0000940c0000940c0000940c000018
:10006800940c0000940c0000940c0000940c000008
:10007800940c0000940c0000940c0000940c0000f8
:10008800940c0000940c0000940c00005a0400002a
:10009800940c0000940c0000940c0000940c0000d8
:1000a800940c0000940c0000940c0000940c0000c8
:1000b800940c0000940c0000940c0000940c0000b8
:1000c800940c0000940c0000940c0000940c0000a8
:1000d800940c0000940c0000940c0000940c000098
:1000e800940c0000940c0000940c0000940c000088
:0800f800940c0000940c0000c0
:020000040000fa
:10010800940c0000940c0000940c0000940c000067
:10011800940c0000940c0000940c0000940c000057
:10012800940c0000940c0000940c0000940c000047
:10013800940c0000940c00003e0b0000940c00008e
:10014800940c0000940c0000940c0000940c000027
:10015800940c0000940c0000940c0000940c000017
:10016800940c0000940c0000940c0000940c000007
:10017800940c0000940c0000940c0000940c0000f7
:10018800940c0000940c0000940c00005a04000029
:10019800940c0000940c0000940c0000940c0000d7
:1001a800940c0000940c0000940c0000940c0000c7
:1001b800940c0000940c0000940c0000940c0000b7
:1001c800940c0000940c0000940c0000940c0000a7
:1001d800940c0000940c0000940c0000940c000097
:1001e800940c0000940c0000940c0000940c000087
:0801f800940c0000940c0000bf
:020000040000fa
:100538000000fa00030007008f60a8000080fa009e
:10054800000006000400fa000000eb00904288005a
:100558000000eb00a04288000000eb00b0428800d9
:1005680000102000c0428800202821008042880016
:100578000000eb00e04288000000eb00f042880039
:100588000000eb00004388000010200010438800a2
:1005980020882000d04288000000eb001007980057
:1005a8002a0037001e0090006a00b9008000780019
:1005b80020882000808040000080eb0080087800c0
:1005c8001e0090006a00b9008000780020282100f1
:1005d800808040000080eb00800878000000eb007d
:1005e800000f7800130037001e0090001e017800ed
:1005f8006a00b900020040008080e80020882000de
:100608008080400000c0eb00804878001e00900009
:100618001e0178006a00b900020040008080e800ee
:10062800202821008080400000c0eb00804878002e
:100638001e0fe800700020009e0f1000eaff340033
:100648001e0090000000e800100798009e0090002f
:10065800c0428000808f5000d2ff39000080fa002d
:10066800000006000400fa00000f78001e00780061
:10067800a00090001e00780030009000808f50008d
:100688000a0036001e007800c00090001e007800a6
:1006980020009000808050001e00780030009000fc
:1006a80080804000110798000f0037001e00780076
:1006b800b00090001e00780020009000808f50004d
:1006c800070036001e007800b00090001e00780079
:1006d8002000900080805000110798000200370029
:1006e8000000eb00100798001e0090000080fa0040
:1006f800000006000600fa0010079800210798007d
:100708001e009000100178001e009000300090003c
:100718006a00b900800041002e00900010007800a7
:10072800800878000040eb00004f78001000370088
:100738001e009000100178001e009000300090000c
:100748006a00b900000141009e81fb001e80fb0089
:10075800ae0090000080e800010040009040780062
:100768000380e80002004000014878001e4fe800be
:1007780070c0b3009e4f1000edff36001e009000c1
:10078800300090008000e8001e00900031009800c2
:100798001e009000b00090001e00900040009000e5
:1007a800808f5000030039009e0090000000eb008d
:1007b800b00098001e009000100090008000e80033
:1007c8001e009000110098000080fa00000006004a
:1007d8000600fa0010079800210798001e009000f4
:1007e800100178001e009000200090006a00b900f7
:1007f80000004100900078002e0090000108780069
:100808000040eb00004f7800100037009e81fb008d
:100818001e009000100178001e009000200090003b
:100828006a00b900800041001e80fb000080e800db
:100838000100400010417800ae0090000380e800fd
:1008480001004000024878001e4fe80070c0b30065
:100858009e4f1000edff36001e0090002000900013
:100868008000e8001e009000210098001e00900003
:10087800a00090001e00900040009000808f500063
:10088800030039009e0090000000eb00a0009800d3
:100898001e009000100090008000e9001e009000eb
:1008a800110098000080fa00000006003600f800e9
:1008b800809fbe00829fbe00849fbe00869fbe00b0
:1008c8003400f80000002000a00188000400fa00ad
:1008d8008760a90096c3bf00614060000004e00083
:1008e80038003200001c80004200de00100798002b
:1008f800301c8000004f78009e009000202f2000c0
:10090800808f500007003a0070c0b3009e4f10005f
:100918002900320080c0b3009e4f100001003a0049
:10092800250037009e009000f00f2000808f5000b7
:10093800040036009e009000f01f2000808f5000b9
:100948001d0036001e00900070438800301c800097
:1009580070e8b700301c80004800de0071e8b7007e
:10096800401c800072e8b700401c80004800de0090
:1009780073e8b700501c800074e8b700501c800072
:100988004800de0075e8b700601c800076e8b70014
:10099800601c80004800de0077e8b7000085200072
:1009a800e186200053ff0700411780000000240063
:1009b80000807000401788009603a9000000eb0033
:1009c800701c880096c3bf00624060000004e0000d
:1009d8002b003200001c80004200de001007980047
:1009e8009e009000f00f2000808f50000400360019
:1009f8009e009000f01f2000808f50001d003600e0
:100a08001e00900070438800301c800070e8b7001a
:100a1800301c80004800de0071e8b700401c8000f0
:100a280072e8b700401c80004800de0073e8b70099
:100a3800501c800074e8b700501c80004800de009d
:100a480075e8b700601c800076e8b700601c80007d
:100a58004800de0077e8b70000852000e186200026
:100a680024ff070041178000000024000080700068
:100a7800401788009623a9000000eb00f01b8800af
:100a880096c3bf000042b2000004e0000400320038
:100a98003efe070097e3a90097c3a90096a3a90003
:100aa8000080fa003400f9004f03be004f02be0078
:100ab8004f01be004f00be003600f900004006009e
:100ac8000000fa00e04280000000e0002d00320043
:100ad800701b80004300de000000a200610060007f
:100ae8000004e000270032009643a900000420001b
:100af800201b8800a08520008187200034ff070084
:100b0800c0438000db000700001b88007ac8bf00d4
:100b18008080fb007bc8bf000080fb004800dd0030
:100b280000807000301b88007cc8bf008080fb00fc
:100b38007dc8bf000080fb004800dd000080700019
:100b4800401b88007ec8bf008080fb007fc8bf00b4
:100b58000080fb004800dd0000807000501b88000a
:100b680080c8bf008080fb0081c8bf000080fb00f8
:100b78004800dd0000807000601b880080002000b5
:100b8800701b8800e04280000000e0002d00320069
:100b9800f01a80004300de000000a200610060003f
:100ba8000004e000270032009663a900000420003a
:100bb800a01a8800a08520008187200004ff070074
:100bc800c0438000ab000700801a88007ac8bf00c5
:100bd8008080fb007bc8bf000080fb004800dd0070
:100be80000807000b01a88007cc8bf008080fb00bd
:100bf8007dc8bf000080fb004800dd000080700059
:100c0800c01a88007ec8bf008080fb007fc8bf0074
:100c18000080fb004800dd0000807000d01a8800ca
:100c280080c8bf008080fb0081c8bf000080fb0037
:100c38004800dd0000807000e01a88008000200075
:100c4800f01a8800e04280000000e0002d00320029
:100c5800701a80004300de000000a20061006000fe
:100c68000004e000270032009683a9000004200059
:100c7800201a8800a085200081872000d4fe070064
:100c8800c04380007b000700001a88007ac8bf00b4
:100c98008080fb007bc8bf000080fb004800dd00af
:100ca80000807000301a88007cc8bf008080fb007c
:100cb8007dc8bf000080fb004800dd000080700098
:100cc800401a88007ec8bf008080fb007fc8bf0034
:100cd8000080fb004800dd0000807000501a88008a
:100ce80080c8bf008080fb0081c8bf000080fb0077
:100cf8004800dd0000807000601a88008000200035
:100d0800701a88000080fa00000006000000fa004f
:100d18000085200053fe07000000e0003f0032007d
:100d28000085200041862000a9fe0700214380009d
:100d380030f68000808f5000050039002143800084
:100d480020f68000808f500001003e0033003700fd
:100d5800a0cab30094feb700a0cab30095feb700be
:100d6800d0c0b30096feb7000040eb0097feb70076
:100d780040c0b30098feb7002043800099feb7003a
:100d8800204380004800de009afeb7000040eb00d8
:100d98009bfeb7000040eb009cfeb70066c8bf0092
:100da8009dfeb70067c8bf009efeb70068c8bf00b9
:100db8009ffeb70069c8bf00a0feb7006ac8bf00a1
:100dc800a1feb7006bc8bf00a2feb7006cc8bf0089
:100dd800a3feb7006dc8bf00a4feb7001101200034
:100de80040e9210052020700a0f58800a0f5800024
:100df800a5feb700a0f580004800de00a6feb700fb
:100e08003101200040e92100fa0107004117800064
:100e18000000240000807000401788000080fa005d
:100e2800000006000400fa00100798000040eb00dc
:100e3800004f7800070037001e80fb009e009000de
:100e48000080e800810040000040eb008048780006
:100e58001e4fe80070c0b3009e4f1000f6ff36002a
:100e68009e0090000000eb00800878000080fa00e7
:100e7800000006000200fa00000f7800f0032000ce
:100e88001e006000c200dd00007c20001e00600023
:100e98004500dd00008040000080fa0000000600e8
:100ea8000000fa00a7fd070000c0200039fd070078
:100eb80090c3bf000080fb004500de000080fb00ff
:100ec800e30f5000faff3400912820000000eb00e7
:100ed80033fd07006011b8008000eb000040eb0014
:100ee80032fd07006011b8008000eb0010c0b300ad
:100ef8002efd07006011b8008000eb0020c0b30091
:100f08002afd07006011b8008000eb0030c0b30074
:100f180026fd07006011b8008000eb0040c0b30058
:100f280022fd07006011b8008000eb000040eb00d4
:100f38004afd07006011b8008000eb0010c0b30044
:100f480046fd0700310020000040eb0051fd07007e
:100f58003100200010c0b3004efd07003100200012
:100f680020c0b3004bfd0700410020000040eb000b
:100f780053fd07004100200010c0b30050fd0700da
:100f8800e1ff2f003002200055fd070000802000ff
:100f980065fd070090c3bf0001ceb30001406000ab
:100fa8000004e000fbff3a000080fa0000000600a1
:100fb8000800fa0010079800210798002e009000fa
:100fc8000000e0007a0032001e0090001040780017
:100fd8000080fb00300798003e009000e30f5000af
:100fe800110032003e009000e30f500007003c0063
:100ff8003e0090000000e0002f0032003e0090000c
:10100800e10f500068003200690037003e00900090
:10101800e50f50003f0032003e009000e60f500000
:1010280053003200620037001e0090000000e80004
:10103800104078008080fb001e0090000080e800cf
:10104800104078000080fb004800dd000080700040
:1010580050f488000000eb00000f78000b00370008
:101068009e0178009e0078001e00900000804000dd
:1010780065004000104178008380e800a0e8210066
:1010880000804000024878001e0fe8007000200031
:101098009e0f1000f2ff3400a0852000a1e8210077
:1010a80094fd0700411780000000280000807000b0
:1010b800401788003e003700a0cab30094feb7006e
:1010c800a0cab30095feb70010c0b30096feb700e3
:1010d8000040eb0097feb70010c1b30098feb700c0
:1010e8005100200040e9210091010700a0f5880087
:1010f800a0f5800099feb700a0f580004800de004a
:101108009afeb7007100200040e92100390107006c
:10111800270037001e0090000000e800104078000b
:101128008080fb001e0090000080e80010407800de
:101138000080fb004800dd000080700030f6880069
:101148001e00900065004000104078008080fb0081
:101158001e00900066004000104078000080fb00f0
:101168004800dd000080700020f68800100037007d
:101178001e0090000000e800104078000004e00025
:1011880005003a001017800071ff2f000100600071
:101198001017880006003700101780000030a000e4
:1011a800101788000200370010c0b300d6feb70041
:1011b8000080fa00000006000000fa00070037006f
:1011c800d600070015000700e14f500003003a0061
:1011d80021e4800060c8210075ff0700a016800088
:1011e8004900de00610060000000e000f4ff32000a
:1011f8000080fa00000006000000fa000040eb0042
:10120800ccfeb7000000eb0070f688000000eb0091
:1012180040f488000080fa00000006000600fa008a
:10122800204798000040eb00004f7800ccdebf005c
:101238000080fb00200798002e009000e30f50006c
:1012480039003200ae009000e38f50000a003c00e5
:101258002e009000e10f50001f003200ae009000f9
:10126800e18f500028003c002e0090000000e000b4
:101278000b0032006f003700ae009000e58f500081
:101288004b0032002e009000e50f5000330035006f
:10129800ae009000e68f50004f0032006500370026
:1012a800ae409000a0cab30080cf500005003a00bd
:1012b80010c0b300ccfeb7002e40900082fcb700ef
:1012c800020037000040eb00ccfeb7000040eb0006
:1012d800004f78005b003700ae409000a0cab30012
:1012e80080cf500005003a0020c0b300ccfeb70004
:1012f8002e40900083fcb700520037000040eb00fe
:10130800ccfeb7004f0037002e4090000080fb0055
:1013180020e4880030c0b300ccfeb7000040eb00ea
:10132800004f78004700370021e480002e409000ed
:101338000080fb004800dd000080400020e48800b9
:101348000000eb0070f6880040c0b300ccfeb70088
:101358000040eb00004f78003a00370070f680003c
:10136800e400400020c8210000804000ae4090000a
:101378000148780070f680000000e80070f68800e8
:1013880021e4800070f68000808f500003003a004e
:1013980050c0b300ccfeb7000200370040c0b30015
:1013a800ccfeb7000040eb00004f78002500370066
:1013b8000000eb0030f488002e4090000080fb0015
:1013c80030f4880060c0b300ccfeb7000040eb00ea
:1013d800004f78001b00370031f480002e40900049
:1013e8000080fb004800dd000080400030f48800e9
:1013f8000040eb00ccfeb70020e48000e400400091
:1014080020c82100ca00070040f4880031f4800099
:1014180040f48000808f500003003a0010c0b300f1
:10142800004f78000700370020c0b300004f780055
:10143800040037000040eb00ccfeb7000040eb0092
:10144800004f78001e80fb000080fa0000000600b4
:101458000000fa000080eb0040158800911680001b
:10146800f06f200000807000901688003116800010
:10147800f0ff2d0000806000301688009116800073
:10148800f07f2e000080600090168800f116800022
:1014980070ff2f0000806000f01688002117800080
:1014a800f0ff21000080600020178800911680005e
:1014b800f00f20000080700090168800111780003f
:1014c80070ff2f000080600010178800411780000f
:1014d800f0ff270000806000401788004117800057
:1014e800f0ff2b000080600040178800b1168000d4
:1014f8000080200000807000b0168800b1168000bf
:10150800f0ff2e0000806000b0168800b016800042
:10151800b01688000080fa00000006000200fa00f9
:1015280091168000f00f200000807000901688004f
:10153800b11680000080200000807000b01688007e
:10154800b1168000f07f2f0000806000b016880080
:10155800a0168000004f7800a0168000004f780089
:10156800b11680000080200000807000b01688004e
:101578001e80fb000080fa00000006000200fa004e
:10158800004f78009116800000f02f000080600066
:1015980090168800b1168000f0ff2e0000806000d1
:1015a800b0168800a116800000f02f00808060002f
:1015b8001e80fb0000807000b0168800b116800005
:1015c8000000210000807000b0168800b11680006d
:1015d800f0ff2e0000806000b01688009116800091
:1015e800f00f200000807000901688000080fa003c
:1015f800000006000600fa0010079800210798006e
:101608000000eb00000f78000b003700a0168000e8
:101618004a00de00610060000000e000fbff3a00c5
:101628009e0078001e009000008040001040780066
:10163800d2ff07001e0fe8002e0090009e0f10003a
:10164800f2ff39000080fa00000006000000fa00ee
:1016580031fb0700c0ff2f0033fb070091e4200097
:1016680050f82f0044fb07008cc0a8000080fa0047
:1016780000000600809fbe003400f8000000200033
:10168800a00188000000fa00c1debf000040e800a9
:10169800c1feb700c1debf00f44f50000a0036009b
:1016a8000040eb00c1feb70041178000f0ff2700a3
:1016b800008060004017880041178000f0ff2b0071
:1016c8000080600040178800c0debf000040e800ce
:1016d800c0feb70001ec210091407800c0c2b30001
:1016e80080cf50000d0036000040eb00c0feb70070
:1016f800a0f680000000e800a0f68800c2debf0067
:101708000040e800c2feb700c2debf00f94f50003b
:10171800020036000040eb00c2feb70084c0a900fa
:101728000080fa003400f9004f00be0000400600b7
:101738000400fa00000f7800110798000080eb0001
:1017480090f688000000eb0080f68800270037003c
:1017580090f680004800de008080fb0090f6800054
:101768004800dd000080700090f6880080f6800058
:101778001e004000104078008080fb0090f680003a
:101788000080680090f6880090f680000080fb00da
:101798004400de008080fb0090f680000080680036
:1017a80090f6880090f680004800dd00c400dd0057
:1017b80090f680000080680090f6880091f680001e
:1017c800f00f2000008060004400dd0000004000b1
:1017d8008000780090f680000080680090f688000d
:1017e80080f680000000e80080f6880081f680001e
:1017f8001e009000808f5000d5ff390090f68000c1
:081808000080fa000000060058
:020000040000fa
:10181000b61e00000a00000000000000c01e00000c
:1018200004000000020000000000000000000000b2
:10183000d41e00000200000000000000c41e0000d2
:101840000400000002000000ff0100000100000091
:10185000500800003214000000000000c81e000004
:101860000400000000000000cc1e00000400000086
:10187000020000000000000000000000821c0000c8
:101880001202000000000000d01e00000400000052
:1018900000000000d61e0000020000000200000050
:1018a00000000000941e0000220000000000000064
:0418b0000000000034
:020000040000fa
:1018b4000000fa00000037001efb0700e5fe0700e9
:1018c40063ff070077fd070051168000f0ff2d002d
:1018d40000806000501688001117800070ff2f00f0
:1018e400008060001017880044fe07000040eb00f1
:1018f400d6feb700d6debf00e14f5000eeff320047
:10190400d6debf000080fb000000e00001003200d2
:10191400e9ff37006bfc0700fdfc070027fe07000a
:04192400f4ff370095
:020000040000fa
:041928000000fe00bd
:00000001FF
