:020000040000fa
:080000000001040000000000f3
:020000040000fa
:10020000cf55220080792200000188000000000004
:10021000050007000c000700b8a90200000000005c
:100220000040da000000fe004440a900c0042000a5
:100230000000e0000300320010002000a001880050
:100240004440a8000000060020ba2a000100200057
:100250001600370062004000e080480091018800ed
:100260009001ba0062004000e080480091018800df
:100270009002ba0062004000e08048000002eb00fb
:100280006028e10005003a008301e900070033001f
:10029000038009000059eb00040037006128e100e9
:1002a000010032000082eb00050007009101880088
:1002b0001001ba000200e000e6ff3a00000005006d
:1002c000910188008002780062004000e0804800d0
:1002d0003559ba008301e900080032002559ba00f7
:1002e0008301e900050032000400e000f4ff320061
:1002f00015d9ba008301e900f1ff3a0000000600b9
:10030000889fbe00f04680000000e000010032003f
:1003100000000100c04680000000e0000100320043
:1003200000000100b04280000000e0000100320047
:1003300000000100804280000000e0000100320067
:1003400000000100e048e20027003a00d0468000ab
:10035000e14680000004eb00d260260093012000fb
:100360005f000700f2352f00e3c6230000004100c4
:10037000818049000804e800e80f5400f6ff3a00c5
:10038000d0468800e14688000004eb008985200003
:10039000d260260093012000d0468000e146800014
:1003a0004f000700f2352f00e3c623000000410094
:1003b00081804900d0468800e1468800809cbe00cc
:1003c0000804e80000022000800f5400f0ff3a000b
:1003d000a0468000b146800090428800a14288007b
:1003e00010c0b300e0e8b700d260260093012000ff
:1003f000d0468000e146800039000700f2352f002a
:10040000e3c623000000410081804900d0468800f7
:10041000e1468800924280000201d000e203b2006f
:100420008201410082852000028141001202be004b
:1004300094428800a54288000089be009042800056
:10044000a14280000100780000f0a1004f04be002e
:1004500000000600881f780000047800f046800045
:100460000000e0000100320000000100e068ef0041
:10047000c04680000000e0000100320000000100e2
:100480006140b800d0468800e14688004f047800fb
:10049000000006006022b800060220000000d00024
:1004a0008180d2000482d2008582d2000000a000a8
:1004b0000202520083825a0003003b000202420003
:1004c00083824a000000a1000603e900f3ff3a001e
:1004d00000000600efff07000400be000000060059
:1004e000020ab900001bb9000200b80081004200f6
:1004f0008100430000000600431588005415880061
:100500002215880011158800001588000000d10010
:100510006140600000404000012a200091407800c6
:100520000114a10080c0700001007800a0e2b700b3
:100530000000060030158800000006000080fb0067
:1005400000004000012820006080780000000600c4
:100550008920a900c401dd000347b200810a200000
:1005600091407800f2c8b30082c0600083c0700080
:100570008000fd00a8e0b7008000fd00680060007a
:100580004300de0000404000110920009140780047
:100590000114a10080c070000100780091e0b70054
:1005a0000000060022128800001288001112880044
:1005b0004312880064128800000006009183a8009e
:1005c000000006009183a800801c8800000006003f
:1005d000901c8800a11c880000000600401ade0064
:1005e0000500200004037800e24f500013003200a1
:1005f00005003c000004e00009003200e14f50001b
:100600001e003a0009003700e44f5000130032008a
:100610000e003500e54f500018003a001300370077
:100620000118880014188800160037004118880047
:10063000541888006218880000000600811888009d
:1006400094188800a218880000000600c1188800cd
:10065000d4188800e21888000000060001198800fc
:10066000141988002219880000000600411988002a
:1006700054198800621988000000060001188800db
:10068000161888002218880000000600401ade00b4
:10069000050020000004e00006003200e14f500099
:1006a00004003a00c1198800d4198800e2198800b2
:1006b000000006008119880094198800a21988009a
:1006c00000000600e14f500003003200e24f5000ee
:1006d0000300320004003700f11a88000000060011
:1006e000711a880000000600711b880000000600d7
:1006f0000004e00004003200e14f500002003a0024
:10070000f11b880000000600711c88000000060034
:100710009623ef008760a900c01c8800c409dd0093
:100720000347b200a1c0bf00f2c8b300024060009e
:1007300003407000a1e0b700e8806000c308de005d
:1007400081c0400081c0400081c040008fc0bf0018
:100750000034a100014070008fe0b70000000600e7
:10076000801c8800000006008d00a90021e2a9007d
:100770008500a900000006008500a900e74160008f
:10078000810920009140780082cfb30082c06000d0
:1007900083c070008000fd0098e0b7008000fd007d
:1007a000680060004300de00d1082000914078001e
:1007b0000104a10080c07000010078008de0b70046
:1007c00000000600101188000111880000000600da
:1007d0008cc0a90011e1a90084c0a9000000060096
:1007e00084c0a900e74160007109200091407800b1
:1007f00082cfb30082c0600083c070008000fd0023
:1008000097e0b7008000fd00680060004300de0054
:1008100000404000004040000040400000404000d8
:100820000040400000404000c10820009140780096
:100830000164a10080c07000010078008ce0b70066
:10084000000006000621ef0061088800800888008b
:100850001061a900000006008700a9008720a900f8
:10086000e7416000010a20009140780082cfb30088
:1008700082c0600083c070008000fd00a0e0b7006f
:100880008000fd004301de004311dd000247b2009d
:10089000010a200091407800f3c8b30083c06000d3
:1008a00082c070008000fd00a0e0b7008000fd0065
:1008b000680160004311de00f108200091407800db
:1008c0000104a10082c070008000fd008fe0b7002d
:1008d0008000fd000008b2004700de00004040003c
:1008e000f1082000914078000114a10080c0700040
:1008f000010078008fe0b70000000600f2108800c9
:10090000b0108800c1108800000006008000780048
:1009100016c2bf0066406000e64f50000100320082
:10092000f10fb200d11088000000060016c2bf000f
:1009300066406000e64f500002003a00e010800080
:1009400000000600e0108000f00fb200000006007a
:1009500018c2bf0061006000000006000200fa003b
:10096000e0298100000f78001e007800e10f5000a0
:100970004b0032001e007800e10f500007003900e4
:100980001e007800e20f5000590032001e0078006f
:10099000e40f50005e003200640037007053220004
:1009a00010407800e14f50000a003a00750207003d
:1009b0000000eb00c0298900614822000040eb00e4
:1009c000804878007148220020c0b3008048780039
:1009d0000a0037000040eb008502070010c0b3009a
:1009e00083020700614822000040eb008048780045
:1009f000714822000040eb0080487800b9020700ef
:100a00002149220010c0b300804878001000200067
:100a1000e0298900414922000000eb009000980085
:100a2000414922000000eb00a0009800414922004b
:100a30000000eb0080087800b4a302000000000072
:100a4000b4a3020000000000b4a3020000000000f4
:100a5000e0532200104078000080fb008043eb0050
:100a600000037800e5f420000042eb0013002000b2
:100a70000041eb008040eb0000c0eb006e73020011
:100a800000000000b4a302000000000041062000a6
:100a90000040eb009e7002000000000025003700bf
:100aa0004049220090007800e0f42000808f500040
:100ab000010036000b02070040492200c0009000f0
:100ac000004e2200104078000080fb000000e9008a
:100ad000808f500004003900414922000000eb00e3
:100ae000c00098007f020700800107001100370056
:100af000404922009000780000322000808f500092
:100b00000c0036009ea5020000000000090037001e
:100b1000404922009000780040062000808f50005d
:100b2000040036009e010700020037000000eb00c1
:100b3000e02989000080fa00000006000400fa00a5
:100b4000004f7800e0298100100798001e009000f7
:100b5000e10f5000040032001e009000e40f50002e
:100b600001003200020037001e407800020007003a
:100b70000080fa00000006000200fa00004f780032
:100b8000c04d2200104078000004e0001a003a0036
:100b9000c04d2200104090000004e00016003a0012
:100ba000804d2200104078009e4f500007003a0010
:100bb000c14d220010c0b300804878004149220096
:100bc0000000eb009000980042003700804d2200aa
:100bd000104090009e4f50003e003a00c14d220050
:100be00010c0b30090409800414922000000eb0083
:100bf0009000980037003700c04d22001040780068
:100c0000e14f500004003200c04d2200104090001f
:100c1000e14f50002f003a00804d22001040780034
:100c20009e4f500014003a00c04d22001040780042
:100c30000004e00010003a0040492200100090003b
:100c400080407800604d220001487800604d22000d
:100c50009040780010c3b30080cf500003003e00e6
:100c60000040eb00760007001a0037000040eb0060
:100c70000b01070017003700804d22001040900044
:100c80009e4f500013003a00c04d220010409000cb
:100c90000004e0000f003a0040492200900090005c
:100ca00010032000808f500008003e0040492200c1
:100cb0001000900080407800604d220001487800cc
:100cc0000040eb005e000700020037000040eb0030
:100cd000f30007007053220010407800e24f5000ec
:100ce00055003a00c04d2200204090000004e00072
:100cf0001a003a00c04d2200304090000004e0008d
:100d000016003a00804d2200204090009e4f500077
:100d100007003a00c14d220010c0b300a040980067
:100d2000414922000000eb00a0009800420037007b
:100d3000804d2200104090009e4f50003e003a002f
:100d4000c14d220010c0b300b040980041492200bc
:100d50000000eb00a000980037003700c04d2200d3
:100d600020409000e14f500004003200c04d2200ae
:100d700030409000e14f50002f003a00804d22009b
:100d8000204090009e4f500014003a00c04d2200b9
:100d9000204090000004e00010003a00404922008a
:100da0002000900080407800704d220001487800bb
:100db000704d22009040780010c3b30080cf5000e7
:100dc00003003e0010c0b3001d0007001a003700ea
:100dd00010c0b300b200070017003700804d22009a
:100de000304090009e4f500013003a00c04d22004a
:100df000304090000004e0000f003a00404922001b
:100e0000a000900010032000808f500008003e00da
:100e1000404922002000900080407800704d220060
:100e20000148780010c0b300050007000200370039
:100e300010c0b3009a0007000080fa00000006000e
:100e40000200fa00881f7800004f78001e04e000be
:100e50004c003a00c14d22000040eb008048780071
:100e6000c14d22000040eb00904098000040eb0094
:100e70004b020700804d2200104478000000eb0078
:100e8000801f78008003eb000043eb008042eb0002
:100e90000042eb008041eb000041eb008040eb00a2
:100ea00008407800a6950200000000008f87e90046
:100eb000804d2200104490000000eb00801f78005d
:100ec0008003eb000043eb008042eb000042eb00ac
:100ed0008041eb000041eb008040eb0008407800cf
:100ee000a6950200000000008f87e90070532200e1
:100ef00010407800e14f500003003a002101070044
:100f000078010700030037000040eb0038010700bc
:100f100074010700604d220010407800e24f50003d
:100f200004003e00c02981002003b000c0298900d0
:100f300058003700604d220010407800eb4f500001
:100f400004003e00c029810079004000c0298900ca
:100f500050003700604d220010407800f84f5000dc
:100f600004003e00c02981006a004000c0298900b9
:100f700048003700c029810065004000c029890071
:100f800044003700c14d22000040eb00a040980013
:100f9000c14d22000040eb00b040980010c0b300eb
:100fa000ff010700804d2200204490000000eb006c
:100fb000801f78008003eb000043eb008042eb00d1
:100fc0000042eb008041eb000041eb008040eb0071
:100fd00008407800a6950200000000008f87e90015
:100fe000804d2200304490000000eb00801f78000c
:100ff0008003eb000043eb008042eb000042eb007b
:101000008041eb000041eb008040eb00084078009d
:10101000a6950200000000008f87e90010c0b30011
:10102000f30007002f010700704d220010407800e8
:10103000e24f500004003e00d02981002003b000a0
:10104000d029890013003700704d2200104078002d
:10105000eb4f500004003e00d02981007900400091
:10106000d02989000b003700704d22001040780015
:10107000f84f500004003e00d02981006a00400073
:10108000d029890003003700d02981006500400085
:10109000d02989004f0478000080fa000000060083
:1010a0000200fa00004f78001e04e00007003a003a
:1010b000c14d22000040eb0080487800c14d220065
:1010c0000040eb009040980006003700c14d220020
:1010d0000040eb00a0409800c14d22000040eb0012
:1010e000b04098000080fa00000006000000fa00fe
:1010f000c04d220010407800e14f50000400320043
:10110000c04d220010409000e14f50000b003a000b
:101110004049220090009000b0042000808f5000d1
:1011200006003600c14d22000040eb0080487800e8
:10113000c14d22000040eb00904098007053220007
:1011400010407800e24f500013003a00c04d2200da
:1011500020409000e14f500004003200c04d2200ba
:1011600030409000e14f50000b003a00404922000f
:10117000a0009000b0042000808f500006003600d0
:10118000c14d22000040eb00a0409800c14d22005c
:101190000040eb00b04098000080fa00000006001c
:1011a0000000fa0020002000e029890041492200c7
:1011b0000000eb0080087800e053220020409000ff
:1011c0000080fb008043eb00000378000532200024
:1011d0000042eb00130020000041eb008040eb00d8
:1011e00000c0eb006e73020000000000b4a3020018
:1011f00000000000510020000040eb009e70020043
:10120000000000000000eb00801f78008003eb006e
:101210000043eb008042eb000042eb008041eb001a
:101220000041eb008040eb0000c0eb00a6950200ff
:10123000000000008f87e900705322001040780002
:10124000e14f500007003a006148220010c0b3008f
:10125000804878007148220020c0b30080487800a0
:101260001e003700049a020000000000c12981001e
:10127000d0298100808f500007003600614822008d
:1012800010c0b30080487800714822000040eb0095
:101290008048780011003700d1298100c0298100e1
:1012a000808f5000070036007148220010c0b30044
:1012b00080487800614822000040eb0080487800b8
:1012c000060037007148220010c0b3008048780043
:1012d0006148220010c0b300804878000080fa0006
:1012e000000006000000fa0040002000e02989000c
:1012f000414922000000eb0080087800e053220002
:10130000204090000080fb008043eb000003780049
:10131000450620000042eb00130020000041eb00d6
:101320008040eb0000c0eb006e7302000000000084
:10133000b4a3020000000000810620000040eb0082
:101340009e700200000000000000eb00801f78008b
:101350008003eb000043eb008042eb000042eb0017
:101360008041eb000041eb008040eb0000c0eb004f
:10137000a6950200000000008f87e9000080fa00b7
:10138000000006000000fa00804d220010407800a6
:1013900064404000e7406000804d2200104078002b
:1013a00000c1eb0074a4020000000000804078003f
:1013b000804d220001487800804d220010407800c6
:1013c00064404000e7406000804d220011409800da
:1013d000c14d22000040eb0080487800c14d220042
:1013e0000040eb00904098000080fa0000000600ea
:1013f0000200fa00004f78001e04e0001c003a00d2
:10140000804d220030419000804d2200204290000b
:10141000804d220090409000804d220010407800c6
:10142000824178000441780006a502000000000017
:1014300080407800804d220001487800804d2200d5
:101440001040780064404000e7406000804d22007a
:1014500011409800c14d22000040eb008048780008
:10146000c14d22000040eb00904098001b00370067
:10147000804d220010419000804d220010427800e3
:10148000804d2200b0409000804d2200204090000e
:10149000824178000441780006a5020000000000a7
:1014a00080407800804d220021409800804d22002d
:1014b0002040900064404000e7406000804d2200e2
:1014c00031409800c14d22000040eb00a040980040
:1014d000c14d22000040eb00b04098000080fa00af
:1014e000000006000000fa00881f7800800102005a
:1014f000000000007f4060001044b0008040780091
:10150000004e220001487800304e220090407800c2
:10151000104e220001487800404e22009040780092
:10152000204e2200014878008001020000000000e7
:101530007f4060007f40400080407800304e2200b5
:101540000148780080010200000000007f40600038
:101550007f40400080407800404e220001487800e3
:101560007053220010407800e14f500031003a00e3
:10157000004e2200104078000081fb00004e220047
:10158000104078008083fb00404e2200904178009c
:10159000304e220010427800204e22001044780085
:1015a000104e220090407800804d220010407800bc
:1015b000821f78000043eb00834278008041eb00fb
:1015c00008417800a6950200000000008f87e9001e
:1015d000004e2200104078000081fb00004e2200e7
:1015e000104078008083fb00404e2200904178003c
:1015f000304e220010427800204e22001044780025
:10160000104e220090407800804d22001040900043
:10161000821f78000043eb00834278008041eb009a
:1016200008417800a6950200000000008f87e900bd
:1016300058003700004e2200104078008080fb00e8
:10164000004e2200104078008083fb00304e2200c4
:1016500010417800104e220010447800804d220086
:1016600010407800811f78000043eb008042eb00bf
:10167000024278008041eb000041eb008840780096
:10168000a6950200000000008f87e900004e2200ae
:10169000104078008080fb00004e2200104078004f
:1016a0008083fb00304e220010417800104e220053
:1016b00010447800804d220010409000811f780077
:1016c0000043eb008042eb00024278008041eb00d7
:1016d0000041eb0088407800a69502000000000061
:1016e0008f87e900004e2200104078008080fb00c8
:1016f000004e2200104078008083fb00404e220004
:1017000010417800204e220010447800804d2200c5
:1017100020409000811f78000043eb008242780057
:101720000042eb008041eb00084178008040eb0074
:10173000a6950200000000008f87e900004e2200fd
:10174000104078008080fb00004e2200104078009e
:101750008083fb00404e220010417800204e220082
:1017600010447800804d220030409000811f7800a6
:101770000043eb00824278000042eb008041eb0026
:10178000084178008040eb00a695020000000000b0
:101790008f87e9004f0478000080fa0000000600ff
:1017a0000200fa00004f78001e04e00025003a0015
:1017b000e053220090437800e05322001040900054
:1017c0008080fb00804d22001040780001037800eb
:1017d000e505200014c0b300130020000041eb0019
:1017e00011c0b3006e73020000000000e05322003d
:1017f00090437800e0532200104090008080fb006e
:10180000804d22001040900001037800e505200083
:1018100014c0b300130020000041eb0011c0b3005e
:101820006e73020000000000b4a30200000000007c
:101830006106200010c0b3009e700200000000008e
:1018400024003700e053220090437800e053220048
:10185000104090008080fb00804d220020409000ce
:1018600001037800e505200014c0b3001300200038
:101870000041eb0021c0b3006e73020000000000c5
:10188000e053220090437800e05322001040900083
:101890008080fb00804d22003040900001037800e2
:1018a000e505200014c0b300130020000041eb0048
:1018b00021c0b3006e73020000000000b4a3020058
:1018c000000000006106200020c0b3009e700200ee
:1018d000000000000080fa00000006000200fa008c
:1018e000e0298100000f78001e007800e20f500010
:1018f000980032001e007800e20f500007003e0002
:101900001e0078000000e0000b0032001e0078008e
:10191000e10f500078003200c60037001e0078004a
:10192000e30f5000120032001e007800e40f500058
:1019300090003200bf0037004ea4020000000000fb
:10194000404922008000eb000108780030002000b0
:10195000e0298900b4a3020000000000b4a3020043
:1019600000000000b4a3020000000000b300370034
:101970004049220010007800e50f5000af0036000b
:10198000e0532200104078000080fb008043eb0011
:1019900000037800053221000042eb001300200014
:1019a0000041eb008040eb0000c0eb006e730200d2
:1019b00000000000b4a3020000000000e1062000c7
:1019c0000040eb009e7002000000000010002000ac
:1019d000e0298900a60307002142220040c6b30087
:1019e000804878003142220040c0b300804878002f
:1019f0004142220030c0b30080487800705322007a
:101a000010407800e14f500013003a0080010200be
:101a10000000000080007800f00f200000806000cf
:101a2000c012b000f0208900414922000000eb0004
:101a3000a00098000040eb00a702070061482200c8
:101a40000040eb00804878007148220020c0b300bd
:101a5000804878001e00370080010200000000006e
:101a600080007800f00f200000806000c012b000fd
:101a7000f020890080010200000000008000780052
:101a8000f00f200000806000c012b000002189002b
:101a9000414922000000eb00a000980041492200cb
:101aa0000000eb00b00098000040eb008a02070045
:101ab00010c0b30088020700614822000040eb001c
:101ac00080487800714822000040eb008048780090
:101ad000414922000000eb0090009800414922009b
:101ae0000000eb00800878002149220010c0b300fc
:101af000804878005100370040492200900078006b
:101b0000e0f42000808f50000e0036002302070012
:101b10000000eb00801f78008003eb000043eb0027
:101b20008042eb000042eb008041eb000041eb0003
:101b30008040eb0000c0eb00a69502000000000012
:101b40008f87e90074030700d1000700f900070040
:101b50003a0037004049220090007800003220000f
:101b6000808f5000350036009ea502000000000066
:101b700032003700404922009000780030062000f3
:101b8000808f50002d003600dc01070070532200ca
:101b900010407800e14f500007003a0061482200f1
:101ba00010c0b300804878007148220020c0b30004
:101bb0008048780021003700049a020000000000ed
:101bc000c1298100d0298100808f50000700360094
:101bd0006148220010c0b30080487800714822009c
:101be0000040eb008048780014003700d1298100c4
:101bf000c0298100808f5000070036007148220004
:101c000010c0b30080487800614822000040eb001b
:101c100080487800090037007148220010c0b300e6
:101c2000804878006148220010c0b30080487800e6
:101c3000020037000000eb00e02989000080fa0074
:101c4000000006000400fa00004f7800e02981003f
:101c5000100798001e009000e10f500004003200b1
:101c60001e009000e40f5000010032008600370093
:101c70001e80fb00624222006300b90002004000a7
:101c8000104090000004e0007d0032001e4078000b
:101c9000fd0107009e81fb00624222006318b9002b
:101ca00002004000104090000042e9006242220021
:101cb0006318b900020040000000e8000448780002
:101cc0001e80fb00624222006300b9000080e80031
:101cd000604079000004e0001c003a00c029810047
:101ce0000080e800c02989001e80fb0062422200bb
:101cf0006300b90002004000104090000080fb002b
:101d00000000400000004000000040000040e900ea
:101d100080407800e0012000801f7800e70120006b
:101d20000043eb008042eb00014278008041eb0071
:101d3000f2c3b300f1c3b3001e407800a6950200c1
:101d4000000000008f87e9001b003700d0298100c8
:101d50000080e800d02989001e80fb00624222003a
:101d60006300b90002004000104090000080fb00ba
:101d70000000400000004000000040000040e9007a
:101d800080407800e0012000801f7800e7012000fb
:101d90000043eb00814278000042eb008041eb0001
:101da000f2c3b300f1c3b3001e407800a695020051
:101db000000000008f87e9001e80fb0062422200c5
:101dc0006300b90002004000104090000004e000f1
:101dd0002d003a001e4078009b0107001e80fb008a
:101de000624222006300b9000080e8006040790090
:101df0000004e00011003a00a04122009040780069
:101e0000404222001040780080cf50000200310094
:101e10000040eb00b0010700c02981006a004000cb
:101e2000c0298900a0412200104078008040e900cc
:101e3000a04122000148780013003700b041220081
:101e400090407800404222001040780080cf50003f
:101e50000200310010c0b3009f010700d0298100ab
:101e60006a004000d0298900b0412200104078006b
:101e70008040e900b04122000148780002003700ac
:101e80001e407800900107000080fa000000060064
:101e90000000fa0040492200a0009000f0208100dc
:101ea000808f50000c003600414922000000eb00fa
:101eb000a00098008001020000000000800078006f
:101ec000f00f200000806000c012b000f0208900f8
:101ed0000040eb00800107007053220010407800a2
:101ee000e24f500011003a0040492200b00090003b
:101ef00000218100808f50000c00360041492200f3
:101f00000000eb00b000980080010200000000001b
:101f100080007800f00f200000806000c012b00048
:101f20000021890010c0b3006b0107000080fa0097
:101f3000000006000400fa00404922001000900052
:101f4000e50f5000eb003600414922000000eb0095
:101f50009000980050422200104078008040e80035
:101f60005042220001487800504222001040780080
:101f7000e3406000504222000148780050422200b5
:101f8000104078000080fb00100798001e009000b1
:101f9000e20f50006f0032001e009000e30f50006f
:101fa000960032001e009000e10f50002a0032001f
:101fb0000040eb00004f7800230037001e80fb003c
:101fc000624222006300b90002004000104090000d
:101fd0000004e0000e0032000000eb00801f7800db
:101fe0008003eb000043eb008042eb000042eb007b
:101ff0008041eb000041eb008040eb001e40780088
:10200000a6950200000000008f87e9000d00370050
:102010000000eb00801f78008003eb000043eb0022
:102020008042eb000042eb008041eb000041eb00fe
:102030008040eb001e407800a695020000000000e2
:102040008f87e9001e4fe80070c0b3009e4f10005c
:10205000daff3600a70037000040eb00004f7800a1
:10206000380037001e80fb00624222006300b90086
:1020700002004000104090000004e0002300320005
:102080001e80fb00624222006300b9000080e8006d
:10209000604079000004e0000e003a000000eb0010
:1020a000801f78008003eb000043eb008042eb00d0
:1020b000f4c3b3008041eb000041eb00f1c3b30077
:1020c0001e407800a6950200000000008f87e900fe
:1020d0001b0037000000eb00801f78008003eb003e
:1020e0000043eb00f5c3b3000042eb008041eb007e
:1020f000f2c3b3008040eb001e407800a6950200ba
:10210000000000008f87e9000d0037000000eb00a1
:10211000801f78008003eb000043eb008042eb005f
:102120000042eb008041eb000041eb008040eb00ff
:102130001e407800a6950200000000008f87e9008d
:102140001e4fe80070c0b3009e4f1000c5ff360060
:10215000680037000040eb00004f78002300370094
:102160001e80fb00624222006300b90002004000b2
:10217000104090000004e0000e0032000000eb0070
:10218000801f78008003eb000043eb008042eb00ef
:102190000042eb008041eb000041eb008040eb008f
:1021a0001e407800a6950200000000008f87e9001d
:1021b0000d0037000000eb00801f78008003eb006b
:1021c0000043eb008042eb000042eb008041eb005b
:1021d0000041eb008040eb001e407800a695020015
:1021e000000000008f87e9001e4fe80070c0b300b8
:1021f0009e4f1000daff36003e0037000040eb0033
:10220000004f7800380037001e80fb006242220039
:102210006300b90002004000104090000004e0009c
:10222000230032001e80fb00624222006300b900de
:102230000080e800604079000004e0000e003a00f1
:102240000000eb00801f78008003eb000043eb00f0
:1022500085c1b30084c1b3008041eb0082c1b300eb
:1022600001c3b3001e407800a695020000000000e4
:102270008f87e9001b0037000000eb00801f78000b
:102280008003eb000043eb0085c1b30084c1b300c1
:102290008041eb0002c3b30081c1b3001e4078004f
:1022a000a6950200000000008f87e9000d003700ae
:1022b0000000eb00801f78008003eb000043eb0080
:1022c0008042eb000042eb008041eb000041eb005c
:1022d0008040eb001e407800a69502000000000040
:1022e0008f87e9001e4fe80070c0b3009e4f1000ba
:1022f000c5ff36000080fa00000006000000fa006a
:1023000020002000e0298900414922000000eb0064
:1023100080087800e0532200204090000080fb00fd
:102320008043eb0000037800053220000042eb0000
:10233000130020000041eb008040eb0000c0eb00e8
:102340006e73020000000000b4a302000000000051
:10235000510020000040eb009e70020000000000d1
:102360000000eb00801f78008003eb000043eb00cf
:102370008042eb000042eb008041eb000041eb00ab
:102380008040eb0000c0eb00a695020000000000ba
:102390008f87e9000080fa00000006000000fa00c4
:1023a00040002000e0298900414922000000eb00a4
:1023b00080087800e0532200204090000080fb005d
:1023c0008043eb0000037800350620000042eb005c
:1023d000130020000041eb008040eb0000c0eb0048
:1023e0006e73020000000000b4a3020000000000b1
:1023f000f10620000040eb009e700200000000008b
:102400000080fa00000006000200fa00004f780089
:10241000e053220090407800e053220010419000e9
:1024200016c0b300814278000042eb0013c0b30035
:1024300041c0b3001e407800347502000000000067
:102440000080fa00000006000200fa00004f780049
:10245000e053220090407800e053220010419000a9
:1024600016c0b300814278000042eb0013c0b300f5
:1024700051c0b3001e407800347502000000000017
:102480000080fa00000006000200fa00004f780009
:10249000e053220090407800e05322001041900069
:1024a00016c0b300814278000042eb0013c0b300b5
:1024b00021c0b3001e407800347502000000000007
:1024c0000080fa00000006000200fa00004f7800c9
:1024d0000080fa00000006000400fa00204798007f
:1024e0000040eb00004f78002e4090000004e00018
:1024f0006f003a00a0412200904078003042220054
:102500001040780080cf5000d7003100a041220059
:10251000104078008040e800a04122000148780087
:10252000c04122001040780000c1eb0080c0eb00e9
:1025300074a4020000000000104798000900370052
:102540001e4fe800c04122001040780000c1eb009f
:1025500080c0eb0074a40200000000001047980047
:102560000060fe001e4090000080fb0062422200de
:102570006300b90002004000104090000004e00039
:1025800003003200f0c3b3009e4f1000ecff360092
:10259000f0c3b3009e4f1000280036000040eb004f
:1025a000004f7800210037001e80fb0062422200ad
:1025b0006300b90002004000104090000004e000f9
:1025c00019003a00c04122001e4878001e80fb001e
:1025d000624222006300b900020040008000e8006f
:1025e00020c0b300804878001e40780086ff0700b6
:1025f0001e80fb00624222006300b900820040009e
:102600000040eb00804878001e80fb006242220000
:102610006300b900020040008080e8000040eb0049
:1026200080487800900037001e4fe80070c0b3006b
:102630009e4f1000dcff36008b003700c0412200a7
:102640009e409000014878001e4090000080fb00f2
:10265000624222006300b900020040008000e800ee
:1026600020c0b300804878001e40900066ff07003d
:102670001e4090000080fb00624222006300b9000f
:10268000820040000040eb00804878001e4090002f
:102690000080fb00624222006300b900020040009b
:1026a0008080e8000040eb00804878006e00370032
:1026b000b041220090407800304222001040780063
:1026c00080cf500068003100b041220010407800f7
:1026d0008040e800b041220001487800d04122004b
:1026e0001040780000c1eb0080c0eb0074a4020031
:1026f0000000000010479800090037001e4fe80056
:10270000d04122001040780000c1eb0080c0eb00f7
:1027100074a4020000000000104798000060fe0052
:102720001e4090000080fb00624222006300b9005e
:1027300002004000104090000004e000030032005e
:10274000f0c3b3009e4f1000ecff3600f0c3b3009f
:102750009e4f1000280036000040eb00004f78002c
:10276000210037001e80fb00624222006300b90096
:1027700002004000104090000004e00019003a0000
:10278000d04122001e4878001e80fb0062422200d9
:102790006300b900020040008000e80020c0b300e0
:1027a000804878001e40780017ff07001e80fb005d
:1027b000624222006300b900820040000040eb004a
:1027c000804878001e80fb00624222006300b9004e
:1027d000020040008080e80010c0b300804878000c
:1027e000210037001e4fe80070c0b3009e4f10005c
:1027f000dcff36001c003700d04122009e409000d4
:10280000014878001e4090000080fb0062422200d8
:102810006300b900020040008000e80020c0b3005f
:10282000804878001e409000f7fe07001e40900090
:102830000080fb00624222006300b9008200400079
:102840000040eb00804878001e4090000080fb00b4
:10285000624222006300b900020040008080e8006c
:1028600010c0b300804878000080fa000000060025
:102870000200fa000040eb00004f7800150037001e
:102880001e80fb00624222006300b900020040008b
:102890008000e8000040eb00804878001e80fb00cc
:1028a000624222006300b900020040008080e8001c
:1028b0000040eb00804878001e80fb00624222004e
:1028c0006300b900820040000040eb0080487800bf
:1028d0001e4fe80070c0b3009e4f1000e8ff3600a6
:1028e000a14122000040eb0080487800b141220065
:1028f0000040eb0080487800c141220000c0eb009e
:1029000080487800d141220000c0eb008048780068
:102910000080fa00000006000200fa004049220090
:1029200040009000e10f50003a003600404922007c
:102930008000eb00410098000040eb00004f780061
:10294000310037001e80fb00624222006300b900a4
:1029500002004000104090000004e0002900320016
:102960009e81fb00624222006318b900604079003a
:102970000042e800624222006318b90002004000f1
:10298000044878001e80fb00624222006300b90008
:10299000e0407900204222001040780080cf5000b3
:1029a000180036001e80fb00624222006300b9005e
:1029b000820040000040eb00804878001e80fb0051
:1029c000624222006300b900020040001040900003
:1029d000e44f50000b003e009e81fb00624222004b
:1029e0006318b90002004000104090000042e80067
:1029f000624222006318b900020040000000e800b3
:102a0000044878001e4fe80070c0b3009e4f1000cd
:102a1000ccff36000080fa00000006000200fa0039
:102a2000e0298100000f78001e007800e20f5000be
:102a3000b70032001e007800e20f500007003e0091
:102a40001e0078000000e0000e0032001e0078003a
:102a5000e10f500016003200bd0137001e00780063
:102a6000e40f5000200132001e007800e40f5000f7
:102a7000a80139001e007800e50f5000ad013200ba
:102a8000b3013700c8a30200000000002149220062
:102a90000040eb008048780010002000e029890009
:102aa000414922000000eb0080087800aa013700ad
:102ab0004049220010007800e50f5000a6013600c2
:102ac0007053220010407800e14f500029003a0076
:102ad00000c1eb0080c0eb0000c0eb0074a402005a
:102ae00000000000804078008051220001487800fa
:102af00080512200904078000041eb000040eb0044
:102b0000c1020700805122001040780067040700ce
:102b100020002000e0298900d15122000040eb0074
:102b200080487800414922000000eb00b000980086
:102b3000414922000000eb00a0009800414922001a
:102b40000000eb00c00098000000eb00c0298900e5
:102b50000000eb00d0298900614822000040eb0012
:102b6000804878007148220020c0b3008048780077
:102b70003c00370000c1eb0080c0eb0000c0eb0060
:102b800074a4020000000000804078008051220000
:102b900001487800805122001040780000c1eb000d
:102ba00080c0eb0074a402000000000080407800a8
:102bb0009051220001487800805122009040780016
:102bc0000041eb000040eb008f0207009051220013
:102bd000904078000041eb0010c0b3008a0207006b
:102be00080512200104078003004070090512200ec
:102bf000104078003e04070040002000e0298900d2
:102c0000414922000000eb00b00098004149220039
:102c10000000eb00c0009800414922000000eb00da
:102c2000d0009800414922000000eb00e00098002d
:102c3000b151220010c0b300804878000000eb00c2
:102c4000c02989000000eb00d029890061482200da
:102c50000040eb0080487800714822000040eb0003
:102c600080487800e0532200104078000080fb008c
:102c70008043eb0000037800052c21000042eb00ac
:102c8000130020000041eb008040eb0000c0eb008f
:102c90006e73020000000000b4a3020000000000f8
:102ca000310120000040eb009e7002000000000097
:102cb0000000eb00c02989000000eb00d02989004a
:102cc0000000eb00a02889000000eb00b02889007c
:102cd000414922000000eb008008780041492200b1
:102ce0000000eb0090009800414922000000eb003a
:102cf000a0009800c15122000040eb0080487800fd
:102d00002149220010c0b30080487800120137002a
:102d1000d0512200104078000004e00010003a007a
:102d20004049220090007800002c2100808f500044
:102d300011003600414922000000eb0080087800b5
:102d4000c1298100c0122000808f5000020036008f
:102d500093040700080037006904070006003700e5
:102d60004049220090007800703e2000808f500083
:102d7000010036001104070040492200b000900015
:102d800020032000808f5000060036008051220072
:102d900010407800c5030700414922000000eb0005
:102da000b000980040492200c0009000402a8100f5
:102db000808f50000800360080512200904078003b
:102dc0000041eb000040eb000f02070041492200e8
:102dd0000000eb00c00098004049220090009000e5
:102de000004b2000808f50001600360080512200da
:102df0001040780000c1eb0080c0eb0074a402001a
:102e00000000000080407800a051220001487800b6
:102e1000c151220010c0b30080487800a0512200a8
:102e2000904078000040eb00c2030700a051220050
:102e300010407800cc010700414922000000eb005f
:102e400090009800c051220010407800e14f5000df
:102e5000c1003a004049220090009000000f20007d
:102e6000808f500014003600c15122000040eb005a
:102e700080487800e0532200104078008080fb00fa
:102e8000a0512200104078008043eb00010378003d
:102e9000052c21000042eb00130020000041eb0054
:102ea0008040eb006e73020000000000b4a302003b
:102eb00000000000a80037004049220020009000d8
:102ec000f90f5000a4003600414922000000eb0039
:102ed000a0009800a0512200904078000040eb0034
:102ee000940307009c0037004049220090007800be
:102ef000002c2100808f5000040036004149220040
:102f00000000eb0080087800fd0307004049220024
:102f1000b000900020032000808f50000600360093
:102f200080512200104078006003070041492200d0
:102f30000000eb00b000980040492200c000900063
:102f4000402a8100808f5000080036008051220006
:102f5000904078000041eb000040eb00aa01070020
:102f6000414922000000eb00c000980040492200c7
:102f7000d000900020032000808f50000600360013
:102f80009051220010407800590307004149220067
:102f90000000eb00d000980040492200e0009000c3
:102fa000502a8100808f5000080036009051220086
:102fb000904078000041eb0010c0b3009201070080
:102fc000414922000000eb00e00098004049220047
:102fd00090009000004b2000808f500023003600ae
:102fe000b0512200104078000004e00004003a00d4
:102ff000b151220010c0b3008048780003003700b0
:10300000b15122000040eb0080487800905122002e
:1030100090407800805122001040780000c1eb0001
:1030200074a402000000000080407800a05122003b
:1030300001487800c151220010c0b30080487800d8
:10304000a051220090407800b0512200104078003a
:1030500038030700a0512200104078004201070009
:10306000414922000000eb0090009800c05122006e
:1030700010407800e14f500037003a0040492200ec
:1030800090009000000f2000808f50001400360048
:10309000c15122000040eb0080487800e05322003c
:1030a000104078008080fb00a05122001040780082
:1030b0008043eb0001037800052c21000042eb0067
:1030c000130020000041eb008040eb006e73020013
:1030d00000000000b4a30200000000001e00370042
:1030e0004049220020009000f90f50001a003600dd
:1030f000414922000000eb00a0009800a0512200ee
:1031000090407800b0512200104078000903070079
:103110001100370040492200900078000032200062
:10312000808f50000c0036009ea5020000000000b9
:103130000900370040492200900078001004200068
:10314000808f5000040036001c0307000200370087
:103150000000eb00e02989000080fa000000060072
:103160000400fa00004f7800e02981001007980061
:103170001e009000e20f5000040032001e0090007c
:10318000e40f500059003200f50037008051220052
:10319000104078009e4f100036003a001e40780024
:1031a000090107000000eb00801f78008003eb009e
:1031b0000043eb008042eb000042eb008041eb005b
:1031c0000041eb008040eb001e407800a695020015
:1031d000000000008f87e900c051220010407800f5
:1031e000e14f50000a003a00a05122001040780040
:1031f0001e41780080c0eb0074a4020000000000b3
:103200008040780080512200014878000800370093
:1032100000c1eb0080c0eb001e40780074a40200e7
:1032200000000000804078008051220001487800b2
:1032300080512200904078000041eb000040eb00fc
:10324000f10007008051220010407800970207002b
:10325000414922000000eb00b000980041492200e3
:103260000000eb00c0009800c02981006a00400007
:10327000c0298900c051220010407800e14f500061
:10328000b7003a00a0512200104078009e4f100075
:10329000b3003a000000eb00801f78008003eb00d1
:1032a0000043eb008042eb000042eb008041eb006a
:1032b0000041eb008040eb001e407800a695020024
:1032c000000000008f87e900c15122000040eb00a0
:1032d000804878001e407800bb000700c0298100ac
:1032e00079004000c02989009d00370080512200ec
:1032f000104078009e4f100038003a001e407800c1
:10330000b10007000000eb00801f78008003eb0095
:103310000043eb008042eb000042eb008041eb00f9
:103320000041eb008040eb001e407800a6950200b3
:10333000000000008f87e900c05122001040780093
:10334000e14f50000b003a00a0512200904078005d
:1033500090512200104078001e41780074a40200b1
:103360000000000080407800805122000148780071
:103370000900370090512200104078001e4178006b
:1033800080c0eb0074a402000000000080407800c0
:10339000805122000148780080512200904078003e
:1033a0000041eb000040eb00970007008051220035
:1033b000104078003d020700414922000000eb0068
:1033c000b0009800414922000000eb00c0009800c6
:1033d000c02981006a004000c0298900c051220034
:1033e00010407800e14f500021003a00a051220027
:1033f000104078009e4f10001d003a000000eb00c6
:10340000801f78008003eb000043eb008042eb005c
:103410000042eb008041eb000041eb008040eb00fc
:103420001e407800a6950200000000008f87e9008a
:10343000c15122000040eb00804878001e40780017
:1034400061000700b0512200104078000004e00045
:1034500004003a00c029810079004000c029890099
:1034600003003700d029810079004000d02989006d
:1034700090512200104078009e4f100038003a0012
:103480001e407800500007000000eb00801f78000d
:103490008003eb000043eb008042eb000042eb00b6
:1034a0008041eb000041eb008040eb001e407800c3
:1034b000a6950200000000008f87e900c05122009d
:1034c00010407800e14f50000b003a00a05122005c
:1034d0009040780080512200104078001e41780012
:1034e00074a4020000000000804078009051220087
:1034f0000148780009003700805122001040780010
:103500001e41780080c0eb0074a40200000000009f
:1035100080407800905122000148780090512200ac
:10352000904078000041eb0010c0b3003600070067
:103530009051220010407800ed010700414922001f
:103540000000eb00d0009800414922000000eb0091
:10355000e0009800d02981006a004000d02989004d
:103560000080fa00000006000200fa00004f780018
:10357000e053220090437800e05322001040900076
:103580000080fb00000378000505200014c0b30094
:10359000130020000041eb0031c0b3001e40780052
:1035a0006e73020000000000b4a3020000000000df
:1035b0002101200030c0b3009e7002000000000016
:1035c0000080fa00000006000200fa00004f7800b8
:1035d000e053220090407800e05322001041900018
:1035e00016c0b300814278000042eb0013c0b30064
:1035f0008040eb001e40780034750200000000009f
:103600000080fa00000006000600fa00004f780073
:1036100011479800224798001e4090000080fb0050
:103620000c730200000000001e4090000080fb00b0
:10363000200798002e009000e30f5000aa003200ef
:103640002e009000e30f50000a003c002e00900076
:10365000e10f5000440032002e009000e10f5000b6
:1036600071003c002e0090000000e0000e003200cf
:103670008c0137002e009000e50f5000fa00320058
:103680002e009000e50f5000c70035002e0090007e
:10369000e60f5000240132002e009000e70f50008a
:1036a000510132007f0137001e04e00017003a008c
:1036b000e053220090437800e05322001040900035
:1036c0000080fb00000378003505200014c0b30023
:1036d000130020000041eb0011c0b3001e40900019
:1036e0006e73020000000000b4a30200000000009e
:1036f000a100200010c0b3009e7002000000000076
:10370000e0062000402a890066013700e0532200cd
:1037100090437800e0532200104090000080fb00ae
:10372000000378003505200014c0b300130020000a
:103730000041eb0021c0b3001e4090006e730200f8
:1037400000000000b4a3020000000000a10020005f
:1037500020c0b3009e70020000000000e0062000c0
:10376000502a89004f0137001e04e00017003a007c
:10377000e053220090437800e05322001040900074
:103780000080fb0000037800d502200014c0b300c5
:10379000130020000041eb0011c0b3001e40900058
:1037a0006e73020000000000b4a3020000000000dd
:1037b000b100200010c0b3009e70020000000000a5
:1037c000e0062000402a890036013700e05322003d
:1037d00090437800e0532200104090000080fb00ee
:1037e00000037800d502200014c0b30013002000ad
:1037f0000041eb0021c0b3001e4090006e73020038
:1038000000000000b4a3020000000000b10020008e
:1038100020c0b3009e70020000000000e0062000ff
:10382000502a89001f0137001e04e00017003a00eb
:10383000e053220090437800e053220010409000b3
:103840000080fb00000378005503200014c0b30083
:10385000130020000041eb0011c0b3001e40900097
:103860006e73020000000000b4a30200000000001c
:10387000c100200010c0b3009e70020000000000d4
:10388000e0062000402a890006013700e0532200ac
:1038900090437800e0532200104090000080fb002d
:1038a000000378005503200014c0b300130020006b
:1038b0000041eb0021c0b3001e4090006e73020077
:1038c00000000000b4a3020000000000c1002000be
:1038d00020c0b3009e70020000000000e00620003f
:1038e000502a8900ef0037001e04e00017003a005c
:1038f000e053220090437800e053220010409000f3
:103900000080fb0000037800f502200014c0b30023
:10391000130020000041eb0011c0b3001e409000d6
:103920006e73020000000000b4a30200000000005b
:10393000d100200010c0b3009e7002000000000003
:10394000e0062000402a8900d6003700e05322001c
:1039500090437800e0532200104090000080fb006c
:1039600000037800f502200014c0b300130020000b
:103970000041eb0021c0b3001e4090006e730200b6
:1039800000000000b4a3020000000000d1002000ed
:1039900020c0b3009e70020000000000e00620007e
:1039a000502a8900bf0037001e04e00017003a00cb
:1039b000e053220090437800e05322001040900032
:1039c0000080fb0000037800f505200014c0b30060
:1039d000130020000041eb0011c0b3001e40900016
:1039e0006e73020000000000b4a30200000000009b
:1039f000e100200010c0b3009e7002000000000033
:103a0000e0062000402a8900a6003700e05322008b
:103a100090437800e0532200104090000080fb00ab
:103a200000037800f505200014c0b3001300200047
:103a30000041eb0021c0b3001e4090006e730200f5
:103a400000000000b4a3020000000000e10020001c
:103a500020c0b3009e70020000000000e0062000bd
:103a6000502a89008f0037001e04e00017003a003a
:103a7000e053220090437800e05322001040900071
:103a80000080fb0000037800d504200014c0b300c0
:103a9000130020000041eb0011c0b3001e40900055
:103aa0006e73020000000000b4a3020000000000da
:103ab000f100200010c0b3009e7002000000000062
:103ac000e0062000402a890076003700e0532200fb
:103ad00090437800e0532200104090000080fb00eb
:103ae00000037800d504200014c0b30013002000a8
:103af0000041eb0021c0b3001e4090006e73020035
:103b000000000000b4a3020000000000f10020004b
:103b100020c0b3009e70020000000000e0062000fc
:103b2000502a89005f0037001e04e00017003a00a9
:103b3000e053220090437800e053220010409000b0
:103b40000080fb00000378008502200014c0b30051
:103b5000130020000041eb0011c0b3001e40900094
:103b60006e73020000000000b4a302000000000019
:103b70000101200010c0b3009e7002000000000090
:103b8000e0062000402a890046003700e05322006a
:103b900090437800e0532200104090000080fb002a
:103ba000000378008502200014c0b3001300200039
:103bb0000041eb0021c0b3001e4090006e73020074
:103bc00000000000b4a3020000000000010120007a
:103bd00020c0b3009e70020000000000e00620003c
:103be000502a89002f0037001e04e00017003a0019
:103bf000e053220090437800e053220010409000f0
:103c00000080fb00000378001506200014c0b300fc
:103c1000130020000041eb0011c0b3001e409000d3
:103c20006e73020000000000b4a302000000000058
:103c30001101200010c0b3009e70020000000000bf
:103c4000e0062000402a890016003700e0532200d9
:103c500090437800e0532200104090000080fb0069
:103c6000000378003505200014c0b30013002000c5
:103c70000041eb0021c0b3001e4090006e730200b3
:103c800000000000b4a3020000000000a10020001a
:103c900020c0b3009e70020000000000e00620007b
:103ca000502a89000080fa00000006000200fa0095
:103cb000004f78000000eb00801f78008003eb00cd
:103cc0000043eb008042eb00f4c3b3008041eb0003
:103cd0000041eb00f1c3b3001e407800a69502003e
:103ce000000000008f87e9000080fa000000060055
:103cf0000200fa00004f78000000eb00801f7800ff
:103d00008003eb000043eb00f5c3b3000042eb007f
:103d10008041eb00f2c3b3008040eb001e4078000e
:103d2000a6950200000000008f87e9000080fa00dd
:103d3000000006000200fa00004f780011479800ca
:103d40001e04e0000e003a000000eb00801f780027
:103d5000c70020000043eb008042eb00f4c3b30037
:103d60008041eb000041eb00f1c3b3001e40900026
:103d7000a6950200000000008f87e9000d003700c3
:103d80000000eb00801f7800c70020000043eb001c
:103d9000f5c3b3000042eb008041eb00f2c3b30077
:103da0008040eb001e409000a6950200000000003d
:103db0008f87e9000080fa00000006000000fa008a
:103dc000414922000000eb0080087800300020000c
:103dd000e02989000000eb00801f78008003eb00e1
:103de0000043eb008042eb000042eb008041eb001f
:103df0000041eb008040eb0000c0eb00a695020004
:103e0000000000008f87e900e0532200204090006e
:103e10000080fb008043eb000003780005322000a7
:103e20000042eb00130020000041eb008040eb005b
:103e300000c0eb006e73020000000000b4a302009b
:103e400000000000510020000040eb009e700200c6
:103e5000000000007053220010407800e14f500035
:103e600007003a006148220010c0b3008048780083
:103e70007148220020c0b300804878001e0037003f
:103e8000049a020000000000c1298100d0298100ad
:103e9000808f5000070036006148220010c0b30038
:103ea00080487800714822000040eb00804878008c
:103eb00011003700d1298100c0298100808f500076
:103ec000070036007148220010c0b3008048780017
:103ed000614822000040eb0080487800060037006f
:103ee0007148220010c0b300804878006148220069
:103ef00010c0b300804878000080fa00000006007f
:103f00000000fa00414922000000eb008008780020
:103f100050002000e02989000000eb00801f78009d
:103f20008003eb000043eb008042eb000042eb001b
:103f30008041eb000041eb008040eb0000c0eb0053
:103f4000a6950200000000008f87e900e0532200e0
:103f5000204090000080fb008043eb0000037800cd
:103f6000150420000042eb00130020000041eb008c
:103f70008040eb0000c0eb006e7302000000000008
:103f8000b4a3020000000000510120000040eb003b
:103f90009e700200000000000080fa000000060091
:103fa0000000fa0000c1eb0080c0eb0000c0eb0095
:103fb00074a40200000000008040780080512200bc
:103fc000014878000000eb00801f78008003eb00c0
:103fd0000043eb008042eb000042eb008041eb002d
:103fe0000041eb008040eb0000c0eb00a695020012
:103ff000000000008f87e900414922000000eb002b
:104000008008780020002000e0298900d15122009a
:1040100010c0b30080487800e053220010407800c0
:104020000080fb008043eb0000037800753e200019
:104030000042eb00130020000041eb008040eb0049
:1040400000c0eb006e73020000000000b4a3020089
:1040500000000000410120000040eb009e700200c3
:10406000000000000080fa00000006000200fa00d4
:10407000e0298100000f78001e007800e20f500058
:104080001c0032001e007800e20f500007003e00c6
:104090001e0078000000e0000b0032001e007800d7
:1040a000e10f5000bf003200cf0137001e00780042
:1040b000e30f5000a60132001e007800e40f50000c
:1040c000c1013200c8013700c8a30200000000008f
:1040d000414922000000eb00800878002000200009
:1040e000e02989002149220010c0b30080487800ef
:1040f000bf0137004049220010007800e50f500052
:10410000bb0136007053220010407800e14f500090
:1041100044003a00a14e22000040eb0080487800a5
:10412000e0532200104078000080fb008043eb0049
:10413000000378008082eb0014c0b300130020005d
:104140000041eb008040eb0000c0eb006e7302000a
:1041500000000000e0532200104078000080fb00c7
:104160008043eb00000378008082eb0014c0b300b2
:10417000130020000041eb008040eb0000c0eb008a
:104180006e73020000000000a04e22001040780074
:10419000a60407008001020000000000e740600064
:1041a000d04e2200014878006e030700b14e220075
:1041b0000040eb00804878000000eb00c029890037
:1041c000614e22000040eb0080487800714e2200d2
:1041d0000040eb008048780010002000e0298900b2
:1041e000414922000000eb0090009800f14e2200af
:1041f0000040eb0080487800714822000040eb004e
:1042000080487800614822000040eb008048780038
:104210000000eb00c02989000000eb00d0298900d4
:1042200057003700a14e22000040eb008048780084
:10423000e0532200104078000080fb008043eb0038
:10424000000378008082eb0014c0b300130020004c
:104250000041eb008040eb0000c0eb006e730200f9
:1042600000000000e0532200104078000080fb00b6
:104270008043eb00000378008082eb0014c0b300a1
:10428000130020000041eb008040eb0000c0eb0079
:104290006e73020000000000a04e22001040780063
:1042a000620407008001020000000000e740600097
:1042b000d04e220001487800d04e220010407800f5
:1042c00064404000e7406000e04e22000148780072
:1042d00024030700b14e22000040eb008048780024
:1042e000c14e22000040eb00804878000000eb0047
:1042f000c02989000000eb00d0298900614e22000e
:104300000040eb0080487800714e22000040eb0036
:1043100080487800814e22000040eb008048780001
:10432000914e22000040eb00804878004149220075
:104330000000eb0090009800f14e22000040eb00de
:1043400080487800014f22000040eb008048780050
:10435000714822000040eb0080487800614822004c
:104360000040eb00804878000000eb00c029890085
:104370000000eb00d029890010002000e02989000e
:104380008001020000000000e1406000104f2200a8
:1043900001487800414922000000eb00b00098007d
:1043a000130137004049220090007800e07022009d
:1043b000808f500001003600d8030700f04e220025
:1043c00010407800e14f500026003a00004f2200d4
:1043d00010407800e14f500022003a00c1298100ce
:1043e000d0298100808f50000700310061482200f1
:1043f00010c0b30080487800714822000040eb00f4
:104400008048780011003700d1298100c02981003f
:10441000808f5000070031007148220010c0b300a7
:1044200080487800614822000040eb008048780016
:10443000060037007148220010c0b30080487800a1
:104440006148220010c0b30080487800214f22004c
:1044500010c0b30080487800049a020000000000f9
:10446000ae0307004049220010009000ea0f500000
:104470006d003a00414922000000eb0090009800d6
:10448000b80207007053220010407800e14f50003e
:1044900021003a00704e2200104078008040e80071
:1044a000704e220001487800704e220010407800c3
:1044b000ea4f500009003a00714e22000040eb0024
:1044c00080487800604e2200104078008040e8006c
:1044d000604e220001487800a2020700604e2200d0
:1044e000104078000080fb006a00b900800078006e
:1044f000704e2200104078000080fb0000804000d9
:10450000d0298900b04e2200104078000080fb00c6
:10451000c029890044003700f04e22001040780086
:104520000004e0001e003a00704e220010407800a7
:104530008040e800704e220001487800704e220052
:1045400010407800ea4f500008003a00714e2200f7
:104550000040eb0080487800604e22001040780058
:104560008040e800604e220001487800604e220042
:10457000104078000080fb006a00b90080007800dd
:10458000704e2200104078000080fb000080400048
:10459000c0298900614822000040eb008048780073
:1045a000004f2200104078000004e0001e003a0096
:1045b000904e2200104078008040e800904e22008b
:1045c00001487800904e220010407800ea4f5000d9
:1045d00008003a00914e22000040eb00804878002d
:1045e000804e2200104078008040e800804e22007b
:1045f00001487800804e2200104078000080fb00c7
:104600006a00b90080007800904e220010407800c7
:104610000080fb0000804000d02989007148220002
:104620000040eb008048780040492200b000900034
:10463000803e2000808f50006d003600214f220008
:104640000040eb0080487800705322001040780052
:10465000e14f50000a003a00300307000000eb0071
:10466000d0298900614822000040eb008048780092
:104670007148220010c0b300804878005c00370009
:10468000f04e220010407800e14f50000f003a0039
:10469000004f2200104078000004e0000b003a00b8
:1046a000049a0200000000006148220010c0b3001c
:1046b000804878000000eb00d02989007148220072
:1046c00010c0b300804878001f003700f04e220071
:1046d000104078000004e0000f003a00004f220074
:1046e00010407800e14f50000b003a00049a02009d
:1046f000000000000000eb00c02989007148220082
:1047000010c0b300804878006148220010c0b30098
:10471000804878000c003700049a02000000000076
:104720000000eb00c02989000000eb00d0298900bf
:104730006148220010c0b300804878007148220010
:1047400010c0b30080487800f4020700280037004a
:104750004049220090007800a0278100808f5000ff
:104760002300360040002000e0298900e0532200a9
:10477000204090000080fb008043eb0000037800a5
:10478000053220000042eb00130020000041eb0046
:104790008040eb0000c0eb006e73020000000000e0
:1047a000b4a3020000000000510020000040eb0014
:1047b0009e70020000000000414922000000eb0052
:1047c000800878000a0037004049220090007800f5
:1047d00000322000808f5000050036009ea50200a8
:1047e00000000000020037000000eb00e029890013
:1047f0000080fa00000006000200fa00004f780076
:10480000e0298100e10f500001003200090037006b
:104810007053220010407800e14f500003003a002e
:104820001e40780005000700020037001e40780097
:10483000870007000080fa00000006000400fa006c
:10484000881f780020479800d04e220090407800c2
:104850002e409000814f50007a003a0041492200da
:104860000000eb00b0009800d04e22001044780009
:104870000000eb00801f78008003eb000043eb009a
:104880008042eb000042eb008041eb000041eb0076
:104890008040eb0008407800a69502000000000070
:1048a0008f87e900e04e2200104478000000eb0002
:1048b000801f78008003eb000043eb008042eb0098
:1048c0000042eb008041eb000041eb008040eb0038
:1048d00008407800a6950200000000008f87e900dc
:1048e000b04e2200104078008040e800b04e220018
:1048f00001487800b04e2200104078000080fb0094
:10490000c0298900ae4090000040eb004d01070037
:10491000ae4090000040eb00e00107000040eb00db
:10492000004f78000040eb00104798000e00370061
:104930001e4090008080fb00c0542200e1407800bf
:10494000b04e22001040780080cf500003003a00a3
:1049500010c0b300004f7800060037001e409000e2
:104960000040e800104798001e409000e24f5000c1
:10497000efff360010c0b3009e4f100013003a0046
:10498000ae4090000040eb00f4010700104f220001
:10499000104078000004e00006003200d04e2200f3
:1049a000104078008040e900d04e22000148780095
:1049b00015003700d04e2200104078008040e800fb
:1049c000d04e2200014878000f003700104f22001f
:1049d000104078000004e00006003200d04e2200b3
:1049e000104078008040e800d04e22000148780056
:1049f00005003700d04e2200104078008040e900ca
:104a0000d04e220001487800d04e2200104078009d
:104a1000e7406000d04e22000148780051010700b5
:104a2000b04e22009040780080c2b30080cf50008a
:104a300004003a00214f220010c0b30080487800e3
:104a4000360207004f0478000080fa0000000600dc
:104a50000200fa00881f7800004f7800d04e220034
:104a6000104078009e4f100078003a004149220023
:104a70000000eb00b0009800d04e220010447800f7
:104a80000000eb00801f78008003eb000043eb0088
:104a90008042eb000042eb008041eb000041eb0064
:104aa0008040eb0008407800a6950200000000005e
:104ab0008f87e900d04e2200104478000000eb0000
:104ac000801f78008003eb000043eb008042eb0086
:104ad0000042eb008041eb000041eb008040eb0026
:104ae00008407800a6950200000000008f87e900ca
:104af000b04e2200104078008040e800b04e220006
:104b0000014878009e4078000040eb00cd0007008f
:104b1000b04e22009040780080c2b30080cf500099
:104b200011003a006148220010c0b30080487800ac
:104b3000d14e2200a0cab30080487800f14e220076
:104b400010c0b30080487800004f22001040780069
:104b50000004e0003b003a009e4078000040eb007b
:104b60005402070037003700104f22001040780031
:104b70000004e0001a003200d04e220010407800fd
:104b80000040e800e7406000d04e22000148780075
:104b9000d04e220090407800e04e22001040780075
:104ba00080cf50000a003a00e04e2200104078000a
:104bb0000040e900e7406000e04e22000148780034
:104bc0009e4078000040eb00640107001d003700a4
:104bd0009e4078000040eb003001070019003700cc
:104be000d04e2200104078000040e900e74060000d
:104bf000d04e220001487800d04e2200904078002c
:104c0000e04e22001040780080cf50000a003a00a9
:104c1000e04e2200104078000040e800e7406000cd
:104c2000e04e2200014878009e4078000040eb00f2
:104c30004a010700030037009e4078000040eb0067
:104c400016010700c70007007b003700e04e220076
:104c5000104078009e4f100077003a004149220032
:104c60000000eb00b0009800e04e220010447800f5
:104c70000000eb00801f78008003eb000043eb0096
:104c80008042eb000042eb008041eb000041eb0072
:104c90008040eb0008407800a6950200000000006c
:104ca0008f87e900e04e2200104478000000eb00fe
:104cb000801f78008003eb000043eb008042eb0094
:104cc0000042eb008041eb000041eb008040eb0034
:104cd00008407800a6950200000000008f87e900d8
:104ce000c04e2200104078008040e800c04e2200f4
:104cf000014878009e40780010c0b30051000700c2
:104d0000c04e22009040780080c2b30080cf500097
:104d100011003a00e14e2200a0cab300804878009a
:104d2000014f220010c0b300804878007148220073
:104d300010c0b30080487800f04e22001040780088
:104d40000004e0003b003a009e40780010c0b30031
:104d5000d801070037003700104f220010407800bc
:104d60000004e0001a003200e04e220010407800fb
:104d70000040e800e7406000e04e22000148780073
:104d8000e04e220090407800d04e22001040780083
:104d900080cf50000a003a00d04e22001040780028
:104da0000040e900e7406000d04e22000148780052
:104db0009e40780010c0b300e80007001d003700d7
:104dc0009e40780010c0b300b400070019003700ff
:104dd000e04e2200104078000040e900e74060000b
:104de000e04e220001487800e04e2200904078001a
:104df000d04e22001040780080cf50000a003a00c8
:104e0000d04e2200104078000040e800e7406000eb
:104e1000d04e2200014878009e40780010c0b300b8
:104e2000ce000700030037009e40780010c0b3009a
:104e30009a0007004b0007004f0478000080fa003a
:104e4000000006000200fa00004f780011479800a9
:104e50001e04e00021003a00b04e2200104078000d
:104e6000ea4f500004003a00a04e220010407800a3
:104e70000004e00010003200b04e22001040780024
:104e8000f44f500004003a00a04e22001040780079
:104e9000e14f500008003200b04e22001040780070
:104ea000fe4f50002d003a00a04e22001040780026
:104eb000e24f500029003a00a04e22001040780036
:104ec0008040e800a04e220001487800a04e220059
:104ed000104078005501070020003700c04e220026
:104ee00010407800ea4f500004003a00a04e220023
:104ef000104078000004e00010003200c04e220094
:104f000010407800f44f500004003a00a04e2200f8
:104f100010407800e14f500008003200c04e2200df
:104f200010407800fe4f50000c003a00a04e2200c6
:104f300010407800e24f500008003a00a04e2200d6
:104f4000104078008040e800a04e22000148780020
:104f5000a04e220010407800340107000080fa00c3
:104f6000000006000000fa00881f7800705322003d
:104f700010407800e14f50001f003a00d04e220050
:104f8000104478000000eb00801f78008003eb00e5
:104f90000043eb008042eb00f4c3b3008041eb0020
:104fa0000041eb00f1c3b30008407800a695020071
:104fb000000000008f87e900d04e220010447800e6
:104fc0000000eb00801f78008003eb000043eb0043
:104fd0008042eb00f4c3b3008041eb000041eb00e2
:104fe000f1c3b30008407800a6950200000000005d
:104ff0008f87e90026003700f04e2200104078002d
:10500000e14f50000f003200d04e220010447800d3
:105010000000eb00801f78008003eb000043eb00f2
:105020008042eb00f4c3b3008041eb000041eb0091
:10503000f1c3b30008407800a6950200000000000c
:105040008f87e900004f220010407800e14f5000a8
:105050000f003200e04e2200104478000000eb0008
:10506000801f78008003eb000043eb00f5c3b30022
:105070000042eb008041eb00f2c3b3008040eb0044
:1050800008407800a6950200000000008f87e90024
:105090004f0478000080fa00000006000200fa00c9
:1050a000004f7800114798001e04e00015003a00f8
:1050b000e053220090437800e0532200104090001b
:1050c0000080fb0000037800b500200014c0b3008e
:1050d000130020000041eb0011c0b3001e409000ff
:1050e0006e73020000000000b4a302000000000084
:1050f0002106200010c0b3009e70020000000000d6
:1051000014003700e053220090437800e05322005f
:10511000104090000080fb0000037800b5002000e4
:1051200014c0b300130020000041eb0021c0b30005
:105130001e4090006e73020000000000b4a3020045
:10514000000000002106200020c0b3009e70020075
:10515000000000000080fa00000006000200fa00d3
:10516000004f7800114798001e04e00035003a0017
:10517000e053220090437800e0532200104090005a
:105180008080fb001e4090000040e8006740600007
:10519000010378009501200014c0b3001300200023
:1051a0000041eb0011c0b3006e730200000000006c
:1051b000e053220090437800e0532200104090001a
:1051c0008080fb001e4090000040e90067406000c6
:1051d000010378009501200014c0b30013002000e3
:1051e0000041eb0011c0b3006e730200000000002c
:1051f000e053220090437800e053220010409000da
:105200000080fb00000378009501200014c0b3006b
:10521000130020000041eb0011c0b3001e409000bd
:105220006e73020000000000b4a302000000000042
:105230001106200010c0b3009e70020000000000a4
:1052400034003700e053220090437800e0532200fe
:10525000104090008080fb001e4090000040e8005d
:1052600067406000010378009501200014c0b3007e
:10527000130020000041eb0021c0b3006e73020058
:1052800000000000e053220090437800e053220029
:10529000104090008080fb001e4090000040e9001c
:1052a00067406000010378009501200014c0b3003e
:1052b000130020000041eb0021c0b3006e73020018
:1052c00000000000e053220090437800e0532200e9
:1052d000104090000080fb00000378009501200042
:1052e00014c0b300130020000041eb0021c0b30044
:1052f0001e4090006e73020000000000b4a3020084
:10530000000000001106200020c0b3009e700200c3
:10531000000000000080fa00000006000000fa0013
:1053200030002000e0298900414922000000eb0004
:1053300080087800204f220010407800e14f500094
:1053400016003a00e0532200104090000080fb005d
:105350008043eb0000037800751120000042eb0051
:10536000130020000041eb008040eb0000c0eb0088
:105370006e73020000000000b4a3020000000000f1
:10538000010620000040eb009e70020000000000bb
:1053900070112000a027890015003700e05322007b
:1053a000104090000080fb008043eb000003780079
:1053b000b50920000042eb00130020000041eb0083
:1053c0008040eb0000c0eb006e73020000000000a4
:1053d000b4a3020000000000310620000040eb00f2
:1053e0009e70020000000000b0092000a027890084
:1053f0000000eb00801f78008003eb000043eb000f
:105400008042eb000042eb008041eb000041eb00ea
:105410008040eb0000c0eb00a695020000000000f9
:105420008f87e9000080fa00000006000400fa00ff
:10543000004f78001e80fb00100798001e009000af
:10544000e20f5000100032001e009000e30f5000e9
:10545000120032001e009000e10f500005003200e3
:10546000c10520000040eb009e700200000000001b
:105470000e003700d10520000040eb009e700200b6
:105480000000000009003700e10520000040eb00ab
:105490009e7002000000000004003700f1052000ab
:1054a0000040eb009e700200000000000080fa0047
:1054b000000006000200fa00004f78001147980033
:1054c0001e04e0002c003a00e053220090437800d4
:1054d0001e4090000040e80067406000f60f20008a
:1054e000250d200014c0b300130020000041eb0084
:1054f00031c0b3006e73020000000000e0532200d0
:10550000904378001e4090000040e9006740600032
:10551000f60f2000250d200014c0b300130020005a
:105520000041eb0031c0b3006e73020000000000c8
:10553000e053220090437800f60f2000250d200054
:1055400014c0b300130020000041eb0031c0b300d1
:105550001e4090006e73020000000000b4a3020021
:1055600000000000b105200030c0b3009e700200b2
:10557000000000002b003700e05322009043780029
:105580001e4090000040e80067406000f60f2000d9
:10559000250d200014c0b300130020000041eb00d3
:1055a00031c0b3006e73020000000000e05322001f
:1055b000904378001e4090000040e9006740600082
:1055c000f60f2000250d200014c0b30013002000aa
:1055d0000041eb0031c0b3006e7302000000000018
:1055e000e053220090437800f60f2000250d2000a4
:1055f00014c0b300130020000041eb0031c0b30021
:105600001e4090006e73020000000000b4a3020070
:1056100000000000b105200030c0b3009e70020001
:10562000000000000080fa00000006000600fa00fa
:10563000e0298100200798002e009000e20f500022
:105640002e0132002e009000e20f500007003e00b5
:105650002e0090000000e0000b0032002e009000b1
:10566000e10f50008e003200b80137002e0090008c
:10567000e30f5000ad0132002e009000e40f500007
:105680000d003200b1013700c8a302000000000085
:10569000b4a3020000000000b4a302000000000058
:1056a000404922008000eb00010878004000200003
:1056b000e0298900a7013700404922001000780046
:1056c000ea0f5000a301360070532200104078000a
:1056d000e14f500038003a00e05322009043780038
:1056e000e0532200104078000080fb0000037800a7
:1056f0008082eb0014c0b300130020000041eb00d7
:105700008040eb0000c0eb006e7302000000000060
:10571000b4a3020000000000210320000040eb00c1
:105720009e7002000000000010002000e0298900a7
:105730000000eb00401f890088010700213f220084
:10574000901d220035060700214922000040eb0091
:10575000804878000000eb00c02989000000eb00c1
:10576000d029890000c1eb0080c0eb0000c0eb0035
:1057700074a402000000000080407800f03e220087
:1057800001487800614822000040eb008048780022
:105790007148220020c0b30080487800013f2200f9
:1057a0000040eb0080487800113f22000040eb00f1
:1057b0008048780033003700e05322001040780022
:1057c0000080fb008043eb000003780035352100aa
:1057d0000042eb00130020000041eb008040eb0092
:1057e00000c0eb006e73020000000000b4a30200d2
:1057f00000000000210320000040eb009e7002002a
:105800000000000020002000e0298900414922001a
:105810000000eb00800878000000eb00401f8900ca
:105820004e010700213f220020182200fb0507003f
:1058300061402200203f2200250607000000eb0007
:10584000c02989000000eb00d029890061482200ae
:105850000040eb0080487800714822000040eb00d7
:105860008048780000c1eb0080c0eb0000c0eb0076
:1058700074a402000000000080407800f03e220086
:10588000014878002149220010c0b3008048780008
:10589000414922000000eb00800878002d0137000c
:1058a000103f2200104078000004e0000f003a0092
:1058b000404922009000780060342100808f500021
:1058c0000f003600003f220010407800e14f5000ea
:1058d00002003a006506070009003700113f220068
:1058e00010c0b3008048780005003700c12981004e
:1058f000603e2000808f5000010036005b060700ec
:10590000603e2200104078000080fb0010079800e5
:105910001e009000e10f5000300032001e00900089
:10592000e20f5000540032001e0090000000e00022
:10593000010032000701370040492200900090002a
:1059400020032000808f50000201360041492200d0
:105950000000eb0090009800a03e2200104078006c
:105960008080fb00203f220000804000904090009b
:105970000040eb004f020700b4a30200000000004b
:105980008041eb000041eb00f1c3b300203f220057
:1059900018010700a03e2200104078008040e80077
:1059a000a03e220001487800203f2200904078006d
:1059b000a03e22001040780080cf5000e5003a0061
:1059c000613e220010c0b3008048780041492200a7
:1059d0000000eb00a0009800de003700d03e22005f
:1059e00010407800e14f500006003a004149220083
:1059f0000000eb00a0009800613e220020c0b30030
:105a00008048780040492200a00090000019200042
:105a1000808f5000cf003600414922000000eb008b
:105a2000a0009800a70307000000eb00801f78008b
:105a30008003eb000043eb008042eb000042eb00f0
:105a40008041eb000041eb008040eb0000c0eb0028
:105a5000a6950200000000008f87e900613e220049
:105a600020c0b30080487800013f220010c0b3007e
:105a700080487800b700370040492200a00090001d
:105a8000a0052000808f5000b2003600003f2200a9
:105a900010407800e14f500006003a00103f22000d
:105aa00010407800e14f500002003a00ef05070077
:105ab000a8003700a9000700213f2200901d220006
:105ac000560507000000eb00801f78008003eb0004
:105ad0000043eb008042eb000042eb008041eb0012
:105ae0000041eb008040eb0000c0eb00a6950200f7
:105af000000000008f87e90096003700404922002f
:105b00009000780030352100808f50000100360071
:105b1000d6050700603e2200104078000080fb00a0
:105b2000000f78001e007800e10f50003d003200a9
:105b30001e007800e20f5000620032001e00780064
:105b40000000e000010032008200370040492200de
:105b50009000900020032000808f50007d003600d0
:105b6000414922000000eb0090009800a03e220076
:105b7000104078008080fb00203f22000080400021
:105b8000904090000040eb00ca010700a03e2200b8
:105b9000104078008080fb006040220000804000c0
:105ba0009040900010c0b300c2010700b4a30200ef
:105bb000000000008041eb000041eb00f1c3b300a6
:105bc000203f22008b0007008041eb00f2c3b300ae
:105bd0008040eb006040220086000700a03e2200cb
:105be000104078008040e800a03e22000148780084
:105bf000203f220090407800a03e22001040780014
:105c000080cf500053003a00613e220010c0b30024
:105c100080487800414922000000eb00a000980075
:105c20004c003700d03e220010407800e14f500079
:105c30000a003a00e03e220010407800e14f500098
:105c400006003a00414922000000eb00a000980045
:105c5000613e220020c0b300804878004049220005
:105c6000a0009000401f2000808f500039003600b7
:105c7000414922000000eb00a0009800110307003a
:105c80000000eb00801f78008003eb000043eb0076
:105c90008042eb000042eb008041eb000041eb0052
:105ca0008040eb0000c0eb00a69502000000000061
:105cb0008f87e900613e220020c0b3008048780051
:105cc0002400370040492200a0009000a0052000d9
