:020000040000fa
:080000000001040000000000f3
:020000040000fa
:100200006f55220080792200000188000000000064
:10021000050007000c00070064a7020000000000b2
:100220000040da000000fe004440a900c0042000a5
:100230000000e0000300320010002000a001880050
:100240004440a80000000600e0942a0001002000bd
:100250001600370062004000e080480091018800ed
:100260009001ba0062004000e080480091018800df
:100270009002ba0062004000e08048000002eb00fb
:100280006028e10005003a008301e900070033001f
:10029000038009000059eb00040037006128e100e9
:1002a000010032000082eb00050007009101880088
:1002b0001001ba000200e000e6ff3a00000005006d
:1002c000910188008002780062004000e0804800d0
:1002d0003559ba008301e900080032002559ba00f7
:1002e0008301e900050032000400e000f4ff320061
:1002f00015d9ba008301e900f1ff3a0000000600b9
:10030000889fbe00f04680000000e000010032003f
:1003100000000100c04680000000e0000100320043
:1003200000000100b04280000000e0000100320047
:1003300000000100804280000000e0000100320067
:1003400000000100e048e20027003a00d0468000ab
:10035000e14680000004eb00d260260093012000fb
:100360005c000700f2352f00e3c6230000004100c7
:10037000818049000804e800e80f5400f6ff3a00c5
:10038000d0468800e14688000004eb008985200003
:10039000d260260093012000d0468000e146800014
:1003a0004c000700f2352f00e3c623000000410097
:1003b00081804900d0468800e1468800809cbe00cc
:1003c0000804e80000022000800f5400f0ff3a000b
:1003d000a0468000b146800090428800a14288007b
:1003e00010c0b300e0e8b700d260260093012000ff
:1003f000d0468000e146800036000700f2352f002d
:10040000e3c623000000410081804900d0468800f7
:10041000e1468800924280000201d000e203b2006f
:100420008201410082852000028141001202be004b
:1004300094428800a54288000089be009042800056
:10044000a14280000100780000f0a1004f04be002e
:1004500000000600881f780000047800f046800045
:100460000000e0000100320000000100e068ef0041
:10047000c04680000000e0000100320000000100e2
:100480006140b800d0468800e14688004f047800fb
:10049000000006006022b800060220000000d00024
:1004a0008180d2000482d2008582d2000000a000a8
:1004b0000202520083825a0003003b000202420003
:1004c00083824a000000a1000603e900f3ff3a001e
:1004d00000000600020ab900001bb9000200b800c3
:1004e000810042008100430000000600431588009f
:1004f0005415880022158800111588000015880001
:100500000000d1006140600000404000012a20004e
:10051000914078000114a10080c0700001007800b3
:10052000a0e2b700000006003015880000000600b9
:100530000080fb000000400001282000608078005f
:10054000000006008920a900c401dd000347b200b5
:10055000810a200091407800f2c8b30082c0600098
:1005600083c070008000fd00a8e0b7008000fd009f
:10057000680060004300de000040400011092000d8
:10058000914078000114a10080c070000100780043
:1005900091e0b700000006002212880000128800d7
:1005a00011128800431288006412880000000600bf
:1005b0009183a800000006009183a800801c880099
:1005c00000000600901c8800a11c880000000600a6
:1005d000401ade000500200004037800e24f5000be
:1005e0001300320005003c000004e0000900320066
:1005f000e14f50001e003a0009003700e44f500060
:10060000130032000e003500e54f500018003a008c
:1006100013003700011888001418880016003700ee
:1006200041188800541888006218880000000600ed
:100630008118880094188800a2188800000006001d
:10064000c1188800d4188800e2188800000006004d
:10065000011988001419880022198800000006007a
:1006600041198800541988006219880000000600aa
:10067000011888001618880022188800000006005b
:10068000401ade00050020000004e00006003200f1
:10069000e14f500004003a00c1198800d4198800c5
:1006a000e21988000000060081198800941988006a
:1006b000a219880000000600e14f5000030032003c
:1006c000e24f50000300320004003700f11a8800a6
:1006d00000000600711a880000000600711b8800e7
:1006e000000006000004e00004003200e14f50006a
:1006f00002003a00f11b880000000600711c88000f
:10070000000006009623ef008760a900c01c880047
:10071000c409dd000347b200a1c0bf00f2c8b300a6
:100720000240600003407000a1e0b700e880600074
:10073000c308de0081c0400081c0400081c040008d
:100740008fc0bf000034a100014070008fe0b700ef
:1007500000000600801c8800000006008d00a90033
:1007600021e2a9008500a900000006008500a9007b
:10077000e7416000810920009140780082cfb300fa
:1007800082c0600083c070008000fd0098e0b70068
:100790008000fd00680060004300de00d1082000fa
:1007a000914078000104a10080c070000100780031
:1007b0008de0b700000006001011880001118800cc
:1007c000000006008cc0a90011e1a90084c0a900a6
:1007d0000000060084c0a900e74160007109200004
:1007e0009140780082cfb30082c0600083c0700067
:1007f0008000fd0097e0b7008000fd006800600009
:100800004300de0000404000004040000040400047
:10081000004040000040400000404000c10820006f
:10082000914078000164a10080c070000100780050
:100830008ce0b700000006000621ef006108880088
:10084000800888001061a900000006008700a90048
:100850008720a900e7416000010a2000914078004c
:1008600082cfb30082c0600083c070008000fd00b2
:10087000a0e0b7008000fd004301de004311dd0071
:100880000247b200010a200091407800f3c8b3008b
:1008900083c0600082c070008000fd00a0e0b7004f
:1008a0008000fd00680160004311de00f1082000b7
:1008b000914078000104a10082c070008000fd001a
:1008c0008fe0b7008000fd000008b2004700de00a6
:1008d00000404000f1082000914078000114a10080
:1008e00080c07000010078008fe0b70000000600b3
:1008f000f2108800b0108800c110880000000600c7
:100900008000780016c2bf0066406000e64f5000cd
:1009100001003200f10fb200d11088000000060083
:1009200016c2bf0066406000e64f500002003a0069
:10093000e010800000000600e0108000f00fb20020
:100940000000060018c2bf00610060000000060041
:100950000200fa0090298100000f78001e00780044
:10096000e10f50004b0032001e007800e10f5000f4
:10097000070039001e007800e20f500059003200d5
:100980001e007800e40f50005e0032006400370063
:100990009051220010407800e14f50000a003a00c8
:1009a000750207000000eb00d028890001482200f2
:1009b0000040eb00804878001148220020c0b300be
:1009c000804878000a0037000040eb0085020700ed
:1009d00010c0b30083020700014822000040eb0072
:1009e00080487800114822000040eb0080487800e1
:1009f000b9020700c148220010c0b3008048780047
:100a00001000200090298900e14822000000eb003e
:100a100090009800e14822000000eb00a000980040
:100a2000e14822000000eb008008780080a102006d
:100a30000000000080a102000000000080a1020070
:100a40000000000040532200104078000080fb00ae
:100a50008043eb0000037800e5f420000042eb0047
:100a6000130020000041eb008040eb0000c0eb00d1
:100a70003e7202000000000080a1020000000000a1
:100a8000410620000040eb006e6f020000000000f5
:100a900025003700e048220090007800e0f42000b4
:100aa000808f5000010036000b020700e048220052
:100ab000c0009000a04d2200104078000080fb0094
:100ac0000000e900808f500004003900e148220056
:100ad0000000eb00c00098007f02070080010700c3
:100ae00011003700e048220090007800003220001a
:100af000808f50000c0036006aa302000000000046
:100b000009003700e04822009000780040062000ed
:100b1000808f5000040036009e010700020037005d
:100b20000000eb00902989000080fa000000060018
:100b30000400fa00004f7800902981001007980007
:100b40001e009000e10f5000040032001e009000d3
:100b5000e40f500001003200020037001e40780010
:100b6000020007000080fa00000006000200fa0000
:100b7000004f7800604d2200104078000004e00033
:100b80001a003a00604d2200104090000004e0007e
:100b900016003a00204d2200104078009e4f500071
:100ba00007003a00614d220010c0b3008048780071
:100bb000e14822000000eb0090009800420037005e
:100bc000204d2200104090009e4f50003e003a0001
:100bd000614d220010c0b30090409800e14822000f
:100be0000000eb009000980037003700604d2200b5
:100bf00010407800e14f500004003200604d2200a8
:100c000010409000e14f50002f003a00204d22008c
:100c1000104078009e4f500014003a00604d2200b2
:100c2000104078000004e00010003a00e048220084
:100c30001000900080407800004d220001487800ac
:100c4000004d22009040780010c3b30080cf5000c8
:100c500003003e000040eb00760007001a0037005a
:100c60000040eb000b01070017003700204d220069
:100c7000104090009e4f500013003a00604d22003b
:100c8000104090000004e0000f003a00e04822000d
:100c90009000900010032000808f500008003e005c
:100ca000e04822001000900080407800004d2200b3
:100cb000014878000040eb005e00070002003700aa
:100cc0000040eb00f3000700905122001040780034
:100cd000e24f500055003a00604d22002040900045
:100ce0000004e0001a003a00604d220030409000fd
:100cf0000004e00016003a00204d22002040900041
:100d00009e4f500007003a00614d220010c0b30012
:100d1000a0409800e14822000000eb00a0009800ed
:100d200042003700204d2200104090009e4f50009e
:100d30003e003a00614d220010c0b300b040980060
:100d4000e14822000000eb00a000980037003700c7
:100d5000604d220020409000e14f5000040032001e
:100d6000604d220030409000e14f50002f003a00cb
:100d7000204d2200204090009e4f500014003a0069
:100d8000604d2200204090000004e00010003a0076
:100d9000e04822002000900080407800104d2200a2
:100da00001487800104d22009040780010c3b30035
:100db00080cf500003003e0010c0b3001d000700ac
:100dc0001a00370010c0b300b20007001700370048
:100dd000204d2200304090009e4f500013003a00fa
:100de000604d2200304090000004e0000f003a0007
:100df000e0482200a000900010032000808f5000e7
:100e000008003e00e048220020009000804078006a
:100e1000104d22000148780010c0b3000500070003
:100e20000200370010c0b3009a0007000080fa00eb
:100e3000000006000200fa00881f7800004f7800ca
:100e40001e04e0004c003a00614d22000040eb001f
:100e500080487800614d22000040eb0090409800ef
:100e60000040eb004b020700204d220010447800a8
:100e70000000eb00801f78008003eb000043eb00d4
:100e80008042eb000042eb008041eb000041eb00b0
:100e90008040eb000840780012940200000000003f
:100ea0008f87e900204d2200104490000000eb00e5
:100eb000801f78008003eb000043eb008042eb00d2
:100ec0000042eb008041eb000041eb008040eb0072
:100ed0000840780012940200000000008f87e900ab
:100ee0009051220010407800e14f500003003a007a
:100ef0002101070078010700030037000040eb00e4
:100f00003801070074010700004d220010407800ee
:100f1000e24f500004003e00d02881002003b000c2
:100f2000d028890058003700004d2200104078007a
:100f3000eb4f500004003e00d028810079004000b3
:100f4000d028890050003700004d22001040780062
:100f5000f84f500004003e00d02881006a00400095
:100f6000d028890048003700d02881006500400063
:100f7000d028890044003700614d22000040eb007a
:100f8000a0409800614d22000040eb00b040980066
:100f900010c0b300ff010700204d22002044900044
:100fa0000000eb00801f78008003eb000043eb00a3
:100fb0008042eb000042eb008041eb000041eb007f
:100fc0008040eb000840780012940200000000000e
:100fd0008f87e900204d2200304490000000eb0094
:100fe000801f78008003eb000043eb008042eb00a1
:100ff0000042eb008041eb000041eb008040eb0041
:101000000840780012940200000000008f87e90079
:1010100010c0b300f30007002f010700104d22009d
:1010200010407800e24f500004003e00e0288100ac
:101030002003b000e028890013003700104d220083
:1010400010407800eb4f500004003e00e028810083
:1010500079004000e02889000b003700104d220085
:1010600010407800f84f500004003e00e028810056
:101070006a004000e028890003003700e028810072
:1010800065004000e02889004f0478000080fa00e5
:10109000000006000200fa00004f78001e04e00085
:1010a00007003a00614d22000040eb0080487800c4
:1010b000614d22000040eb00904098000600370090
:1010c000614d22000040eb00a0409800614d2200dd
:1010d0000040eb00b04098000080fa0000000600dd
:1010e0000000fa00604d220010407800e14f5000ef
:1010f00004003200604d220010409000e14f50008b
:101100000b003a00e048220090009000b00420005c
:10111000808f500006003600614d22000040eb0039
:1011200080487800614d22000040eb00904098001c
:101130009051220010407800e24f500013003a0016
:10114000604d220020409000e14f5000040032002a
:10115000604d220030409000e14f50000b003a00fb
:10116000e0482200a0009000b0042000808f5000d2
:1011700006003600614d22000040eb00a0409800c0
:10118000614d22000040eb00b04098000080fa0062
:10119000000006000000fa002000200090298900cd
:1011a000e14822000000eb00800878004053220054
:1011b000204090000080fb008043eb00000378009b
:1011c000053220000042eb00130020000041eb003c
:1011d0008040eb0000c0eb003e7202000000000007
:1011e00080a1020000000000510020000040eb0040
:1011f0006e6f0200000000000000eb00801f78000e
:101200008003eb000043eb008042eb000042eb0068
:101210008041eb000041eb008040eb0000c0eb00a0
:1012200012940200000000008f87e9009051220014
:1012300010407800e14f500007003a0001482200ba
:1012400010c0b300804878001148220020c0b300cd
:10125000804878001e003700d09702000000000090
:10126000d1288100e0288100808f500007003600df
:101270000148220010c0b3008048780011482200c5
:101280000040eb008048780011003700e128810021
:10129000d0288100808f50000700360011482200be
:1012a00010c0b30080487800014822000040eb00e5
:1012b00080487800060037001148220010c0b300b3
:1012c000804878000148220010c0b30080487800b0
:1012d0000080fa00000006000000fa004000200034
:1012e00090298900e14822000000eb008008780086
:1012f00040532200204090000080fb008043eb0020
:1013000000037800450620000042eb001300200097
:101310000041eb008040eb0000c0eb003e72020099
:101320000000000080a102000000000081062000f3
:101330000040eb006e6f0200000000000000eb00b8
:10134000801f78008003eb000043eb008042eb003d
:101350000042eb008041eb000041eb008040eb00dd
:1013600000c0eb0012940200000000008f87e9002b
:101370000080fa00000006000000fa00204d220064
:101380001040780064404000e7406000204d22009b
:101390001040780000c1eb0040a2020000000000f5
:1013a00080407800204d220001487800204d220026
:1013b0001040780064404000e7406000204d22006b
:1013c00011409800614d22000040eb0080487800f9
:1013d000614d22000040eb00904098000080fa0030
:1013e000000006000200fa00004f78001e04e00032
:1013f0001c003a00204d220030419000204d220078
:1014000020429000204d220090409000204d22006c
:10141000104078008241780004417800d2a2020096
:101420000000000080407800204d22000148780034
:10143000204d22001040780064404000e7406000ea
:10144000204d220011409800614d22000040eb0029
:1014500080487800614d22000040eb0090409800e9
:101460001b003700204d220010419000204d22002b
:1014700010427800204d2200b0409000204d220004
:10148000204090008241780004417800d2a20200fe
:101490000000000080407800204d2200214098008c
:1014a000204d22002040900064404000e740600052
:1014b000204d220031409800614d22000040eb0099
:1014c000a0409800614d22000040eb00b040980021
:1014d0000080fa00000006000000fa00881f780073
:1014e00080010200000000007f4060001044b00056
:1014f00080407800a04d220001487800d04d2200a5
:1015000090407800b04d220001487800e04d220064
:1015100090407800c04d2200014878008001020010
:10152000000000007f4060007f4040008040780065
:10153000d04d220001487800800102000000000028
:101540007f4060007f40400080407800e04d2200f6
:10155000014878009051220010407800e14f50007f
:1015600031003a00a04d2200104078000081fb00bd
:10157000a04d2200104078008083fb00e04d220047
:1015800090417800d04d220010427800c04d2200da
:1015900010447800b04d220090407800204d220089
:1015a00010407800821f78000043eb0083427800ef
:1015b0008041eb0008417800129402000000000016
:1015c0008f87e900a04d2200104078000081fb00c9
:1015d000a04d2200104078008083fb00e04d2200e7
:1015e00090417800d04d220010427800c04d22007a
:1015f00010447800b04d220090407800204d220029
:1016000010409000821f78000043eb008342780076
:101610008041eb00084178001294020000000000b5
:101620008f87e90058003700a04d22001040780055
:101630008080fb00a04d2200104078008083fb00da
:10164000d04d220010417800b04d220010447800a7
:10165000204d220010407800811f78000043eb00ed
:101660008042eb00024278008041eb000041eb0039
:101670008840780012940200000000008f87e90083
:10168000a04d2200104078008080fb00a04d220079
:10169000104078008083fb00d04d2200104178007c
:1016a000b04d220010447800204d220010409000e0
:1016b000811f78000043eb008042eb00024278007b
:1016c0008041eb000041eb0088407800129402005a
:1016d000000000008f87e900a04d22001040780034
:1016e0008080fb00a04d2200104078008083fb002a
:1016f000e04d220010417800c04d220010447800d7
:10170000204d220020409000811f78000043eb0014
:10171000824278000042eb008041eb0008417800f3
:101720008040eb0012940200000000008f87e90067
:10173000a04d2200104078008080fb00a04d2200c8
:10174000104078008083fb00e04d220010417800bb
:10175000c04d220010447800204d220030409000ff
:10176000811f78000043eb00824278000042eb00ca
:101770008041eb00084178008040eb0012940200a9
:10178000000000008f87e9004f0478000080fa0015
:10179000000006000200fa00004f78001e04e0007e
:1017a00025003a0040532200904378004053220025
:1017b000104090008080fb00204d220010407800f7
:1017c00001037800e505200014c0b30013002000d9
:1017d0000041eb0011c0b3003e72020000000000a7
:1017e0004053220090437800405322001040900064
:1017f0008080fb00204d2200104090000103780003
:10180000e505200014c0b300130020000041eb00e8
:1018100011c0b3003e7202000000000080a102006f
:10182000000000006106200010c0b3006e6f0200cf
:10183000000000002400370040532200904378004d
:1018400040532200104090008080fb00204d220079
:101850002040900001037800e505200014c0b3008b
:10186000130020000041eb0021c0b3003e720200d3
:1018700000000000405322009043780040532200b3
:10188000104090008080fb00204d220030409000ee
:1018900001037800e505200014c0b3001300200008
:1018a0000041eb0021c0b3003e72020000000000c6
:1018b00080a10200000000006106200020c0b300eb
:1018c0006e6f0200000000000080fa0000000600b9
:1018d0000200fa0090298100000f78001e007800b5
:1018e000e20f5000980032001e007800e20f500016
:1018f00007003e001e0078000000e0000b003200f0
:101900001e007800e10f500078003200c60037005a
:101910001e007800e30f5000120032001e00780015
:10192000e40f500090003200bf0037001aa20200fe
:1019300000000000e04822008000eb000108780071
:10194000300020009029890080a1020000000000e2
:1019500080a102000000000080a102000000000041
:10196000b3003700e048220010007800e50f500077
:10197000af00360040532200104078000080fb008a
:101980008043eb0000037800053221000042eb00a9
:10199000130020000041eb008040eb0000c0eb0092
:1019a0003e7202000000000080a102000000000062
:1019b000e10620000040eb006e6f02000000000016
:1019c0001000200090298900a6030700c1412200d1
:1019d00040c6b30080487800d141220040c0b30027
:1019e00080487800e141220030c0b3008048780090
:1019f0009051220010407800e14f500013003a004f
:101a0000800102000000000080007800f00f20003c
:101a100000806000c012b000c0208900e1482200b0
:101a20000000eb00a00098000040eb00a7020700b8
:101a3000014822000040eb00804878001148220055
:101a400020c0b300804878001e00370080010200eb
:101a50000000000080007800f00f2000008060008f
:101a6000c012b000c0208900800102000000000008
:101a700080007800f00f200000806000c012b000ed
:101a8000d0208900e14822000000eb00a00098006f
:101a9000e14822000000eb00b00098000040eb009d
:101aa0008a02070010c0b300880207000148220024
:101ab0000040eb0080487800114822000040eb0015
:101ac00080487800e14822000000eb009000980078
:101ad000e14822000000eb0080087800c1482200a5
:101ae00010c0b3008048780051003700e048220061
:101af00090007800e0f42000808f50000e00360047
:101b0000230207000000eb00801f78008003eb0039
:101b10000043eb008042eb000042eb008041eb0011
:101b20000041eb008040eb0000c0eb00129402008b
:101b3000000000008f87e90074030700d100070050
:101b4000f90007003a003700e048220090007800d2
:101b500000322000808f5000350036006aa302005a
:101b60000000000032003700e048220090007800ba
:101b700030062000808f50002d003600dc01070069
:101b80009051220010407800e14f500007003a00c9
:101b90000148220010c0b30080487800114822009c
:101ba00020c0b3008048780021003700d0970200a1
:101bb00000000000d1288100e0288100808f5000c3
:101bc000070036000148220010c0b30080487800aa
:101bd000114822000040eb008048780014003700d4
:101be000e1288100d0288100808f50000700360056
:101bf0001148220010c0b30080487800014822003c
:101c00000040eb00804878000900370011482200ae
:101c100010c0b300804878000148220010c0b30013
:101c200080487800020037000000eb00902989000e
:101c30000080fa00000006000400fa00004f78005f
:101c400090298100100798001e009000e10f5000bd
:101c5000040032001e009000e40f5000010032002a
:101c6000860037001e80fb00024222006300b9009c
:101c700002004000104090000004e0007d003200af
:101c80001e407800fd0107009e81fb0002422200f9
:101c90006318b90002004000104090000042e900c3
:101ca000024222006318b900020040000000e80070
:101cb000044878001e80fb00024222006300b90045
:101cc0000080e800604079000004e0001c003a0059
:101cd000d02881000080e800d02889001e80fb0009
:101ce000024222006300b900020040001040900050
:101cf0000080fb00000040000000400000004000a9
:101d00000040e90080407800e0012000801f78005a
:101d1000e70120000043eb008042eb000142780025
:101d20008041eb00f2c3b300f1c3b3001e40780062
:101d300012940200000000008f87e9001b003700aa
:101d4000e02881000080e800e02889001e80fb0078
:101d5000024222006300b9000200400010409000df
:101d60000080fb0000004000000040000000400038
:101d70000040e90080407800e0012000801f7800ea
:101d8000e70120000043eb00814278000042eb00b5
:101d90008041eb00f2c3b300f1c3b3001e407800f2
:101da00012940200000000008f87e9001e80fb00f3
:101db000024222006300b90002004000104090007f
:101dc0000004e0002d003a001e4078009b0107004f
:101dd0001e80fb00024222006300b9000080e80080
:101de000604079000004e00011003a004041220008
:101df00090407800e04122001040780080cf5000f1
:101e0000020031000040eb00b0010700d028810043
:101e10006a004000d028890040412200104078002c
:101e20008040e9004041220001487800130037005b
:101e30005041220090407800e0412200104078009c
:101e400080cf50000200310010c0b3009f01070096
:101e5000e02881006a004000e0288900504122000b
:101e6000104078008040e90050412200014878008d
:101e7000020037001e407800900107000080fa0041
:101e8000000006000000fa00e0482200a0009000d8
:101e9000c0208100808f50000c003600e1482200f5
:101ea0000000eb00a000980080010200000000008c
:101eb00080007800f00f200000806000c012b000a9
:101ec000c02089000040eb008001070090512200f3
:101ed00010407800e24f500011003a00e048220024
:101ee000b0009000d0208100808f50000c003600a0
:101ef000e14822000000eb00b000980080010200e1
:101f00000000000080007800f00f200000806000da
:101f1000c012b000d020890010c0b3006b010700d0
:101f20000080fa00000006000400fa00e0482200e9
:101f300010009000e50f5000eb003600e148220051
:101f40000000eb0090009800f04122001040780063
:101f50008040e800f041220001487800f041220072
:101f600010407800e3406000f04122000148780012
:101f7000f0412200104078000080fb00100798001c
:101f80001e009000e20f50006f0032001e00900013
:101f9000e30f5000960032001e009000e10f500049
:101fa0002a0032000040eb00004f78002300370089
:101fb0001e80fb00024222006300b90002004000c4
:101fc000104090000004e0000e0032000000eb0022
:101fd000801f78008003eb000043eb008042eb00a1
:101fe0000042eb008041eb000041eb008040eb0041
:101ff0001e40780012940200000000008f87e90064
:102000000d0037000000eb00801f78008003eb001c
:102010000043eb008042eb000042eb008041eb000c
:102020000041eb008040eb001e407800129402005b
:10203000000000008f87e9001e4fe80070c0b30069
:102040009e4f1000daff3600a70037000040eb007b
:10205000004f7800380037001e80fb00024222004b
:102060006300b90002004000104090000004e0004e
:10207000230032001e80fb00024222006300b900f0
:102080000080e800604079000004e0000e003a00a3
:102090000000eb00801f78008003eb000043eb00a2
:1020a0008042eb00f4c3b3008041eb000041eb0041
:1020b000f1c3b3001e40780012940200000000003b
:1020c0008f87e9001b0037000000eb00801f7800bd
:1020d0008003eb000043eb00f5c3b3000042eb00cc
:1020e0008041eb00f2c3b3008040eb001e4078005b
:1020f00012940200000000008f87e9000d003700f5
:102100000000eb00801f78008003eb000043eb0031
:102110008042eb000042eb008041eb000041eb000d
:102120008040eb001e407800129402000000000086
:102130008f87e9001e4fe80070c0b3009e4f10006b
:10214000c5ff3600680037000040eb00004f780004
:10215000230037001e80fb00024222006300b9000a
:1021600002004000104090000004e0000e00320029
:102170000000eb00801f78008003eb000043eb00c1
:102180008042eb000042eb008041eb000041eb009d
:102190008040eb001e407800129402000000000016
:1021a0008f87e9000d0037000000eb00801f7800ea
:1021b0008003eb000043eb008042eb000042eb00a9
:1021c0008041eb000041eb008040eb001e407800b6
:1021d00012940200000000008f87e9001e4fe80003
:1021e00070c0b3009e4f1000daff36003e0037008b
:1021f0000040eb00004f7800380037001e80fb00e5
:10220000024222006300b90002004000104090002a
:102210000004e000230032001e80fb000242220086
:102220006300b9000080e800604079000004e0002d
:102230000e003a000000eb00801f78008003eb00e6
:102240000043eb0085c1b30084c1b3008041eb00c3
:1022500082c1b30001c3b3001e4078001294020093
:10226000000000008f87e9001b0037000000eb0032
:10227000801f78008003eb000043eb0085c1b300b2
:1022800084c1b3008041eb0002c3b30081c1b3003d
:102290001e40780012940200000000008f87e900c1
:1022a0000d0037000000eb00801f78008003eb007a
:1022b0000043eb008042eb000042eb008041eb006a
:1022c0000041eb008040eb001e40780012940200b9
:1022d000000000008f87e9001e4fe80070c0b300c7
:1022e0009e4f1000c5ff36000080fa000000060077
:1022f0000000fa002000200090298900e148220017
:102300000000eb008008780040532200204090003d
:102310000080fb008043eb000003780005322000c2
:102320000042eb00130020000041eb008040eb0076
:1023300000c0eb003e7202000000000080a102001d
:1023400000000000510020000040eb006e6f020012
:10235000000000000000eb00801f78008003eb000d
:102360000043eb008042eb000042eb008041eb00b9
:102370000041eb008040eb0000c0eb001294020033
:10238000000000008f87e9000080fa0000000600ce
:102390000000fa004000200090298900e148220056
:1023a0000000eb008008780040532200204090009d
:1023b0000080fb008043eb0000037800350620001e
:1023c0000042eb00130020000041eb008040eb00d6
:1023d00000c0eb003e7202000000000080a102007d
:1023e00000000000f10620000040eb006e6f0200cc
:1023f000000000000080fa00000006000200fa0061
:10240000004f780040532200904078004053220053
:102410001041900016c0b300814278000042eb00ea
:1024200013c0b30041c0b3001e4078000474020022
:10243000000000000080fa00000006000200fa0020
:10244000004f780040532200904078004053220013
:102450001041900016c0b300814278000042eb00aa
:1024600013c0b30051c0b3001e40780004740200d2
:10247000000000000080fa00000006000200fa00e0
:10248000004f7800405322009040780040532200d3
:102490001041900016c0b300814278000042eb006a
:1024a00013c0b30021c0b3001e40780004740200c2
:1024b000000000000080fa00000006000200fa00a0
:1024c000004f78000080fa00000006000400fa00c7
:1024d000204798000040eb00004f78002e4090000d
:1024e0000004e0006f003a00404122009040780074
:1024f000d04122001040780080cf5000d70031003a
:1025000040412200104078008040e8004041220015
:1025100001487800604122001040780000c1eb00c3
:1025200080c0eb0040a202000000000010479800ad
:10253000090037001e4fe80060412200104078007b
:1025400000c1eb0080c0eb0040a2020000000000d0
:10255000104798000060fe001e4090000080fb00c5
:10256000024222006300b9000200400010409000c7
:102570000004e00003003200f0c3b3009e4f1000df
:10258000ecff3600f0c3b3009e4f10002800360069
:102590000040eb00004f7800210037001e80fb0058
:1025a000024222006300b900020040001040900087
:1025b0000004e00019003a00604122001e48780043
:1025c0001e80fb00024222006300b90002004000ae
:1025d0008000e80020c0b300804878001e407800ea
:1025e00086ff07001e80fb00024222006300b90044
:1025f000820040000040eb00804878001e80fb0015
:10260000024222006300b900020040008080e8001e
:102610000040eb0080487800900037001e4fe80033
:1026200070c0b3009e4f1000dcff36008b003700f7
:10263000604122009e409000014878001e409000ba
:102640000080fb00024222006300b900020040004b
:102650008000e80020c0b300804878001e40900051
:1026600066ff07001e4090000080fb00024222002f
:102670006300b900820040000040eb008048780011
:102680001e4090000080fb00024222006300b9005f
:10269000020040008080e8000040eb0080487800a5
:1026a0006e0037005041220090407800d041220057
:1026b0001040780080cf5000680031005041220067
:1026c000104078008040e800504122000148780026
:1026d000704122001040780000c1eb0080c0eb0088
:1026e00040a20200000000001047980009003700d7
:1026f0001e4fe800704122001040780000c1eb003e
:1027000080c0eb0040a202000000000010479800cb
:102710000060fe001e4090000080fb00024222008c
:102720006300b90002004000104090000004e00087
:1027300003003200f0c3b3009e4f1000ecff3600e0
:10274000f0c3b3009e4f1000280036000040eb009d
:10275000004f7800210037001e80fb00024222005b
:102760006300b90002004000104090000004e00047
:1027700019003a00704122001e4878001e80fb00bc
:10278000024222006300b900020040008000e8001d
:1027900020c0b300804878001e40780017ff070073
:1027a0001e80fb00024222006300b900820040004c
:1027b0000040eb00804878001e80fb0002422200af
:1027c0006300b900020040008080e80010c0b30040
:1027d00080487800210037001e4fe80070c0b30029
:1027e0009e4f1000dcff36001c00370070412200b5
:1027f0009e409000014878001e4090000080fb0041
:10280000024222006300b900020040008000e8009c
:1028100020c0b300804878001e409000f7fe0700fb
:102820001e4090000080fb00024222006300b900bd
:10283000820040000040eb00804878001e4090007d
:102840000080fb00024222006300b9000200400049
:102850008080e80010c0b300804878000080fa0053
:10286000000006000200fa000040eb00004f780074
:10287000150037001e80fb00024222006300b900f1
:10288000020040008000e8000040eb008048780033
:102890001e80fb00024222006300b90002004000db
:1028a0008080e8000040eb00804878001e80fb003c
:1028b000024222006300b900820040000040eb00a9
:1028c000804878001e4fe80070c0b3009e4f100093
:1028d000e8ff3600414122000040eb0080487800cc
:1028e000514122000040eb00804878006141220005
:1028f00000c0eb00804878007141220000c0eb006e
:10290000804878000080fa00000006000200fa000b
:10291000e048220040009000e10f50003a003600ed
:10292000e04822008000eb00410098000040eb00ee
:10293000004f7800310037001e80fb000242220069
:102940006300b90002004000104090000004e00065
:10295000290032009e81fb00024222006318b90068
:10296000604079000042e800024222006318b9008a
:1029700002004000044878001e80fb000242220052
:102980006300b900e0407900c041220010407800a7
:1029900080cf5000180036001e80fb00024222004b
:1029a0006300b900820040000040eb0080487800de
:1029b0001e80fb00024222006300b90002004000ba
:1029c00010409000e44f50000b003e009e81fb0041
:1029d000024222006318b90002004000104090003b
:1029e0000042e800024222006318b90002004000e1
:1029f0000000e800044878001e4fe80070c0b300f3
:102a00009e4f1000ccff36000080fa000000060048
:102a10000200fa0090298100000f78001e00780063
:102a2000e20f5000b70032001e007800e20f5000a5
:102a300007003e001e0078000000e0000e0032009b
:102a40001e007800e10f500016003200bd01370073
:102a50001e007800e40f5000200132001e007800b4
:102a6000e40f5000a80139001e007800e50f500067
:102a7000ad013200b301370094a102000000000054
:102a8000c14822000040eb00804878001000200080
:102a900090298900e14822000000eb0080087800be
:102aa000aa013700e048220010007800e50f50002e
:102ab000a60136009051220010407800e14f5000ee
:102ac00029003a0000c1eb0080c0eb0000c0eb0021
:102ad00040a2020000000000804078002051220047
:102ae0000148780020512200904078000041eb001e
:102af0000040eb00c1020700205122001040780086
:102b000067040700200020009029890071512200ed
:102b10000040eb0080487800e14822000000eb0014
:102b2000b0009800e14822000000eb00a0009800ef
:102b3000e14822000000eb00c00098000000eb001c
:102b4000d02889000000eb00e0288900014822001d
:102b50000040eb00804878001148220020c0b300fc
:102b6000804878003c00370000c1eb0080c0eb00db
:102b700000c0eb0040a2020000000000804078008e
:102b80002051220001487800205122001040780096
:102b900000c1eb0080c0eb0040a20200000000007a
:102ba00080407800305122000148780020512200f6
:102bb000904078000041eb000040eb008f020700de
:102bc00030512200904078000041eb0010c0b3006b
:102bd0008a020700205122001040780030040700cc
:102be00030512200104078003e04070040002000d1
:102bf00090298900e14822000000eb00b000980015
:102c0000e14822000000eb00c0009800e1482200eb
:102c10000000eb00d0009800e14822000000eb002b
:102c2000e00098005151220010c0b30080487800a5
:102c30000000eb00d02889000000eb00e0288900ac
:102c4000014822000040eb00804878001148220033
:102c50000040eb008048780040532200104078008c
:102c60000080fb008043eb0000037800052c21006e
:102c70000042eb00130020000041eb008040eb001d
:102c800000c0eb003e7202000000000080a10200c4
:102c900000000000310120000040eb006e6f0200d8
:102ca000000000000000eb00d02889000000eb00cd
:102cb000e02889000000eb00702889000000eb008c
:102cc00080288900e14822000000eb00800878009d
:102cd000e14822000000eb0090009800e14822004b
:102ce0000000eb00a0009800615122000040eb00c2
:102cf00080487800c148220010c0b30080487800a6
:102d00001201370070512200104078000004e000ea
:102d100010003a00e048220090007800002c2100ca
:102d2000808f500011003600e14822000000eb00c7
:102d300080087800d1288100c0122000808f5000c8
:102d400002003600930407000800370069040700fa
:102d500006003700e048220090007800703e200016
:102d6000808f50000100360011040700e048220067
:102d7000b000900020032000808f50000600360035
:102d80002051220010407800c5030700e1482200ce
:102d90000000eb00b0009800e0482200c000900066
:102da000f0298100808f5000080036002051220059
:102db000904078000041eb000040eb000f0207005c
:102dc000e14822000000eb00c0009800e04822002b
:102dd00090009000004b2000808f500016003600bd
:102de000205122001040780000c1eb0080c0eb00b1
:102df00040a2020000000000804078004051220004
:102e0000014878006151220010c0b300804878006a
:102e100040512200904078000040eb00c2030700c0
:102e20004051220010407800cc010700e148220008
:102e30000000eb00900098006051220010407800e4
:102e4000e14f5000c1003a00e0482200900090009d
:102e5000000f2000808f50001400360061512200c6
:102e60000040eb008048780040532200104078007a
:102e70008080fb0040512200104078008043eb002e
:102e800001037800052c21000042eb001300200014
:102e90000041eb008040eb003e72020000000000a9
:102ea00080a1020000000000a8003700e0482200d6
:102eb00020009000f90f5000a4003600e1482200e5
:102ec0000000eb00a00098004051220090407800e4
:102ed0000040eb00940307009c003700e04822000c
:102ee00090007800002c2100808f500004003600f4
:102ef000e14822000000eb0080087800fd03070095
:102f0000e0482200b000900020032000808f500095
:102f100006003600205122001040780060030700b0
:102f2000e14822000000eb00b0009800e0482200d9
:102f3000c0009000f0298100808f5000080036000a
:102f400020512200904078000041eb000040eb004f
:102f5000aa010700e14822000000eb00c000980031
:102f6000e0482200d000900020032000808f500015
:102f70000600360030512200104078005903070047
:102f8000e14822000000eb00d0009800e048220059
:102f9000e0009000002a8100808f50000800360079
:102fa00030512200904078000041eb0010c0b30087
:102fb00092010700e14822000000eb00e0009800c9
:102fc000e048220090009000004b2000808f5000cd
:102fd0002300360050512200104078000004e00029
:102fe00004003a005151220010c0b300804878001c
:102ff00003003700515122000040eb008048780068
:10300000305122009040780020512200104078007a
:1030100000c1eb0040a202000000000080407800e8
:1030200040512200014878006151220010c0b300d5
:103030008048780040512200904078005051220092
:1030400010407800380307004051220010407800fb
:1030500042010700e14822000000eb0090009800c8
:103060006051220010407800e14f500037003a00d4
:10307000e048220090009000000f2000808f500058
:1030800014003600615122000040eb0080487800b7
:1030900040532200104078008080fb004051220005
:1030a000104078008043eb0001037800052c2100dc
:1030b0000042eb00130020000041eb008040eb00d9
:1030c0003e7202000000000080a10200000000002b
:1030d0001e003700e048220020009000f90f500049
:1030e0001a003600e14822000000eb00a000980022
:1030f000405122009040780050512200104078004a
:103100000903070011003700e04822009000780012
:1031100000322000808f50000c0036006aa30200ad
:103120000000000009003700e0482200900078000d
:1031300010042000808f5000040036001c0307009c
:10314000020037000000eb00902989000080fa009f
:10315000000006000400fa00004f7800902981006a
:10316000100798001e009000e20f5000040032008b
:103170001e009000e40f500059003200f5003700a7
:1031800020512200104078009e4f100036003a0077
:103190001e407800090107000000eb00801f780046
:1031a0008003eb000043eb008042eb000042eb00a9
:1031b0008041eb000041eb008040eb001e407800b6
:1031c00012940200000000008f87e9006051220085
:1031d00010407800e14f50000a003a0040512200b0
:1031e000104078001e41780080c0eb0040a2020031
:1031f0000000000080407800205122000148780043
:103200000800370000c1eb0080c0eb001e407800d2
:1032100040a20200000000008040780020512200ff
:103220000148780020512200904078000041eb00d6
:103230000040eb00f1000700205122001040780010
:1032400097020700e14822000000eb00b000980060
:10325000e14822000000eb00c0009800d028810067
:103260006a004000d0288900605122001040780098
:10327000e14f5000b7003a00405122001040780062
:103280009e4f1000b3003a000000eb00801f780052
:103290008003eb000043eb008042eb000042eb00b8
:1032a0008041eb000041eb008040eb001e407800c5
:1032b00012940200000000008f87e9006151220093
:1032c0000040eb00804878001e407800bb000700fb
:1032d000d028810079004000d02889009d00370067
:1032e00020512200104078009e4f100038003a0014
:1032f0001e407800b10007000000eb00801f78003e
:103300008003eb000043eb008042eb000042eb0047
:103310008041eb000041eb008040eb001e40780054
:1033200012940200000000008f87e9006051220023
:1033300010407800e14f50000b003a00405122004d
:103340009040780030512200104078001e417800f3
:1033500040a20200000000008040780020512200be
:1033600001487800090037003051220010407800f1
:103370001e41780080c0eb0040a202000000000067
:10338000804078002051220001487800205122001e
:10339000904078000041eb000040eb0097000700f0
:1033a00020512200104078003d020700e148220031
:1033b0000000eb00b0009800e14822000000eb00a4
:1033c000c0009800d02881006a004000d028890001
:1033d0006051220010407800e14f500021003a0077
:1033e00040512200104078009e4f10001d003a000e
:1033f0000000eb00801f78008003eb000043eb002f
:103400008042eb000042eb008041eb000041eb000a
:103410008040eb001e407800129402000000000083
:103420008f87e900615122000040eb00804878005e
:103430001e407800610007005051220010407800c3
:103440000004e00004003a00d02881007900400028
:10345000d028890003003700e0288100790040006f
:10346000e028890030512200104078009e4f100063
:1034700038003a001e407800500007000000eb00c2
:10348000801f78008003eb000043eb008042eb00dc
:103490000042eb008041eb000041eb008040eb007c
:1034a0001e40780012940200000000008f87e9009f
:1034b0006051220010407800e14f50000b003a00ac
:1034c00040512200904078002051220010407800a6
:1034d0001e41780040a202000000000080407800f9
:1034e00030512200014878000900370020512200a5
:1034f000104078001e41780080c0eb0040a202001e
:10350000000000008040780030512200014878001f
:1035100030512200904078000041eb0010c0b30011
:10352000360007003051220010407800ed010700fe
:10353000e14822000000eb00d0009800e1482200a2
:103540000000eb00e0009800e02881006a004000e5
:10355000e02889000080fa00000006000200fa005e
:10356000004f7800405322009043780040532200df
:10357000104090000080fb0000037800050520004b
:1035800014c0b300130020000041eb0031c0b300b1
:103590001e4078003e7202000000000080a1020080
:1035a000000000002101200030c0b3006e6f020057
:1035b000000000000080fa00000006000200fa008f
:1035c000004f780040532200904078004053220082
:1035d0001041900016c0b300814278000042eb0019
:1035e00013c0b3008040eb001e407800047402005a
:1035f000000000000080fa00000006000600fa004b
:10360000004f780011479800224798001e40900014
:103610000080fb00dc710200000000001e409000f2
:103620000080fb00200798002e009000e30f500060
:10363000aa0032002e009000e30f50000a003c0068
:103640002e009000e10f5000440032002e00900048
:10365000e10f500071003c002e0090000000e000df
:103660000e0032008c0137002e009000e50f500054
:10367000fa0032002e009000e50f5000c700350020
:103680002e009000e60f5000240132002e00900022
:10369000e70f5000510132007f0137001e04e000a7
:1036a00017003a0040532200904378004053220014
:1036b000104090000080fb000003780035052000da
:1036c00014c0b300130020000041eb0011c0b30090
:1036d0001e4090003e7202000000000080a1020027
:1036e00000000000a100200010c0b3006e6f0200b7
:1036f00000000000e0062000f02989006601370084
:103700004053220090437800405322001040900024
:103710000080fb00000378003505200014c0b300d2
:10372000130020000041eb0021c0b3001e409000b8
:103730003e7202000000000080a1020000000000b4
:10374000a100200020c0b3006e6f02000000000046
:10375000e0062000002a89004f0137001e04e00027
:1037600017003a0040532200904378004053220053
:10377000104090000080fb0000037800d50220007c
:1037800014c0b300130020000041eb0011c0b300cf
:103790001e4090003e7202000000000080a1020066
:1037a00000000000b100200010c0b3006e6f0200e6
:1037b00000000000e0062000f029890036013700f3
:1037c0004053220090437800405322001040900064
:1037d0000080fb0000037800d502200014c0b30075
:1037e000130020000041eb0021c0b3001e409000f8
:1037f0003e7202000000000080a1020000000000f4
:10380000b100200020c0b3006e6f02000000000075
:10381000e0062000002a89001f0137001e04e00096
:1038200017003a0040532200904378004053220092
:10383000104090000080fb0000037800550320003a
:1038400014c0b300130020000041eb0011c0b3000e
:103850001e4090003e7202000000000080a10200a5
:1038600000000000c100200010c0b3006e6f020015
:1038700000000000e0062000f02989000601370062
:1038800040532200904378004053220010409000a3
:103890000080fb00000378005503200014c0b30033
:1038a000130020000041eb0021c0b3001e40900037
:1038b0003e7202000000000080a102000000000033
:1038c000c100200020c0b3006e6f020000000000a5
:1038d000e0062000002a8900ef0037001e04e00007
:1038e00017003a00405322009043780040532200d2
:1038f000104090000080fb0000037800f5022000db
:1039000014c0b300130020000041eb0011c0b3004d
:103910001e4090003e7202000000000080a10200e4
:1039200000000000d100200010c0b3006e6f020044
:1039300000000000e0062000f0298900d6003700d2
:1039400040532200904378004053220010409000e2
:103950000080fb0000037800f502200014c0b300d3
:10396000130020000041eb0021c0b3001e40900076
:103970003e7202000000000080a102000000000072
:10398000d100200020c0b3006e6f020000000000d4
:10399000e0062000002a8900bf0037001e04e00076
:1039a00017003a0040532200904378004053220011
:1039b000104090000080fb0000037800f505200017
:1039c00014c0b300130020000041eb0011c0b3008d
:1039d0001e4090003e7202000000000080a1020024
:1039e00000000000e100200010c0b3006e6f020074
:1039f00000000000e0062000f0298900a600370042
:103a00004053220090437800405322001040900021
:103a10000080fb0000037800f505200014c0b3000f
:103a2000130020000041eb0021c0b3001e409000b5
:103a30003e7202000000000080a1020000000000b1
:103a4000e100200020c0b3006e6f02000000000003
:103a5000e0062000002a89008f0037001e04e000e5
:103a600017003a0040532200904378004053220050
:103a7000104090000080fb0000037800d504200077
:103a800014c0b300130020000041eb0011c0b300cc
:103a90001e4090003e7202000000000080a1020063
:103aa00000000000f100200010c0b3006e6f0200a3
:103ab00000000000e0062000f029890076003700b1
:103ac0004053220090437800405322001040900061
:103ad0000080fb0000037800d504200014c0b30070
:103ae000130020000041eb0021c0b3001e409000f5
:103af0003e7202000000000080a1020000000000f1
:103b0000f100200020c0b3006e6f02000000000032
:103b1000e0062000002a89005f0037001e04e00054
:103b200017003a004053220090437800405322008f
:103b3000104090000080fb00000378008502200008
:103b400014c0b300130020000041eb0011c0b3000b
:103b50001e4090003e7202000000000080a10200a2
:103b6000000000000101200010c0b3006e6f0200d1
:103b700000000000e0062000f02989004600370020
:103b800040532200904378004053220010409000a0
:103b90000080fb00000378008502200014c0b30001
:103ba000130020000041eb0021c0b3001e40900034
:103bb0003e7202000000000080a102000000000030
:103bc0000101200020c0b3006e6f02000000000061
:103bd000e0062000002a89002f0037001e04e000c4
:103be00017003a00405322009043780040532200cf
:103bf000104090000080fb000003780015062000b4
:103c000014c0b300130020000041eb0011c0b3004a
:103c10001e4090003e7202000000000080a10200e1
:103c2000000000001101200010c0b3006e6f020000
:103c300000000000e0062000f0298900160037008f
:103c400040532200904378004053220010409000df
:103c50000080fb00000378003505200014c0b3008d
:103c6000130020000041eb0021c0b3001e40900073
:103c70003e7202000000000080a10200000000006f
:103c8000a100200020c0b3006e6f02000000000001
:103c9000e0062000002a89000080fa0000000600eb
:103ca0000200fa00004f78000000eb00801f78004f
:103cb0008003eb000043eb008042eb00f4c3b30051
:103cc0008041eb000041eb00f1c3b3001e407800df
:103cd00012940200000000008f87e9000080fa00c3
:103ce000000006000200fa00004f78000000eb0020
:103cf000801f78008003eb000043eb00f5c3b300a6
:103d00000042eb008041eb00f2c3b3008040eb00c7
:103d10001e40780012940200000000008f87e90026
:103d20000080fa00000006000200fa00004f780050
:103d3000114798001e04e0000e003a000000eb005e
:103d4000801f7800c70020000043eb008042eb009a
:103d5000f4c3b3008041eb000041eb00f1c3b300ba
:103d60001e40900012940200000000008f87e900be
:103d70000d0037000000eb00801f7800c700200016
:103d80000043eb00f5c3b3000042eb008041eb00c1
:103d9000f2c3b3008040eb001e409000129402007a
:103da000000000008f87e9000080fa000000060094
:103db0000000fa00e14822000000eb0080087800d3
:103dc00030002000902989000000eb00801f78005f
:103dd0008003eb000043eb008042eb000042eb006d
:103de0008041eb000041eb008040eb0000c0eb00a5
:103df00012940200000000008f87e9004053220067
:103e0000204090000080fb008043eb00000378001e
:103e1000053220000042eb00130020000041eb00bf
:103e20008040eb0000c0eb003e720200000000008a
:103e300080a1020000000000510020000040eb00c3
:103e40006e6f0200000000009051220010407800c8
:103e5000e14f500007003a000148220010c0b300b3
:103e6000804878001148220020c0b30080487800c4
:103e70001e003700d097020000000000d12881000a
:103e8000e0288100808f50000700360001482200a2
:103e900010c0b30080487800114822000040eb00b9
:103ea0008048780011003700e1288100d028810087
:103eb000808f5000070036001148220010c0b30068
:103ec00080487800014822000040eb0080487800dc
:103ed000060037001148220010c0b3008048780067
:103ee0000148220010c0b300804878000080fa002a
:103ef000000006000000fa00e14822000000eb008c
:103f00008008780050002000902989000000eb0014
:103f1000801f78008003eb000043eb008042eb0041
:103f20000042eb008041eb000041eb008040eb00e1
:103f300000c0eb0012940200000000008f87e9002f
:103f400040532200204090000080fb008043eb00a3
:103f500000037800150420000042eb00130020004d
:103f60000041eb008040eb0000c0eb003e7202001d
:103f70000000000080a102000000000051012000ac
:103f80000040eb006e6f0200000000000080fa00ad
:103f9000000006000000fa0000c1eb0080c0eb004a
:103fa00000c0eb0040a2020000000000804078004a
:103fb00020512200014878000000eb00801f7800ab
:103fc0008003eb000043eb008042eb000042eb007b
:103fd0008041eb000041eb008040eb0000c0eb00b3
:103fe00012940200000000008f87e900e1482200df
:103ff0000000eb0080087800200020009029890054
:104000007151220010c0b300804878004053220054
:10401000104078000080fb008043eb000003780034
:10402000753e20000042eb00130020000041eb0031
:104030008040eb0000c0eb003e7202000000000078
:1040400080a1020000000000410120000040eb00c0
:104050006e6f0200000000000080fa000000060001
:104060000200fa0090298100000f78001e007800fd
:10407000e20f50001c0032001e007800e20f5000da
:1040800007003e001e0078000000e0000b00320038
:104090001e007800e10f5000bf003200cf01370052
:1040a0001e007800e30f5000a60132001e007800c9
:1040b000e40f5000c1013200c801370094a1020092
:1040c00000000000e14822000000eb0080087800ba
:1040d0002000200090298900c148220010c0b300b0
:1040e00080487800bf013700e048220010007800c7
:1040f000e50f5000bb0136009051220010407800bf
:10410000e14f500044003a00414e22000040eb00d5
:104110008048780040532200104078000080fb0067
:104120008043eb00000378008082eb0014c0b300f2
:10413000130020000041eb008040eb0000c0eb00ca
:104140003e72020000000000405322001040780040
:104150000080fb008043eb00000378008082eb00ce
:1041600014c0b300130020000041eb008040eb00be
:1041700000c0eb003e72020000000000404e220032
:1041800010407800a6040700800102000000000033
:10419000e7406000704e2200014878006e0307007f
:1041a000514e22000040eb00804878000000eb00f8
:1041b000d0288900014e22000040eb0080487800a2
:1041c000114e22000040eb008048780010002000d3
:1041d00090298900e14822000000eb00900098003f
:1041e000914e22000040eb008048780011482200e8
:1041f0000040eb0080487800014822000040eb00be
:10420000804878000000eb00d02889000000eb0017
:10421000e028890057003700414e22000040eb00a3
:104220008048780040532200104078000080fb0056
:104230008043eb00000378008082eb0014c0b300e1
:10424000130020000041eb008040eb0000c0eb00b9
:104250003e7202000000000040532200104078002f
:104260000080fb008043eb00000378008082eb00bd
:1042700014c0b300130020000041eb008040eb00ad
:1042800000c0eb003e72020000000000404e220021
:104290001040780062040700800102000000000066
:1042a000e7406000704e220001487800704e220006
:1042b0001040780064404000e7406000804e2200db
:1042c0000148780024030700514e22000040eb0013
:1042d00080487800614e22000040eb008048780062
:1042e0000000eb00d02889000000eb00e0288900e6
:1042f000014e22000040eb0080487800114e220061
:104300000040eb0080487800214e22000040eb0086
:1043100080487800314e22000040eb008048780051
:10432000e14822000000eb0090009800914e22002e
:104330000040eb0080487800a14e22000040eb00d6
:1043400080487800114822000040eb008048780047
:10435000014822000040eb00804878000000eb009c
:10436000d02889000000eb00e02889001000200020
:10437000902989008001020000000000e1406000f7
:10438000b04e220001487800e14822000000eb0016
:10439000b000980013013700e04822009000780038
:1043a000e0702200808f500001003600d803070023
:1043b000904e220010407800e14f500026003a0055
:1043c000a04e220010407800e14f500022003a0039
:1043d000d1288100e0288100808f50000700310043
:1043e0000148220010c0b300804878001148220024
:1043f0000040eb008048780011003700e128810080
:10440000d0288100808f5000070031001148220021
:1044100010c0b30080487800014822000040eb0043
:1044200080487800060037001148220010c0b30011
:10443000804878000148220010c0b300804878000e
:10444000c14e220010c0b30080487800d09702000f
:1044500000000000ae030700e048220010009000ba
:10446000ea0f50006d003a00e14822000000eb0026
:1044700090009800b8020700905122001040780088
:10448000e14f500021003a00104e22001040780009
:104490008040e800104e220001487800104e2200b3
:1044a00010407800ea4f500009003a00114e2200f7
:1044b0000040eb0080487800004e22001040780059
:1044c0008040e800004e220001487800a202070068
:1044d000004e2200104078000080fb006a00b90006
:1044e00080007800104e2200104078000080fb0011
:1044f00000804000e0288900504e220010407800e3
:104500000080fb00d028890044003700904e220034
:10451000104078000004e0001e003a00104e220017
:10452000104078008040e800104e220001487800da
:10453000104e220010407800ea4f500008003a0068
:10454000114e22000040eb0080487800004e22000f
:10455000104078008040e800004e220001487800ba
:10456000004e2200104078000080fb006a00b90075
:1045700080007800104e2200104078000080fb0080
:1045800000804000d0288900014822000040eb0054
:1045900080487800a04e2200104078000004e0001f
:1045a0001e003a00304e2200104078008040e800a3
:1045b000304e220001487800304e22001040780032
:1045c000ea4f500008003a00314e22000040eb0054
:1045d00080487800204e2200104078008040e8009b
:1045e000204e220001487800204e22001040780022
:1045f0000080fb006a00b90080007800304e220085
:10460000104078000080fb0000804000e028890016
:10461000114822000040eb0080487800e04822006a
:10462000b0009000803e2000808f50006d0036006a
:10463000c14e22000040eb008048780090512200db
:1046400010407800e14f50000a003a0030030700a4
:104650000000eb00e0288900014822000040eb0048
:10466000804878001148220010c0b30080487800cc
:104670005c003700904e220010407800e14f50005f
:104680000f003a00a04e2200104078000004e00025
:104690000b003a00d0970200000000000148220001
:1046a00010c0b300804878000000eb00e0288900cb
:1046b0001148220010c0b300804878001f00370066
:1046c000904e2200104078000004e0000f003a00f5
:1046d000a04e220010407800e14f50000b003a003d
:1046e000d0970200000000000000eb00d0288900f5
:1046f0001148220010c0b300804878000148220011
:1047000010c0b300804878000c003700d09702003a
:10471000000000000000eb00d02889000000eb0042
:10472000e02889000148220010c0b30080487800ca
:104730001148220010c0b30080487800f40207003e
:1047400028003700e04822009000780070278100a0
:10475000808f5000230036004000200090298900ff
:1047600040532200204090000080fb008043eb007b
:1047700000037800053220000042eb001300200007
:104780000041eb008040eb0000c0eb003e720200f5
:104790000000000080a10200000000005100200085
:1047a0000040eb006e6f020000000000e1482200b4
:1047b0000000eb00800878000a003700e048220083
:1047c0009000780000322000808f500005003600f5
:1047d0006aa3020000000000020037000000eb00a6
:1047e000902989000080fa00000006000200fa000b
:1047f000004f780090298100e10f50000100320045
:10480000090037009051220010407800e14f50001d
:1048100003003a001e407800050007000200370040
:104820001e407800870007000080fa0000000600a4
:104830000400fa00881f780020479800704e22007c
:10484000904078002e409000814f50007a003a004e
:10485000e14822000000eb00b0009800704e2200fa
:10486000104478000000eb00801f78008003eb000c
:104870000043eb008042eb000042eb008041eb0084
:104880000041eb008040eb000840780012940200e9
:10489000000000008f87e900804e2200104478005d
:1048a0000000eb00801f78008003eb000043eb006a
:1048b0008042eb000042eb008041eb000041eb0046
:1048c0008040eb00084078001294020000000000d5
:1048d0008f87e900504e2200104078008040e800a9
:1048e000504e220001487800504e220010407800bf
:1048f0000080fb00d0288900ae4090000040eb0013
:104900004d010700ae4090000040eb00e0010700c1
:104910000040eb00004f78000040eb00104798008b
:104920000e0037001e4090008080fb0020542200c3
:10493000e1407800504e22001040780080cf5000b7
:1049400003003a0010c0b300004f780006003700a3
:104950001e4090000040e800104798001e40900064
:10496000e24f5000efff360010c0b3009e4f100022
:1049700013003a00ae4090000040eb00f401070045
:10498000b04e2200104078000004e0000600320023
:10499000704e2200104078008040e900704e2200e6
:1049a0000148780015003700704e22001040780052
:1049b0008040e800704e2200014878000f00370068
:1049c000b04e2200104078000004e00006003200e3
:1049d000704e2200104078008040e800704e2200a7
:1049e0000148780005003700704e22001040780022
:1049f0008040e900704e220001487800704e22008d
:104a000010407800e7406000704e220001487800b6
:104a100051010700504e22009040780080c2b30040
:104a200080cf500004003a00c14e220010c0b300f5
:104a300080487800360207004f0478000080fa00b2
:104a4000000006000200fa00881f7800004f78007e
:104a5000704e2200104078009e4f100078003a00ff
:104a6000e14822000000eb00b0009800704e2200e8
:104a7000104478000000eb00801f78008003eb00fa
:104a80000043eb008042eb000042eb008041eb0072
:104a90000041eb008040eb000840780012940200d7
:104aa000000000008f87e900704e2200104478005b
:104ab0000000eb00801f78008003eb000043eb0058
:104ac0008042eb000042eb008041eb000041eb0034
:104ad0008040eb00084078001294020000000000c3
:104ae0008f87e900504e2200104078008040e80097
:104af000504e2200014878009e4078000040eb00b4
:104b0000cd000700504e22009040780080c2b300d4
:104b100080cf500011003a000148220010c0b300bd
:104b200080487800714e2200a0cab3008048780007
:104b3000914e220010c0b30080487800a04e2200a1
:104b4000104078000004e0003b003a009e407800ee
:104b50000040eb005402070037003700b04e22003f
:104b6000104078000004e0001a003200704e22006d
:104b7000104078000040e800e7406000704e2200de
:104b800001487800704e220090407800804e22004c
:104b90001040780080cf50000a003a00804e22007a
:104ba000104078000040e900e7406000804e22009d
:104bb000014878009e4078000040eb006401070047
:104bc0001d0037009e4078000040eb0030010700d8
:104bd00019003700704e2200104078000040e900b4
:104be000e7406000704e220001487800704e2200bd
:104bf00090407800804e22001040780080cf500016
:104c00000a003a00804e2200104078000040e80080
:104c1000e7406000804e2200014878009e40780006
:104c20000040eb004a010700030037009e40780077
:104c30000040eb0016010700c70007007b003700ab
:104c4000804e2200104078009e4f100077003a00fe
:104c5000e14822000000eb00b0009800804e2200e6
:104c6000104478000000eb00801f78008003eb0008
:104c70000043eb008042eb000042eb008041eb0080
:104c80000041eb008040eb000840780012940200e5
:104c9000000000008f87e900804e22001044780059
:104ca0000000eb00801f78008003eb000043eb0066
:104cb0008042eb000042eb008041eb000041eb0042
:104cc0008040eb00084078001294020000000000d1
:104cd0008f87e900604e2200104078008040e80095
:104ce000604e2200014878009e40780010c0b3005a
:104cf00051000700604e22009040780080c2b3004f
:104d000080cf500011003a00814e2200a0cab300ab
:104d100080487800a14e220010c0b300804878007f
:104d20001148220010c0b30080487800904e220045
:104d3000104078000004e0003b003a009e407800fc
:104d400010c0b300d801070037003700b04e220072
:104d5000104078000004e0001a003200804e22006b
:104d6000104078000040e800e7406000804e2200dc
:104d700001487800804e220090407800704e22005a
:104d80001040780080cf50000a003a00704e220098
:104d9000104078000040e900e7406000704e2200bb
:104da000014878009e40780010c0b300e80007007a
:104db0001d0037009e40780010c0b300b40007000b
:104dc00019003700804e2200104078000040e900b2
:104dd000e7406000804e220001487800804e2200ab
:104de00090407800704e22001040780080cf500034
:104df0000a003a00704e2200104078000040e8009f
:104e0000e7406000704e2200014878009e40780024
:104e100010c0b300ce000700030037009e407800aa
:104e200010c0b3009a0007004b0007004f04780041
:104e30000080fa00000006000200fa00004f78002f
:104e4000114798001e04e00021003a00504e220055
:104e500010407800ea4f500004003a00404e220013
:104e6000104078000004e00010003200504e220094
:104e700010407800f44f500004003a00404e2200e9
:104e800010407800e14f500008003200504e2200e0
:104e900010407800fe4f50002d003a00404e220096
:104ea00010407800e24f500029003a00404e2200a6
:104eb000104078008040e800404e22000148780011
:104ec000404e2200104078005501070020003700b6
:104ed000604e220010407800ea4f500004003a0073
:104ee000404e2200104078000004e0001000320024
:104ef000604e220010407800f44f500004003a0049
:104f0000404e220010407800e14f5000080032006f
:104f1000604e220010407800fe4f50000c003a0016
:104f2000404e220010407800e24f500008003a0046
:104f3000404e2200104078008040e800404e2200a1
:104f400001487800404e22001040780034010700ec
:104f50000080fa00000006000000fa00881f7800b8
:104f60009051220010407800e14f50001f003a009d
:104f7000704e2200104478000000eb00801f780083
:104f80008003eb000043eb008042eb00f4c3b3006e
:104f90008041eb000041eb00f1c3b3000840780012
:104fa00012940200000000008f87e900704e22007a
:104fb000104478000000eb00801f78008003eb00b5
:104fc0000043eb008042eb00f4c3b3008041eb00f0
:104fd0000041eb00f1c3b3000840780012940200d6
:104fe000000000008f87e90026003700904e220065
:104ff00010407800e14f50000f003200704e220048
:10500000104478000000eb00801f78008003eb0064
:105010000043eb008042eb00f4c3b3008041eb009f
:105020000041eb00f1c3b300084078001294020085
:10503000000000008f87e900a04e22001040780099
:10504000e14f50000f003200804e220010447800e3
:105050000000eb00801f78008003eb000043eb00b2
:10506000f5c3b3000042eb008041eb00f2c3b30094
:105070008040eb000840780012940200000000001d
:105080008f87e9004f0478000080fa0000000600d6
:105090000200fa00004f7800114798001e04e0005b
:1050a00015003a00405322009043780040532200fc
:1050b000104090000080fb0000037800b500200045
:1050c00014c0b300130020000041eb0011c0b30076
:1050d0001e4090003e7202000000000080a102000d
:1050e000000000002106200010c0b3006e6f020017
:1050f0000000000014003700405322009043780065
:1051000040532200104090000080fb000003780014
:10511000b500200014c0b300130020000041eb00d4
:1051200021c0b3001e4090003e720200000000004b
:1051300080a10200000000002106200020c0b30072
:105140006e6f0200000000000080fa000000060000
:105150000200fa00004f7800114798001e04e0009a
:1051600035003a004053220090437800405322001b
:10517000104090008080fb001e4090000040e8003e
:1051800067406000010378009501200014c0b3005f
:10519000130020000041eb0011c0b3003e7202007a
:1051a000000000004053220090437800405322004a
:1051b000104090008080fb001e4090000040e900fd
:1051c00067406000010378009501200014c0b3001f
:1051d000130020000041eb0011c0b3003e7202003a
:1051e000000000004053220090437800405322000a
:1051f000104090000080fb00000378009501200023
:1052000014c0b300130020000041eb0011c0b30034
:105210001e4090003e7202000000000080a10200cb
:10522000000000001106200010c0b3006e6f0200e5
:105230000000000034003700405322009043780003
:1052400040532200104090008080fb001e409000e0
:105250000040e800674060000103780095012000ed
:1052600014c0b300130020000041eb0021c0b300c4
:105270003e7202000000000040532200904378007c
:1052800040532200104090008080fb001e409000a0
:105290000040e900674060000103780095012000ac
:1052a00014c0b300130020000041eb0021c0b30084
:1052b0003e7202000000000040532200904378003c
:1052c00040532200104090000080fb000003780053
:1052d0009501200014c0b300130020000041eb0032
:1052e00021c0b3001e4090003e720200000000008a
:1052f00080a10200000000001106200020c0b300c1
:105300006e6f0200000000000080fa00000006003e
:105310000000fa003000200090298900e1482200b6
:105320000000eb0080087800c04e2200104078009a
:10533000e14f500016003a00405322001040900008
:105340000080fb008043eb00000378007511200013
:105350000042eb00130020000041eb008040eb0016
:1053600000c0eb003e7202000000000080a10200bd
:1053700000000000010620000040eb006e6f0200fc
:105380000000000070112000702789001500370010
:1053900040532200104090000080fb008043eb004f
:1053a00000037800b50920000042eb001300200044
:1053b0000041eb008040eb0000c0eb003e720200b9
:1053c0000000000080a10200000000003106200063
:1053d0000040eb006e6f020000000000b0092000ea
:1053e000702789000000eb00801f78008003eb002d
:1053f0000043eb008042eb000042eb008041eb00f9
:105400000041eb008040eb0000c0eb001294020072
:10541000000000008f87e9000080fa00000006000d
:105420000400fa00004f78001e80fb00100798006f
:105430001e009000e20f5000100032001e0090008d
:10544000e30f5000120032001e009000e10f5000e8
:1054500005003200c10520000040eb006e6f020025
:10546000000000000e003700d10520000040eb00d6
:105470006e6f02000000000009003700e105200007
:105480000040eb006e6f02000000000004003700d7
:10549000f10520000040eb006e6f020000000000ec
:1054a0000080fa00000006000200fa00004f7800b9
:1054b000114798001e04e0002c003a0040532200df
:1054c000904378001e4090000040e8006740600074
:1054d000f60f2000250d200014c0b300130020009b
:1054e0000041eb0031c0b3003e720200000000003a
:1054f00040532200904378001e4090000040e90095
:1055000067406000f60f2000250d200014c0b30096
:10551000130020000041eb0031c0b3003e720200d6
:10552000000000004053220090437800f60f200056
:10553000250d200014c0b300130020000041eb0033
:1055400031c0b3001e4090003e7202000000000017
:1055500080a1020000000000b105200030c0b300af
:105560006e6f0200000000002b0037004053220045
:10557000904378001e4090000040e80067406000c3
:10558000f60f2000250d200014c0b30013002000ea
:105590000041eb0031c0b3003e7202000000000089
:1055a00040532200904378001e4090000040e900e4
:1055b00067406000f60f2000250d200014c0b300e6
:1055c000130020000041eb0031c0b3003e72020026
:1055d000000000004053220090437800f60f2000a6
:1055e000250d200014c0b300130020000041eb0083
:1055f00031c0b3001e4090003e7202000000000067
:1056000080a1020000000000b105200030c0b300fe
:105610006e6f0200000000000080fa00000006002b
:105620000600fa0090298100200798002e009000c3
:10563000e20f50002e0132002e009000e20f5000c9
:1056400007003e002e0090000000e0000b0032003a
:105650002e009000e10f50008e003200b80137009c
:105660002e009000e30f5000ad0132002e0090009c
:10567000e40f50000d003200b101370094a1020088
:105680000000000080a102000000000080a10200d4
:1056900000000000e04822008000eb0001087800d4
:1056a0004000200090298900a7013700e04822002f
:1056b00010007800ea0f5000a3013600905122003c
:1056c00010407800e14f500038003a00405322006b
:1056d0009043780040532200104078000080fb0087
:1056e000000378008082eb0014c0b3001300200098
:1056f0000041eb008040eb0000c0eb003e72020076
:105700000000000080a10200000000002103200032
:105710000040eb006e6f020000000000100020004f
:10572000902989000000eb00101f89008801070004
:10573000c13e2200901d220035060700c14822000c
:105740000040eb00804878000000eb00d028890082
:105750000000eb00e028890000c1eb0080c0eb00f6
:1057600000c0eb0040a20200000000008040780072
:10577000903e220001487800014822000040eb00e2
:10578000804878001148220020c0b300804878008b
:10579000a13e22000040eb0080487800b13e22008c
:1057a0000040eb008048780033003700405322006f
:1057b000104078000080fb008043eb00000378007d
:1057c000353521000042eb00130020000041eb00c2
:1057d0008040eb0000c0eb003e72020000000000c1
:1057e00080a1020000000000210320000040eb0027
:1057f0006e6f020000000000200020009029890048
:10580000e14822000000eb00800878000000eb0077
:10581000101f89004e010700c13e220020182200ff
:10582000fb05070001402200c03e220025060700bc
:105830000000eb00d02889000000eb00e028890080
:10584000014822000040eb00804878001148220007
:105850000040eb008048780000c1eb0080c0eb0006
:1058600000c0eb0040a20200000000008040780071
:10587000903e220001487800c148220010c0b300c9
:1058800080487800e14822000000eb0080087800a2
:105890002d013700b03e2200104078000004e000e7
:1058a0000f003a00e04822009000780060342100a8
:1058b000808f50000f003600a03e2200104078007c
:1058c000e14f500002003a0065060700090037006a
:1058d000b13e220010c0b3008048780005003700b8
:1058e000d1288100603e2000808f500001003600ea
:1058f0005b060700003e2200104078000080fb009d
:10590000100798001e009000e10f50003000320098
:105910001e009000e20f5000540032001e00900064
:105920000000e0000100320007013700e0482200db
:105930009000900020032000808f5000020136006c
:10594000e14822000000eb0090009800403e220059
:10595000104078008080fb00c03e220000804000a4
:10596000904090000040eb004f02070080a1020031
:10597000000000008041eb000041eb00f1c3b300e8
:10598000c03e220018010700403e2200104078006f
:105990008040e800403e220001487800c03e2200de
:1059a00090407800403e22001040780080cf5000a8
:1059b000e5003a00013e220010c0b30080487800a4
:1059c000e14822000000eb00a0009800de00370054
:1059d000703e220010407800e14f500006003a006f
:1059e000e14822000000eb00a0009800013e2200e8
:1059f00020c0b30080487800e0482200a00090005a
:105a000000192000808f5000cf003600e1482200ae
:105a10000000eb00a0009800a70307000000eb00c7
:105a2000801f78008003eb000043eb008042eb0016
:105a30000042eb008041eb000041eb008040eb00b6
:105a400000c0eb0012940200000000008f87e90004
:105a5000013e220020c0b30080487800a13e220011
:105a600010c0b30080487800b7003700e04822003b
:105a7000a0009000a0052000808f5000b2003600ea
:105a8000a03e220010407800e14f500006003a008e
:105a9000b03e220010407800e14f500002003a0072
:105aa000ef050700a8003700a9000700c13e22004b
:105ab000901d2200560507000000eb00801f7800b3
:105ac0008003eb000043eb008042eb000042eb0060
:105ad0008041eb000041eb008040eb0000c0eb0098
:105ae00012940200000000008f87e9009600370042
:105af000e04822009000780030352100808f50006f
:105b000001003600d6050700003e22001040780054
:105b10000080fb00000f78001e007800e10f5000ad
:105b20003d0032001e007800e20f5000620032009b
:105b30001e0078000000e000010032008200370003
:105b4000e04822009000900020032000808f500049
:105b50007d003600e14822000000eb009000980034
:105b6000403e2200104078008080fb00c03e2200b2
:105b700000804000904090000040eb00ca01070008
:105b8000403e2200104078008080fb000040220050
:105b9000008040009040900010c0b300c201070098
:105ba00080a10200000000008041eb000041eb00fa
:105bb000f1c3b300c03e22008b0007008041eb0020
:105bc000f2c3b3008040eb000040220086000700d3
:105bd000403e2200104078008040e800403e220015
:105be00001487800c03e220090407800403e2200ec
:105bf0001040780080cf500053003a00013e220050
:105c000010c0b30080487800e14822000000eb009b
:105c1000a00098004c003700703e22001040780031
:105c2000e14f50000a003a00803e22001040780008
:105c3000e14f500006003a00e14822000000eb006e
:105c4000a0009800013e220020c0b30080487800e8
:105c5000e0482200a0009000401f2000808f5000ec
:105c600039003600e14822000000eb00a000980057
:105c7000110307000000eb00801f78008003eb0099
:105c80000043eb008042eb000042eb008041eb0060
:105c90000041eb008040eb0000c0eb0012940200da
:105ca000000000008f87e900013e220020c0b30001
:105cb0008048780024003700e0482200a0009000cf
:105cc000a0052000808f50001f0036002000070034
