:020000040000fa
:080000000001040000000000f3
:020000040000fa
:100200000f1d22000e7f22000e018800000000005a
:100210000c00070080522900010020001100070097
:10022000000020000000e000020032000000020098
:1002300000000000f49c0200000000000040da0012
:100240000000fe004440a900600220000000e00021
:100250000300320000002000a00188004440a800f4
:100260000000060091018800800078000000eb008b
:1002700015003700e280400032a0b4009101ba00be
:10028000e280400032a0b4009102ba00e280400057
:1002900032a0b4000002eb00472bde00f507b200ed
:1002a000602ce10004003a000059eb008301e900f2
:1002b000fdff3e00040037006128e100010032002c
:1002c0000082eb00040007001101ba000200e00008
:1002d000e8ff3a00000006003159ba008301e90046
:1002e0000c0032002159ba008301e90008003200f5
:1002f0000400e00003003a00e280400032a0b400b5
:10030000f5ff370011d9ba008301e900faff3a007e
:100310008100e800e180400032a0b4000000060047
:100320000040da000000fe00020ab900001bb9001c
:100330000200b80081004200810043000000060076
:100340006022b800060220000000d0008180d200a8
:100350000482d2008582d2000000a0000202520076
:1003600083825a00030031000202420083824a0065
:100370000000a1000603e900f3ff3a0000000600b8
:10038000efff07000400be000000060043158800d0
:100390005415880022158800111588000015880062
:1003a0000000d1006140600000404000012a2000b0
:1003b000914078000114a10080c070000100780015
:1003c000a0e2b7000000060030158800000006001b
:1003d0000080fb00000040000128200060807800c1
:1003e000000006008920a900e7416000c419dd0073
:1003f000810a200091407800f2c8b30082c06000fa
:1004000083c070008000fd00a8e0b7008000fd0000
:10041000680060004300de00004040001109200039
:10042000914078000114a10080c0700001007800a4
:1004300091e0b70000000600221288000012880038
:100440001112880043128800641288000000060020
:100450009183a800000006009183a800801c8800fa
:1004600000000600901c8800a11c88000000060007
:10047000401ade000500200004037800e24f50001f
:100480001300320005003c000004e00009003200c7
:10049000e14f50001e003a0009003700e44f5000c1
:1004a000130032000e003500e54f500018003a00ee
:1004b0001300370001188800141888001600370050
:1004c000411888005418880062188800000006004f
:1004d0008118880094188800a2188800000006007f
:1004e000c1188800d4188800e218880000000600af
:1004f00001198800141988002219880000000600dc
:10050000411988005419880062198800000006000b
:1005100001188800161888002218880000000600bc
:10052000401ade00050020000004e0000600320052
:10053000e14f500004003a00c1198800d419880026
:10054000e2198800000006008119880094198800cb
:10055000a219880000000600e14f5000030032009d
:10056000e24f50000300320004003700f11a880007
:1005700000000600711a880000000600711b880048
:10058000000006000004e00004003200e14f5000cb
:1005900002003a00f11b880000000600711c880070
:1005a000000006009623ef008760a900c01c8800a9
:1005b000e7c16000c419dd00a1c0bf00f2c8b300ec
:1005c0000240600003407000a1e0b700e8806000d6
:1005d000c308de00c308dd008fc0bf000034a100e7
:1005e000014070008fe0b70000000600801c88000a
:1005f000000006008d00a90021e2a9008500a900e5
:10060000000006008500a900e74160008109200084
:100610009140780082cfb30082c0600083c0700038
:100620008000fd0098e0b7008000fd0068006000d9
:100630004300de00d1082000914078000104a100b1
:1006400080c07000010078008de0b7000000060057
:100650001011880001118800000006008cc0a9005c
:1006600011e1a90084c0a9000000060084c0a9000f
:10067000e7416000710920009140780082cfb3000b
:1006800082c0600083c070008000fd0097e0b7006a
:100690008000fd00680060004300de004600dd00d1
:1006a000c1082000914078000164a10080c0700062
:1006b000010078008ce0b700000006000621ef0082
:1006c00061088800800888001061a9000000060009
:1006d0008700a9008720a900e7416000010a2000e7
:1006e0009140780082cfb30082c0600083c0700068
:1006f0008000fd00a0e0b7008000fd0001c7b3004e
:1007000081416000010a200091407800f2c8b300e6
:1007100082c0600083c070008000fd00a0e0b700d0
:100720008000fd00680160004311de00f108200038
:10073000914078000104a10082c070008000fd009b
:100740008fe0b7008000fd000008b2004700de0027
:1007500000404000f1082000914078000114a10001
:1007600080c07000010078008fe0b7000000060034
:10077000f2108800b0108800c11088000000060048
:100780008000780016c2bf0066406000e64f50004f
:1007900001003200f10fb200d11088000000060005
:1007a00016c2bf0066406000e64f500002003a00eb
:1007b000e010800000000600e0108000f00fb200a2
:1007c0000000060018c2bf006100600000000600c3
:1007d00001002000c00d8900d10d890011c0b300b7
:1007e000601b22000148780000000600621b220006
:1007f0001204e00006003a00100020000100200072
:10080000c00d8900d10d890010c0b30000497800e7
:10081000d2e62400631c2400c00d8100d10d8100ac
:10082000c1fe07000001be0090032300010020006c
:100830000200400083804800c00d8900d10d89006e
:100840004088de00cf80de0000f0a100000006003e
:020000040000fa
:0200000401f009
:04000000e6ff000017
:020000040000fa
:0200000401f009
:04000400dfff00001a
:020000040000fa
:0200000401f009
:04000800fcff0000f9
:020000040000fa
:0200000401f009
:04001400ffff0000ea
:020000040000fa
:1000080090010000900100009001000090010000a4
:100018009001000090010000900100009001000094
:100028009001000090010000900100009001000084
:1000380090010000900100009a9e000090010000cd
:1000480090010000900100009001000058a20000fb
:100058009001000090010000900100009001000054
:100068009001000090010000900100009001000044
:100078009001000090010000900100009001000034
:10008800d29700009297000090010000ec54000005
:100098009001000090010000900100009001000014
:1000a8009001000090010000900100009001000004
:1000b80090010000900100009001000090010000f4
:1000c800900100000e8200009001000090010000e5
:1000d80090010000900100009001000090010000d4
:1000e80090010000900100009001000090010000c4
:0800f8009001000090010000de
:020000040000fa
:1001080090010000900100009001000090010000a3
:100118009001000090010000900100009001000093
:100128009001000090010000900100009001000083
:1001380090010000900100009a9e000090010000cc
:1001480090010000900100009001000058a20000fa
:100158009001000090010000900100009001000053
:100168009001000090010000900100009001000043
:100178009001000090010000900100009001000033
:10018800d29700009297000090010000ec54000004
:100198009001000090010000900100009001000013
:1001a8009001000090010000900100009001000003
:1001b80090010000900100009001000090010000f3
:1001c800900100000e8200009001000090010000e4
:1001d80090010000900100009001000090010000d3
:1001e80090010000900100009001000090010000c3
:0801f8009001000090010000dd
:020000040000fa
:10085000777c0000585e0000797100006f74000022
:10086000041e000078380000375400005c7300005c
:100870005d5000006d7800003e1c000049760000cd
:10088000665b00003f0600005b4f0000666d0000e5
:0c0890007d0700007f6f000000000000ea
:020000040000fa
:10089c000c00fa00889fbe008a1f7800500d810062
:1008ac0050079800de009000e38f5000b902320030
:1008bc005e019000e30f510007003e005e009000c7
:1008cc00e10f500023003200de009000e18f500059
:1008dc0058003e00110037005e019000e60f5100f9
:1008ec00a90332005e009000e60f500004003e00a9
:1008fc00de009000e48f5000ad023200e1033700bf
:10090c005e019000e70f5100b50332005e009000cd
:10091c00e80f5000d4033200da0337005e9902006e
:10092c0000000000b1168000e0ff2f000080600086
:10093c00b0168800b01680000010a000b016880019
:10094c0010002000500d89000000eb0010088900f9
:10095c00ce03370010088100f40f5000cb03360093
:10096c0011fe21000040eb008048780010002000b0
:10097c00500d8900011022000040eb0080487800e7
:10098c0091fe21000040eb0080487800a1fe210080
:10099c0020c0b30080487800b1fe21000040eb007d
:1009ac0080487800c1fe21000040eb0080487800b0
:1009bc00d1fe21000040eb0080487800e1fe2100d0
:1009cc000040eb0080487800f1fe210010c0b3001d
:1009dc008048780001ff210010c0b30080487800e7
:1009ec000000eb00400889000000eb0010088900b3
:1009fc000000eb00500889000000eb007008890033
:100a0c000000eb00600889009112220010c0b300b6
:100a1c0080487800ee050700de070700d9090700bb
:100a2c000000eb001008890020002000500d890008
:100a3c0096033700c0122200104078000080fb00a3
:100a4c0040079800ce009000e18f50000400320067
:100a5c004e019000e20f5100070032000f003700ea
:100a6c008108810090372300808f50000b003600e6
:100a7c00c80707000900370081088100c0b62100b3
:100a8c00808f5000050036000a8102000000000033
:100a9c00c11222000040eb00804878009012220026
:100aac00104078000080fb00300798003e0090005a
:100abc00e30f50001e003200be009000e38f500088
:100acc0007003c003e019000e10f51000e00320087
:100adc003e009000e20f5000100032006b03370014
:100aec00be009000e58f50003d0132003e019000a9
:100afc00e50f5100ac0035003e009000e60f5000b1
:100b0c00d001320061033700a0080700160407006b
:100b1c00c2030700a20307005c0337009b08070011
:100b2c0011040700bd0307005c03070057033700df
:100b3c00ba03070059030700b1088100700981004e
:100b4c00808f5000510336000000eb00b008890084
:100b5c0070098100e90f500007003600710981000f
:100b6c00700c20000088b9007009890070098100a0
:100b7c004800de007009890070098100e90f5000ff
:100b8c0059003e00f011220010407800f44f500044
:100b9c0055003600a01222009040780090122200de
:100bac00014878000000eb00b0088900c01a220050
:100bbc00104478000040eb00bc0607008040780031
:100bcc00d01a220010417800001222001040780048
:100bdc0016c0b300884278000142780013c0b300fd
:100bec0051c0b300ea82020000000000c01a2200cb
:100bfc001044780020c0b300ac0607008040780099
:100c0c00d01a2200104178001012220010407800f7
:100c1c0016c0b300884278000142780013c0b300bc
:100c2c0051c0b300ea82020000000000c01a22008a
:100c3c001044780040c0b3009c0607008040780048
:100c4c00d01a2200104178002012220010407800a7
:100c5c0016c0b300884278000142780013c0b3007c
:100c6c0051c0b300ea82020000000000c01a22004a
:100c7c001044780060c0b3008c06070080407800f8
:100c8c00d01a220010417800301222001040780057
:100c9c0016c0b300884278000142780013c0b3003c
:100cac0051c0b300ea8202000000000020032000c3
:100cbc00801f7800270320000043eb008042eb00ec
:100ccc000042eb008041eb00f2c3b300f1c3b30070
:100cdc0000c0eb003a790200000000008f87e900a9
:100cec0028090700e9023700f011220010407800b3
:100cfc008040e800f01122000148780000c1eb00b0
:100d0c0080c0eb0000c0eb000a9a0200000000005b
:100d1c001047980010192200104478001e409000d3
:100d2c0062060700804078001019220010417800fc
:100d3c0016c0b300884278000142780013c0b3009b
:100d4c0021c0b3001e409000ea82020000000000a7
:100d5c007809810079098100f60302000000000087
:100d6c00f1c3b30001456000f6030200000000006f
:100d7c00f2c3b30082406000881f780089037800ba
:100d8c000043eb008042eb000042eb008041eb00a3
:100d9c000a4178001e4090003a79020000000000e1
:100dac008f87e900b90237001c030700bb0207005c
:100dbc00b108810070098100808f5000b3023600a9
:100dcc000000eb00b008890070098100f90f500099
:100ddc002e003e0000c1eb0080c0eb0000c0eb0019
:100dec000a9a020000000000004f78007009810090
:100dfc000000e800700989001019220010447800e6
:100e0c001e40780029060700804078001019220047
:100e1c001041780016c0b300884278000142780077
:100e2c0013c0b30021c0b3001e407800ea82020058
:100e3c00000000007809810079098100f6030200a6
:100e4c0000000000f1c3b30001456000f60302008e
:100e5c0000000000f2c3b30082406000881f7800dd
:100e6c00890378000043eb008042eb000042eb006a
:100e7c008041eb000a4178001e4078003a7902006c
:100e8c00000000008f87e90080023700a0122200ca
:100e9c009040780090122200014878000000eb008e
:100eac00b0088900c01a2200104478000040eb0002
:100ebc00fe05070080407800d01a2200104178000f
:100ecc00001222001040780016c0b300884278004f
:100edc000142780013c0b30051c0b300ea82020093
:100eec0000000000c01a22001044780020c0b3009b
:100efc00ee05070080407800d01a220010417800df
:100f0c00101222001040780016c0b30088427800fe
:100f1c000142780013c0b30051c0b300ea82020052
:100f2c0000000000c01a22001044780040c0b3003a
:100f3c00de05070080407800d01a220010417800ae
:100f4c00201222001040780016c0b30088427800ae
:100f5c000142780013c0b30051c0b300ea82020012
:100f6c0000000000c01a22001044780060c0b300da
:100f7c00ce05070080407800d01a2200104178007e
:100f8c00301222001040780016c0b300884278005e
:100f9c000142780013c0b30051c0b300ea820200d2
:100fac000000000020032000801f78002703200091
:100fbc000043eb008042eb000042eb008041eb0071
:100fcc00f2c3b300f1c3b30000c0eb003a790200e6
:100fdc00000000008f87e9006a0807002b02370029
:100fec008e0207002d020700b108810070098100f4
:100ffc00808f5000250236000000eb00b0088900fd
:10100c001019220010447800e011220010407800e2
:10101c00a6050700804078001019220010417800c6
:10102c00e01122001040780016c0b300884278000e
:10103c000142780013c0b30031c0b300ea82020051
:10104c0000000000700981004204dd00700981007d
:10105c00c204dd00f603020000000000f1c3b3007f
:10106c0001456000f603020000000000f2c3b3006b
:10107c0082406000e011220010407800881f780048
:10108c00890378000043eb008042eb000042eb0048
:10109c008041eb000a4178003a7902000000000020
:1010ac008f87e900e0112200104078008040e800b2
:1010bc00e011220001487800e01122001040780075
:1010cc00e7406000e011220001487800f011220096
:1010dc00104078008040e800f011220001487800b0
:1010ec00f011220010407800f14f5000e7013a0057
:1010fc00a012220090407800901222000148780043
:10110c000000eb00b0088900c01a220010447800df
:10111c000040eb006505070080407800d01a2200e3
:10112c0010417800001222001040780016c0b30065
:10113c00884278000142780013c0b30051c0b3005c
:10114c00ea82020000000000c01a2200104478005d
:10115c0020c0b3005505070080407800d01a22004b
:10116c0010417800101222001040780016c0b30015
:10117c00884278000142780013c0b30051c0b3001c
:10118c00ea82020000000000c01a2200104478001d
:10119c0040c0b3004505070080407800d01a2200fb
:1011ac0010417800201222001040780016c0b300c5
:1011bc00884278000142780013c0b30051c0b300dc
:1011cc00ea82020000000000c01a220010447800dd
:1011dc0060c0b3003505070080407800d01a2200ab
:1011ec0010417800301222001040780016c0b30075
:1011fc00884278000142780013c0b30051c0b3009c
:10120c00ea8202000000000020032000801f78000a
:10121c00270320000043eb008042eb000042eb0070
:10122c008041eb00f2c3b300f1c3b30000c0eb008c
:10123c003a790200000000008f87e900d10707000f
:10124c0092013700b0088100f40f50008f01360076
:10125c000000eb00b0088900001222001044780056
:10126c00c0002000801f7800c70020000043eb0066
:10127c008042eb000042eb008041eb000041eb00b0
:10128c00f1c3b300084078003a7902000000000076
:10129c008f87e9001012220010447800c000200053
:1012ac00801f7800c70020000043eb008042eb0059
:1012bc000042eb008041eb000041eb00f1c3b300b6
:1012cc00084078003a790200000000008f87e9009e
:1012dc002012220010447800c0002000801f7800eb
:1012ec00c70020000043eb008042eb000042eb0003
:1012fc008041eb000041eb00f1c3b30008407800e3
:10130c003a790200000000008f87e90030122200b9
:10131c0010447800c0002000801f7800c700200017
:10132c000043eb008042eb000042eb008041eb00fd
:10133c000041eb00f1c3b300084078003a79020099
:10134c00000000008f87e900f011220010407800a7
:10135c008040e800f011220001487800f0112200d2
:10136c0010407800e54f500048013600f111220082
:10137c000040eb00804878000080eb00b00889004a
:10138c00b0122200904078009012220001487800a0
:10139c003e01370031088100a0022000808f5000f0
:1013ac003a01360065030700720307003701370066
:1013bc00210881003009810032002000811f780053
:1013cc00110009000280d80001017800cf007800dc
:1013dc00808f50007c003600801222001040780074
:1013ec008040e90080122200014878000000eb00e8
:1013fc002008890080122200104078000080fb0039
:10140c00200798002e009000e20f500021003200bf
:10141c00ae009000e38f5000040032002e019000cb
:10142c00e10f5100350032004e003700501a2200f7
:10143c0010407800e24f50000b003a00a7c0b300f8
:10144c00a6c0b30035c0b300a4c0b300a3c0b300a2
:10145c0032c0b30080c0eb00800f2000867a0200ff
:10146c000000000058003700a7c0b300a6c0b300ae
:10147c00a5c0b300a4c0b300a3c0b30032c0b30076
:10148c0080c0eb00800f2000867a02000000000074
:10149c004d003700501a220010407800e24f5000e7
:1014ac000b003a00a7c0b30026c0b300a5c0b30020
:1014bc00a4c0b30023c0b300a2c0b30080c0eb0033
:1014cc00800f2000867a0200000000003e003700ea
:1014dc00a7c0b300a6c0b300a5c0b300a4c0b3009e
:1014ec0023c0b300a2c0b30080c0eb00800f20006b
:1014fc00867a02000000000033003700501a2200e8
:10150c0010407800e24f50000b003a0017c0b300b7
:10151c00a6c0b300a5c0b30014c0b300a3c0b300f1
:10152c00a2c0b30080c0eb00800f2000867a0200be
:10153c000000000024003700a7c0b300a6c0b30011
:10154c00a5c0b30014c0b300a3c0b300a2c0b300c5
:10155c0080c0eb00800f2000867a020000000000a3
:10156c0019003700501a220010407800e24f50004a
:10157c000b003a008043eb00a6c0b300a5c0b3003b
:10158c000042eb00a3c0b300a2c0b30080c0eb00cc
:10159c00800f2000867a0200000000000a0037004d
:1015ac00a7c0b300a6c0b300a5c0b3000042eb00b7
:1015bc00a3c0b300a2c0b30080c0eb00800f20001a
:1015cc00867a0200000000001108810030098100b9
:1015dc00808f5000ad0036000000eb00500d8900ec
:1015ec00833e2000823e2000f10f2000800f20005f
:1015fc00d2770200000000000000eb00300d8900e3
:10160c000000eb00400d8900f8990200000000007a
:10161c00f0fe2100104078000080fb0010079800bd
:10162c001e009000e80f5000320032009e00900027
:10163c00e88f50000a003c001e019000e60f51009c
:10164c00240032001e009000e60f50002d003c00dc
:10165c009e009000e58f50001200320031003700e0
:10166c001e019000eb0f5100120032001e00900082
:10167c00eb0f500004003c009e009000ea8f5000dd
:10168c0024003200270037001e019000ec0f51009f
:10169c000c0032001e009000ed0f500011003200c3
:1016ac0020003700411a220010c0b3008048780097
:1016bc001f003700411a220020c0b3008048780078
:1016cc001b003700411a220030c0b300804878005c
:1016dc0017003700411a220040c0b3008048780040
:1016ec0013003700411a220050c0b3008048780024
:1016fc000f003700411a220060c0b3008048780008
:10170c000b003700411a220070c0b30080487800eb
:10171c0007003700411a220080c0b30080487800cf
:10172c0003003700411a22000040eb00804878008b
:10173c00a7020700620c8100730c8100e0232400d7
:10174c00f1002000800f5100818f590005003600f8
:10175c00f0232400f1002000600c8900710c89003a
:10176c004a003700600c8100710c81006100400060
:10177c00e0804800600c8900710c8900a09f020079
:10178c00000000004100370010088100f90f5000e4
:10179c003e00360011c0b30000c0eb006d05070021
:1017ac0020192200104078008080fb000000eb0024
:1017bc00f67902000000000070002000500d890036
:1017cc000080eb00100889000000eb00c0088900c5
:1017dc00911222000040eb00804878002b0037006b
:1017ec00c1088100803e2000808f5000020036002e
:1017fc000000eb00500d890011088100200320002f
:10180c00808f5000210036000000eb00100889008a
:10181c0090122200104078000004e0000900320011
:10182c000001eb000102200080cfb300dc79020044
:10183c0000000000911222000040eb00804878006c
:10184c00120037000001eb000100220080cfb30032
:10185c00dc790200000000009112220010c0b300dd
:10186c00804878000900370011088100803e200074
:10187c00808f5000050036000000eb00500d8900f1
:10188c00020037000000eb00500d89004f05780076
:10189c004f04be000080fa00000006000000fa00b1
:1018ac0060088100e80f50003b0036000000eb00a0
:1018bc0060088900d0fe2100104078008040e800cc
:1018cc00d0fe210001487800d0fe210010407800a5
:1018dc00e3406000d0fe210001487800d0fe2100da
:1018ec00104078000004e0002b003a00e0fe2100dc
:1018fc0010407800e14f500014003a00e1fe210046
:10190c0020c0b30080487800f0fe21001040780021
:10191c008080fb00100020000101dd00b0fd2100e3
:10192c00104078008080fb00100020000100dd00da
:10193c0000007100800078000001eb0080cfb30044
:10194c00dc7902000000000013003700e1fe2100ea
:10195c0010c0b30080487800f0fe210010407800e1
:10196c008080fb00100020000101dd00a0fd2100a3
:10197c00104078008080fb00100020000100dd008a
:10198c0000007100800078000001eb0080cfb300f4
:10199c00dc790200000000000080fa000000060064
:1019ac000000fa0070088100e80f500019003600a2
:1019bc000000eb007008890010ff21001040780037
:1019cc008080fb0020fd2100614078008080fb00be
:1019dc00100020000100dd00800078000001eb0009
:1019ec0080cfb300dc7902000000000010ff210062
:1019fc00104078008040e80010ff2100014878007a
:101a0c0010ff210010407800e740600010ff21001b
:101a1c00014878000080fa00000006000000fa007f
:101a2c0050088100e80f50004d0036000000eb001c
:101a3c0050088900a0fe2100104078008080fb0037
:101a4c0020002200614078000081fb00a0fe2100f4
:101a5c00104078008080fb00c000220061407800bc
:101a6c000080fb004800dd00000041008001780090
:101a7c0090fe2100104078008080fb00c000220006
:101a8c00614078000081fb00a0fe2100104078002e
:101a9c008080fb0080ff2100614078000080fb000b
:101aac004800dd00000041008002780090fe21001b
:101abc00104078008080fb0080ff2100614078009e
:101acc000081fb0090fe2100104078008080fb001c
:101adc0020002200614078000080fb004800dd00ff
:101aec0000004100000178000302780085017800b5
:101afc0081ff2f0000072000405c02000000000066
:101b0c0090fe2100104078008040e80090fe2100fb
:101b1c000148780090fe210010407800e94f5000f9
:101b2c000300360091fe21000040eb008048780055
:101b3c00a0fe2100104078008040e900a0fe2100aa
:101b4c0001487800a0fe210010407800e94f5000b9
:101b5c0003003600a1fe210090c0b300804878003d
:101b6c000080fa00000006000000fa00881f7800d0
:101b7c0040088100ef0f5000380036000000eb00e9
:101b8c004008890080fe2100104078000040e800e9
:101b9c008040780080fe21000148780080fe210002
:101bac0010407800e740600080fe2100014878007a
:101bbc00b0fe2100104078008040e800b0fe21000b
:101bcc0001487800b0fe210010407800f2c3b30049
:101bdc0082406000b0fe210001487800b0fe210078
:101bec00104078000004e0000b003a00c0fe210019
:101bfc00104078008040e800c0fe210001487800c9
:101c0c00c0fe210010407800f2c3b3008240600097
:101c1c00c0fe210001487800c0fe21001041780070
:101c2c00b0fe21009040780080fe21001044780026
:101c3c0020032000801f7800c70320000043eb0026
:101c4c008042eb000042eb008041eb000840780042
:101c5c003a790200000000008f87e9004f047800f9
:101c6c000080fa00000006000200fa00004f780025
:101c7c00e0112200104078008080fb00a0112200af
:101c8c001e41780082707800e0112200104078002c
:101c9c008040e800e011220001487800e0112200a9
:101cac0010407800e3406000e01122000148780009
:101cbc004012220010407800e14f40000500320035
:101ccc0040122200104078008040e80040122200b0
:101cdc0001487800c01a220090407800d01a2200e7
:101cec001041780016c0b300814278000042eb002e
:101cfc0013c0b30011c0b3001e407800ea8202008a
:101d0c0000000000c90007000080fa000000060077
:101d1c000000fa000080fa00000006000c00fa0037
:101d2c00004f7800500d8100500798005e00900025
:101d3c00e70f5000070032005e009000e80f5000e3
:101d4c004e0032005e009000e20f50004e00320058
:101d5c00b40037000000eb00c00889001e80fb00b7
:101d6c00400798004e009000e50f50000400320030
:101d7c004e009000ed0f50001c0032003600370072
:101d8c002019220010407800e94f500005003e0059
:101d9c0020192200104078008040e8002019220011
:101dac000148780020192200104078008080fb0048
:101dbc000000eb00f6790200000000002019220060
:101dcc00104078008080fb00400c2200e14078003d
:101ddc0010192200014878001019220010407800d8
:101dec0011c0b300db0307008e003700201922005e
:101dfc00104078000004e000050032002019220099
:101e0c00104078008040e900201922000148780039
:101e1c0020192200104078008080fb000000eb00ad
:101e2c00f679020000000000201922001040780012
:101e3c008080fb00400c2200e14078001019220049
:101e4c0001487800101922001040780011c0b3002e
:101e5c00c0030700730037002019220010407800df
:101e6c008080fb0010002000be9f020000000000dc
:101e7c00349b0200000000006a003700349b020013
:101e8c0000000000670037001e407800f5020700d4
:101e9c00e14f500002003a00980307006100370040
:101eac001e40780042030700e14f500002003a0048
:101ebc009b0307005b003700901222001040780053
:101ecc000080fb00300798003e009000e10f5000ae
:101edc00040032003e009000e20f5000140032006b
:101eec0050003700510007001e80fb0020079800af
:101efc002e009000ee0f50004a0032002e00900091
:101f0c00ef0f5000470032002e009000e90f5000f8
:101f1c00440032009012220021c0b3000148780026
:101f2c00f0fe21001e4878004f0007003d003700ee
:101f3c003e0007001e80fb00100798001e0090005a
:101f4c00e90f5000040032001e009000ee0f50000c
:101f5c00010032002e003700a0fd21001040780057
:101f6c009e4f100014003a00511a220010c0b3000a
:101f7c0080487800f0fe2100104078008080fb0043
:101f8c00100020000101dd00a0fd210010407800b0
:101f9c008080fb00100020000100dd0000007100bb
:101fac00800078000001eb0080cfb300dc790200e8
:101fbc000000000013003700511a220020c0b300ab
:101fcc0080487800f0fe2100104078008080fb00f3
:101fdc00100020000101dd00b0fd21001040780050
:101fec008080fb00100020000100dd00000071006b
:101ffc00800078000001eb0080cfb300dc79020098
:10200c000000000030002000500d89000500370052
:10201c0020002000500d8900f0fe21001e487800a1
:10202c00110007000080fa00000006000200fa0010
:10203c00c0122200104078000080fb00000f7800d6
:10204c001e0078000000e000040032001e00780042
:10205c00e20f50000100320001003700b701070009
:10206c000080fa00000006000000fa00c01a2200ee
:10207c0090407800d01a22001041780016c0b300ae
:10208c00814278000042eb0013c0b30011c0b300d2
:10209c000040eb00ea82020000000000c01a22009f
:1020ac0090407800d01a22001041780016c0b3007e
:1020bc008142780014c0b30013c0b30011c0b30048
:1020cc0020c0b300ea82020000000000c01a220007
:1020dc0090407800d01a22001041780016c0b3004e
:1020ec008142780024c0b30013c0b30011c0b30008
:1020fc0040c0b300ea82020000000000c01a2200b7
:10210c0090407800d01a22001041780016c0b3001d
:10211c008142780034c0b30013c0b30011c0b300c7
:10212c0060c0b300ea820200000000000000eb0077
:10213c00300889000080fa00000006000000fa0058
:10214c0040002000500d8900e00b20003009890070
:10215c000000eb00100889000080eb0020088900cb
:10216c008112220040c0b300804878000080fa0041
:10217c00000006000000fa00d01a2200104078007f
:10218c000080fb00310981008043eb0000037800e4
:10219c00810278000042eb00130020000041eb00ac
:1021ac008040eb0000c0eb008081020000000000ca
:1021bc004a99020000000000110020000040eb00d2
:1021cc00a87f0200000000000080fa00000006005a
:1021dc000200fa00401a2200104078000080fb0038
:1021ec00000f78001e007800e40f500075003200dc
:1021fc001e007800e40f500011003c001e00780017
:10220c00e10f50001b0032001e007800e10f50005f
:10221c0004003c001e0078000000e000f3003200d7
:10222c00050137001e007800e20f50002d0032002f
:10223c001e007800e30f500046003200fe0037000d
:10224c001e007800e60f5000960032001e00780049
:10225c00e60f5000770035001e007800e70f5000a5
:10226c00ab0032001e007800e80f5000c4003200b2
:10227c00f100370010192200104078008080fb001c
:10228c00f00f20000088b9004800de008040780084
:10229c00c01a220001487800101922001040780062
:1022ac008080fb00000c20000088b9004800de0094
:1022bc0080407800e01a22000148780010192200b2
:1022cc00104078008080fb00f00f20000088b900df
:1022dc004800de0080407800d01a220001487800c7
:1022ec00f000370010192200104078008080fb00ad
:1022fc00000c20000088b9004800de008040780007
:10230c00c01a2200014878001019220010407800f1
:10231c008080fb00f00f20000088b9004800de0030
:10232c0080407800d01a2200014878001019220051
:10233c00104078008080fb00000c20000088b90061
:10234c004800de0080407800e01a22000148780046
:10235c00d400370010192200104078008080fb0058
:10236c00000a20000088b9004800de008040780098
:10237c00c01a220001487800101922001040780081
:10238c008080fb00f00f20000088b9004800de00c0
:10239c0080407800d01a22000148780010192200e1
:1023ac00104078008080fb00000c20000088b900f1
:1023bc004800de0080407800e01a220001487800d6
:1023cc00b800370010192200104078008080fb0004
:1023dc00000b20000088b9004800de008040780027
:1023ec00c01a220001487800101922001040780011
:1023fc008080fb00f00f20000088b9004800de0050
:10240c0080407800d01a2200014878001019220070
:10241c00104078008080fb00000c20000088b90080
:10242c004800de0080407800e01a22000148780065
:10243c009c00370010192200104078008080fb00af
:10244c00500720000088b9004800de00804078006a
:10245c00c01a2200014878001019220010407800a0
:10246c008080fb00f00f20000088b9004800de00df
:10247c0080407800d01a2200014878001019220000
:10248c00104078008080fb00000c20000088b90010
:10249c004800de0080407800e01a220001487800f5
:1024ac008000370010192200104078008080fb005b
:1024bc00f00f20000088b9004800de008040780052
:1024cc00c01a220001487800101922001040780030
:1024dc000080fb004700dd004800de0080407800f3
:1024ec00d01a220001487800101922001040780000
:1024fc008080fb00000c20000088b9004800de0042
:10250c0080407800e01a220001487800650037000e
:10251c0010192200104078008080fb00500720002a
:10252c000088b9004800de0080407800c01a220004
:10253c000148780010192200104078008080fb00c0
:10254c00f00f20000088b9004800de0080407800c1
:10255c00d01a22000148780010192200104078008f
:10256c008080fb00000c20000088b9004800de00d1
:10257c0080407800e01a22000148780049003700ba
:10258c0010192200104078000080fb004700dd008d
:10259c004800de0080407800c01a22000148780014
:1025ac0010192200104078008080fb00f00f2000f2
:1025bc000088b9004800de0080407800d01a220064
:1025cc000148780010192200104078008080fb0030
:1025dc00000c20000088b9004800de008040780024
:1025ec00e01a2200014878002e0037001019220052
:1025fc00104078008080fb00f00d20000088b900ae
:10260c004800de0080407800c01a220001487800a3
:10261c0010192200104078008080fb00f00f200081
:10262c000088b9004800de0080407800d01a2200f3
:10263c00014878001b003700101922001040780068
:10264c008080fb00f00f20000088b9004800de00fd
:10265c0080407800c01a220001487800101922002e
:10266c00104078008080fb00f00f20000088b9003b
:10267c004800de0080407800d01a22000148780023
:10268c0010192200104078008080fb00000c200004
:10269c000088b9004800de0080407800e01a220073
:1026ac00014878000080fa00000006000600fa00dd
:1026bc00204798002e4090000080fb0020079800d7
:1026cc002e009000e30f500007003c002e009000fd
:1026dc00e20f50000e003d002e0090000000e000c4
:1026ec0013003500070037002e009000e50f500056
:1026fc000a0034002e009000e70f50000c003c0044
:10270c00090037000040eb00004f7800080037004c
:10271c0010c0b300004f78000500370020c0b30094
:10272c00004f78000200370030c0b300004f780033
:10273c001e80fb000080fa00000006000000fa007a
:10274c00c112220010c0b300804878000000eb00da
:10275c0080088900c01a220090437800c01a220019
:10276c00104078000080fb00000378008082eb00b2
:10277c0014c0b300130020000041eb008040eb00bc
:10278c000040eb0080810200000000004a9902002a
:10279c0000000000c01a220090437800c01a2200ea
:1027ac00104078000080fb00000378008082eb0072
:1027bc0014c0b300130020000041eb008040eb007c
:1027cc0010c0b30080810200000000004a99020092
:1027dc0000000000c01a220090437800c01a2200aa
:1027ec00104078000080fb00000378008082eb0032
:1027fc0014c0b3001300200012c0b30011c0b3000a
:10280c0020c0b30080810200000000004a99020041
:10281c0000000000c01a220090437800c01a220069
:10282c00104078000080fb00000378008082eb00f1
:10283c0014c0b3001300200012c0b30011c0b300c9
:10284c0030c0b3008081020000000000c01a2200da
:10285c0090437800c01a2200104078000080fb00e2
:10286c00000378008082eb0014c0b300130020003a
:10287c0022c0b30021c0b30040c0b300808102006d
:10288c00000000004a99020000000000c01a22005b
:10289c0090437800c01a2200104078000080fb00a2
:1028ac00000378008082eb0014c0b30013002000fa
:1028bc0022c0b30021c0b30050c0b300808102001d
:1028cc00000000004a99020000000000c01a22001b
:1028dc0090437800c01a2200104078000080fb0062
:1028ec00000378008082eb0014c0b30013002000ba
:1028fc0032c0b30031c0b30060c0b30080810200ad
:10290c00000000004a99020000000000c01a2200da
:10291c0090437800c01a2200104078000080fb0021
:10292c00000378008082eb0014c0b3001300200079
:10293c0032c0b30031c0b30070c0b300808102005c
:10294c00000000004a990200000000006100200015
:10295c000040eb00a87f0200000000007100200086
:10296c0010c0b300a87f020000000000810020000e
:10297c0020c0b300a87f02000000000091002000de
:10298c0030c0b300a87f0200000000000080fa00f5
:10299c00000006000000fa00c112220020c0b300a3
:1029ac00804878000000eb00800889000000eb00f4
:1029bc001e81020000000000100020001e81020099
:1029cc0000000000200020001e810200000000001a
:1029dc00300020001e81020000000000400020009a
:1029ec001e81020000000000500020001e81020029
:1029fc0000000000600020001e81020000000000aa
:102a0c00700020001e81020000000000c01a22008d
:102a1c0090437800d01a2200104078000080fb0010
:102a2c00000378008082eb0014c0b3001300200078
:102a3c000041eb008040eb0000c0eb008081020005
:102a4c00000000004a99020000000000210820004c
:102a5c000040eb00a87f0200000000000080fa009c
:102a6c00000006000600fa00204798000040eb002a
:102a7c00004f780010fe2100104078000080fb0011
:102a8c00200798002e0090000000e00007003200a4
:102a9c002e0090000000e0003b0035002e0090005e
:102aac00e40f500038003c001200370010fe2100eb
:102abc00104078008080fb00c0fd2100e1407800d0
:102acc002e40900080cf500036003a0010fe2100be
:102adc00104078008040e80010fe2100014878008a
:102aec000000eb00900889000040eb00004f7800dc
:102afc002c00370010fe2100104078008080fb0075
:102b0c00c0fd2100e14078002e40900080cf5000a5
:102b1c0015003a009108810050092000808f500068
:102b2c0011003e0010fe2100104078008040e800ab
:102b3c0010fe21000148780010fe210010407800a2
:102b4c00e54f500003003a0010c0b300004f78006e
:102b5c00140037000000eb00900889000040eb00e7
:102b6c00004f78000f00370011fe21000040eb00f1
:102b7c00804878000000eb00900889000040eb00d2
:102b8c00004f78000700370011fe21000040eb00d9
:102b9c00804878000000eb00900889000040eb00b2
:102bac00004f78001e80fb000080fa000000060039
:102bbc000600fa00204798000040eb00004f780018
:102bcc0070fe2100104078000080fb002007980068
:102bdc002e0090000000e000070032002e00900054
:102bec000000e0003b0035002e009000e40f500088
:102bfc0038003c001200370070fe210010407800b5
:102c0c008080fb0020fe2100e14078002e409000e7
:102c1c0080cf500036003a0070fe21001040780042
:102c2c008040e80070fe2100014878000000eb00b5
:102c3c00a00889000040eb00004f78002c00370002
:102c4c0070fe2100104078008080fb0020fe2100e7
:102c5c00e14078002e40900080cf500015003a00e3
:102c6c00a108810030062000808f500011003e002a
:102c7c0070fe2100104078008040e80070fe2100ba
:102c8c000148780070fe210010407800e54f50009c
:102c9c0003003a0010c0b300004f78001400370056
:102cac000000eb00a00889000040eb00004f78000a
:102cbc000f00370071fe21000040eb0080487800c7
:102ccc000000eb00a00889000040eb00004f7800ea
:102cdc000700370071fe21000040eb0080487800af
:102cec000000eb00a00889000040eb00004f7800ca
:102cfc001e80fb000080fa00000006000000fa00b5
:102d0c005e9902000000000060002000500d890058
:102d1c000000eb00100889000080fa00000006009b
:102d2c000000fa0080002000500d8900027b020098
:102d3c0000000000101922001040780011c0b300f0
:102d4c00040007000000eb00100889000080fa0066
:102d5c00000006000200fa00004f780011479800ae
:102d6c000043eb008042eb000042eb009e419000e0
:102d7c001e4178008040eb0000c0eb00ea820200ac
:102d8c00000000000080fa00000006000000fa00bd
:102d9c00b0088100f40f5000f80036000000eb0082
:102dac00b00889004012220010407800e34f500018
:102dbc00f2003600e0112200104078008080fb0009
:102dcc00a0112200e1407800001222000148780096
:102ddc00e0112200104078000080fb000000e800a9
:102dec00e3006000a0112200e140780010122200e4
:102dfc0001487800e0112200104078000080fb00b0
:102e0c000080e800e3006000a0112200e14078009f
:102e1c002012220001487800e011220010407800b6
:102e2c000080fb0063004000e3006000a011220062
:102e3c00e140780030122200014878003012220064
:102e4c00104078000080fb00610060000000e00092
:102e5c002f003a0030122200104078008080fb00d6
:102e6c0020122200104078000080fb0000805000ef
:102e7c0063006000e20f500025003a00201222008f
:102e8c00104078008080fb00101222001040780067
:102e9c000080fb000080500063006000e20f5000d7
:102eac001b003a0010122200104078008080fb00ba
:102ebc0000122200104078000080fb0000805000bf
:102ecc0063006000e20f500011003a0090122200e3
:102edc0090407800a012220001487800b112220024
:102eec0030c0b300804878009112220060c0b3005b
:102efc00804878000080eb00b0088900c0032000f7
:102f0c0070098900f11122000040eb008048780024
:102f1c0030122200104078000080fb00610060003d
:102f2c000004e0002f003200301222001040780024
:102f3c008080fb0020122200104078000080fb00f3
:102f4c000080500063006000e20f500025003a0042
:102f5c0020122200104078008080fb00101222000a
:102f6c00104078000080fb0000805000630060007f
:102f7c00e20f50001b003a001012220010407800a3
:102f8c008080fb0000122200104078000080fb00c3
:102f9c000080500063006000e20f500011003a0006
:102fac009012220090407800a01222000148780074
:102fbc00b112220040c0b300804878009112220068
:102fcc0060c0b300804878000080eb00b008890036
:102fdc005000200070098900f11122000040eb0024
:102fec008048780030122200104078008080fb006e
:102ffc0020122200104078000080fb00008050005e
:10300c0063006000e10f500029003a0020122200fa
:10301c00104078008080fb001012220010407800d5
:10302c000080fb000080500063006000e10f500046
:10303c001f003a0010122200104078008080fb0024
:10304c0000122200104078000080fb00008050002d
:10305c0063006000e10f500015003a00901222004e
:10306c0090407800a012220001487800b112220092
:10307c0050c0b300804878009112220060c0b300a9
:10308c00804878000080eb00b008890050002000d8
:10309c0070098900f11122000040eb008048780093
:1030ac003012220090407800e01122000148780094
:1030bc0030122200104078008080fb002012220089
:1030cc00104078000080fb0000805000630060001e
:1030dc00e30f500029003a00201222001040780023
:1030ec008080fb0010122200104078000080fb0052
:1030fc000080500063006000e30f50001f003a0096
:10310c0010122200104078008080fb000012220078
:10311c00104078000080fb000080500063006000cd
:10312c00e30f500015003a009012220090407800f6
:10313c00a012220001487800b112220050c0b30046
:10314c00804878009112220060c0b300804878005b
:10315c000080eb00b0088900500020007009890045
:10316c00f11122000040eb00804878003012220060
:10317c0090407800e0112200014878000080fa00ad
:10318c00000006000200fa00e11122000040eb00f2
:10319c0080487800411222000040eb008048780003
:1031ac000040eb00004f7800050037001e81fb004b
:1031bc00a111220010c8b30000f178001e4fe800e6
:1031cc0030c0b3009e4f1000f8ff36000080fa00ac
:1031dc00000006000600fa00500d81002007980040
:1031ec002e009000e20f5000210132002e009000c2
:1031fc00e20f500007003e002e0090000000e0009f
:10320c000b0032002e009000e10f50008a003200bb
:10321c00a00137002e009000e30f50009601320001
:10322c002e009000e40f50000c0032009901370082
:10323c005e990200000000004a99020000000000a4
:10324c004a990200000000000000eb001008890001
:10325c0040002000500d89009001370010088100bb
:10326c00ea0f50008d013600501a220010407800f1
:10327c00e14f500038003a00c01a22009043780009
:10328c00c01a2200104078000080fb000003780078
:10329c008082eb0014c0b300130020000041eb004f
:1032ac008040eb0000c0eb008081020000000000b9
:1032bc004a99020000000000210320000040eb00ae
:1032cc00a87f02000000000010002000500d8900b3
:1032dc000000eb00b0028900720107000106220019
:1032ec00f0d3210018060700011022000040eb006b
:1032fc00804878000000eb00300d89000000eb00e6
:10330c00400d890000c1eb0080c0eb0000c0eb0059
:10331c000a9a02000000000080407800d0052200cc
:10332c0001487800410f22000040eb0080487800f3
:10333c00510f220020c0b30080487800e105220024
:10334c000040eb0080487800f10522000040eb00c3
:10335c008048780032003700c01a220010407800f4
:10336c000080fb008043eb00000378003535210022
:10337c000042eb00130020000041eb008040eb000a
:10338c0000c0eb0080810200000000004a9902009e
:10339c0000000000210320000040eb00a87f020089
:1033ac000000000020002000500d89000000eb0000
:1033bc00100889000000eb00b002890039010700f9
:1033cc000106220080ce2100df0507004107220004
:1033dc0000062200090607000000eb00300d8900f2
:1033ec000000eb00400d8900410f22000040eb0073
:1033fc0080487800510f22000040eb008048780094
:10340c0000c1eb0080c0eb0000c0eb000a9a020088
:10341c000000000080407800d005220001487800b0
:10342c000010220011c0b300014878000000eb002e
:10343c001008890019013700f005220010407800af
:10344c000004e0000e003a001108810060342100f5
:10345c00808f50000f003600e005220010407800ed
:10346c00e14f500002003a004c06070009003700fb
:10347c00f105220010c0b300804878000500370029
:10348c00310d8100603e2000808f5000010036001d
:10349c004206070040052200104078000080fb0027
:1034ac00100798001e009000e10f50002c00320015
:1034bc001e009000e20f50004d0032001e009000e4
:1034cc000000e00001003200f40037002108810008
:1034dc0020032000808f5000f00036000000eb002d
:1034ec002008890080052200104078008080fb00b5
:1034fc0010062200e14078000040eb003a02070081
:10350c004a990200000000008041eb000041eb00f2
:10351c00f1c3b3000006220007010700800522005a
:10352c00104078008040e8008005220001487800b7
:10353c0000062200904078008005220010407800a0
:10354c0080cf5000d5003a004005220011c0b300d6
:10355c00014878000000eb0030088900cf003700ec
:10356c00b005220010407800e14f500005003a00f1
:10357c000000eb00300889004105220020c0b30098
:10358c00804878003108810000192000808f50009d
:10359c00c20036000000eb003008890096030700db
:1035ac000000eb00801f78008003eb000043eb0071
:1035bc008042eb000042eb008041eb000041eb004d
:1035cc008040eb0000c0eb003a79020000000000e4
:1035dc008f87e9004105220020c0b30080487800a5
:1035ec00e105220010c0b30080487800ab00370022
:1035fc0031088100a0052000808f5000a700360004
:10360c00e005220010407800e14f500006003a001f
:10361c00f005220010407800e14f500002003a0003
:10362c00de0507009d0037009e0007000106220002
:10363c00f0d32100440507000000eb00801f780048
:10364c008003eb000043eb008042eb000042eb00f8
:10365c008041eb000041eb008040eb0000c0eb0030
:10366c003a790200000000008f87e9008b003700d8
:10367c001108810030352100808f50000100360088
:10368c00c605070040052200104078000080fb00b2
:10369c00000f78001e007800e10f50003800320057
:1036ac001e007800e20f50005a0032001e00780015
:1036bc000000e00001003200780037002108810092
:1036cc0020032000808f5000740036000000eb00b7
:1036dc002008890080052200104078008080fb00c3
:1036ec0010062200e14078000040eb00be0107000c
:1036fc0080052200104078008080fb0050072200db
:10370c00e140780010c0b300b70107004a990200ed
:10371c00000000008041eb000041eb00f1c3b3005e
:10372c0000062200840007008041eb00f2c3b300c6
:10373c008040eb00400722007f000700800522003c
:10374c00104078008040e800800522000148780095
:10375c00000622009040780080052200104078007e
:10376c0080cf50004d003a004005220011c0b3003c
:10377c00014878000000eb00300889004700370052
:10378c00b005220010407800e14f500009003a00cb
:10379c00c005220010407800e14f500005003a00af
:1037ac000000eb00300889004105220020c0b30066
:1037bc008048780031088100401f2000808f500025
:1037cc00360036000000eb00300889000a030700c1
:1037dc000000eb00801f78008003eb000043eb003f
:1037ec008042eb000042eb008041eb000041eb001b
:1037fc008040eb0000c0eb003a79020000000000b2
:10380c008f87e9004105220020c0b3008048780072
:10381c002200370031088100a0052000808f500065
:10382c001e0036001f0007000106220080ce21007a
:10383c00c50407004107220000062200ef04070020
:10384c000000eb00801f78008003eb000043eb00ce
:10385c008042eb000042eb008041eb000041eb00aa
:10386c008040eb0000c0eb003a7902000000000041
:10387c008f87e90009003700110881000032200011
:10388c00808f500005003600349b020000000000c1
:10389c00020037000000eb00500d89000080fa0098
:1038ac00000006000000fa0000062200ee040700eb
:1038bc0040072200ec040700a0062200ea040700df
:1038cc00e0072200e8040700410522000040eb005d
:1038dc0080487800810522000040eb008048780089
:1038ec001003200020088900510522000040eb0045
:1038fc0080487800810522000040eb008048780069
:10390c00910522000040eb0080487800a1052200c0
:10391c000040eb0080487800b10522000040eb002d
:10392c0080487800c10522000040eb0080487800f8
:10393c000080fa00000006000800fa00881f7800da
:10394c001007980041479800524798006347980029
:10395c000040eb00004f78002b0037001e80fb006e
:10396c009e00900064004000010040001040900058
:10397c00e14f500012003a009e80fb001e009000a8
:10398c0000804000104490000000eb00801f780085
:10399c008003eb000043eb008042eb000042eb00a5
:1039ac008041eb000041eb008040eb0008407800c8
:1039bc003a790200000000008f87e90011003700ff
:1039cc009e80fb001e009000008040001044900080
:1039dc000000eb00801f78008003eb006e4390002a
:1039ec00de4290004e429000ee4190005e4190000d
:1039fc00ce409000084078003a79020000000000a8
:103a0c008f87e9001e4fe8009e80fb008005220096
:103a1c00104078000080fb000000e800808f500010
:103a2c00ceff35004f0478000080fa00000006003d
:103a3c000400fa0020479800500d81000000e900b6
:103a4c00e10f5000e6003e004005220010407800d7
:103a5c000080fb0060004000e10f50006e003e0053
:103a6c00010622002e409000b2040700004f78009f
:103a7c0000c0eb009e4f1000640032001e80fb0063
:103a8c00e40040001006220061407800e14f500035
:103a9c0001003a00d20037001e80fb006401400098
:103aac001106220010c0b30000f17800900522002e
:103abc00104078008080fb00b00622002e41900060
:103acc00827078000000eb00801f78008003eb0010
:103adc000043eb008042eb000042eb008041eb0026
:103aec000041eb008040eb002e4090003a79020040
:103afc00000000008f87e90090052200104078003c
:103b0c008040e80090052200014878000006220061
:103b1c0090407800900522001040780080cf500033
:103b2c0026003a002e409000e20207000000eb0055
:103b3c00801f78008003eb000043eb008042eb0019
:103b4c000042eb008041eb000041eb008040eb00b9
:103b5c002e4090003a790200000000008f87e900a7
:103b6c009005220090407800a006220001487800c1
:103b7c00b105220010c0b300804878000106220075
:103b8c00a00622009d0307000004e00004003200a0
:103b9c00300d81006f004000300d89001e00370091
:103bac00300d810065004000300d8900e1052200d8
:103bbc0010c0b3008048780017003700300d81002a
:103bcc0065004000300d8900ae4090000040eb00d5
:103bdc003d0207000000eb00801f78008003eb0023
:103bec000043eb008042eb000042eb008041eb0015
:103bfc000041eb008040eb002e4090003a7902002f
:103c0c00000000008f87e90003003700e105220067
:103c1c0010c0b30080487800501a22001040780081
:103c2c00e24f50006e003a00410722002e409000f7
:103c3c0040040700004f780000c0eb009e4f1000be
:103c4c00640032001e80fb00e4004000500722009c
:103c5c0061407800e14f500001003a0060003700ed
:103c6c001e80fb00640140005107220010c0b3000d
:103c7c0000f17800a0052200104078008080fb0045
:103c8c00f00722002e419000827078000000eb00bb
:103c9c00801f78008003eb000043eb008042eb00b8
:103cac000042eb008041eb000041eb008040eb0058
:103cbc002e4090003a790200000000008f87e90046
:103ccc00a0052200104078008040e800a0052200ea
:103cdc00014878004007220090407800a00522009f
:103cec001040780080cf500026003a002e40900003
:103cfc00700207000000eb00801f78008003eb00cf
:103d0c000043eb008042eb000042eb008041eb00f3
:103d1c000041eb008040eb002e4090003a7902000d
:103d2c00000000008f87e900a00522009040780079
:103d3c00e007220001487800c105220010c0b30042
:103d4c008048780041072200e00722002b0307007f
:103d5c000004e00004003200400d81006f004000c0
:103d6c00400d89001e003700400d810065004000a9
:103d7c00400d8900e105220010c0b3008048780096
:103d8c0017003700400d810065004000400d890090
:103d9c00ae40900010c0b300cb0107000000eb0058
:103dac00801f78008003eb000043eb008042eb00a7
:103dbc000042eb008041eb000041eb008040eb0047
:103dcc002e4090003a790200000000008f87e90035
:103ddc0003003700e105220010c0b30080487800d2
:103dec000080fa00000006000400fa00004f780082
:103dfc00114798001e4090000080fb0010079800af
:103e0c001e009000e30f50009e0032001e00900038
:103e1c00e30f50000a003c001e009000e10f500020
:103e2c00400032001e009000e10f500069003c0081
:103e3c001e0090000000e0000e0032006c01370004
:103e4c001e009000e50f5000e60032001e009000ae
:103e5c00e50f5000b70035001e009000e60f500033
:103e6c000c0132001e009000e70f500035013200ab
:103e7c005f0137001e04e00015003a00c01a220052
:103e8c0090437800d01a2200104078000080fb008c
:103e9c00000378002503200014c0b3001300200099
:103eac000041eb0011c0b3001e4090008081020065
:103ebc00000000004a9902000000000031032000bd
:103ecc0010c0b300a87f02000000000048013700ba
:103edc00c01a220090437800d01a220010407800bb
:103eec000080fb00000378002503200014c0b30001
:103efc00130020000041eb0021c0b3001e409000d5
:103f0c0080810200000000004a99020000000000bd
:103f1c003103200020c0b300a87f02000000000085
:103f2c00330137001e04e00015003a00c01a2200cd
:103f3c0090437800d01a2200104078000080fb00db
:103f4c00000378002503200014c0b30013002000e8
:103f5c000041eb0011c0b3001e40900080810200b4
:103f6c00000000004a9902000000000041032000fc
:103f7c0010c0b300a87f0200000000001c01370035
:103f8c00c01a220090437800d01a2200104078000a
:103f9c000080fb00000378002503200014c0b30050
:103fac00130020000041eb0021c0b3001e40900024
:103fbc0080810200000000004a990200000000000d
:103fcc004103200020c0b300a87f020000000000c5
:103fdc00070137001e04e00015003a00c01a220049
:103fec0090437800d01a2200104078000080fb002b
:103ffc00000378002503200014c0b3001300200038
:10400c000041eb0011c0b3001e4090008081020003
:10401c00000000004a99020000000000510320003b
:10402c0010c0b300a87f020000000000f0003700b1
:10403c00c01a220090437800d01a22001040780059
:10404c000080fb00000378002503200014c0b3009f
:10405c00130020000041eb0021c0b3001e40900073
:10406c0080810200000000004a990200000000005c
:10407c005103200020c0b300a87f02000000000004
:10408c00db0037001e04e00015003a00c01a2200c5
:10409c0090437800d01a2200104078000080fb007a
:1040ac00000378002503200014c0b3001300200087
:1040bc000041eb0011c0b3001e4090008081020053
:1040cc00000000004a99020000000000610320007b
:1040dc0010c0b300a87f020000000000c40037002d
:1040ec00c01a220090437800d01a220010407800a9
:1040fc000080fb00000378002503200014c0b300ef
:10410c00130020000041eb0021c0b3001e409000c2
:10411c0080810200000000004a99020000000000ab
:10412c006103200020c0b300a87f02000000000043
:10413c00af0037001e04e00015003a00c01a220040
:10414c0090437800d01a2200104078000080fb00c9
:10415c00000378002503200014c0b30013002000d6
:10416c000041eb0011c0b3001e40900080810200a2
:10417c00000000004a9902000000000071032000ba
:10418c0010c0b300a87f02000000000098003700a8
:10419c00c01a220090437800d01a220010407800f8
:1041ac000080fb00000378002503200014c0b3003e
:1041bc00130020000041eb0021c0b3001e40900012
:1041cc0080810200000000004a99020000000000fb
:1041dc007103200020c0b300a87f02000000000083
:1041ec00830037001e04e00015003a00c01a2200bc
:1041fc0090437800d01a2200104078000080fb0019
:10420c00000378002503200014c0b3001300200025
:10421c000041eb0011c0b3001e40900080810200f1
:10422c00000000004a9902000000000081032000f9
:10423c0010c0b300a87f0200000000006c00370023
:10424c00c01a220090437800d01a22001040780047
:10425c000080fb00000378002503200014c0b3008d
:10426c00130020000041eb0021c0b3001e40900061
:10427c0080810200000000004a990200000000004a
:10428c008103200020c0b300a87f020000000000c2
:10429c00570037001e04e00015003a00c01a220037
:1042ac0090437800d01a2200104078000080fb0068
:1042bc00000378002503200014c0b3001300200075
:1042cc000041eb0011c0b3001e4090008081020041
:1042dc00000000004a990200000000009103200039
:1042ec0010c0b300a87f020000000000400037009f
:1042fc00c01a220090437800d01a22001040780097
:10430c000080fb00000378002503200014c0b300dc
:10431c00130020000041eb0021c0b3001e409000b0
:10432c0080810200000000004a9902000000000099
:10433c009103200020c0b300a87f02000000000001
:10434c002b0037001e04e00015003a00c01a2200b2
:10435c0090437800d01a2200104078000080fb00b7
:10436c00000378002503200014c0b30013002000c4
:10437c000041eb0011c0b3001e4090008081020090
:10438c00000000004a99020000000000a103200078
:10439c0010c0b300a87f020000000000140037001a
:1043ac00c01a220090437800d01a220010407800e6
:1043bc000080fb00000378002503200014c0b3002c
:1043cc00130020000041eb0021c0b3001e40900000
:1043dc0080810200000000004a99020000000000e9
:1043ec00a103200020c0b300a87f02000000000041
:1043fc000080fa00000006000200fa000040eb000a
:10440c00004f780024003700c01a22009043780037
:10441c00d01a2200104078000081fb009e80fb0027
:10442c001006220061407800020378003509200054
:10443c0014c0b300130020000041eb0011c0b30006
:10444c008081020000000000500d8100e20f50003e
:10445c0010003a00c01a220090437800d01a2200b3
:10446c00104078000081fb009e80fb00500722006a
:10447c0061407800020378003509200014c0b300b5
:10448c00130020000041eb0011c0b300808102003a
:10449c00000000001e4fe8000006220010407800cb
:1044ac009e4f5000d8ff3e004a99020000000000c9
:1044bc00a104200010c0b300a87f0200000000007f
:1044cc000080fa00000006000a00fa00604798001d
:1044dc0071479800f603020000000000674060007e
:1044ec00504798005e409000e44f500003003600a7
:1044fc005e40900065405000504798005e40900030
:10450c000080fb00400798004e009000e20f500026
:10451c001b0032004e009000e20f500007003c00e0
:10452c004e0090000000e0000b0032004e009000a6
:10453c00e10f50000d0032001f0037004e009000bc
:10454c00e30f5000130032004e009000e40f5000b7
:10455c001500320018003700a00120001007980049
:10456c00b0c3b3004047980013003700700120001f
:10457c0010079800c0c3b300404798000e003700e6
:10458c007001200010079800d0c3b300404798007a
:10459c00090037009001200010079800e0c3b30019
:1045ac004047980004003700e001200010079800f5
:1045bc00f0c3b300404798006e4090000004e00048
:1045cc0003003a0010c0b300004f7800020037001f
:1045dc0020c0b300004f7800c01a2200904378002e
:1045ec00d01a2200104078000080fb0000037800f5
:1045fc009e02900014c0b300130020000041eb0099
:10460c009e4078007e4090008081020000000000f7
:10461c00c01a220090437800d01a22001040780073
:10462c008080fb007e4090000040e8006740600006
:10463c00010378009e02900014c0b3001300200008
:10464c000041eb009e4078008081020000000000d9
:10465c00c01a220090437800d01a22001040780033
:10466c008080fb007e4090000040e90067406000c5
:10467c00010378009e02900014c0b30013002000c8
:10468c000041eb009e407800808102000000000099
:10469c004a990200000000004e4090008080fb0010
:1046ac001e407800a87f0200000000000080fa0085
:1046bc00000006000a00fa0040479800f6030200ca
:1046cc00000000006f406000304798003e409000b2
:1046dc00e94f5000030036003e4090006a40500005
:1046ec00304798003e4090000080fb006101b9000b
:1046fc00320798004307980090002000010020002a
:10470c003e019000ce019000800f5100818f590026
:10471c003e003e003e009000ce0090000060010084
:10472c00090037000d003700110037001500370065
:10473c00190037001d003700210037002500370015
:10474c00290037002d003700e0042000000f78000e
:10475c0050c4b300204798002c00370010052000ef
:10476c00000f780060c4b300204798002700370082
:10477c00e0042000000f780070c4b30020479800bc
:10478c002200370020042000000f780080c4b30002
:10479c00204798001d003700200c2000000f7800e7
:1047ac0090c4b3002047980018003700600a20001e
:1047bc00000f780000c4b3002047980013003700a6
:1047cc0000052000000f780010c4b30020479800ab
:1047dc000e003700f0092000000f780020c4b30051
:1047ec002047980009003700d0052000000f780002
:1047fc0030c4b3002047980004003700c0092000e3
:10480c00000f780040c4b30020479800c01a220063
:10481c0090437800d01a2200104078000080fb00f2
:10482c00000378009e02780014c0b300130020002f
:10483c000041eb0031c0b3004e409000808102007b
:10484c0000000000c01a220090437800d01a220009
:10485c00104078008080fb004e4090000040e80043
:10486c0067406000010378009e02780014c0b3001a
:10487c00130020000041eb0031c0b3008081020026
:10488c0000000000c01a220090437800d01a2200c9
:10489c00104078008080fb004e4090000040e90002
:1048ac0067406000010378009e02780014c0b300da
:1048bc00130020000041eb0031c0b30080810200e6
:1048cc0000000000c01a220090437800d01a220089
:1048dc00104078008080fb004e40900000c0e80043
:1048ec0067406000010378009e02780014c0b3009a
:1048fc00130020000041eb0031c0b30080810200a6
:10490c0000000000c01a220090437800d01a220048
:10491c00104078008080fb004e40900000c0e90001
:10492c0067406000010378009e02780014c0b30059
:10493c00130020000041eb0031c0b3008081020065
:10494c00000000004a990200000000002e40900078
:10495c008080fb0030c0b300a87f02000000000084
:10496c000080fa00000006000a00fa0020479800b8
:10497c0021079800624798006e4090000004e00008
:10498c00050032002e009000904078006e409000a0
:10499c0080cf5000030031000000eb00400798006e
:1049ac00130037000040eb00004f78000b0037007d
:1049bc009e80fb002e0090000080400090409000f4
:1049cc002e40900080cf500003003a0010002000d1
:1049dc0040079800060037001e4fe8006e4090001c
:1049ec009e4f1000f2ff39000000eb0040079800ca
:1049fc004e0090000080fa00000006000800fa004b
:104a0c0010079800210798001e0090009040780035
:104a1c002e0090001040780080cf50000300320030
:104a2c000000eb0030079800170037000040eb0047
:104a3c00004f78000e0037009e80fb001e00900097
:104a4c0000804000104190009e80fb002e009000e2
:104a5c000080400010409000804f51000300320055
:104a6c000000eb0030079800070037001e4fe800ed
:104a7c001e009000104078009e4f5000eeff3e004c
:104a8c0010002000300798003e0090000080fa00d3
:104a9c00000006000400fa00881f78001007980038
:104aac00f603020000000000610060000004e0005a
:104abc00040032009e00900020c0b30080487800b3
:104acc000c003700f60302000000000061006000db
:104adc000004e000040032009e00900030c0b300df
:104aec0080487800030037009e00900040c0b3005f
:104afc00804878000040eb00004f78000b00370036
:104b0c001e84fb0000c1eb0080c0eb0000c0eb007a
:104b1c000a9a020000000000804078001e009000fd
:104b2c0000004400114098001e4fe8001e00900049
:104b3c00104078009e4f5000f1ff3e004f0478006b
:104b4c000080fa00000006000600fa00100798002a
:104b5c0021079800b0028100800078001e009000b0
:104b6c000080400010407800e14f400002003a0005
:104b7c000000eb00b0028900b002810080007800d8
:104b8c001e00900000804000904078002e009000a5
:104b9c0001487800b00281000000e800b0028900f2
:104bac000040eb00004f78000d0037001e81fb0029
:104bbc00b0028100800078001e0090000080400050
:104bcc00904078002e0090000000410011409800a9
:104bdc00b00281000000e800b00289001e4fe8001e
:104bec002e009000104078009e4f5000efff3e00ca
:104bfc00100020000080fa00000006000600fa00f9
:104c0c0010079800210798001e0090009040780033
:104c1c002e009000014878000040eb00004f780017
:104c2c000b0037001e81fb009e80fb001e009000d5
:104c3c00008040001040900064404000e74060005d
:104c4c002e00900000004100114098001e4fe8001b
:104c5c001e009000104078009e4f5000f1ff3e0067
:104c6c000080fa00000006000400fa00100798000b
:104c7c001e0090008040eb00014878000040eb00e3
:104c8c00004f78000c0037009e80fb001e00900047
:104c9c008080400000c0eb00904098001e80fb001c
:104cac009e00900064004000810040000040eb003a
:104cbc00904098001e4fe80030c0b3009e4f10008b
:104ccc00f1ff36000080fa00000006000800fa0030
:104cdc0020479800210798000040eb00004f780017
:104cec000b0037009e80fb002e00900000804000df
:104cfc00904090002e40900080cf500003003a006e
:104d0c001000200030079800070037001e4fe80005
:104d1c002e009000104078009e4f5000f1ff3e0096
:104d2c000000eb00300798003e0090000080fa0075
:104d3c00000006000800fa002047980021079800a0
:104d4c000040eb00004f78000b0037009e80fb000a
:104d5c002e00900000804000904090002e4090006b
:104d6c0080cf500003003a001e80fb0030079800f3
:104d7c00070037001e4fe8002e009000104078000e
:104d8c009e4f5000f1ff3e00f00f200030079800be
:104d9c003e0090000080fa00000006000000fa00bf
:104dac0030002000500d89000000eb001008890035
:104dbc00e01a2200104078000080fb008043eb00da
:104dcc0000037800053220000042eb0013002000a5
:104ddc000041eb008040eb0000c0eb008081020042
:104dec00000000004a990200000000005100200061
:104dfc000040eb00a87f0200000000000000eb0068
:104e0c00801f78008003eb000043eb008042eb0036
:104e1c000042eb008041eb000041eb008040eb00d6
:104e2c0000c0eb003a790200000000008f87e90017
:104e3c00501a220010407800e14f500007003a0051
:104e4c00410f220010c0b30080487800510f22009f
:104e5c0020c0b300804878001e003700d67c0200ca
:104e6c0000000000310d8100400d8100808f50004a
:104e7c0007003600410f220010c0b30080487800b4
:104e8c00510f22000040eb008048780011003700e1
:104e9c00410d8100300d8100808f500007003600dd
:104eac00510f220010c0b30080487800410f22003f
:104ebc000040eb008048780006003700510f2200bc
:104ecc0010c0b30080487800410f220010c0b3001e
:104edc00804878000080fa00000006000a00fa0002
:104eec00500d8100000f78009e007800e38f500079
:104efc00d90032001e017800e30f510007003e007c
:104f0c009e0178000300e0000b0032001e027800c6
:104f1c00e20f5200ad003200600237009e027800b2
:104f2c00e48f5200880132001e007800e50f50001b
:104f3c0053023200590237005e9902000000000053
:104f4c000000eb0010088900501a22001040780075
:104f5c00e14f500053003a0020002000500d890012
:104f6c00269b0200000000008040780060132200a5
:104f7c000148780000c1eb0080c0eb0000c0eb00e2
:104f8c000a9a020000000000804078000014220001
:104f9c000148780000142200104078000080fb00cb
:104fac00610060000004e0000a00320000142200de
:104fbc00104078008040e80000142200014878007e
:104fcc000014220010407800e7406000001422001a
:104fdc000148780000142200104078000080fb008b
:104fec0001002000c000dd0000002000c009890085
:104ffc00d1098900111322000040eb008048780091
:10500c0000c0210001002000e0098900f10989009d
:10501c000000eb00200889000000eb00100889005c
:10502c000000eb00300889000000eb00300d890017
:10503c00211322000040eb0080487800211422004c
:10504c0000c0eb00804878000000eb00a00989004c
:10505c00211322000040eb0080487800011322004d
:10506c000040eb0080487800a90507000000eb0029
:10507c0030088900900c200040088900410f220064
:10508c000040eb0080487800510f220020c0b30094
:10509c00804878000110220010c0b30080487800ce
:1050ac000002370020002000500d8900269b0200d2
:1050bc000000000080407800601322000148780056
:1050cc0000c1eb0080c0eb0000c0eb000a9a0200ac
:1050dc000000000080407800001422000148780095
:1050ec0000142200104078000080fb00610060007a
:1050fc000004e0000a003200001422001040780086
:10510c008040e800001422000148780000142200be
:10511c0010407800e740600000142200014878003d
:10512c0000142200104078000080fb0001002000d9
:10513c00c000dd0000002000c0098900d1098900f1
:10514c0000c0210001002000e0098900f10989005c
:10515c000000eb00200889000000eb00100889001b
:10516c000000eb0030088900900c200040088900fa
:10517c000000eb00400d89000000eb00300d8900b1
:10518c00211322000040eb008048780021142200fb
:10519c0000c0eb00804878000000eb00a0098900fb
:1051ac005b050700410f22000040eb0080487800af
:1051bc00510f22000040eb008048780001102200c3
:1051cc0010c0b30080487800b60137001108810088
:1051dc00f01e2100808f500009003600501a22006a
:1051ec0010407800e14f500003003a0030002000de
:1051fc00500d89000200370040002000500d89003e
:10520c0030088100f90f5000070036000000eb0059
:10521c0030088900c0098100d10981004008de00f6
:10522c00010020007103070041088100800c200060
:10523c00808f50009b0136000000eb004008890075
:10524c00c0098100d10981004008de000100200066
:10525c00200407009301370011088100f01e210083
:10526c00808f50002a00360050002000500d89001d
:10527c000000eb0010088900e01a220010407800b2
:10528c000080fb008043eb00000378000532200017
:10529c000042eb00130020000041eb008040eb00cb
:1052ac0000c0eb0080810200000000004a9902005f
:1052bc0000000000510020000040eb00a87f02001d
:1052cc000000000020032000801f78008003eb000a
:1052dc000043eb008042eb000042eb008041eb000e
:1052ec000041eb008040eb0000c0eb003a7902007b
:1052fc00000000008f87e900410f220010c0b300ae
:10530c0080487800510f220020c0b30080487800fc
:10531c0020088100e10f5000620136000000eb0014
:10532c0020088900e2098100f30981000080200037
:10533c0001002000800f5100818f590011003600b0
:10534c00e6098100f70981008600780000b02f0083
:10535c000009b8006030b900030278000002420076
:10536c0000b02f0000b8b9000002420084017800a0
:10537c004018de0001002000e0098900f1098900d5
:10538c00040037000080200001002000e0098900a3
:10539c00f1098900001422009040780010142200ba
:1053ac000148780060132200104078000004e000ef
:1053bc0009003a00c0098100d1098100e20981008d
:1053cc00f30981000000410081804900c009890077
:1053dc00d109890008003700c0098100d10981007a
:1053ec00e2098100f309810002005000838058001b
:1053fc00c0098900d1098900c0098100d109810047
:10540c00f2ff2f0073002000000278008102780068
:10541c0002007800830078000001620001806200c5
:10542c006102b80014079800250798001e00900030
:10543c00ae009000c000dd000000200010079800b6
:10544c00210798001e009000ae0090006112b80079
:10545c0014079800250798001e019000ae019000db
:10546c000200700083807000c0098900d109890096
:10547c00c0098100d10981004008de000100200034
:10548c0080407800001422000148780000142200ab
:10549c0090407800101422001040780080cf50000b
:1054ac0000013200001422009040780010142200f9
:1054bc0010407800f402070000142200904078009d
:1054cc0000132200014878000014220010407800dc
:1054dc00a903070060132200104078000004e000cc
:1054ec000b00320000132200104078008040e800ce
:1054fc0000132200014878000013220010407800ad
:10550c00e740600000132200014878000a003700d1
:10551c0000132200104078008040e90000132200a4
:10552c00014878000013220010407800e74060002a
:10553c000013220001487800a00981000000e80057
:10554c00a0098900d700370011088100f01e210046
:10555c00808f50004200360050002000500d890012
:10556c000000eb0010088900e01a220010407800bf
:10557c000080fb008043eb00000378000532200024
:10558c000042eb00130020000041eb008040eb00d8
:10559c0000c0eb0080810200000000004a9902006c
:1055ac0000000000510020000040eb00a87f02002a
:1055bc000000000020032000801f78008003eb0017
:1055cc000043eb008042eb000042eb008041eb001b
:1055dc000041eb008040eb0000c0eb003a79020088
:1055ec00000000008f87e900d67c0200000000005c
:1055fc00310d8100400d8100808f50000700360076
:10560c00410f220010c0b30080487800510f2200d7
:10561c000040eb008048780011003700410d8100fc
:10562c00300d8100808f500007003600510f220092
:10563c0010c0b30080487800410f22000040eb00fe
:10564c008048780006003700510f220010c0b300cc
:10565c0080487800410f220010c0b30080487800c9
:10566c0020088100e10f50008e0036000000eb0096
:10567c0020088900e2098100f309810000802000e4
:10568c0001002000800f5100818f5900110036005d
:10569c00e6098100f70981008600780000b02f0030
:1056ac000009b8006030b900030278000002420023
:1056bc0000b02f0000b8b90000024200840178004d
:1056cc004018de0001002000e0098900f109890082
:1056dc00040037000080200001002000e009890050
:1056ec00f109890000142200904078001014220067
:1056fc000148780060132200104078000004e0009c
:10570c0009003a00c0098100d1098100e209810039
:10571c00f30981000000410081804900c009890023
:10572c00d109890008003700c0098100d109810026
:10573c00e2098100f30981000200500083805800c7
:10574c00c0098900d1098900c0098100d1098100f3
:10575c00f2ff2f0073002000000278008102780015
:10576c000200780083007800000162000180620072
:10577c006102b80034079800450798003e0090007d
:10578c00ce009000c000dd00000020003007980023
:10579c00410798003e009000ce0090006112b800c6
:1057ac0034079800450798003e019000ce01900008
:1057bc000200700083807000c0098900d109890043
:1057cc00c0098100d10981004008de0001002000e1
:1057dc008040780000142200014878000014220058
:1057ec0090407800101422001040780080cf5000b8
:1057fc002c0032000014220090407800101422007b
:10580c00104078003f02070000142200104078007e
:10581c00d902070010132200104078000004e000a9
:10582c000b003a0000132200104078008040e80082
:10583c000013220001487800001322001040780069
:10584c00e740600000132200014878000a0037008e
:10585c0000132200104078008040e9000013220061
:10586c00014878000013220010407800e7406000e7
:10587c0000132200014878000c00070009003700d3
:10588c001108810000322000808f50000500360086
:10589c00349b020000000000020037000000eb0007
:1058ac00500d89000080fa00000006000000fa008c
:1058bc00a00981000000e800a0098900a00981006e
:1058cc00ef0f500044003600a0098100f50f500086
:1058dc0041003e0010132200104078000004e0004c
:1058ec001d003a00300d81000000e000070032007e
:1058fc00300d8100e50f500004003600300d8100a2
:10590c0065005000300d8900020037000000eb00ec
:10591c00300d89001013220010407800e14f500028
:10592c002d003a00400d81000000e000070032001d
:10593c00400d8100e50f500004003600400d810041
:10594c0065005000400d8900230037000000eb007b
:10595c00400d890020003700101322001040780001
:10596c000004e0000c003a00300d81000000e00063
:10597c0007003200300d8100ea0f500004003600a1
:10598c00300d81006a005000300d89000200370094
:10599c000000eb00300d890010132200104078003d
:1059ac00e14f50000c003a00400d81000000e00077
:1059bc0007003200400d8100ea0f50000400360051
:1059cc00400d81006a005000400d89000200370034
:1059dc000000eb00400d89000080fa00000006007a
:1059ec000c00fa00004f7800500d81005007980011
:1059fc005e009000e30f5000480032005e00900003
:105a0c00e40f5000b20032005e009000e20f500034
:105a1c000100320073013700501a22001040780048
:105a2c00e24f500038003a001e4078000081fb0025
:105a3c0003002000c0098100d10981004008de006c
:105a4c0001002000800f5100818f59000b003a009b
:105a5c00300d810079004000300d890011132200b7
