:020000040000fa
:080000000001040000000000f3
:020000040000fa
:10020000af42220080792200000188000000000037
:10021000050007000c000700644102000000000018
:100220000040da000000fe004440a900c0042000a5
:100230000000e0000300320000002000a001880060
:100240004440a800000006000068270001002000cc
:100250001600370062004000e080480091018800ed
:100260009001ba0062004000e080480091018800df
:100270009002ba0062004000e08048000002eb00fb
:100280006028e10005003a008301e900070033001f
:10029000038009000059eb00040037006128e100e9
:1002a000010032000082eb00050007009101880088
:1002b0001001ba000200e000e6ff3a00000005006d
:1002c000910188008002780062004000e0804800d0
:1002d0003559ba008301e900080032002559ba00f7
:1002e0008301e900050032000400e000f4ff320061
:1002f00015d9ba008301e900f1ff3a0000000600b9
:10030000889fbe00f04680000000e000010032003f
:1003100000000100c04680000000e0000100320043
:1003200000000100b04280000000e0000100320047
:1003300000000100804280000000e0000100320067
:1003400000000100e048e20027003a00d0468000ab
:10035000e14680000004eb00d260260093012000fb
:100360005c000700f2352f00e3c6230000004100c7
:10037000818049000804e800e80f5400f6ff3a00c5
:10038000d0468800e14688000004eb008985200003
:10039000d260260093012000d0468000e146800014
:1003a0004c000700f2352f00e3c623000000410097
:1003b00081804900d0468800e1468800809cbe00cc
:1003c0000804e80000022000800f5400f0ff3a000b
:1003d000a0468000b146800090428800a14288007b
:1003e00010c0b300e0e8b700d260260093012000ff
:1003f000d0468000e146800036000700f2352f002d
:10040000e3c623000000410081804900d0468800f7
:10041000e1468800924280000201d000e203b2006f
:100420008201410082852000028141001202be004b
:1004300094428800a54288000089be009042800056
:10044000a14280000100780000f0a1004f04be002e
:1004500000000600881f780000047800f046800045
:100460000000e0000100320000000100e068ef0041
:10047000c04680000000e0000100320000000100e2
:100480006140b800d0468800e14688004f047800fb
:10049000000006006022b800060220000000d00024
:1004a0008180d2000482d2008582d2000000a000a8
:1004b0000202520083825a0003003b000202420003
:1004c00083824a000000a1000603e900f3ff3a001e
:1004d00000000600020ab900001bb9000200b800c3
:1004e0008100420081004300000006008700a9004f
:1004f0008720a900e7416000010a200091407800b0
:1005000082cfb30082c0600083c070008000fd0015
:10051000a0e0b7008000fd004301de004311dd00d4
:100520000247b200010a200091407800f3c8b300ee
:1005300083c0600082c070008000fd00a0e0b700b2
:100540008000fd00680160004311de00f10820001a
:10055000914078000104a10082c070008000fd007d
:100560008fe0b7008000fd000008b2004700de0009
:1005700000404000f1082000914078000114a100e3
:1005800080c07000010078008fe0b7000000060016
:10059000f2108800b0108800c1108800000006002a
:1005a0008000780016c2bf0066406000e64f500031
:1005b00001003200f10fb200d110880000000600e7
:1005c00016c2bf0066406000e64f500002003a00cd
:1005d000e010800000000600e0108000f00fb20084
:1005e0000000060018c2bf006100600000000600a5
:1005f00043158800541588002215880011158800bd
:10060000001588000000d1006140600000404000fb
:10061000012a2000914078000114a10080c07000e0
:1006200001007800a0e2b700000006003015880045
:10063000000006000080fb000000400001282000b0
:1006400060807800000006008920a900c401dd0058
:100650000347b200810a200091407800f2c8b3003d
:1006600082c0600083c070008000fd00a8e0b70079
:100670008000fd00680060004300de000040400094
:1006800011092000914078000114a10080c0700081
:100690000100780091e0b7000000060022128800f7
:1006a000001288001112880043128800641288002a
:1006b000000006009183a800000006009183a800b6
:1006c000801c880000000600901c8800a11c880087
:1006d00000000600401ade00050020000403780038
:1006e000e24f50001300320005003c000004e0001f
:1006f00009003200e14f50001e003a0009003700a7
:10070000e44f5000130032000e003500e54f50005a
:1007100018003a00130037000118880014188800e8
:1007200016003700411888005418880062188800a5
:10073000000006008118880094188800a21888001c
:1007400000000600c1188800d4188800e21888004c
:100750000000060001198800141988002219880079
:1007600000000600411988005419880062198800a9
:10077000000006000118880016188800221888005a
:1007800000000600401ade00050020000004e00022
:1007900006003200e14f500004003a00c119880001
:1007a000d4198800e2198800000006008119880029
:1007b00094198800a219880000000600e14f50003b
:1007c00003003200e24f5000030032000400370003
:1007d000f11a880000000600711a88000000060067
:1007e000711b8800000006000004e00004003200d5
:1007f000e14f500002003a00f11b880000000600a3
:10080000711c8800000006009623ef008760a90095
:10081000c01c8800c409dd000347b200a1c0bf00ae
:10082000f2c8b3000240600003407000a1e0b700ce
:10083000e8806000c308de0081c0400081c0400045
:1008400081c040008fc0bf000034a1000140700093
:100850008fe0b70000000600801c88000000060042
:100860008d00a90021e2a9008500a9000000060072
:100870008500a900e74160008109200091407800cf
:1008800082cfb30082c0600083c070008000fd0092
:1008900098e0b7008000fd00680060004300de00c3
:1008a000d1082000914078000104a10080c07000b0
:1008b000010078008de0b7000000060010118800ec
:1008c00001118800000006008cc0a90011e1a900f8
:1008d00084c0a9000000060084c0a900e7416000b0
:1008e000710920009140780082cfb30082c060007f
:1008f00083c070008000fd0097e0b7008000fd001d
:10090000680060004300de000040400000404000fe
:1009100000404000004040000040400000404000d7
:10092000c1082000914078000164a10080c07000df
:10093000010078008ce0b700000006000621ef00ff
:1009400061088800800888001061a9000000060086
:100950000200fa00a0f92f00760202000000000059
:1009600072002000d1752f0000f02d00c802020097
:1009700000000000019721004040200080804000de
:100980000000eb0080087800019721006040200003
:10099000808040000000eb00800878000000eb0041
:1009a000000f7800070037009e00780000972100b4
:1009b00001004000e40040000040eb008048780067
:1009c0001e0fe800f03f20009e0f1000f6ff3400dd
:1009d000019721000000eb00900098000197210092
:1009e0000000eb0080087800019721000000eb0078
:1009f000900098000080fa00000006003600f80021
:100a0000809fbe00829fbe00849fbe00869fbe0066
:100a10003400f80000c0b300a00188000000fa0014
:100a200000972100100090000000e000100032004c
:100a300000972100100090008000e900009721003d
:100a400011009800009721001000780010407800f5
:100a50000080fb00d002020000000000009721008f
:100a6000100078008000e80000972100010878005d
:100a70008720a9000080fa003400f9004f03be006f
:100a80004f02be004f01be004f00be003600f9000d
:100a9000004006003600f800809fbe00829fbe0026
:100aa000849fbe00869fbe00881f78003400f80037
:100ab00000c0b300a00188000000fa001b0037004e
:100ac0000197210040402000008040001001780084
:100ad0000197210060402000008040001000780055
:100ae00080004100f03f200000846000e00202002e
:100af00000000000804078000097210008004000be
:100b00006400400001487800019721006040200007
:100b100000804000100078000001e80001972100eb
:100b2000604020000080400002087800f2020200cd
:100b3000000000000004e000e1ff3a008700a90087
:100b40000080fa003400f9004f0478004f03be0023
:100b50004f02be004f01be004f00be003600f9003c
:100b6000004006000600fa00000f78001107980008
:100b700000972100100090000000e0000400320007
:100b80000097210010009000200798000e00370009
:100b90001e0090008000e9000097210011009800dd
:100ba0009e00e80000972100010878001e007800f0
:100bb000104078000080fb00d0020200000000001e
:100bc0000000eb00200798002e0090000080fa0043
:100bd000000006000800fa0010079800210798009e
:100be00001972100604020000080400090007800c4
:100bf0002e009000808f50000600310000972100e9
:100c0000614020000100400010007800300798008b
:100c1000310037000000eb00000f7800290037009a
:100c20009e0078001e009000008140000197210086
:100c30004040200000804000100078000197210013
:100c40006400400001004000104078000049780036
:100c500001972100404020000080400010007800f3
:100c60000001e80001972100404020000080400082
:100c700002087800019721004040200000804000d9
:100c800090007800f03f2000008160000197210073
:100c900040402000008040000208780001972100b9
:100ca0006040200000804000100078000001e90052
:100cb0000197210060402000008040000208780079
:100cc0001e0fe8002e0090009e0f1000d4ff390088
:100cd0000000eb00300798003e0090000080fa0012
:100ce000000006000200fa000197210040402000a9
:100cf000008040001000780001972100640040004f
:100d000001004000104f7800019721004040200072
:100d100000804000100078000001e80001972100e9
:100d20004040200000804000020878000197210028
:100d3000404020000080400090007800f03f2000fc
:100d400000816000019721004040200000804000a9
:100d500002087800019721006040200000804000d8
:100d6000100078000001e900019721006040200098
:100d700000804000020878001e80fb000080fa001e
:100d8000000006000000fa000197210060402000ea
:100d900000804000100078000080fa00000006008b
:100da0000000fa0000972100100090000080fa0077
:100db000000006000000fa000197210060402000ba
:100dc000808040000000eb0080087800019721003f
:100dd00040402000808040000000eb008008780048
:100de0000080fa00000006000000fa0001972100d0
:100df0000000eb00900098000080fa000000060060
:100e00000800fa0020079800310798000080eb00e6
:100e1000000f78000000eb00100798003100370049
:100e20001e0078004800de008080fb001e00780075
:100e300000004000000040000000400000004000b2
:100e400000004000000040000000400000004000a2
:100e5000008f70009e0090002e00900000804000e7
:100e6000104078000080fb001e0f68001e00780014
:100e70000080fb004400de000080fb001e0f6800c5
:100e80001e0078000000400000004000000040000c
:100e90000000400000004000000040000000400052
:100ea0000000400000004000000040000000400042
:100eb000000040001e0f6800f00f20001e006000c0
:100ec0000000400000004000000040000000400022
:100ed000000040001e0f68001e0090000000e800a7
:100ee000100798009e0090003e009000808f5000f8
:100ef000cbff39001e0078000080fa0000000600d9
:100f00000000fa00a1e2a90044002000b3ff2f0076
:100f1000f20d2f00c1ff2000f0cf2f00f8020200d9
:100f20000000000020fe2f00160302000000000059
:100f30000080fa00000006000200fa000040eb000a
:100f40001a03020000000000000f7800900d20003e
:100f50001e0f40001e0078000080fa00000006000e
:100f60003400f800881f780008c0b300a80188008a
:100f70004f0478000000fa000080fa003400f90005
:100f8000004006000200fa00004f78001147980068
:100f900080c3eb001e4390008082eb000042eb0018
:100fa00013c0b3001e4178009e4078000040eb0063
:100fb000c603070080c3eb001e4390008082eb0055
:100fc0000042eb0013c0b3001e4178009e40780041
:100fd00010c0b300bd03070080c3eb001e439000a8
:100fe0008082eb000042eb0013c0b3001e4178008a
:100ff0009e40780020c0b300b403070080c3eb001c
:101000001e4390008082eb000042eb0013c0b3004f
:101010001e4178009e40780030c0b300ab0307004b
:1010200080c3eb001e4390008082eb000042eb0087
:1010300013c0b3001e4178009e40780040c0b3004a
:10104000a203070080c3eb001e4390008082eb00e8
:101050000042eb0013c0b3001e4178009e407800b0
:1010600050c0b3009903070080c3eb001e439000fb
:101070008082eb000042eb0013c0b3001e417800f9
:101080009e40780060c0b3009003070080c3eb006f
:101090001e4390008082eb000042eb0013c0b300bf
:1010a0001e4178009e40780070c0b300870307009f
:1010b00080c3eb001e4390008082eb000042eb00f7
:1010c00013c0b3001e4178009e40780080c0b3007a
:1010d0007e03070080c3eb001e4390008082eb007c
:1010e0000042eb0013c0b3001e4178009e40780020
:1010f00090c0b3007503070080c3eb001e4390004f
:101100008082eb000042eb0013c0b3001e41780068
:101110009e407800a0c0b3006c03070080c3eb00c2
:101120001e4390008082eb000042eb0013c0b3002e
:101130001e4178009e407800b0c0b30063030700f2
:1011400080c3eb001e4390008082eb000042eb0066
:1011500013c0b3001e4178009e407800c0c0b300a9
:101160005a03070080c3eb001e4390008082eb000f
:101170000042eb0013c0b3001e4178009e4078008f
:10118000d0c0b3005103070080c3eb001e439000a2
:101190008082eb000042eb0013c0b3001e417800d8
:1011a0009e407800e0c0b3004803070080c3eb0016
:1011b0001e4390008082eb000042eb0013c0b3009e
:1011c0001e4178009e407800f0c0b3003f03070046
:1011d0000080fa00000006000600fa0070412200bc
:1011e000104078000004e000b5003a000000eb0079
:1011f00020079800af0037002e009000c12b22007e
:1012000060c078000004e000a70032002e009000cb
:10121000012c2200000040000000400001004000be
:101220001001be0030c4b3003c3b020000000000cf
:101230002e0290002e009000012c220000004000a1
:1012400000004000010040001000be000001be0090
:101250000204b0000380b000012c22000400420010
:1012600000004000010040000288be002e009000f7
:10127000012c22000000400000004000010040005e
:101280001002be002e009000012d22000000400040
:1012900000004000010040001001be002e00900040
:1012a000012e22000000400000004000010040002c
:1012b0001000be000200400083804800800f5200f2
:1012c000818f5a000c0039002e0290002e009000f1
:1012d000012d2200000040000000400001004000fd
:1012e0001001be00012c220004004200000040005a
:1012f000010040000288be000000eb0010079800cb
:1013000062003700ae009000c02b220061407800e0
:101310000080fb000000a200610060000004e0000b
:101320000300320080002000000f78000200370028
:101330000000eb00000f78001e0090009e004000af
:101340002e0090000000400000004000000040001f
:10135000000040000000400000004000008140000c
:10136000ae009000c02b2200614078000080fb009e
:101370008000e9004f08de00010040000080d1003d
:10138000000040000000400000004000000040005d
:1013900000004000000041000010b0008000780014
:1013a000002f2200010878001e009000000040007d
:1013b0000000400000004000000f78009e00780010
:1013c000d0e72100e1407800002f22002140980062
:1013d0009e00e800d0e72100e1407800002f2200c5
:1013e000314098009e80e800d0e72100e14078007d
:1013f000002f2200414098001e007800e3004000ca
:10140000d0e72100e1407800002f220051409800f1
:101410001e007800e4004000d0e72100e1407800a1
:10142000002f2200614098001e007800e500400077
:10143000d0e72100e1407800002f220071409800a1
:101440001e007800e6004000d0e72100e14078006f
:10145000002f2200014898001e007800e70040009d
:10146000d0e72100e1407800002f220011489800c9
:10147000a08e2000012f2200801202000000000038
:101480001e0090000000e800100798001e00900069
:10149000e70f50009bff34002e019000c12b22006b
:1014a0000040eb0000f178002e0090000000e80002
:1014b000200798002e009000e30f50004eff3400ec
:1014c0000080fa00000006001000fa006007980093
:1014d000614f98006e48900063406000604f980034
:1014e0006e0090000000400000004000000040003e
:1014f0006101b80030c3b3003c3b020000000000b3
:10150000d0e72100104090000080fb000100200087
:101510004007980051079800d0e721002040900034
:101520000080fb0001002000200798003107980090
:10153000d0e72100304090000080fb000100200037
:10154000008fbe006e4890000082fb004e009000ad
:10155000de00900000004000818048000000400054
:101560008180480000004000818048000000400069
:101570008180480000004000818048000000400059
:101580008180480000004000818048000000400049
:10159000818048000001be002e009000be00900037
:1015a000c000dd00000020000201400083814800ef
:1015b0001e00be0000004000818048000000400086
:1015c0008180480000004000818048000000400009
:1015d00081804800000040008180480000004000f9
:1015e00081804800000040008180480000004000e9
:1015f00081804800000040008180480000004000d9
:1016000081804800000040008180480000004000c8
:1016100081804800000040008180480000004000b8
:1016200081804800000040008180480000004000a8
:101630008180480000004000818048000000400098
:101640008180480000004000818048000000400088
:101650008180480000004000818048000000400078
:101660008180480000004000818048000000400068
:10167000818048000201400083814800d0e72100ba
:10168000104078000080fb000100200002014000b3
:1016900083814800012c2200040042000000400029
:1016a000010040000288be006e4890000082fb00ee
:1016b0006e4890000080fb00012c220000004000da
:1016c00000004000010040001001be00012d22007a
:1016d0000400420000004000010040000288be00fb
:1016e000d0e72100504090000080fb000100200066
:1016f0004007980051079800d0e721006040900013
:101700000080fb00010020002007980031079800ae
:10171000d0e72100704090000080fb000100200015
:10172000008fbe006e4890000082fb004e009000cb
:10173000de00900000004000818048000000400072
:101740008180480000004000818048000000400087
:101750008180480000004000818048000000400077
:101760008180480000004000818048000000400067
:10177000818048000001be002e009000be00900055
:10178000c000dd000000200002014000838148000d
:101790001e00be00000040008180480000004000a4
:1017a0008180480000004000818048000000400027
:1017b0008180480000004000818048000000400017
:1017c0008180480000004000818048000000400007
:1017d00081804800000040008180480000004000f7
:1017e00081804800000040008180480000004000e7
:1017f00081804800000040008180480000004000d7
:1018000081804800000040008180480000004000c6
:1018100081804800000040008180480000004000b6
:1018200081804800000040008180480000004000a6
:101830008180480000004000818048000000400096
:101840008180480000004000818048000000400086
:10185000818048000201400083814800d0e72100d8
:10186000404090000080fb00010020000201400089
:1018700083814800012e2200040042000000400045
:10188000010040000288be000002eb008001eb0076
:101890000001eb008000eb00c0082000061c0200e5
:1018a000000000000002eb008001eb000001eb00f3
:1018b0008000eb00c0082000061c020000000000b1
:1018c0000002eb008001eb000001eb008000eb0068
:1018d000c0082000061c0200000000006e489000b6
:1018e0008080fb000002eb008001eb000001eb00b8
:1018f000a0082000061c0200000000006e489000b6
:101900000081fb00014122000040eb0000f1780063
:101910006e4890000081fb00c12b220010c0b30074
:1019200000f178000080fa00000006001000fa00c4
:10193000404f9800710798004e4890006340600047
:10194000404f98007e0090000000400000004000e2
:10195000000040006101b80030c3b3003c3b02000e
:1019600000000000d0e72100104090000080fb0044
:10197000010020004007980051079800d0e721009f
:10198000204090000080fb0001002000200798000c
:1019900031079800d0e72100304090000080fb0024
:1019a00001002000008fbe004e4890000082fb0026
:1019b0004e009000de009000000040008180480052
:1019c0000000400081804800000040008180480005
:1019d00000004000818048000000400081804800f5
:1019e00000004000818048000000400081804800e5
:1019f00000004000818048000001be002e009000e1
:101a0000be009000c000dd00000020000201400088
:101a1000838148001e00be00000040008180480015
:101a200000004000818048000000400081804800a4
:101a30000000400081804800000040008180480094
:101a40000000400081804800000040008180480084
:101a50000000400081804800000040008180480074
:101a60000000400081804800000040008180480064
:101a70000000400081804800000040008180480054
:101a80000000400081804800000040008180480044
:101a90000000400081804800000040008180480034
:101aa0000000400081804800000040008180480024
:101ab0000000400081804800000040008180480014
:101ac0000000400081804800000040008180480004
:101ad00000004000818048000201400083814800ee
:101ae000d0e72100104078000080fb0001002000ba
:101af0000201400083814800012c220004004200c2
:101b000000004000010040000288be004e489000e6
:101b10000082fb004e4890000080fb00012c220058
:101b20000000400000004000010040001001be0025
:101b3000012d22000400420000004000010040008e
:101b40000288be00d0e72100504090000080fb00da
:101b5000010020004007980051079800d0e72100bd
:101b6000604090000080fb000100200020079800ea
:101b700031079800d0e72100704090000080fb0002
:101b800001002000008fbe004e4890000082fb0044
:101b90004e009000de009000000040008180480070
:101ba0000000400081804800000040008180480023
:101bb0000000400081804800000040008180480013
:101bc0000000400081804800000040008180480003
:101bd00000004000818048000001be002e009000ff
:101be000be009000c000dd000000200002014000a7
:101bf000838148001e00be00000040008180480034
:101c000000004000818048000000400081804800c2
:101c100000004000818048000000400081804800b2
:101c200000004000818048000000400081804800a2
:101c30000000400081804800000040008180480092
:101c40000000400081804800000040008180480082
:101c50000000400081804800000040008180480072
:101c60000000400081804800000040008180480062
:101c70000000400081804800000040008180480052
:101c80000000400081804800000040008180480042
:101c90000000400081804800000040008180480032
:101ca0000000400081804800000040008180480022
:101cb000000040008180480002014000838148000c
:101cc000d0e72100104078000080fb0001002000d8
:101cd0000201400083814800012e220004004200de
:101ce00000004000010040000288be000002eb003e
:101cf0008001eb000001eb008000eb00c008200039
:101d0000061c0200000000000002eb008001eb0056
:101d10000001eb008000eb00c0082000061c020060
:101d2000000000000002eb008001eb000001eb006e
:101d30008000eb00c0082000061c0200000000002c
:101d40004e4890008080fb000002eb008001eb0019
:101d50000001eb00a0082000061c020000000000ab
:101d60004e4890000081fb00014122000040eb0042
:101d700000f178004e4890000081fb00c12b22004a
:101d800010c0b30000f178000080fa0000000600e7
:101d90000400fa00004f780011479800224798008d
:101da000334798003e4090008081fb002e40900019
:101db0008080fb001e4090000081fb001e80fb0025
:101dc000030278008101780080007800f00820008c
:101dd000061c0200000000000080fa00000006005f
:101de0000000fa000002eb008001eb000001eb00b4
:101df0008000eb00e0082000061c0200000000004c
:101e00000080fa00000006000200fa00000f7800cf
:101e10000002eb008001eb000001eb008000eb0012
:101e2000c0082000061c0200000000000002eb00b9
:101e30008001eb000001eb008000eb00c0082000f7
:101e4000061c0200000000000002eb008001eb0015
:101e50000001eb008000eb00c0082000061c02001f
:101e6000000000000002eb008001eb000001eb002d
:101e70009e00780090082000061c02000000000070
:101e80000080fa00000006000a00fa00004f780007
:101e9000110798002207980033079800440798001c
:101ea0001e80fb00630060000008b0004e0290003e
:101eb000be0190002e0190009e009000061c0200c2
:101ec000000000000080fa00000006001000fa0088
:101ed0006047980071479800024f9800134f980090
:101ee000244f980065079800664f9800774f980038
:101ef0006e4890008080fb00e032220010407800a5
:101f00000080fb000000e8000088b900200798006e
:101f10002e0090004800de00604f98007e48900040
:101f20008080fb00e0322200104078000080fb003f
:101f30000000e8000088b900200798002e009000fb
:101f40004800de00704f98006e4090008080fb00db
:101f50007e4090000080fb00000040000000400038
:101f60000000400000004000000040000000400071
:101f70000000400000004000808040000e489000bb
:101f80000080fb0000004000000040000000400016
:101f90000000400000004000000040000000400041
:101fa0000000400000004000000040008080400031
:101fb0001e4890000080fb00000040000000400030
:101fc0000000400000004000000040000000400011
:101fd0000000400000004000000040000000400001
:101fe0000000400000004000808040002e4890002b
:101ff0000080fb00000040000000400000004000a6
:1020000000004000000040000000400000004000d0
:1020100000004000000040000000400000004000c0
:1020200000004000000040000080400010079800c1
:102030006e4890008080fb007e4890000080fb008e
:102040000000400000004000000040000000400090
:102050000000400000004000000040000000400080
:1020600000804000000f78000002eb009e01780025
:102070006e0190009e00900080082000061c020067
:10208000000000000080fa00000006000800fa00ce
:10209000000f780011079800220798003307980076
:1020a0003e029000ae0190001e0190009e0078005c
:1020b00040082000061c0200000000000080fa001a
:1020c000000006000000fa009120a8000080eb004c
:1020d00024030200000000000002eb0013002000b7
:1020e00072002000f1e32f00d0032f004e03020006
:1020f000000000000080fa0000000600809fbe0083
:102100003400f80000c0b300a00188000000fa000d
:1021100000412200104078000040e8008040780034
:102120000041220001487800004122001040900048
:102130000040e800804078000041220011409800f3
:1021400000412200204090000040e80080407800dc
:1021500000412200214098000041220030409000c0
:102160000040e800804078000041220031409800a3
:1021700000412200104078008080fb00f003200026
:10218000008060000000e00008003a0000412200ea
:10219000104078000080fb004600de000040e800b0
:1021a00080407800c02b22000148780000412200c6
:1021b000104090008080fb00f00320000080600051
:1021c0000000e00008003a000041220010409000aa
:1021d0000080fb004600de000040e8008040780000
:1021e000c02b2200114098000041220020409000a6
:1021f0008080fb00f0032000008060000000e00011
:1022000008003a0000412200204090000080fb00be
:102210004600de000040e80080407800c02b22002d
:102220002140980000412200304090008080fb0057
:10223000f0032000008060000000e00008003a0089
:1022400000412200304090000080fb004600de008c
:102250000040e80080407800c02b22003140980008
:102260008920a90080128000d01789009012800078
:10227000d0178900a0128000d0178900b01280000a
:10228000d0178900e0178100c0128800e017810094
:10229000d0128800e0178100e0128800e01781006a
:1022a000f01288000080fa003400f9004f00be00f0
:1022b000004006000800fa00004f7800114798001f
:1022c00022479800334798004447980055479800a4
:1022d000664798006e4090000081fb005e409000d1
:1022e0000080fb00000040000000400000004000b3
:1022f00000004000000040000000400000004000de
:1023000000004000800078004e4090000080fb00fc
:10231000808170003e4090000080fb000000400083
:1023200000004000000040000000400000004000ad
:1023300000004000000040000000400080007800e5
:102340002e4090000080fb00808270001e409000b4
:102350000080fb0000004000000040000000400042
:10236000000040000000400000004000000040006d
:1023700000004000800078001e80fb00808070001c
:102380000202780005017800b0082000061c020057
:10239000000000000080fa00000006000200fa00c1
:1023a000218e20001000200090009800218e200037
:1023b00010002000a0009800218e200000082000be
:1023c000b0009800218e200020ee200080087800c8
:1023d000a18e20001000200090009800a18e200007
:1023e00010002000a0009800a18e200040092000cd
:1023f000b0009800a18e2000a091200080087800f5
:102400000000eb00000f780007003700208e20004e
:10241000100178001e0078006a00b9000000410039
:10242000e60407001e0fe800f00720009e0f1000d2
:10243000f6ff36000000eb00000f780007003700c1
:10244000a08e2000100178001e0078006a00b900fc
:1024500000004100d90407001e0fe80030092000e9
:102460009e0f1000f6ff36000080fa000000060004
:102470000400fa00000f78001e0078009000900021
:102480001e00780020009000808f50000a00360067
:102490001e007800b00090001e0078001000900030
:1024a000808050001e007800200090008080400056
:1024b000110798000f0037001e007800a000900060
:1024c0001e00780010009000808f5000070036003a
:1024d0001e007800a00090001e0078001000900000
:1024e0008080500011079800020037000000eb00c8
:1024f000100798001e0090000080fa0000000600ff
:102500000600fa0010079800210798001e009000ae
:10251000100178001e009000200090006a00b900b1
:10252000800041002e0090001000780080087800a4
:102530000040eb00004f7800100037001e009000b4
:10254000100178001e009000200090006a00b90081
:10255000000141009e81fb001e80fb00ae00900048
:102560000080e80001004000904078000300410036
:102570000080e800014878001e4fe80070c0b300fa
:102580009e4f1000edff36001e00900020009000ce
:102590008000e8001e009000210098001e009000be
:1025a000a00090001e00900030009000808f50002e
:1025b000030039009e0090000000eb00a00098008e
:1025c0000080fa00000006000600fa0010079800dc
:1025d000210798001e009000100178001e00900056
:1025e000100090006a00b9000000410090007800df
:1025f0002e009000010878000040eb00004f7800aa
:10260000100037009e81fb001e0090001001780032
:102610001e009000100090006a00b9008000410088
:102620001e80fb000080e800010040009040780020
:102630002e009000030040000080e8000148780070
:102640001e4fe80070c0b3009e4f1000edff360033
:102650001e009000100090008000e8001e00900016
:10266000110098001e009000900090001e00900045
:1026700030009000808f5000030039009e009000d1
:102680000000eb00900098000080fa0000000600b7
:102690003600f800809fbe00829fbe00849fbe006f
:1026a000869fbe003400f80000c0b300a00188007f
:1026b0000200fa008760a90096c3bf006140600075
:1026c0000004e00035003200001c80004200de0003
:1026d000000f7800f00f20009e0f1000030036005e
:1026e000f01f20009e0f100029003600609020008f
:1026f0001e087800301c8000804078006090200028
:1027000021409800301c80004800de0080407800a6
:102710006090200031409800401c8000804078008c
:102720006090200041409800401c80004800de007e
:10273000804078006090200051409800501c80003c
:10274000804078006090200061409800501c80001c
:102750004800de00804078006090200071409800c2
:10276000601c800080407800609020000148980044
:10277000601c80004800de008040780060902000ef
:1027800011489800208e2000619020005cff070017
:102790009603a9000000eb00701c880096c3bf00e0
:1027a000624060000004e00035003200001c800040
:1027b0004200de00000f7800f00f20009e0f100096
:1027c00003003600f01f20009e0f10002900360085
:1027d000609020001e087800301c80008040780047
:1027e0006090200021409800301c80004800de00ee
:1027f000804078006090200031409800401c8000ac
:10280000804078006090200041409800401c80008b
:102810004800de0080407800609020005140980021
:10282000501c80008040780060902000614098003b
:10283000501c80004800de0080407800609020003e
:1028400071409800601c80008040780060902000fb
:1028500001489800601c80004800de00804078003d
:102860006090200011489800208e20006190200088
:1028700023ff07009623a9000000eb00f01b88004f
:1028800096c3bf000042b2000004e0000500320021
:102890005a0302000000000097e3a90097c3a900b3
:1028a00096a3a9000080fa003400f9004f03be008f
:1028b0004f02be004f01be004f00be003600f900bf
:1028c000004006000000fa00a08e2000e8fe07008d
:1028d0000000e00055003200701b80004300de0065
:1028e0000000a200610060000004e0004f00320020
:1028f0009643a90000042000201b8800a08e200021
:102900000191200030ff07000091200010007800a6
:10291000df030700001b880000912000204090008a
:102920008080fb0000912000304090000080fb0080
:102930000000400000004000000040000000400097
:102940000000400000004000000040000000400087
:1029500000807000301b88000091200040409000f3
:102960008080fb0000912000504090000080fb0020
:102970000000400000004000000040000000400057
:102980000000400000004000000040000000400047
:1029900000807000401b8800009120006040900083
:1029a0008080fb0000912000704090000080fb00c0
:1029b0000000400000004000000040000000400017
:1029c0000000400000004000000040000000400007
:1029d00000807000501b880000912000004890008b
:1029e0008080fb0000912000104890000080fb00d8
:1029f00000004000000040000000400000004000d7
:102a000000004000000040000000400000004000c6
:102a100000807000601b880030002000701b880060
:102a2000701b80000030a000701b8800a08e20006a
:102a30008ffe07000000e00055003200f01a800011
:102a40004300de000000a200610060000004e0001e
:102a50004f0032009663a90000042000a01a8800ed
:102a6000a08e200001912000d7fe070000912000d9
:102a70001000780086030700801a8800009120006b
:102a8000204090008080fb000091200030409000aa
:102a90000080fb00000040000000400000004000fb
:102aa0000000400000004000000040000000400026
:102ab0000000400000807000b01a880000912000e3
:102ac000404090008080fb0000912000504090002a
:102ad0000080fb00000040000000400000004000bb
:102ae00000004000000040000000400000004000e6
:102af0000000400000807000c01a88000091200093
:102b0000604090008080fb000091200070409000a9
:102b10000080fb000000400000004000000040007a
:102b200000004000000040000000400000004000a5
:102b30000000400000807000d01a88000091200042
:102b4000004890008080fb00009120001048900019
:102b50000080fb000000400000004000000040003a
:102b60000000400000004000000040000000400065
:102b70000000400000807000e01a88003000200053
:102b8000f01a8800f01a80000030a000f01a8800c7
:102b9000a08e200036fe07000000e0005500320045
:102ba000701a80004300de000000a2006100600097
:102bb0000004e0004f0032009683a90000042000ca
:102bc000201a8800a08e2000019120007efe0700c0
:102bd00000912000100078002d030700001a8800e3
:102be00000912000204090008080fb000091200098
:102bf000304090000080fb000000400000004000da
:102c000000004000000040000000400000004000c4
:102c1000000040000000400000807000301a880072
:102c200000912000404090008080fb000091200037
:102c3000504090000080fb00000040000000400079
:102c40000000400000004000000040000000400084
:102c5000000040000000400000807000401a880022
:102c600000912000604090008080fb0000912000d7
:102c7000704090000080fb00000040000000400019
:102c80000000400000004000000040000000400044
:102c9000000040000000400000807000501a8800d2
:102ca00000912000004890008080fb0000912000ef
:102cb000104890000080fb00000040000000400031
:102cc0000000400000004000000040000000400004
:102cd000000040000000400000807000601a880082
:102ce00030002000701a8800701a80000030a000a8
:102cf000701a88000080fa00000006001400fa0034
:102d0000208e2000dafd0700300798000000eb005d
:102d100040079800a3023700208e2000c18f2000ba
:102d200029fe0700c08f200090007800f01f2000cf
:102d3000808f500039003600c08f2000900078004e
:102d4000f0232000808f500034003e0060412200bc
:102d500010407800e14f500030003a00c08f200052
:102d6000100078000000400000004000000040001b
:102d70008000780000002f000080400020079800ad
:102d80000000eb00500798000d003700ae009000e7
:102d90005e009000008140005e009000c18f200026
:102da0000080e800010040009040780020f82100f9
:102db000017178005e0090000000e8005007980064
:102dc0005e009000e70f5000f0ff3600208f2000db
:102dd0007a020700218f2000002f20008008780051
:102de000218f200070cfb300a0409800218f2000d9
:102df00060c8b300b0409800c08f20001000780079
:102e000080407800208f200041409800a08e200054
:102e1000218f2000bafd07005f023700c08f20001d
:102e200010007800100f9800300f20009e089000ce
:102e3000808f50004a023200300f20001e0990009f
:102e4000800f51000e003e00c00820009e08900038
:102e5000808f500050023200c00820001e099000f0
:102e6000800f510001003e004b023700000f200090
:102e70009e089000808f50003402320046023700d6
:102e8000102f20001e099000800f510030013200e9
:102e9000102f20009e089000808f500005003e00fb
:102ea000002f20001e099000800f5100a300320067
:102eb00039023700202f20009e089000808f50009c
:102ec00005003200302f20001e099000800f5100b5
:102ed0001602320030023700c08f200020409000e0
:102ee000e24f500015003a00e02622001040780022
:102ef0008040e800e026220001487800c08f2000d2
:102f0000304090008080fb000227220001804000ba
:102f10000000400000004000020040001040780027
:102f20008041e800022722000180400000004000ac
:102f3000000040000200400003487800c08f2000dd
:102f400020409000e84f500009003a00f01c81003a
:102f5000011d810061004000e0804800f01c8900f4
:102f6000011d8900613a220010c0b300804878003a
:102f7000c08f200020409000e64f50001e003a0015
:102f8000c08f200030409000e94f40001a0032000e
:102f9000c08f2000304090008081fb00c08f200057
:102fa000504090000080fb00000040000000400006
:102fb0000000400000004000000040000000400011
:102fc000000040000000400080007800c08f20001a
:102fd000404090000080fb0000814000012722005b
:102fe000038041000000400000004000010040005c
:102ff0006600400002087800c08f2000304090003a
:10300000e94f4000e4013a00c08f200020409000ca
:103010000080fb00000f98000e089000e50f5000a4
:103020002b0032008e089000e78f50000100320024
:10303000d9013700208f2000e0010700218f2000f8
:10304000202f200080087800218f200080c0b3004e
:10305000a0409800218f200070cfb300b0409800ae
:10306000c08f2000c0409000208f20004140980079
:10307000c08f2000d0409000208f20005140980049
:10308000c08f2000e0409000208f20006140980019
:10309000c08f2000f0409000208f200071409800e9
:1030a000c08f200080489000208f200001489800a9
:1030b000c08f200090489000208f20001148980079
:1030c000a08e2000218f20000dfd0700b2013700e7
:1030d0009c07020000000000109f8800208f200045
:1030e000b6010700218f2000202f200080087800e3
:1030f000218f200060c0b300a0409800218f2000e5
:1031000070cfb300b0409800109f800080407800de
:10311000208f200041409800109f80004800de0072
:1031200080407800208f200051409800a08e200021
:10313000218f2000f2fc070097013700c08f20008c
:1031400020409000e94f400093013a00c08f2000da
:10315000304090000080fb00700798007e019000d6
:10316000e20f51002b0032007e009000e20f500071
:1031700004003c00fe009000e18f50000800320087
:10318000850137007e019000e30f510033003200cb
:103190007e009000e40f5000420032007e013700b4
:1031a0000000eb0050079800070037005e01900018
:1031b00021f821000040eb0000f178005e00900053
:1031c0000000e80050079800de009000f01f20008b
:1031d000808f5000f5ff3600208f20007701070018
:1031e000218f2000002f200080087800218f2000f0
:1031f00070cfb300a0409800218f200010c8b3000a
:10320000b0409800a08e2000218f2000bcfc070059
:10321000610137006141220010c0b300804878008e
:10322000208f200065010700218f2000002f200043
:1032300080087800218f200070cfb300a040980054
:10324000218f200020c8b300b0409800a08e20003d
:10325000218f2000aafc07004f01370061412200a6
:103260000040eb0080487800208f200053010700c9
:10327000218f2000002f200080087800218f20005f
:1032800070cfb300a0409800218f200030c8b30059
:10329000b0409800a08e2000218f200098fc0700ed
:1032a0003d0137006041220010407800e14f50009e
:1032b00039013a00c08f2000404090000080fb00a0
:1032c000000040000000400000004000200798007f
:1032d000208f200039010700c08f2000404090005f
:1032e0000080fb000024b00080007800208f2000c8
:1032f000010878000000eb00500798000d0037002f
:103300005e019000ae0090005e0090008080400062
:1033100020f82100e1407800208f200002004000ca
:103320000080e800014878005e0090000000e8009e
:10333000500798005e009000e70f5000f0ff360045
:10334000a08e2000218f20006dfc070012013700a5
:10335000c08f200020409000e94f40000e013a004d
:10336000c08f2000404090000081fb00030020003f
:10337000c08f2000504090000080fb000100200022
:10338000000040008180480000004000818048002b
:10339000000040008180480000004000818048001b
:1033a000000040008180480000004000818048000b
:1033b00000004000818048000000400081804800fb
:1033c0000201400083814800c08f200060409000cf
:1033d0000080fb0001002000c000dd000000200094
:1033e0000201400083814800c08f2000704090009f
:1033f0000080fb00010020000000400081804800a8
:1034000000004000818048000000400081804800aa
:10341000000040008180480000004000818048009a
:10342000000040008180480000004000818048008a
:10343000000040008180480000004000818048007a
:10344000000040008180480000004000818048006a
:10345000000040008180480000004000818048005a
:10346000000040008180480000004000818048004a
:10347000000040008180480000004000818048003a
:10348000000040008180480000004000818048002a
:10349000000040008180480000004000818048001a
:1034a000000040008180480000004000818048000a
:1034b0000000400081804800001f41000197490042
:1034c000c08f2000304090000080fb006007980013
:1034d000ee009000e18f5000350032006e01900048
:1034e000e20f5100640032006e0090000000e00026
:1034f00001003200a800370022f821001e00be00a3
:103500007a2b0200000000001e00be00ac29020061
:1035100000000000208f2000a8000700218f20005d
:10352000102f200080087800218f200070cfb3007a
:10353000a0409800218f200000c8b300b040980040
:103540001e00780080407800208f200041409800c5
:103550001e00be004809dd004800de0000007100ca
:10356000c808de0080407800208f2000514098007d
:103570001e00be004008de000100200080407800f0
:10358000208f2000614098001e00be004808de0029
:103590000100200080407800208f200071409800ba
:1035a000a08e2000218f2000d5fb07007a00370075
:1035b00022f821001e00be00ca2a020000000000fe
:1035c00022f821001e00be007a2b0200000000003d
:1035d0001e00be00ac29020000000000208f200069
:1035e00076000700218f2000102f2000800878002f
:1035f000218f200070cfb300a0409800218f2000c1
:1036000010c8b300b04098001e00780080407800d9
:10361000208f2000414098001e00be004809dd00b8
:103620004800de0000007100c808de00804078001d
:10363000208f2000514098001e00be004008de0090
:103640000100200080407800208f20006140980019
:103650001e00be004808de00010020008040780007
:10366000208f200071409800a08e2000218f200024
:10367000a3fb0700480037001e00be00262c0200f6
:10368000000000001e00be00ac2902000000000087
:10369000208f200049000700218f2000102f2000dc
:1036a00080087800218f200070cfb300a0409800e0
:1036b000218f200020c8b300b04098001e00780081
:1036c00080407800208f2000414098001e00be00fe
:1036d0004809dd004800de0000007100c808de0077
:1036e00080407800208f2000514098001e00be00ce
:1036f0004008de000100200080407800208f20007c
:10370000614098001e00be004808de000100200055
:1037100080407800208f200071409800a08e20000b
:10372000218f200076fb07001b003700c08f200090
:10373000a0409000504122000148780061392200e9
:103740000040eb008048780013003700c08f200055
:10375000204090001c590200000000000e003700bd
:10376000c08f2000c04090004040220001487800f7
:10377000c08f2000d04090004040220011409800af
:10378000c08f2000e040900040402200214098007f
:103790004a5a0200000000004e0090000000e800bd
:1037a00040079800ce0090003e009000808f5000af
:1037b00059fd39000080fa00000006000400fa00fc
:1037c000100798000040eb00004f7800070037001a
:1037d0009e80fb001e009000010040008080e800f9
:1037e0000040eb00804878001e4fe80070c0b30036
:1037f0009e4f1000f6ff36009e0090000000eb0088
:10380000800878000080fa00000006001400fa002a
:10381000500798006107980072079800030f9800fe
:10382000140f98005e009000000f78006e0090006a
:10383000204798006e0090004800de003047980056
:103840007e009000404798007e0090004800de0017
:10385000504798000e089000604798000e089000ae
:103860004800de00704798001e089000004f980046
:103870001e0890004800de00104f9800a08e200027
:103880008e0078001efb07000080fa000000060092
:103890000200fa00000f7800f00320001e00600014
:1038a000000040000000400080007800007c200004
:1038b0001e006000000040000000400000004000ca
:1038c0000000400000004000008040000080fa003e
:1038d000000006000000fa00b0fa070000c0200057
:1038e0005e0302000000000090c3bf000080fb00e8
:1038f0004500de000080fb00e30f5000faff3400bb
:10390000912820000000eb0064030200000000008a
:103910006011b8008000eb000040eb006a03020079
:10392000000000006011b8008000eb0010c0b30080
:103930006a030200000000006011b8008000eb0084
:1039400020c0b3006a030200000000006011b8004c
:103950008000eb0030c0b3006a03020000000000ea
:103960006011b8008000eb0040c0b3006a030200a1
:10397000000000006011b8008000eb000040eb0088
:10398000c2030200000000006011b8008000eb00dc
:1039900010c0b300c203020000000000310020008c
:1039a0000040eb00de0302000000000031002000b8
:1039b00010c0b300de030200000000003100200050
:1039c00020c0b300de030200000000004100200020
:1039d0000040eb00f4030200000000004100200062
:1039e00010c0b300f403020000000000e1ff2f004c
:1039f00030022000040402000000000000802000cb
:103a00002c0402000000000090c3bf0001ceb300f0
:103a1000014060000004e000fbff3a000080fa0073
:103a2000000006003200f800900188006118e100f3
:103a3000040032007018e10002003200f0ff2f0095
:103a4000030037003119ba008301e900fdff3a0095
:103a50003200f90000000600849fbe004220a90049
:103a6000440424006110e1000a00320054042400e0
:103a70007010e1000700320064042400f5ff2f00fd
:103a80000510e10003003200f0ff2f004f02be00de
:103a9000000006003200f800203b8800113b88003f
:103aa000043b88004200f800000e20004220b700ce
:103ab00050052000303b8800a00a2000303b8800e1
:103ac00061e7a800000000000000000061e7af000f
:103ad000feff37000000eb004200f9003200f90061
:103ae0004f02be0000000600841f78004220a9009b
:103af000440024006118e100060032005400240054
:103b00007018e100030032004f027800f0ff2f0030
:103b1000000006003200f80091018800821f780042
:103b20003019bb008301e900fdff3a00213b88000a
:103b30004f017800123b8800043b88004200f800e7
:103b4000000e20004220b70050052000303b8800c6
:103b5000a00a2000303b880061e7a80000000000b8
:103b60000000000061e7af00feff37000000eb003f
:103b70004200f9003200f9004f0278000000060010
:103b80000000fa005141220040c0b3008048780094
:103b90006139220050c0b300804878000080fa00ec
:103ba000000006000600fa00881f78006039220035
:103bb000104078000080fb006101b90012079800f6
:103bc0002307980050012000010020001e019000f2
:103bd000ae019000800f5100818f5900be033e005e
:103be0001e009000ae00900000600100150037003c
:103bf000280137003e0137006d013700c001370052
:103c0000c4013700ce013700dd013700fb0137006a
:103c1000120237002102370035023700ae033700a9
:103c200053023700aa02370021033700560337003a
:103c30008b0337000e0037001b0037009e00370053
:103c4000ea003700b01680000000a000b01688001f
:103c5000b1168000d0ff2f0000806000b0168800f1
:103c60006139220010c0b30080487800a0033700fb
:103c70006139220030c1b3008048780071412200d0
:103c800010c0b30080487800813a22000040eb0069
:103c900080487800913a22000040eb00804878008c
:103ca0009603070092033700803a22001040780004
:103cb000e34f50002a003e00903a22001040780066
:103cc0000080fb00800cb0008000780080002000a5
:103cd0000432020000000000903a220010447800f4
:103ce0000000eb00801f78008003eb000043eb0036
:103cf000f5c3b300f4c3b3008041eb00f2c3b300db
:103d0000f1c3b300084078007630020000000000e4
:103d10008f87e900613a220010c0b3008048780024
:103d2000903a2200104078003e04070061392200da
:103d300040c1b300804878006000b800f01c8900e2
:103d4000011d89006000b800101d8900211d890037
:103d5000e13722000000eb00800898006403370080
:103d6000903a2200104078000084fb00903a220034
:103d7000104078000080fb00012722000000400076
:103d800000004000000040000080e800010040000a
:103d90001000be0042062000030020004a0202007c
:103da000000000000001be000127220008004400be
:103db0000000400000004000010040000080e800da
:103dc0000288be00903a2200104078000080fb007c
:103dd00001272200000040000000400000004000d9
:103de0000080e800010040001001be00f013200038
:103df00001002000800f5100818f590007003e0014
:103e00006139220050c1b30080487800e1372200b8
:103e1000e0ff2f008008980035033700903a220019
:103e2000104478000000eb00801f78008003eb0056
:103e30000043eb008042eb000042eb008041eb00ce
:103e40000041eb008040eb00084078007630020033
:103e5000000000008f87e900903a220010407800af
:103e60008040e800903a220001487800903a220011
:103e700010407800e54f50000700360071412200e5
:103e80000040eb008048780061392200b0c0b300e8
:103e900080487800160337006139220030c1b30032
:103ea0008048780015030700813a22000040eb00ab
:103eb000804878000e033700e037220000089000a9
:103ec000f80f500038003600e13722000000eb0008
:103ed00080089800121d8100231d8100f01c8100c4
:103ee000011d810002004000838048000000400066
:103ef00081804800000040008180480000004000b0
:103f0000818048000000400081804800000040009f
:103f1000818048008015890091158900903a22001f
:103f2000104078000080fb000127220000004000c4
:103f300000004000000040000080e8000100400058
:103f40001001be008015810091158100800f510085
:103f5000818f59000c003100903a22001040780007
:103f60000080fb008215810093158100012722004b
:103f70000000400000004000000040000100400040
:103f80000080e8000288be006139220030c1b30021
:103f900080487800803a2200104078008040e80095
:103fa000803a220001487800603a220010407800f0
:103fb000e14f5000ce023a00903a220010407800c3
:103fc00098030700613a22000040eb008048780027
:103fd000101d8100211d810061004000e08048002b
:103fe000101d8900211d8900c1023700e037220021
:103ff0008008900040062000808f5000bc023600f0
:10400000e13722000000eb0080089800a03a22006f
:10401000104078000004e0000c003a00a13a2200b1
:1040200010c0b30080487800903a22001040780019
:104030000080fb00800cb000800078007000200041
:104040000432020000000000a9023700a13a220059
:104050000040eb0080487800903a22001040780041
:104060000080fb000127220000004000000040000b
:10407000000040000080e800010040001000be0089
:104080008000780070002000043202000000000070
:1040900097023700714122000040eb008048780011
:1040a000c12a22000040eb0080487800b9020700d6
:1040b000e12a22000040eb0080487800d12a22004b
:1040c0000040eb0080487800e13722000000eb0060
:1040d00080089800e13722000000eb009000980073
:1040e0006139220020c0b300804878008002370088
:1040f000e037220010009000ea0f50007c023600ea
:10410000c02a2200104078000080fb005006b0005a
:1041100080007800800020000432020000000000cf
:10412000e13722000000eb0090009800002a2200f6
:10413000de1b020000000000012a2200202f2000c8
:1041400080087800012a220010c0b300a040980027
:10415000e02a220090407800002a22003140980096
:10416000a08e2000012a2200801202000000000020
:10417000e02a2200104078008040e800e02a220077
:1041800001487800e02a220010407800e54f5000f6
:10419000570236006139220030c0b30080487800f1
:1041a000e13722000000eb00800898005002370041
:1041b000e026220010407800e64f500028003a0028
:1041c000d02a220011c0b300014878000040eb0063
:1041d000004f78000d0037001e80fb0001272200f1
:1041e00000004000000040000000400001004000ce
:1041f00010407800e14f500003003200d12a220025
:104200000040eb00804878001e4fe80051c0b3002a
:104210009ecf1000f0ff3600d02a22001040780018
:10422000e14f500007003a006139220020c1b3007d
:10423000804878005141220040c0b3008048780097
:104240002b0237006139220050c0b300804878004b
:104250005141220040c0b30080487800240237005a
:10426000e03722008008900000192000808f500065
:104270001f023600e13722000000eb0080089800a2
:10428000c02a2200104078008040e800c02a2200a6
:1042900001487800c02a220010407800e34f500007
:1042a0000c003600e0262200104078000080fb0061
:1042b0004006b000501589005141220040c0b300b3
:1042c000804878006139220040c0b30080487800ff
:1042d00007023700e12a22000040eb008048780006
:1042e000e13722000000eb0090009800290207004f
:1042f0006139220020c0b30080487800fc013700fb
:1043000051158100700020000432020000000000fe
:10431000f7013700f00f20007f020700c63e0200c1
:10432000000000006139220060c0b30080487800be
:10433000713922000040eb0080487800ec01370022
:1043400070392200104078008081fb007039220013
:10435000104078000081fb003033220010407800cc
:104360008080fb00800f2000a22e020000000000d1
:104370006139220070c0b30080487800dc0137004a
:1043800070392200104478000000eb00801f780094
:10439000470620000043eb008042eb00f4c3b3006b
:1043a0008041eb000041eb00f1c3b300084078000e
:1043b00076300200000000008f87e900703922008b
:1043c000104078008080fb000002eb008001eb00d1
:1043d0000001eb00300e2000061c0200000000006f
:1043e000e13722000000eb00b000980061392200a4
:1043f00080c0b30080487800bd013700e03722005c
:10440000b000900010032000808f5000b8013600eb
:10441000e13722000000eb00b00098007039220064
:10442000104478000000eb00801f78009701200006
:104430000043eb008042eb00f4c3b3008041eb008b
:104440000041eb00f1c3b300084078007630020071
:10445000000000008f87e900a5013700e037220047
:1044600040009000f30f5000a10136007039220087
:1044700010407800e54f50000400360061392200fa
:10448000a0c0b3008048780099013700613922004c
:1044900070c0b30080487800950137000002eb003f
:1044a0008001eb000001eb008000eb00400e2000db
:1044b000061c0200000000000002eb008001eb007f
:1044c0000001eb008000eb00400e2000061c020003
:1044d000000000005141220040c0b3008048780035
:1044e000613922000040eb008048780080013700ed
:1044f000c63e0200000000000001eb008000eb005f
:1045000080cfb300ea310200000000000002eb009f
:104510008001eb000001eb00810f2000000720006c
:10452000061c020000000000c112200080002000d4
:10453000043202000000000061392200d0c0b30044
:1045400080487800c13922000040eb0080487800a4
:10455000e13722000000eb00800898000000eb002b
:10456000c01c89000000eb00d01c890060013700ee
:10457000e037220000089000e50f50000d003600e3
:10458000e13722000000eb00800898009c07020041
:104590000000000080007800c01c81000080400006
:1045a000c01c890047020700d01c81000000e80001
:1045b000d01c8900d01c8100ef0f50004c01360048
:1045c000c01c81004400de00c01c8900e1372200cd
:1045d0000000eb0080089800c11c8100c0c12000d1
:1045e000808f500034003600c13922000040eb00bb
:1045f00080487800c0392200104478000000eb00a9
:10460000801f78008003eb000043eb00f5c3b3008c
:10461000f4c3b3008041eb00f2c3b300f1c3b300b5
:104620000840780076300200000000008f87e90023
:1046300061392200e0c0b30080487800c039220010
:10464000104478000000eb00801f78008003eb002e
:104650000043eb00f5c3b300f4c3b3008041eb00ab
:10466000f2c3b300f1c3b300084078007630020013
:10467000000000008f87e9000000eb00c01c8900eb
:10468000e13722000000eb00800898000000eb00fa
:10469000d01c8900c0392200104078000080fb0047
:1046a000c012b000800078008000200004320200b8
:1046b000000000000e013700c012200050158900d4
:1046c0006139220040c0b3008048780008013700fb
:1046d000e037220000089000e50f5000150036007a
:1046e000e13722000000eb00800898009c070200e0
:1046f0000000000080007800c01c810000804000a5
:10470000c01c8900ef010700d01c81000000e800f8
:10471000d01c8900c0392200104078000080fb00c6
:10472000c012b00080007800800020000432020037
:1047300000000000d01c8100ef0f5000ec0036009c
:10474000c01c81004400de00c01c8900e13722004b
:104750000000eb0080089800c11c8100c0c120004f
:10476000808f500049003600c03922001040780088
:104770008040e800c039220001487800c03922009a
:1047800010407800e64f500012003a000081eb0024
:104790008080eb0080cfb300ea310200000000000f
:1047a0000082eb008081eb000081eb0081ff2f0095
:1047b00000072000061c02000000000060392200f3
:1047c000f1c0b300014878000000eb00c01c890074
:1047d00026003700c0392200104478000000eb00aa
:1047e000801f78008003eb000043eb00f5c3b300ab
:1047f000f4c3b3008041eb00f2c3b300f1c3b300d4
:104800000840780076300200000000008f87e90041
:10481000c0392200104078000080fb00c012b000b8
:1048200080007800800020000432020000000000b8
:10483000c0392200104478000000eb00801f78008f
:104840008003eb000043eb00f5c3b300f4c3b300f7
:104850008041eb00f2c3b300f1c3b300084078001d
:1048600076300200000000008f87e9000000eb00b6
:10487000c01c8900e13722000000eb00800898008e
:104880000000eb00d01c890099003700c0392200dd
:10489000104078000080fb00d012b0005015890055
:1048a0006139220040c0b300804878009000370092
:1048b000e037220000089000e50f50000d003600a0
:1048c000e13722000000eb00800898009c070200fe
:1048d0000000000080007800c01c810000804000c3
:1048e000c01c890077010700d01c81000000e8008f
:1048f000d01c8900d01c8100ef0f50007c003600d6
:10490000c01c81004400de00c01c8900e137220089
:104910000000eb0080089800c11c8100c0c120008d
:10492000808f500012003600e13722000000eb00bb
:10493000a00098006139220000c1b30080487800cf
:104940000000eb00c01c8900e13722000000eb00f2
:10495000800898000000eb00d01c8900f1152000b1
:1049600080002000043202000000000060003700d8
:10497000e0152000501589006139220040c0b300c5
:10498000804878005a003700e03722000008900085
:10499000e50f50000d003600e13722000000eb006b
:1049a000800898009c07020000000000800078004a
:1049b000c01c810000804000c01c8900d01c810008
:1049c0000000e800d01c89003e010700d01c8100d7
:1049d000ef0f500046003600c01c81004400de008e
:1049e000c01c8900e13722000000eb00800898001d
:1049f000c11c8100c0c12000808f50001000360013
:104a00004a01070080007800c0c12000808f50005c
:104a1000050036006139220010c1b30080487800db
:104a2000c900070032003700001620005015890029
:104a30006139220040c0b300804878002c00370064
:104a4000f00e020000000000f01520005015890053
:104a50006139220040c0b30080487800240037004c
:104a6000e0372200a0009000803e2000808f5000a0
:104a70001f0036008e3e0200000000000000eb0028
:104a8000f01f8900c13d22000040eb008048780003
:104a9000514122000040eb00804878000002eb000a
:104aa0008001eb000001eb008000eb00400e2000d5
:104ab000061c0200000000000002eb008001eb0079
:104ac0000001eb008000eb00400e2000061c0200fd
:104ad00000000000060037005141220040c0b30032
:104ae00080487800613922000040eb00804878005f
:104af0004f0478000080fa00000006000200fa006f
:104b00000040eb00004f78000a0037001e80fb00d9
:104b1000012722000000400000004000000040008b
:104b2000010040000081e8006000b8000089be007c
:104b30001e4fe80050c0b3009e4f1000f3ff360038
:104b40000080fa00000006000200fa000040eb00be
:104b5000004f78000a0037001e80fb00012722006a
:104b60000000400000004000000040000100400044
:104b70000081e8006000b8000089be001e4fe80018
:104b800050c0b3009e4f1000f3ff36000080fa00c3
:104b9000000006000200fa00e02622008040eb0040
:104ba000014878000040eb00004f78001b00370000
:104bb0001e80fb0001272200000040000000400092
:104bc00000004000810040000040eb008048780079
:104bd0001e80fb0001272200000040000000400072
:104be00000004000010040000081e8006000b800c3
:104bf0000089be001e80fb0001272200000040004b
:104c0000000040000000400001004000e6004000bd
:104c10000000eb00800878001e4fe80050c0b30091
:104c20009e4f1000e2ff36000080fa0000000600f0
:104c30000200fa00881f7800004f780060392200d7
:104c4000104078000080fb00e80f500001003200a7
:104c50002a00370070392200104478000000eb0071
:104c6000801f7800270320000043eb00f5c3b3004a
:104c70000042eb008041eb00f2c3b3008040eb0048
:104c80000840780076300200000000008f87e900bd
:104c900070392200104078000080fb001e000700e1
:104ca00070392200104078008040e80070392200fe
:104cb0000148780070392200104078008081fb00a4
:104cc00070392200104078000081fb003033220050
:104cd000104078008080fb00800f2000a22e020090
:104ce00000000000e13722000000eb00c000980047
:104cf0006139220090c0b300804878004f047800ea
:104d00000080fa00000006000200fa00000f7800a0
:104d10000080fa00000006000000fa000043eb00eb
:104d20008042eb000042eb0013c0b30000c1eb0077
:104d30008040eb0000c0eb005a11020000000000b0
:104d40000080fa00000006000200fa000040eb00bc
:104d5000004f78001c0037001e80fb000000400060
:104d60008043eb0000c3eb00853e20000042eb00d7
:104d700013c0b3000041eb008040eb00660f02005f
:104d800000000000a83d0200000000001e80fb00a3
:104d9000000040000040e8008043eb0000c3eb004f
:104da000853e20000042eb0013c0b30012c0b300e8
:104db00011c0b300660f020000000000a83d020011
:104dc000000000001e4fe80020c0b3009e4f1000fe
:104dd000e1ff3600714122000040eb00804878007e
:104de000a83d020000000000610020000040eb0030
:104df000960c020000000000a83d02000000000028
:104e00007100200010c0b300960c020000000000ea
:104e1000e13722000000eb00a00098000080fa00bb
:104e2000000006000400fa00881f78002047980060
:104e3000002a2200de1b020000000000012a2200de
:104e4000202f200080087800002a2200ae40900029
:104e500031409800012a220070c0b300a0409800a1
:104e600020c0b300004f78000c0037001e84fb0008
:104e7000800102000000000080007800f00f200098
:104e80000088b90080407800002a22000800400015
:104e90000080e800014878001e4fe80070c0b300b1
:104ea0009e4f1000f1ff3600a08e2000012a220044
:104eb00080120200000000004f0478000080fa0019
:104ec000000006000200fa000040eb00004f7800ee
:104ed00011003700002a2200de1b02000000000043
:104ee000012a2200202f200080087800002a2200ba
:104ef0009e40780031409800012a220050c0b30043
:104f0000a0409800a08e2000012a220080120200fa
:104f1000000000001e4fe80050c0b3009e4f10007c
:104f2000ecff36000080fa00000006000400fa00e2
:104f30000080eb00100798000040eb00004f780065
:104f4000130037001e80fb000127220000004000f4
:104f5000000040000000400066004000e080780053
:104f60001e009000808f5000080031001e80fb0062
:104f70000127220000004000000040000000400027
:104f80006600400060817800120798001e4fe8001c
:104f900050c0b3009e4f1000eaff36001e00900084
:104fa0000080fa00000006000400fa00000f7800fc
:104fb000110798001e007800000040008000780073
:104fc00000c02f0000804000800078001200200008
:104fd000f00720002c1d0200000000001e007800d9
:104fe000000040008000780000c02f0000804000da
:104ff000000178000e80e80013002000f107200077
:10500000741d0200000000000080fa00000006008d
:105010000400fa00100798001e00900000004000f5
:105020008000780000c02f000080400080007800e1
:10503000130020000e017800f0072000121d02006e
:10504000000000001e0078000080fa00000006004a
:105050000000fa00100020001300070080407800d4
:10506000e032220001487800200020000e000700f6
:10507000f2c3b30082406000103322000148780080
:10508000103322009040780020332200014878003d
:10509000103322009040780030332200014878001d
:1050a0000080fa00000006000400fa0010079800d3
:1050b0001e009000d6ff0700000f78001e00900031
:1050c000e130220000004000608078009e0f500018
:1050d00006003e001e009000e1312200000040006a
:1050e000608078009e0f5000040031001e00900088
:1050f000e12f220000004000608f78001e00780041
:105100000080fa00000006000800fa00008fbe00d0
:105110001e00be004708de000100200020079800a6
:105120003107980010002000010020002e0190009f
:10513000be019000800f5100818f59001b0032008a
:1051400010002000010020002e019000be01900000
:10515000800f5100818f59000f003900200020007e
:10516000010020002e019000be019000800f510030
:10517000818f590012003200300020000100200011
:105180002e019000be019000800f5100818f5900c8
:105190001000320013003700c582a900c5a2a80084
:1051a000c5c2a800c5e2a8000e003700c582a8004d
:1051b000c5a2a900c5c2a800c5e2a8000900370021
:1051c000c582a800c5a2a800c5c2a900c5e2a80062
:1051d00004003700c582a800c5a2a800c5c2a80067
:1051e000c5e2a9000080fa00000006000000fa00f5
:1051f000c582a800c5a2a800c5c2a800c5e2a80033
:105200000080fa00000006000a00fa00100798006b
:105210002107980032079800430798001e0090006d
:10522000ae009000b8ff0700300020002011880079
:10523000010037000060fe00001180006100600086
:105240000000e000fbff3200201180008040780069
:105250004e009000014878001e009000ae009000c3
:105260004008de00010020000080fb0020118800c3
:10527000010037000060fe00001180006100600046
:105280000000e000fbff320020118000000f7800da
:105290001e009000ae0090004809dd004800de00ce
:1052a00000007100c808de000080fb0020118800ab
:1052b000010037000060fe00001180006100600006
:1052c0000000e000fbff320020118000000f78009a
:1052d0001e0090000080fb002011880001003700b4
:1052e0000060fe0000118000610060000000e0002e
:1052f000fbff320022118000020f78000000eb005b
:10530000000f78000e003700f00f200020118800f9
:10531000010037000060fe000011800061006000a5
:105320000000e000fbff32009e0078004e0090007d
:105330008080400020118000804878001e0fe80027
:105340003e0090009e0f1000efff3900a7ff0700fe
:105350000080fa00000006000600fa00100798001e
:10536000210798001e009000ae0090004900070041
:10537000004f7800050037001e009000ae0090003e
:1053800044000700004f78000060fe001e80fb0014
:10539000610060000000e000f7ff3c000080fa00c0
:1053a000000006000600fa00100798002107980088
:1053b0001e009000ae00900053ff07006000200028
:1053c00020118800010037000060fe0000118000fd
:1053d000610060000000e000fbff3200201180004f
:1053e000004f780081ff07000080fa0000000600ef
:1053f0000800fa001007980021079800320798006b
:105400001e009000ae0090003fff0700f009200052
:1054100020118800010037000060fe0000118000ac
:10542000610060000000e000fbff320020118000fe
:10543000004f78000040eb00004f78000f0037006d
:10544000f00f200020118800010037000060fe00ee
:1054500000118000610060000000e000fbff3200ee
:105460001e80fb00800078003e009000808040009d
:1054700020118000804878001e4fe80020c0b30053
:105480009e4f1000eeff360058ff07000080fa0024
:10549000000006000600fa00100798002107980097
:1054a0001e009000ae00900017ff07005000200083
:1054b00020118800010037000060fe00001180000c
:1054c000610060000000e000fbff3200201180005e
:1054d000004f7800f00f20002011880001003700f5
:1054e0000060fe0000118000610060000000e0002c
:1054f000fbff32003dff070020118000004f7800c5
:105500001e80fb000080fa00000006000800fa0080
:105510001007980021079800624798001e0090002d
:10552000ae0090009fff07001e009000ae009000ac
:10553000f5fe070010002000201188000100370050
:105540000060fe0000118000610060000000e000cb
:10555000fbff320020118000004f78006e40900069
:105560000080fb0020118800010037000060fe0071
:1055700000118000610060000000e000fbff3200cd
:105580001aff070020118000004f78000080fa0009
:10559000000006000800fa00100798002107980094
:1055a000320798001e009000ae009000d6fe070063
:1055b0003000200020118800010037000060fe004c
:1055c00000118000610060000000e000fbff32007d
:1055d00020118000804078003e0090000148780053
:1055e0001e009000ae0090004008de000100200088
:1055f0000080fb0020118800010037000060fe00e1
:1056000000118000610060000000e000fbff32003c
:1056100020118000804078003e0090000148780012
:105620001e009000ae0090004809dd004800de003a
:1056300000007100c808de000080fb002011880017
:10564000010037000060fe00001180006100600072
:105650000000e000fbff3200201180008040780055
:105660003e009000014878000000eb002011880007
:10567000010037000060fe00001180006100600042
:105680000000e000fbff3200201180008040780025
:105690003e009000014878000000eb00000f780009
:1056a0000e003700f00f20002011880001003700a5
:1056b0000060fe0000118000610060000000e0005a
:1056c000fbff32009e0078003e009000808040008a
:1056d00020118000804878001e0fe800f00f2000a5
:1056e0009e0f1000efff3600c0fe07000080fa009a
:1056f000000006000a00fa00200798003107980011
:10570000420798002e009000be00900025ff070081
:105710002e009000be0090007bfe070020002000bd
:1057200020118800010037000060fe000011800099
:10573000610060000000e000fbff320020118000eb
:10574000204798002e009000be0090004008de0028
:10575000010020000080fb002011880001003700bc
:105760000060fe0000118000610060000000e000a9
:10577000fbff320020118000204798002e0090008f
:10578000be0090004809dd004800de000000710006
:10579000c808de000080fb002011880001003700ef
:1057a0000060fe0000118000610060000000e00069
:1057b000fbff320020118000204798000000eb0022
:1057c00020118800010037000060fe0000118000f9
:1057d000610060000000e000fbff3200201180004b
:1057e000204798000040eb00204798000000eb00a5
:1057f000000f78000f0037009e0078004e009000e8
:1058000000804000104078000080fb0020118800dc
:10581000010037000060fe000011800061006000a0
:105820000000e000fbff32002011800020479800bc
:105830001e0fe800f00f20009e0f1000eeff360054
:105840006afe07000080fa00000006000600fa0069
:1058500010079800210798001e009000ae009000ed
:10586000d0fe07001e009000ae00900026fe07004c
:10587000800d200020118800010037000060fe002c
:1058800000118000610060000000e000fbff3200ba
:1058900020118000004f78001e009000ae009000a4
:1058a0004008de00010020000080fb00201188007d
:1058b000010037000060fe00001180006100600000
:1058c0000000e000fbff320020118000004f780054
:1058d0000000eb0020118800010037000060fe008e
:1058e00000118000610060000000e000fbff32005a
:1058f00020118000004f78000000eb00201188008c
:10590000010037000060fe000011800061006000af
:105910000000e000fbff320020118000004f780003
:1059200032fe07000080fa00000006000600fa00c0
:1059300010079800210798001e009000ae0090000c
:1059400098fe07001e009000ae009000eefd0700dc
:10595000700c200020118800010037000060fe005c
:1059600000118000610060000000e000fbff3200d9
:1059700020118000004f78001cfe07000080fa0014
:10598000000006000400fa00100798009e00900036
:1059900040672f00614078000000fb00000f780096
:1059a0001e0078000080fa00000006000800fa00df
:1059b000881f78002007980031079800be009000eb
:1059c000703e2000808f500045003e003e00900059
:1059d000a2002000110009000280d8008000fd0014
:1059e000e8ff070000004000000040000000400009
:1059f00000004000000040000000400000004000a7
:105a000000004000800078006036220021009800ed
:105a10003e009000a2002000110009000280d80082
:105a2000a2002000110009000280d8008000fd00c3
:105a3000d4ff0700100798003e00900042062000a7
:105a4000110009000280d800a20020001100090006
:105a50000280d8008000fd00caff0700000f780018
:105a6000f00320009e0f100002003a000000eb003f
:105a7000000f78001e00e00006003a009e00900033
:105a8000f0032000808f500002003a000000eb007d
:105a90001007980060362200a00090001e009000c1
:105aa0008080400060362200210098001e007800af
:105ab00000004000000040000000400000004000e6
:105ac00000004000000040000000400000004000d6
:105ad0008000780060362200110098000600370030
:105ae000613622000000eb00a00098006136220021
:105af0000000eb0090009800ae009000703e200087
:105b0000808f500039003e00603622001004900063
:105b10002e009000a2002000110009000280d80091
:105b20008000fd0097ff07008000440060362200df
:105b3000110098002e009000a20020001100090022
:105b40000280d800a2002000110009000280d800c5
:105b50008000fd008bff0700100798002e009000ca
:105b600042062000110009000280d800a200200097
:105b7000110009000280d8008000fd0081ff0700ad
:105b8000000f7800f00320009e0f100002003a0082
:105b90000000eb00000f78001e00e00006003a0055
:105ba0009e009000f0032000808f500002003a0019
:105bb0000000eb00100798001e009000000040005d
:105bc00000004000000040000000400000004000d5
:105bd0000000400000004000000040009e00400027
:105be0006036220001087800090037006036220084
:105bf0009000900000f02f0080806000603622004e
:105c000011009800613622000000eb008008780047
:105c10004f0478000080fa00000006000600fa0039
:105c2000000f7800110798002207980061362200c3
:105c30003067200080087800613622000000eb0009
:105c4000900098002e009000e20f500004003a00ef
:105c50006136220030b72500a0009800030037000d
:105c6000613622000000eb00a000980060362200a0
:105c700020019000603622009001900060362200e2
:105c8000900278001e0090000000400000004000dc
:105c90000000400000004000000040000000400004
:105ca00000004000000040009e004000020278001a
:105cb0000501780000072000061c0200000000001b
:105cc0000080fa00000006000800fa00000f7800cb
