:020000040000fa
:080000000001040000000000f3
:020000040000fa
:100200006f0222000e7f22000e0188000000000015
:100210000c00070020ed260001002000110007005f
:10022000000020000000e000020032000000020098
:1002300000000000606e0200000000000040da00d4
:100240000000fe004440a900e06725000000e00037
:100250000300320000002000a00188004440a800f4
:100260000000060091018800800078000000eb008b
:1002700015003700e280400032a0b4009101ba00be
:10028000e280400032a0b4009102ba00e280400057
:1002900032a0b4000002eb00472bde00f507b200ed
:1002a000602ce10004003a000059eb008301e900f2
:1002b000fdff3e00040037006128e100010032002c
:1002c0000082eb00040007001101ba000200e00008
:1002d000e8ff3a00000006003159ba008301e90046
:1002e0000c0032002159ba008301e90008003200f5
:1002f0000400e00003003a00e280400032a0b400b5
:10030000f5ff370011d9ba008301e900faff3a007e
:100310008100e800e180400032a0b4000000060047
:100320000040da000000fe00020ab900001bb9001c
:100330000200b80081004200810043000000060076
:100340008920a900e7416000c419dd00810a20006e
:1003500091407800f2c8b30082c0600083c0700092
:100360008000fd00a8e0b7008000fd00680060008c
:100370004300de0000404000110920009140780059
:100380000114a10080c070000100780091e0b70066
:100390000000060022128800001288001112880056
:1003a0004312880064128800000006008cc0a90077
:1003b00011e1a90084c0a9000000060084c0a900c2
:1003c000e7416000710920009140780082cfb300be
:1003d00082c0600083c070008000fd0097e0b7001d
:1003e0008000fd00680060004300de004600dd0084
:1003f000c1082000914078000164a10080c0700015
:10040000010078008ce0b700000006000621ef0034
:1004100061088800800888001061a90000000600bb
:100420009183a800000006009183a800801c88002a
:1004300000000600901c8800a11c88000000060037
:10044000401ade000500200004037800e24f50004f
:100450001300320005003c000004e00009003200f7
:10046000e14f50001e003a0009003700e44f5000f1
:10047000130032000e003500e54f500018003a001e
:100480001300370001188800141888001600370080
:10049000411888005418880062188800000006007f
:1004a0008118880094188800a218880000000600af
:1004b000c1188800d4188800e218880000000600df
:1004c000011988001419880022198800000006000c
:1004d000411988005419880062198800000006003c
:1004e00001188800161888002218880000000600ed
:1004f000401ade00050020000004e0000600320083
:10050000e14f500004003a00c1198800d419880056
:10051000e2198800000006008119880094198800fb
:10052000a219880000000600e14f500003003200cd
:10053000e24f50000300320004003700f11a880037
:1005400000000600711a880000000600711b880078
:10055000000006000004e00004003200e14f5000fb
:1005600002003a00f11b880000000600711c8800a0
:10057000000006009623ef008760a900c01c8800d9
:10058000e7c16000c419dd00a1c0bf00f2c8b3001c
:100590000240600003407000a1e0b700e880600006
:1005a000c308de00c308dd008fc0bf000034a10017
:1005b000014070008fe0b70000000600801c88003a
:1005c0000000060043158800541588002215880095
:1005d00011158800001588000000d10061406000fe
:1005e00000404000012a2000914078000114a10041
:1005f00080c0700001007800a0e2b7000000060093
:1006000030158800000006000080fb00000040005c
:100610000128200060807800000006000100200012
:10062000f00089000101890011c0b300c00122005f
:100630000148780000000600c20122001204e00018
:1006400006003a001000200001002000f0008900a0
:100650000101890010c0b30000497800d2e62400ef
:10066000631c2400f0008100010181002eff0700bf
:100670000001be00900323000100200002004000a2
:1006800083804800f0008900010189004088de0075
:0c069000cf80de0000f0a100000006009a
:020000040000fa
:0200000401f009
:04000000e6ff000017
:020000040000fa
:0200000401f009
:04000800fcff0000f9
:020000040000fa
:0200000401f009
:04001400ffff0000ea
:020000040000fa
:1000080090010000900100009001000090010000a4
:100018009001000090010000900100009001000094
:100028009001000090010000900100009001000084
:1000380090010000900100009e6b000090010000fc
:100048009001000090010000900100006a6f00001c
:100058009001000090010000900100009001000054
:100068009001000090010000900100009001000044
:100078009001000090010000900100009001000034
:10008800900100009001000090010000465b000014
:100098009001000090010000900100009001000014
:1000a8009001000090010000900100009001000004
:1000b80090010000900100009001000090010000f4
:1000c80090010000106700009001000090010000fe
:1000d80090010000900100009001000090010000d4
:1000e80090010000900100009001000090010000c4
:0800f8009001000090010000de
:020000040000fa
:1001080090010000900100009001000090010000a3
:100118009001000090010000900100009001000093
:100128009001000090010000900100009001000083
:1001380090010000900100009e6b000090010000fb
:100148009001000090010000900100006a6f00001b
:100158009001000090010000900100009001000053
:100168009001000090010000900100009001000043
:100178009001000090010000900100009001000033
:10018800900100009001000090010000465b000013
:100198009001000090010000900100009001000013
:1001a8009001000090010000900100009001000003
:1001b80090010000900100009001000090010000f3
:1001c80090010000106700009001000090010000fd
:1001d80090010000900100009001000090010000d3
:1001e80090010000900100009001000090010000c3
:0801f8009001000090010000dd
:020000040000fa
:10069c00eded0000eded0000eded0000eded0000e6
:1006ac00eded0000fe0e0000fff90000ece2000092
:1006bc00d8cf0000c7bf0000b9b50000134f000031
:1006cc00302a000011fe0000ead70000c7b7000076
:1006dc00aba00000979d00005c7500003c2c000056
:1006ec0012fe0000ead80000c8ba0000ada5000058
:1006fc00abad00004d7900003521000003eb00008c
:10070c00d3bf0000acaa0000eccd0000baaf0000d3
:10071c00347e00003221000003eb0000d4c1000045
:10072c00b0b20000efcd0000bcaf0000187f00009d
:10073c003020000003ec0000d7c40000b4b500006a
:10074c00f2d10000c0b20000fc7e00002d1e0000a3
:10075c0003ed0000d8c70000b7b90000f4d40000c6
:10076c00c4b60000e67b00002d1d000003ef000066
:10077c00dbca0000bbbc0000f5d80000c7ba000003
:10078c00d67500002d1b000003f00000ddcd00002d
:10079c00bfbf0000f5db0000c9bc0000c96d000044
:1007ac002f1b000004f10000e0cf0000c3c10000cb
:1007bc00f6dc0000ccbe0000c36100003219000062
:1007cc0005f20000e1d20000c5c40000f6de000016
:1007dc00cdc00000c05100003618000007f2000028
:1007ec00e2d30000c8c70000f6e10000d1c300004e
:1007fc00bf4000003917000007f20000e3d60000ec
:10080c00cac90000f6e30000d2c50000c02f0000ea
:10081c003b16000007f40000e5d70000cdca00002d
:10082c00f7e60000d4c80000c31d00003c14000013
:10083c0008f40000e6d80000cfce0000f7e7000077
:10084c00d7ca0000c40d00003f14000008f50000da
:10085c00e7db0000d2d10000f6e70000d8cc0000a6
:10086c00c5ff00003f14000008f50000e7dc0000a5
:10087c00d4d30000f6e80000d9cd0000c7f4000086
:10088c003c14000008f50000e8dd0000d7d600009d
:10089c00f7e80000dbcf0000c9ec000039130000c2
:1008ac0007f50000e8de0000d8d80000f7ea0000e9
:1008bc00dcd20000cce600003214000007f6000089
:1008cc00e8e00000dbdb0000f7ea0000dcd300000e
:1008dc00cde100002d14000007f60000e8e0000058
:1008ec00dcdc0000f9ea0000dcd30000cede000006
:1008fc002816000005f60000eae10000ddde00002d
:10090c00f9eb0000ddd40000cfdc00002216000063
:10091c0005f60000eae10000dee00000f9eb000063
:10092c00ddd40000d1dc00001c16000005f6000030
:10093c00e8e10000e0e10000faec0000ded6000087
:10094c00d1db00001717000005f60000e8e20000fc
:10095c00e1e30000faec0000e0d60000d1d9000081
:10096c001217000005f60000eae20000e1e50000c5
:10097c00fbed0000e0d60000d1d900000e160000ff
:10098c0005f70000eae20000e2e60000fbed0000e3
:10099c00e1d70000d1d800000a16000007f70000cc
:1009ac00eae20000e2e70000fbed0000e2d7000005
:1009bc00d1d700000714000007f70000eae200009e
:1009cc00e2e80000fbef0000e2d80000d2d7000004
:1009dc000412000008f90000ebe30000e2e800005c
:1009ec00fcef0000e3d80000d2d60000020f00009c
:1009fc0008f90000ebe30000e3ea0000fbef000065
:100a0c00e3d90000d2d60000ff0d000008fa000068
:100a1c00ece50000e3eb0000fbef0000e5db000081
:100a2c00d3d60000fc0a000008fa0000ede5000037
:100a3c00e3eb0000fbf00000e5db0000d4d6000087
:100a4c00fa07000008fa0000efe60000e5ec0000f1
:100a5c00fbf00000e6dc0000d4d60000f903000037
:100a6c0008fb0000efe70000e5ec0000faf00000e6
:100a7c00e7dd0000d6d70000f600000007fb000001
:100a8c00f0e80000e6ed0000faf00000e7de000000
:100a9c00d8d80000f4fb000004fa0000f1ea0000d2
:100aac00e7ef0000f9f00000e8e00000d9d9000001
:100abc00f1f7000000f90000f1eb0000e8f0000095
:100acc00f9f10000eae20000dddd0000f0f40000c6
:100adc00fbf60000f0ec0000eaf10000f7f000007b
:100aec00ebe50000e0e00000edf00000f7f40000a2
:100afc00f0ed0000ecf20000f5f00000ece7000077
:100b0c00e3e30000eced0000f4f10000f0ef000076
:100b1c00edf20000f4f00000ece80000e6e5000067
:100b2c00eced0000f1f00000eff00000eff400003d
:100b3c00f4ef0000ece80000e7e70000ecec00004c
:100b4c00f0ef0000eff00000f1f40000f2ef000015
:100b5c00ebe80000e8e80000ecec0000efed000032
:100b6c00eff00000f1f40000f2ef0000ebea0000ff
:100b7c00e8ea0000ebec0000edec0000edf000000a
:100b8c00f2f50000f2ef0000ebea0000eaea0000e8
:100b9c00ebeb0000ecec0000ecf00000f2f50000d8
:100bac00f2ef0000ebea0000ebeb0000ebeb0000d7
:100bbc00eceb0000ecf00000f2f50000f4ef0000ac
:100bcc00ebea0000ebec0000ebeb0000ebeb0000c1
:100bdc00ecf00000f1f40000f4f00000ebea00008f
:100bec00ebec0000ebeb0000ebeb0000ebef00009c
:100bfc00f1f40000f4f00000ebea0000ebec000074
:100c0c00ebeb0000ebeb0000ebef0000f1f200006f
:100c1c00f4f10000ecea0000ebec0000ebeb000060
:100c2c00ebeb0000ebef0000f1f20000f4f1000040
:100c3c00edeb0000ebec0000ebeb0000ebeb00004d
:100c4c00ebef0000f0f20000f2f10000edeb000021
:100c5c00ecec0000ebeb0000ebeb0000ecef000029
:100c6c00f0f10000f2f10000efeb0000ecec000002
:100c7c00ebeb0000ebeb0000ecef0000f0f1000000
:100c8c00f2f10000efec0000ecec0000ebea0000ed
:100c9c00ebeb0000ecef0000f0f00000f1f10000d5
:100cac00f5f10000efed0000eae70000e6e50000da
:100cbc00e3e60000e6e7000005fe0000f9f40000a2
:100ccc00f0ef0000ebe70000e6e50000e3e50000d4
:100cdc00e5e6000004fb0000f7f70000f2ef00006f
:100cec00ebe70000e6e60000e5e60000e5e50000c5
:100cfc0000fa0000f6f70000f1ed0000ecea00004d
:100d0c00e7e60000e5e60000e5e30000fefb00007e
:100d1c00f6f70000f2ed0000ecea0000e7e7000057
:100d2c00e6e60000e5e50000fafb0000f5f7000040
:100d3c00f2ef0000eceb0000e7e70000e6e7000054
:100d4c00e6e50000f7fb0000f5f70000f2ef00000d
:100d5c00eceb0000e7e70000e7e70000e6e5000049
:100d6c00f4fb0000f5f60000f4ef0000eceb0000e3
:100d7c00e7e80000e7e80000e7e50000f1fb000011
:100d8c00f4f60000f4ef0000eceb0000e8e80000e3
:100d9c00e8e80000e7e50000effb0000f4f50000d8
:100dac00f4ef0000edeb0000e8e80000e8e80000dc
:100dbc00e7e50000ecfb0000f4f50000f4ef0000a8
:100dcc00edeb0000e8e80000eaea0000e8e60000cd
:100ddc00ebfb0000f4f40000f4ef0000eceb00007f
:100dec00e8e80000eaea0000e8e60000eafb0000a0
:100dfc00f4f40000f4ef0000ecec0000e8e8000074
:100e0c00ebeb0000e8e60000e8fb0000f4f4000067
:100e1c00f4ef0000ecec0000e8e80000ebeb000065
:100e2c00e8e60000e7fa0000f5f20000f2ef00003f
:100e3c00ecec0000eae80000ebec0000eae6000055
:100e4c00e7fa0000f5f40000f2ef0000ecec000013
:100e5c00eae80000ebec0000eae60000e6f900002e
:100e6c00f6f40000f1ef0000ecec0000eae8000002
:100e7c00ebed0000ebe70000e6f70000f6f50000f4
:100e8c00f0ef0000ecec0000eae80000ebed0000f5
:100e9c00ebe70000e6f60000f7f50000f0f10000cb
:100eac00f0ef0000ebe80000e8eb0000e8e20000e7
:100ebc00e0ef0000f1000000fbf40000f0ef000098
:100ecc00ebe80000e8eb0000e8e20000e0ec0000da
:100edc00f0000000faf20000eff10000edea000073
:100eec00e8ec0000eae20000e0eb0000f0ff00009c
:100efc00fbf10000edf00000edec0000eaec00006e
:100f0c00eae30000e0eb0000f0fc0000fcf1000064
:100f1c00ecef0000efec0000eaec0000ebe5000069
:100f2c00e0ea0000f0fa0000fef10000eced000039
:100f3c00efed0000eaec0000ebe50000e1ea000058
:100f4c00f0f90000fef10000ecec0000efed000009
:100f5c00eaec0000ebe60000e1ea0000f1f600002c
:100f6c00fff10000eceb0000efef0000ebeb0000fa
:100f7c00ebe60000e1e80000f1f5000000f10000f4
:100f8c00ecea0000edef0000ebec0000ebe70000fa
:100f9c00e2e80000f2f4000000f10000ede80000cf
:100fac00eced0000ebec0000ebe70000e2e80000e9
:100fbc00f2f2000000f20000ede80000ebed0000a2
:100fcc00ebec0000ebe70000e2e80000f2f20000be
:100fdc0000f20000ede80000ebec0000ebed00008f
:100fec00ece70000e2e70000f4f2000000f400007f
:100ffc00ede80000eaec0000ebed0000ece700008f
:10100c00e2e70000f4f4000000f40000efe8000058
:10101c00e8eb0000ebed0000ede80000e2e700007b
:10102c00f4f4000000f50000efea0000e8eb00002b
:10103c00eaed0000edea0000e2e60000f2f4000048
:10104c0000f60000efea0000e7eb0000e8ec00001f
:10105c00efeb0000e2e60000f1f40000fff6000008
:10106c00f0eb0000e7ea0000e8ec0000edeb00001c
:10107c00e3e60000f1f40000fff70000f0eb0000e5
:10108c00e7ea0000e7eb0000edec0000e5e600000d
:10109c00eff20000fef90000f0eb0000e7ea0000c0
:1010ac00e7eb0000eded0000e7e60000edf10000dd
:1010bc00fcfa0000f1ec0000e8ea0000e7eb0000ad
:1010cc00eced0000e8e70000ecf00000fafa00009c
:1010dc00f1ec0000e8ea0000e7eb0000eced0000aa
:1010ec00eae80000ecef0000f7fa0000f1ed000078
:1010fc00eaea0000e8ec00000cf70000e1c7000091
:10110c00afa800007126000003e50000c7af000087
:10111c00a16000001dfc0000e0c50000b4bf000091
:10112c0070180000e7b90000a5fb0000cf6a0000b2
:10113c0005de0000b49e000008e800006af900001b
:10114c00c3920000d61e0000f05b0000e7bb00005d
:10115c008dd6000020fc000057eb0000bf93000070
:10116c00e217000002450000deb9000093e8000021
:10117c00120f000040e30000bca00000ef0a0000ca
:10118c00162f0000d9b60000a3ef000008220000c3
:10119c002ae00000bab10000f2030000251900009b
:1011ac00d6b40000b6f00000002f000017dc0000e1
:1011bc00b7c50000f2fc00002f090000d3b40000fa
:1011cc00caf00000fb35000008db0000b7d70000b8
:1011dc00f1f7000032fc0000d2b50000d9ef00009e
:1011ec00f7350000fcd90000bbe20000f0f600006f
:1011fc0030f20000d2ba0000e0ed0000f730000041
:10120c00f4d90000c1e60000edf600002bed000063
:10121c00d2c10000e1eb0000f92b0000f0d9000076
:10122c00cce50000edfa000023ea0000d1cc000070
:10123c00ddec0000ff220000ecd80000d7e100003c
:10124c00ef0200001be70000d1d70000dbec000030
:10125c0007190000ead80000e2dd0000ef090000e9
:10126c0011e50000d1e10000d7ec00000e0f0000ea
:10127c00e8d80000ead90000f011000007e30000f4
:10128c00d1e70000d3ed000014070000e7d90000ff
:10129c00efd70000f1160000fee20000d7ed0000d1
:1012ac00d2ed000017fc0000e2d90000ebd10000e9
:1012bc00eb17000004e60000deef0000d2ef0000a8
:1012cc0018f60000e2e00000ead10000ec17000084
:1012dc00fce30000e5eb0000d3f1000018f1000086
:1012ec00e1e70000e6d20000ed110000f7e200009b
:1012fc00ebe80000d7f4000013ec0000e0ed000078
:10130c00e3d40000f10a0000f4e10000f0e6000074
:10131c00d8f900000eea0000e0f20000e2d700006d
:10132c00f6050000f0e10000f4e30000dbfc000037
:10133c0009e70000e0f40000e0d90000fb00000029
:10134c00ede30000f4e10000dc03000004e6000023
:10135c00e2f20000dedc000002fb0000ebe6000025
:10136c00f1e10000de070000ffe50000e6f0000000
:10137c00dedd000007f60000e8eb0000efe0000007
:10138c00e00a0000fbe30000eaed0000dde00000f5
:10139c0009f20000e7ef0000ece00000e10d0000b6
:1013ac00f7e30000edea0000dde200000cf00000c5
:1013bc00e6f20000e8e00000e30d0000f4e50000b8
:1013cc00efe70000dde500000ced0000e6f40000a6
:1013dc00e6e10000e70c0000f0e50000f0e600009c
:1013ec00dee8000009eb0000e6f50000e5e1000096
:1013fc00ec080000ece70000f1e50000e1ec000077
:10140c0004e80000e7f50000e5e20000f00300004e
:10141c00ebea0000f0e50000e2f00000ffe700005e
:10142c00eaf40000e5e50000f4fe0000eaec000040
:10143c00ede60000e5f20000fae70000ecf2000037
:10144c00e6e60000f6fa0000eaed0000ece700002a
:10145c00e6f50000f6e70000edf10000e6e600001e
:10146c00f6f90000ebef0000ebe70000e7f60000f8
:10147c00f5e80000ecf00000e7e60000f6f70000ed
:10148c00eded0000eae60000e7f60000f5eb0000e9
:10149c00ecef0000e7e60000f6f90000f1ef0000c9
:1014ac00eae60000e6f40000f1e80000e7eb0000db
:1014bc00e5f00000fafa0000f4f00000ebe60000a2
:1014cc00e5f40000f0ea0000e7eb0000e6f00000b5
:1014dc00f7f70000f4ef0000ebe60000e7f2000085
:1014ec00f0eb0000e7eb0000e5ef0000f6f7000082
:1014fc00f6f00000ece60000e6f10000f0ec000075
:10150c00e7ec0000e5ed0000f5f60000f6f1000058
:10151c00ede70000e6f00000f0ed0000e7ec000065
:10152c00e5ec0000f4f60000f6f10000efe7000037
:10153c00e5ed0000efed0000e8ed0000e6eb00004b
:10154c00f2f50000f6f20000f1e80000e5ec000016
:10155c00efed0000eaef0000e7eb0000f1f4000013
:10156c00f5f20000f2ea0000e5ea0000edec000004
:10157c00eaef0000e8ea0000f0f20000f5f20000eb
:10158c00f4ec0000e6ea0000ecec0000eaf00000ed
:10159c00eaea0000eff10000f4f20000f4ed0000c4
:1015ac00e6e80000ebeb0000eaf00000ebea0000dc
:1015bc00eff00000f2f20000f4f00000e7e80000a9
:1015cc00ebeb0000eaf00000ecea0000edef0000ad
:1015dc00f2f20000f4f10000e8e80000eaea000092
:1015ec00e8f00000edea0000efef0000f1f1000080
:1015fc00f4f10000ebe80000eaea0000e8ef00007c
:10160c00edeb0000efed0000f1f10000f2f2000054
:10161c00ecea0000eaea0000e7ed0000edeb000068
:10162c00efed0000f0f10000f1f20000edea000037
:10163c00eaea0000e7ec0000edec0000f0ed000041
:10164c00f0f00000f1f10000efeb0000ebeb00001c
:10165c00e7eb0000ebec0000f1ef0000f0f0000015
:10166c00f1f00000efec0000ebeb0000e8ea00000a
:10167c00eaec0000f2ef0000f0f00000f0ef0000e8
:10168c00efed0000eceb0000eaea0000e7eb0000f5
:10169c00f2f00000eff10000f0ef0000efef0000bf
:1016ac00edec0000ebea0000e6e80000f2f10000cf
:1016bc00eff10000f1ef0000edef0000edec0000a9
:1016cc00eceb0000e6e70000f2f10000edf10000a9
:1016dc00f2ef0000ecef0000efec0000edec00008e
:1016ec00e6e60000f1f20000edf00000f2ef000081
:1016fc00ecf10000f6ed0000e7e00000d2e50000a0
:10170c000ffa0000f1e80000e6dc0000e80f000032
:10171c00f5ef0000e7e10000d4e500000cf9000053
:10172c00f2e80000e5dc0000f0070000faf0000031
:10173c00e7e00000d2ea000000000000f2e8000040
:10174c00e3db0000f6ff0000fcef0000e7e0000028
:10175c00d4f10000fbfe0000f1e70000e2dd000028
:10176c00fefb0000faec0000e7e10000d6f70000f9
:10177c00f7fa0000efe80000e2de000002fa0000d9
:10178c00f7eb0000e7e10000d9fa0000f6f70000e3
:10179c00ece80000e2e1000004fa0000f5ea0000c9
:1017ac00e7e20000ddfa0000f5f40000ebe70000d2
:1017bc00e2e3000003fa0000f2e80000e6e20000b9
:1017cc00e1fa0000f4f20000eae70000e3e80000b0
:1017dc0002fa0000f1e70000e6e30000e7f7000082
:1017ec00f4f10000e8e60000e3ed0000fff9000072
:1017fc00f1e70000e5e30000ecf60000f2f0000079
:10180c00e7e50000e3f10000fcf90000f1e700005f
:10181c00e5e30000f1f50000f2f00000e7e5000060
:10182c00e2f60000faf90000f1e70000e5e3000041
:10183c00f4f20000f1f00000e8e30000e1f7000032
:10184c00f7f70000f1e80000e6e30000f6f1000015
:10185c00f1ef0000eae30000e1f90000f5f7000009
:10186c00f1e80000e6e30000f7ef0000f0ef000005
:10187c00ebe50000e1f70000f2f60000f0ea0000f2
:10188c00e7e60000f7ec0000efed0000ebe60000ef
:10189c00e3f60000f0f50000f2ec0000e8e80000d0
:1018ac00f6ea0000ebea0000eae50000e2f90000cd
:1018bc00f5f60000f2ed0000eaec0000f5e800009f
:1018cc00eae80000ebe60000e6f60000f2f40000a7
:1018dc00f1ef0000eaef0000f4e80000eae8000095
:1018ec00ebe70000eaf40000f2f20000f1ef000078
:1018fc00ebf60000f4e60000e2de0000e5fa000082
:10190c00f1f40000efeb0000e7ea0000fcf9000046
:10191c00f4e60000e1dd0000e6fa0000f4f100005e
:10192c00efea0000e6ec0000fafa0000f6e700002f
:10193c00e0dc0000e7f90000f5f20000ede7000044
:10194c00e2ef0000fbfa0000f5e70000e0db00002e
:10195c00ecf70000f6f10000ece60000e2f4000009
:10196c00f9fb0000f4e70000e0db0000f0f50000fc
:10197c00f6f00000ebe50000e1f60000f7fb0000dc
:10198c00f4e70000e0dc0000f4f20000f6ef0000e9
:10199c00ebe30000e1f90000f5fb0000f2e70000ca
:1019ac00e0dc0000f5f10000f6ef0000ebe30000d6
:1019bc00e1fa0000f4fb0000f2e80000e0dd0000ba
:1019cc00f6f10000f6ed0000ebe30000e2f9000098
:1019dc00f4fa0000f2e80000e1e00000f5f100008c
:1019ec00f5ed0000ebe30000e5f70000f2f7000076
:1019fc00f2ea0000e1e30000f5f10000f4ec000075
:101a0c00ebe30000e8f60000f2f60000f2ea00005a
:101a1c00e2e70000f4f10000f2ec0000eae3000061
:101a2c00ebf50000f2f50000f1ea0000e2eb00003b
:101a3c00f2f00000f1ec0000eae30000eff200002d
:101a4c00f1f20000f1ea0000e3ef0000f1f0000019
:101a5c00f0ec0000eae50000f0f10000f0f200000c
:101a6c00f1eb0000e3f10000f1f00000f0ec0000fd
:101a7c00eae50000f1f00000f0f10000f0eb0000ee
:101a8c00e5f20000f0f00000efec0000eae60000e8
:101a9c00f1ef0000eff20000f1eb0000e6f20000c5
:101aac00efef0000edeb0000e7e50000f2f10000c5
:101abc00f0f20000f1eb0000e7f20000efef0000a5
:101acc00edeb0000e7e70000f2f00000eff10000a2
:101adc00f1ea0000eaf20000efed0000edeb00008f
:101aec00e7ea0000f1f00000edf10000f1eb00007e
:101afc00ebf10000eded0000edec0000e7ec000078
:101b0c00f1ef0000ecf00000f1eb0000ecf0000055
:101b1c00eded0000edec0000e8ed0000f0ef000052
:101b2c00ebef0000f0ec0000edef0000eded00003d
:101b3c00edec0000e8ef0000efef0000ebed000033
:101b4c00efed0000efef0000eced0000efec00001b
:101b5c00eaf00000efef0000ebed0000efed00000d
:101b6c00f1ed0000eced0000efec0000eaf10000fc
:101b7c00edef0000ebec0000eded0000f1ec0000ef
:101b8c00eced0000efec0000ebf10000edef0000dd
:101b9c00ebec0000eced0000f2ec0000ecec0000d3
:101bac00efec0000ebf10000ecef0000ecec0000bf
:101bbc00ebec0000f2ec0000ecec0000efed0000b0
:101bcc00ecf10000eced0000ecec0000ebec0000a4
:101bdc00f1ec0000ebec0000efef0000edf1000089
:101bec00eced0000edec0000ecec0000f0ec000083
:101bfc00ebec0000efef0000edf10000eced00006d
:101c0c00eded0000ecec0000efed0000ebec000063
:101c1c00eff00000eff00000eced0000eded000047
:101c2c00edec0000ecec0000ebec0000eff0000041
:101c3c00eff00000edec0000efed0000edec00002b
:101c4c00ebec0000ebec0000eff00000f0f000001b
:101c5c00edec0000efef0000edec0000eaec000012
:101c6c00ebec0000edf00000f0ef0000efec0000fa
:101c7c00efef0000efec0000eaeb0000ebec0000f3
:101c8c00edf00000f0ef0000efec0000efef0000d3
:101c9c00efec0000eaeb0000ebec0000edf00000d4
:101cac00efef0000efed0000efef0000f0ed0000b3
:101cbc00eaea0000ebec0000edf00000efed0000b4
:101ccc00efed0000efef0000f0ed0000eaea00009d
:101cdc00ebec0000edf00000efed0000efed00008c
:101cec00efef0000f1ef0000eaea0000ebef00007c
:101cfc00eff00000ebe60000e6f70000f9f1000061
:101d0c00f0eb0000e3e10000f2f60000eff0000061
:101d1c00ebe50000e5f90000f9f10000f0ec000043
:101d2c00e5e20000f5f20000eced0000ebe800004d
:101d3c00e6fb0000f6ef0000edeb0000e8e300002e
:101d4c00f6f10000ecec0000ebe80000e6fb000014
:101d5c00f5ef0000edec0000eae60000f6f0000004
:101d6c00ebeb0000ece80000e7f90000f4ef0000fa
:101d7c00ecec0000eae70000f5ef0000ebea0000f5
:101d8c00ecea0000eaf60000f2ef0000eced0000d7
:101d9c00ebeb0000f2ed0000ebea0000ecea0000d7
:101dac00ecf40000f1ef0000ecef0000ebed0000b4
:101dbc00f1ed0000ebea0000edeb0000eff10000ac
:101dcc00f0ed0000ecef0000ebf00000f0ec000098
:101ddc00ebea0000edeb0000f1ef0000efed00008e
:101dec00edf00000ecf20000efec0000ebeb00007b
:101dfc00edea0000f2ec0000eded0000edf000006b
:101e0c00ecf40000edec0000ebeb0000edea000060
:101e1c00f4eb0000ecec0000edf00000ecf5000041
:101e2c00ecec0000ebec0000edea0000f4eb000041
:101e3c00ecec0000eff00000edf50000ecec000025
:101e4c00ebec0000edeb0000f2ea0000ebeb000025
:101e5c00eff00000edf50000ecec0000ebec000006
:101e6c00edec0000f1ea0000ebeb0000eff00000fd
:101e7c00f0f40000edec0000ebec0000edef0000e6
:101e8c00f0ea0000eaea0000edf00000f1f20000d8
:101e9c00edf00000efef0000efef0000ede60000ca
:101eac00e3e30000e6e70000ec020000f7f40000ba
:101ebc00f1f00000eff10000ece60000e3e30000bd
:101ecc00e6e60000ed020000f7f40000f1ef000080
:101edc00edf10000ebe50000e1e10000e6ea0000b6
:101eec00f0000000f9f40000f2f00000eff2000046
:101efc00eae30000dedc0000e8f00000f1ff000087
:101f0c00f7f10000eff10000f4f40000eae3000048
:101f1c00dedd0000e8ef0000f1fb0000f7f100004f
:101f2c00eff40000f2f20000e8e30000e0de000055
:101f3c00eaed0000f0f70000f7f10000f1f6000008
:101f4c00f2f20000e8e30000e0e00000ebeb000040
:101f5c00f0f40000f7f10000f1f70000f2f20000dd
:101f6c00e8e50000e1e00000ebea0000eff1000022
:101f7c00f7f10000f1f70000f2f10000eae50000d3
:101f8c00e2e10000ebea0000edef0000f7f10000e9
:101f9c00f2f70000f2f10000eae60000e3e20000d4
:101fac00ebea0000eced0000f7f10000f4f70000a4
:101fbc00f4f10000ebe60000e3e50000eaea0000c3
:101fcc00ebec0000f6f10000f5f60000f4f1000077
:101fdc00ebe60000e5e60000eaea0000ebeb0000af
:101fec00f5f20000f5f50000f4f10000ece700005c
:101ffc00e6e70000e8ea0000eaea0000f4f100007d
:10200c00f6f50000f4f10000ece70000e6e8000053
:10201c00e8ea0000e8ea0000f2f10000f6f4000043
:10202c00f4f10000ede80000e7ea0000e8ea000047
:10203c00e8e80000f2f10000f7f40000f4f1000011
:10204c00ede80000e8ea0000e8ea0000e8e800003b
:10205c00f1f10000f6f20000f2f10000efea0000ee
:10206c00e8eb0000e7e80000e8e80000f0f1000011
:10207c00f6f20000f2f20000efeb0000eaeb0000d9
:10208c00e7e80000e8e80000eff10000f5f20000de
:10209c00f2f20000f0ec0000ebeb0000e7e70000d0
:1020ac00e8e80000edf00000f5f40000f2f20000aa
:1020bc00f1ed0000eceb0000e7e70000e8e80000c1
:1020cc00edf10000f5f40000f1f10000f1ed00007d
:1020dc00edeb0000e7e60000e7e80000edf10000a2
:1020ec00f4f40000f1f10000f1ef0000efeb000060
:1020fc00e7e60000e7e80000edf10000f1f2000077
:10210c00f1f00000f0f00000f1eb0000e7e7000058
:10211c00e6e80000edf10000f0f20000f1ef000045
:10212c00f0f00000f1eb0000e8e70000e6e800004a
:10213c00eff10000eff10000f1ef0000eff1000013
:10214c00f2eb0000e8e80000e6e70000eff2000028
:10215c00edf00000f1ef0000eff10000f4ec0000f6
:10216c00e8e80000e6e70000eff20000ecef00000a
:10217c00f1ef0000edf10000f4ec0000eaea0000e1
:10218c00e6e60000eff20000ecef0000f1ef0000db
:10219c00edf10000f4ed0000eaea0000e7e60000d3
:1021ac00eff40000eced0000f1ef0000edf10000a9
:1021bc00f4ed0000ebea0000e7e60000eff40000ad
:1021cc00ecec0000f0f00000edf10000f2ed00008e
:1021dc00ebeb0000e8e60000eff20000ecec000096
:1021ec00eff00000edf10000f2ed0000ebeb000071
:1021fc00eae70000edf20000edec0000edf000006d
:10220c00eff20000f2ed0000eaeb0000eae700005c
:10221c00edf20000edeb0000edef0000eff200003e
:10222c00f1ed0000eaeb0000ebe80000edf100003e
:10223c00edeb0000edef0000eff20000f1ef00001d
:10224c00eaea0000ebe80000edf10000efeb000023
:10225c00ecef0000eff20000f1ef0000eaea000002
:10226c00ecea0000edf10000efeb0000ecef0000f9
:10227c00eff20000f2ef0000eaea0000eceb0000e5
:10228c00edf10000efeb0000ebed0000eff20000d1
:10229c00f2f00000eae80000ebeb0000edf10000ca
:1022ac00efec0000ebed0000eff10000f4f00000ab
:1022bc00ebe80000ebeb0000edf00000efec0000b1
:1022cc00ebec0000edf10000f4f10000ebe8000095
:1022dc00ebec0000edf00000efec0000ebeb00008d
:1022ec00edf10000f2f10000eceb0000ebeb000074
:1022fc00ecec0000ecf20000edec0000ecef000068
:10230c00f0ef0000f2ec0000ebeb0000ebec000057
:10231c00ecf20000edeb0000eced0000f0f0000042
:10232c00f2eb0000ebeb0000ebeb0000ecf200003a
:10233c00edec0000ebed0000eff00000f4ec000021
:10234c00ebeb0000ebeb0000edf20000efec00001b
:10235c00ebec0000eff10000f4ed0000eaeb000004
:10236c00ebeb0000eff20000efec0000ebeb0000f9
:10237c00eff20000f2ed0000eaea0000ebeb0000e7
:10238c00eff10000efec0000ebeb0000eff40000cd
:10239c00f2ef0000eaea0000ebeb0000f0f00000c6
:1023ac00f0ec0000ebeb0000eff40000f2ef0000ab
:1023bc00eaea0000eaeb0000f0f00000efec0000ad
:1023cc00ebea0000edf50000f2ef0000ebea000094
:1023dc00eaeb0000f0ef0000efec0000ebea00008d
:1023ec00edf50000f2ef0000ebe80000eaec000075
:1023fc00f0ef0000efec0000ebea0000edf4000061
:10240c00f2ef0000ebe80000eaec0000f0ef000057
:10241c00edec0000ebea0000edf40000f2ef000040
:10242c00ebe80000eaec0000f0ef0000edec00003f
:10243c00ebeb0000eff40000f2f00000ebe8000022
:10244c00eaed0000f0f00000edeb0000ebeb00001b
:10245c00eff20000f2f00000ece80000eaed000002
:10246c00f0f00000edeb0000eaeb0000eff20000f2
:10247c00f2f10000ece80000eaed0000eff00000e3
:10248c00efeb0000eaeb0000eff10000f4f20000cb
:10249c00edea0000e8ec0000eded0000ecea0000d5
:1024ac00e6e70000eff70000f6f40000efea0000aa
:1024bc00e8ec0000eded0000edea0000e6e60000bf
:1024cc00eff60000f5f50000f0ea0000e8ec000083
:1024dc00ecef0000edeb0000e6e60000edf600008e
:1024ec00f6f50000f1eb0000e8ec0000eced00006c
:1024fc00ecea0000e8e70000ecf50000f5f5000060
:10250c00f0ed0000ebec0000ecec0000eceb00005c
:10251c00eae70000ebf40000f5f50000f1ef000035
:10252c00ebeb0000ebec0000eceb0000eae700004a
:10253c00eaf20000f4f40000f1ef0000ebeb000015
:10254c00ebec0000ecec0000ebe70000e8f1000025
:10255c00f4f40000f2f00000eceb0000eaec0000f8
:10256c00eced0000ece80000e8ef0000f2f40000f5
:10257c00f4f10000eceb0000eaeb0000eced0000e5
:10258c00ece80000e8ed0000f1f40000f5f10000cb
:10259c00edeb0000eaeb0000ecef0000edea0000d0
:1025ac00e8ec0000f0f40000f5f20000edeb0000a8
:1025bc00e8ea0000ecef0000edea0000e7eb0000b9
:1025cc00eff20000f6f40000efeb0000e8ea000088
:1025dc00ecf00000edeb0000e7ea0000edf100008c
:1025ec00f6f40000f0eb0000e8ea0000ebf000006d
:1025fc00efec0000e8ea0000edf00000f5f400005c
:10260c00f1ec0000eae80000ebf00000efec000059
:10261c00e8e80000ecf00000f5f40000f2ec00003b
:10262c00eae80000ebef0000efed0000e8e8000046
:10263c00ecef0000f4f40000f2ed0000eae800001a
:10264c00ebef0000eded0000eae80000ecef00001d
:10265c00f4f20000f2ef0000ebea0000ebed0000fa
:10266c00eded0000eae80000ecef0000f2f10000f4
:10267c00f2ef0000ecea0000ebed0000ecef0000e4
:10268c00ebea0000ecef0000f1f10000f2f00000ca
:10269c00ecea0000ebec0000eced0000ebea0000d3
:1026ac00eced0000f1f10000f2f00000edeb0000a9
:1026bc00eceb0000ebed0000ebea0000eced0000b1
:1026cc00f0f00000f2f00000edec0000eceb00008c
:1026dc00ebed0000ecea0000edef0000eff0000085
:1026ec00f1f00000efed0000edeb0000eaec000073
:1026fc00eceb0000edef0000edef0000f1f000005e
:10270c00efef0000efea0000eaec0000eceb000059
:10271c00efef0000edef0000f0f00000efef000035
:10272c00efea0000eaeb0000eceb0000eff0000039
:10273c00eced0000f0f00000eff00000f0eb00001a
:10274c00e8eb0000ebeb0000f0f00000eced00001b
:10275c00eff00000eff00000f0eb0000e8ea000002
:10276c00ebeb0000f0f10000ecec0000eff00000ef
:10277c00eff10000f1eb0000e8ea0000ebeb0000e9
:10278c00f0f10000ecec0000edf00000eff10000c7
:10279c00f1ec0000e8ea0000ebeb0000f0f10000c7
:1027ac00ecec0000edef0000f0f10000f1ec0000ab
:1027bc00e8ea0000eaeb0000f0f10000edeb0000ad
:1027cc00edef0000f0f10000f1ec0000eaea00008f
:1027dc00eaeb0000f0f10000edec0000ecef000083
:1027ec00f0f10000f1ed0000eaea0000eaeb000075
:1027fc00eff10000edec0000ecef0000f0f1000058
:10280c00f1ed0000eaea0000ebeb0000eff0000055
:10281c00edec0000ecef0000f0f10000f1ed000039
:10282c00eaea0000ebeb0000eff00000edec00003a
:10283c00eded0000f0f10000f0ed0000ebea00001f
:10284c00ebeb0000eff00000edec0000eded000014
:10285c00f0f10000f1ed0000ebeb0000ebec000000
:10286c00eff00000edec0000edef0000f0f10000e7
:10287c00f1ed0000ebeb0000ebec0000efef0000e3
:10288c00ecec0000edef0000f0f10000f0ed0000ca
:10289c00ebeb0000ebec0000efef0000ecec0000c9
:1028ac00edef0000f0f00000f0ed0000ebeb0000ad
:1028bc00ecec0000efed0000ecec0000ecef0000a5
:1028cc00f0f00000f0ed0000ebeb0000eced000090
:1028dc00efed0000ecec0000ecef0000f0f000007d
:1028ec00f0ed0000eced0000eceb0000eae5000080
:1028fc00ecfa0000f0ef0000edeb0000e7ec00005c
:10290c00faed0000eceb0000eae60000ecf9000048
:10291c00efed0000ecea0000e8f20000f7ed00003b
:10292c00ebea0000e8e70000f1f60000edec000037
:10293c00edeb0000eaf50000f5ec0000eaeb00001e
:10294c00eae80000f4f40000edeb0000eceb000012
:10295c00ebf60000f2ec0000eaeb0000eae8000005
:10296c00f5f10000edeb0000eceb0000ebf70000e4
:10297c00f0ec0000e8eb0000ebea0000f5f00000e2
:10298c00edeb0000eceb0000ecf70000efec0000ce
:10299c00e8eb0000ebeb0000f4ed0000edeb0000c9
:1029ac00eceb0000edf60000efec0000eaeb0000b1
:1029bc00ebed0000f4ed0000edeb0000eceb0000a3
:1029cc00eff50000edeb0000eaeb0000ecef00008f
:1029dc00f2ec0000edec0000ecec0000f1f4000077
:1029ec00edeb0000eaeb0000ecf00000f1ec000075
:1029fc00ecec0000ecec0000f2f20000edeb00005f
:102a0c00eaeb0000ecf20000f0ec0000ecec000053
:102a1c00eceb0000f2f10000edeb0000eaeb000043
:102a2c00ecf40000f0ec0000ecec0000eceb00002f
:102a3c00f4f10000edeb0000ebeb0000ecf4000017
:102a4c00efec0000ecec0000eceb0000f4f000000c
:102a5c00edeb0000ebeb0000ecf40000efec000001
:102a6c00ecec0000ecec0000f4ef0000eceb0000f0
:102a7c00ebec0000ecf40000edec0000eced0000e1
:102a8c00ecec0000f4ef0000edec0000ecec0000ce
:102a9c00ecf40000edeb0000ebec0000ebeb0000c5
:102aac00f5f10000edec0000ecec0000edf20000a4
:102abc00edeb0000ebec0000ebec0000f4f00000a0
:102acc00edeb0000ecec0000edf20000edeb000093
:102adc00ebec0000ebec0000f2f00000edeb000082
:102aec00ecec0000f0f10000edeb0000eaec000073
:102afc00eced0000f1f00000eceb0000ecef00005e
:102b0c00f0f00000edeb0000eaec0000edef00004f
:102b1c00eff00000eceb0000eced0000f1ef00003a
:102b2c00edeb0000ebed0000edf00000edef000030
:102b3c00edeb0000eded0000f1ef0000edec00001e
:102b4c00ebed0000edf00000ecef0000edec000010
:102b5c00eded0000f1ed0000edec0000ebed000000
:102b6c00edf00000eced0000edec0000edec0000f1
:102b7c00f1ed0000ecec0000eced0000edf00000dd
:102b8c00ecec0000eded0000edec0000f1ed0000d0
:102b9c00ecec0000eced0000edf00000ebec0000c4
:102bac00eced0000efec0000f0ed0000ecec0000b0
:102bbc00eded0000edf00000ecec0000eced0000a1
:102bcc00efec0000efed0000edec0000edef00008d
:102bdc00edf00000ecec0000ebef0000efed00007e
:102bec00efed0000edec0000edef0000efef00006a
:102bfc00eceb0000ebef0000f0ed0000eded000061
:102c0c00edec0000edef0000efef0000eceb00004e
:102c1c00ebef0000f0ed0000eced0000eded00003e
:102c2c00efef0000efed0000eceb0000ebed00002f
:102c3c00f0ef0000ecec0000eded0000efef000019
:102c4c00efed0000eceb0000ebed0000f0ef00000e
:102c5c00ecec0000eded0000efef0000efed0000fc
:102c6c00eceb0000ebed0000efef0000ecec0000f3
:102c7c00eded0000efef0000efef0000eceb0000db
:102c8c00eced0000efed0000ecec0000edef0000cf
:102c9c00efef0000efef0000eceb0000eced0000bc
:102cac00efed0000ecec0000edef0000efef0000aa
:102cbc00edef0000edeb0000eced0000efed00009f
:102ccc00eded0000edef0000efef0000eded00008a
:102cdc00edeb0000eced0000eded0000eded000083
:102cec00edef0000efed0000eded0000edec00006d
:102cfc00eced0000eded0000eded0000edef00005f
:102d0c00efed0000eded0000edec0000eced00004f
:102d1c00eded0000eded0000edef0000efed00003b
:102d2c00eded0000edec0000eded0000eced000031
:102d3c00eded0000edef0000efed0000eded00001b
:102d4c00edec0000eded0000ecec0000eded000012
:102d5c00edef0000efed0000eded0000ed000000e8
:102d6c000000000000000000000000000000000057
:102d7c000000000000000000000000000000000047
:102d8c000000000000000000000000000000000037
:102d9c000000000000000000000000000000000027
:102dac000000000000000000000000000000000017
:102dbc000000000000000000000000000000000007
:102dcc00000000000000000000ff000000000000f8
:102ddc0000000000000000000101000001010000e3
:102dec000100000000000000ffff0000ffff0000da
:102dfc00ffff0000000000000101000001010000c5
:102e0c00010100000100000000ff0000fffe0000b7
:102e1c00fefe0000feff00000000000001020000aa
:102e2c0002020000020200000101000000ff00008d
:102e3c00fefe0000fdfe0000feff00000000000092
:102e4c000202000003030000030200000200000065
:102e5c00fffe0000fdfd0000fdfd0000fdff000079
:102e6c000001000002030000040400000303000042
:102e7c0001000000fffd0000fcfc0000fcfc000059
:102e8c00fdff000000020000030400000404000029
:102e9c000302000001ff0000fefc0000fbfb000031
:102eac00fcfd0000fe00000002040000050500000f
:102ebc00060500000302000000fd0000fcfa000003
:102ecc00fafa0000fbfc0000ff0100000305000003
:102edc00070700000706000004010000fffc0000cb
:102eec00faf80000f8f90000fafc0000ff020000fc
:102efc000507000008090000080600000401000096
:102f0c00fdfa0000f8f60000f6f70000f9fc0000ee
:102f1c0000030000070900000a0b0000090700006d
:102f2c0004000000fcf80000f6f40000f5f60000c8
:102f3c00f9fd000001050000090b00000c0c00005d
:102f4c000a06000003fe0000faf60000f4f300008d
:102f5c00f4f60000fafe0000030700000b0d000061
:102f6c000d0c00000905000001fc0000f8f5000044
:102f7c00f3f30000f5f80000fc010000060a000065
:102f8c000d0e00000e0c000008030000fef90000fe
:102f9c00f5f20000f1f20000f5f80000fe0300006d
:102fac00080d00000f1000000f0c000007020000bd
:102fbc00fcf60000f2f00000eff10000f4f9000064
:102fcc00ff0500000b0f000012120000100c000097
:102fdc0007010000faf40000f0ed0000edef000036
:102fec00f4f90000010700000d1200001414000099
:102ffc00110c000006fe0000f7f10000edea0000e5
:10300c00ebef0000f4fb0000030a000011150000b8
:10301c0016150000110b000003fb0000f3ee00007e
:10302c00eae90000ebf00000f6ff0000070e0000dc
:10303c0014170000171400000f070000fff7000022
:10304c00f0eb0000e9e90000edf30000fb040000e8
:10305c000c12000017180000161200000b020000e2
:10306c00faf10000ebe80000e7e90000eff60000e1
:10307c00ff08000010160000191a000017110000bc
:10308c0009000000f6ee0000e9e50000e5e90000ab
:10309c00f0f80000020b0000131900001c1b0000cc
:1030ac001710000007fd0000f3eb0000e6e3000042
:1030bc00e4e90000f0f90000040e0000161b00000b
:1030cc001e1d0000170f000006fb0000f0e80000ba
:1030dc00e3e10000e3e90000f1fc0000071200004e
:1030ec00191e0000201d0000160d000002f7000044
:1030fc00ece50000e0df0000e4eb0000f500000070
:10310c000c1600001d200000201b000013080000fe
:10311c00fdf10000e8e20000dfe10000e7f0000054
:10312c00fb070000121b0000202100001f170000ed
:10313c000c010000f5e90000e2de0000dde100001a
:10314c00eaf50000000d0000182000002323000009
:10315c001e14000009fd0000f0e50000dfdc00009b
:10316c00dce20000edf80000041100001c2200005d
:10317c00252400001d12000007fb0000ede20000fa
:10318c00ddda0000dbe30000eefa000007150000ba
:10319c001f240000272500001d11000005f8000069
:1031ac00e9df0000dbd80000dae40000f0fc0000ee
:1031bc000b1a000022270000292600001b0e00001d
:1031cc0002f30000e4dc0000d8d60000dbe80000cd
:1031dc00f4010000111f0000252900002a23000023
:1031ec0016090000fcec0000dfda0000d7d7000065
:1031fc00e0ee0000fa080000192400002829000065
:10320c00271d00000d000000f2e20000d8d60000df
:10321c00d4d80000e5f400000110000021290000c2
:10322c002b2b00002719000008fc0000eddc00002f
:10323c00d5d50000d4da0000eaf90000051600002c
:10324c00262c00002c2d00002615000006fa00008c
:10325c00e8d80000d4d30000d2db0000edfa000067
:10326c00081b0000292d00002e2f00002412000046
:10327c0004f70000e2d50000d3d00000d0de00003f
:10328c00effc00000c2100002c2f0000313000005e
:10329c00210f000002f10000dcd20000d1ce0000b2
:1032ac00d1e20000f3010000132700002f300000d2
:1032bc00322d00001a090000fce90000d6d00000f5
:1032cc00d0ce0000d7eb0000fb0800001c2d000046
:1032dc0031300000302500000fff0000f2dd00004f
:1032ec00cdcd0000cecf0000ddf3000003120000b6
:1032fc0027340000343200003020000009fb0000ad
:10330c00ebd50000cbcd0000cdd10000e4f90000de
:10331c00071800002d360000343400002e1a00006f
:10332c0005f80000e6d00000cacc0000cbd30000aa
:10333c00e8fb0000091e00003137000035360000a4
:10334c002d16000003f50000dfcc0000c9c90000f9
:10335c00c8d50000ecfd00000d240000353800003d
:10336c00383800002912000001f00000d8c9000014
:10337c00c8c60000c9da0000f1010000152c0000dd
:10338c00393900003a350000220b0000fbe7000041
:10339c00d0c70000c7c70000cee40000f90a000047
:1033ac001e3300003a390000372d000016000000d3
:1033bc00f0db0000c7c30000c6c80000d6ef000059
:1033cc00031400002a3c00003e3b0000372800009c
:1033dc000efa0000e9d20000c3c30000c5c900000a
:1033ec00dcf50000071a0000313e00003d3b0000f8
:1033fc003621000008f70000e3cc0000c2c3000037
:10340c00c3cb0000e2f900000a200000373f0000a7
:10341c003e3e0000341c000006f50000dcc7000036
:10342c00c1c10000c1ce0000e7fb00000e28000067
:10343c003b400000414000003017000003ef00004b
:10344c00d4c20000c0bd0000c0d40000ecff0000de
:10345c00163100003f410000443e000028100000df
:10346c00fde50000cbc00000bfbd0000c6de0000c3
:10347c00f5070000213900004041000041350000f3
:10348c001c050000f2d80000c2bd0000bebf000049
:10349c00ceea0000001400002f4300004544000059
:1034ac00422f000012fe0000ebce0000bcbe00005c
:1034bc00bdbf0000d6f30000041900003845000021
:1034cc0041440000412600000afc0000e4c4000056
:1034dc00bbc00000babf0000dff8000003200000f2
:1034ec00414300003f490000401c000007fd000064
:1034fc00dbbb0000bec00000b3c20000e9f9000055
:10350c00042c000049400000415100003b11000018
:10351c0007fb0000cdb40000c2bc0000acca000028
:10352c00f3f80000093b00004d3c0000475500003b
:10353c002e07000007f10000bdb30000c6b6000066
:10354c00addb0000fdfa0000174a00004a3800000d
:10355c004c4e00001bfe000003e00000afb7000063
:10356c00c8b20000b8f00000060200002d5900009f
:10357c00483b0000554500000bfd000000ce00004c
:10358c00a7c00000c7aa0000c4ff0000030400008d
:10359c003d5b00003b3d00005b340000fb02000083
:1035ac00fbbb0000a7cc0000c0a40000d6090000a3
:1035bc00fa0900004f5500002e4700005e20000065
:1035cc00f40c0000f1a90000b0d60000b2a300007a
:1035dc00eb0b0000ef1800005f49000029570000ba
:1035ec005a0a0000f6140000de9b0000bfd7000052
:1035fc00a1ad000000060000eb2f000068390000b0
:10360c002c6500004af50000fe130000c497000072
:10361c00cfd0000098c3000013fe0000f349000057
:10362c0065290000356900002fe600000506000042
:10363c00ac9f0000dec700009be3000022fb0000f3
:10364c00096400005f2100004668000013e00000e0
:10365c000ff3000097ad0000e7b60000a0fe0000dd
:10366c0021ef00001b7100004a190000565c00009d
:10367c00f6e5000018da00008cc30000e8a3000097
:10368c00ae15000014e7000034750000311c00007a
:10369c0066470000e1f500001abf00008dda00005b
:1036ac00de930000c625000001ea0000506e000009
:1036bc001c2c0000722c0000d709000010a3000085
:1036cc0098eb0000c98d0000e32a0000effb00001e
:1036dc00685e000011430000700c0000d71700005a
:1036ec00f98f0000acf20000b49700000326000034
:1036fc00e6160000764700000e5400005eee000057
:10370c00de1c0000dc870000c6f30000a7b100003f
:10371c0023210000ea3900007f3300001765000008
:10372c0046d80000ec190000bd890000dde7000060
:10373c009bcc0000310e0000ef520000721b000009
:10374c002469000026cd0000fe0c0000a4980000a7
:10375c00eed4000098ea000032fa0000fe6500008a
:10376c005d0e00003865000008d100000ef7000067
:10377c0094ae0000f4bf0000a104000029ee00008c
:10378c00166f0000450e00004c560000f0de0000e5
:10379c0016dd00008fc50000efad0000b41800006e
:1037ac001bec0000306f0000311700005940000086
:1037bc00e0ed000011c3000093d80000e4a5000068
:1037cc00ce2600000ef50000486600001f22000007
:1037dc005a230000d5f8000005af0000a1ea000054
:1037ec00dbab0000ee310000080900005e5b00005e
:1037fc001731000056080000d3010000f2a00000b1
:10380c00b1f00000ccb30000052c0000fe1a000043
:10381c0063450000123c000046f20000da0500008f
:10382c00de9d0000c5ee0000c0c3000015200000a6
:10383c00fc2b0000603200001744000033e600004f
:10384c00e7030000cca40000d5e50000bad60000c8
:10385c001c130000013b000057260000214600000d
:10386c0020e30000f3fa0000beae0000dfda000037
:10387c00bbe900001e0a00000d4700004b200000b1
:10388c002c4100000de30000f9ec0000b4bb00007b
:10389c00e3d10000c4fc00001e0700001b4e00001a
:1038ac003f1b000031350000fbe30000fadf000095
:1038bc00b1c90000e8cf0000d40f0000200b0000bd
:1038cc002b510000341c000034260000ede50000f4
:1038dc00f5cf0000b2d40000e4cd0000e2170000e8
:1038ec00190e0000364a0000281f00003216000096
:1038fc00e7ec0000eec60000bbdc0000decf0000f1
:10390c00f1180000121500003b3f000022250000ba
:10391c002d090000eaf10000e6c30000c6df00003c
:10392c00d8d60000fc1500000f1f00003d3500002c
:10393c00222a000025000000eef10000dcc300008c
:10394c00cedd0000d5e000000312000012280000bc
:10395c003b2f0000252a00001afa0000efeb0000b4
:10396c00d4c60000d4db0000d8ec00000a12000022
:10397c00182f0000382a0000242400000ef3000049
:10398c00ede50000cfcb0000dbde0000e0fa00002c
:10399c00121700002135000034260000231b000004
:1039ac0001ed0000e8da0000cacf0000dbdd00000a
:1039bc00e803000013190000283500002e24000035
:1039cc0022130000faed0000e5d40000cbd5000076
:1039dc00dbde0000f1080000121c00002d3300009b
:1039ec002a2500001f0b0000f7ee0000e1d00000bc
:1039fc00cfd80000d9e20000f80a00001322000022
:103a0c00312f0000292700001b040000f6ec0000f9
:103a1c00dace0000d3d70000d9e80000ff0b00007d
:103a2c0016290000322d00002926000014ff00008a
:103a3c00f4e60000d4ce0000d5d70000dcf1000085
:103a4c00050f00001d2e0000312a0000271f00006a
:103a5c000af80000eedf0000d1d10000d9db000035
:103a6c00e5fc00000d160000243100002f2700009b
:103a7c0023150000fff00000e6d60000ccd20000b9
:103a8c00d9dc0000ec030000101a00002a32000000
:103a9c002b250000200e0000faef0000e2d20000ff
:103aac00cfd60000d9e00000f5080000111e000080
:103abc002e300000292600001d080000f8ee000042
:103acc00ded00000d3d90000d9e40000fc0a0000cd
:103adc0013230000302d00002826000018030000de
:103aec00f7eb0000d9d00000d6d80000d9eb0000cd
:103afc00010b000016290000302b000028230000c9
:103b0c0011fe0000f4e50000d3d10000d8d700006e
:103b1c00def40000060e00001d2e00002f28000011
:103b2c00261d000008f90000efde0000d1d50000d2
:103b3c00dadb0000e7ff00000c140000243000006a
:103b4c002b25000021120000fcf10000e6d400003f
:103b5c00cdd60000dadc0000ef0600000f190000e3
:103b6c002a300000282400001e0b0000f8ef000093
:103b7c00e2d20000d1da0000dbe10000f80a00001c
:103b8c00111d00002d2e0000262400001a05000037
:103b9c00f7ef0000ded10000d6db0000dae6000013
:103bac00fe0b0000122200002f2b00002624000028
:103bbc0015010000f7ec0000d9d20000d9da0000a2
:103bcc00daed0000030b0000152700002f28000081
:103bdc00262100000ffe0000f5e60000d4d4000002
:103bec00dbd90000dff60000080e00001b2c0000e3
:103bfc002d260000241b000006f90000f0df000059
:103c0c00d3d80000dedc0000e80000000d1200003c
:103c1c00212e0000292100001e100000fcf10000e4
:103c2c00e7d60000d0d90000ddde0000f007000070
:103c3c0010160000272e0000262000001b0a000092
:103c4c00f8f00000e3d30000d4dd0000dee2000059
:103c5c00f80c0000111b00002b2c0000242000008d
:103c6c0018050000f7ef0000e0d30000d8df0000db
:103c7c00dde70000ff0d0000111e00002c290000e4
:103c8c00221f000014010000f6ec0000dcd500003f
:103c9c00dcde0000deed0000040d0000132300004c
:103cac002d270000221d00000ffe0000f4e800008c
:103cbc00d8d60000dede0000e1f50000080e0000a2
:103ccc00172700002b2400001f18000007f9000024
:103cdc00f0e20000d6da0000e0e00000e9ff0000ae
:103cec000d1200001d290000271f00001a0f0000f4
:103cfc00fdf10000e8da0000d4db0000e1e2000096
:103d0c00f006000011160000222b0000251d0000fb
:103d1c0017090000f9f00000e5d80000d7df00001b
:103d2c00e2e60000f80b000012190000262a000041
:103d3c00221c000014050000f8ef0000e2d800007f
:103d4c00dbe10000e2ea0000fe0c0000111b0000a9
:103d5c0027270000201b000011020000f7ed0000d7
:103d6c00dfd90000dee10000e2ef0000030d0000ef
:103d7c00131f0000282500001f1900000dff000074
:103d8c00f5e90000dddb0000e0e10000e5f50000f6
:103d9c00070e000016220000272200001c15000050
:103dac0007fa0000f0e40000dbdd0000e2e40000b4
:103dbc00ecfe00000c1200001a240000251d00006f
:103dcc00170d0000fff30000eade0000d9de000052
:103ddc00e3e60000f2050000101500001f260000ad
:103dec00231b000014090000fbf10000e7dd0000bc
:103dfc00dce20000e5ea0000f90900001117000000
:103e0c00212500002019000011050000f9ef000029
:103e1c00e5dd0000dee30000e6ed0000fd0b000038
:103e2c0011190000222400001e1700000f030000cf
:103e3c00f8ee0000e3de0000e1e40000e6f1000033
:103e4c00010c0000121b0000232200001c160000b5
:103e5c000c000000f6eb0000e1df0000e2e40000e3
:103e6c00e9f60000050d0000151e000023200000df
:103e7c001a12000007fc0000f2e70000e0e000006e
:103e8c00e4e70000effd00000a110000181f00001d
:103e9c00211c0000140b000000f60000ece30000f5
:103eac00dfe20000e6eb0000f50400000f15000057
:103ebc001c210000201a000011080000fdf3000076
:103ecc00e9e20000e0e40000e8ee0000fa07000080
:103edc00101600001d2100001e1700000f05000029
:103eec00fbf10000e7e20000e2e60000e9f0000070
:103efc00fd090000101700001d1f00001c1500001c
:103f0c000c030000f9ef0000e6e20000e4e600001c
:103f1c00eaf30000000a0000111800001e1e000049
:103f2c001a1300000a010000f7ed0000e5e30000a1
:103f3c00e5e70000edf70000030c0000131a000089
:103f4c001e1c0000170f000007fd0000f3ea000024
:103f5c00e5e40000e7ea0000f1fc0000070f0000b8
:103f6c00151a00001c190000120a000001f80000cc
:103f7c00efe70000e4e60000e9ee0000f7030000c4
:103f8c000d140000191d00001c1700001007000084
:103f9c00fef50000ece60000e5e70000ebf10000a8
:103fac00fb0600000e150000191c00001a1500007d
:103fbc000d040000fbf20000ebe60000e6e8000058
:103fcc00ecf30000fd0700000f150000191b0000aa
:103fdc00181200000b030000faf10000eae70000e1
:103fec00e7e90000eef50000ff0800000f150000e7
:103ffc00191a00001711000009010000f8f0000068
:10400c00e9e70000e8ea0000f0f80000010a00000f
:10401c001116000019190000140e000006fe000015
:10402c00f5ed0000e9e80000e9ed0000f4fc00000b
:10403c00050d0000131700001816000010090000f1
:10404c0001f90000f1eb0000e8e90000ecf10000e0
:10405c00f90200000b1100001619000019150000e0
:10406c000e060000fef60000efea0000e9ea000090
:10407c00eef40000fc0500000c1200001618000005
:10408c00171200000b040000fcf40000eeea000024
:10409c00e9eb0000eff50000fd0600000d1200003a
:1040ac0016170000151000000a020000fbf30000b8
:1040bc00edea0000eaec0000f0f70000ff0700005a
:1040cc000d12000016160000130f0000080100006e
:1040dc00f9f20000edeb0000ebed0000f2f900004e
:1040ec00010800000e13000015150000120c000052
:1040fc0005fe0000f7f10000edeb0000ecf0000015
:10410c00f5fd0000040b0000101300001412000059
:10411c000e08000001fa0000f4ef0000eced0000c6
:10412c00eff40000fa010000090f00001315000065
:10413c00151200000d060000fff80000f2ee000062
:10414c00eced0000f0f60000fc0400000a1000008a
:10415c0013140000131000000a030000fcf600000a
:10416c00f1ed0000edee0000f2f70000fe0400009f
:10417c000b10000013130000120e000008020000c8
:10418c00fbf50000f0ee0000edef0000f3f800008e
:10419c00ff0500000b10000012120000100c0000b4
:1041ac0007010000faf40000f0ee0000eef0000051
:1041bc00f4fa0000000700000c10000012110000bf
:1041cc000f0a000005ff0000f9f30000f0ef0000fb
:1041dc00eff20000f7fd0000030900000d100000d5
:1041ec00110f00000c07000002fc0000f6f20000aa
:1041fc00f0f00000f2f50000fb010000070c0000dd
:10420c0010120000110f00000b050000fff9000058
:10421c00f4f10000eff00000f3f70000fd030000e4
:10422c00080d000010110000100d00000903000023
:10423c00fdf80000f3f00000f0f10000f4f80000cd
:10424c00fe040000090d0000101000000f0c00000f
:10425c0007020000fcf70000f3f10000f0f2000090
:10426c00f5fa0000ff040000090d00000f0f00001c
:10427c000e0a000006010000fbf70000f3f100003d
:10428c00f1f30000f6fb0000000500000a0d000031
:10429c000f0e00000c09000004ff0000faf60000ed
:1042ac00f3f20000f2f50000f8fd00000207000038
:1042bc000b0d00000e0d00000a06000001fd0000b1
:1042cc00f8f50000f3f30000f4f70000fb00000029
:1042dc00050900000d0e00000e0c00000904000082
:1042ec00fffb0000f6f40000f2f30000f5f800000c
:1042fc00fd020000060a00000d0e00000d0b000070
:10430c0007030000fef90000f6f30000f3f30000d1
:10431c00f6fa0000fe030000070a00000d0d000075
:10432c000c0a000006010000fdf90000f6f4000084
:10433c00f3f40000f7fb0000ff030000070b000084
:10434c000c0c00000b09000005010000fcf800003b
:10435c00f6f40000f4f50000f8fc00000004000086
:10436c00080a00000c0c00000a07000003ff000004
:10437c00fbf80000f6f40000f5f70000fafd000071
:10438c0001050000080a00000b0a000008050000e7
:10439c0001fe0000faf70000f6f50000f7f9000046
:1043ac00fc000000040700000a0b00000b090000d1
:1043bc0007030000fffc0000f9f60000f5f5000013
:1043cc00f7fa0000fd010000050800000a0b0000d0
:1043dc000a09000006020000fefb0000f8f60000cf
:1043ec00f5f60000f8fb0000fe02000005080000d6
:1043fc000a0a00000a08000005010000fefa00008d
:10440c00f8f60000f6f70000f9fc0000ff020000cf
:10441c00060800000a0a000009070000040000005a
:10442c00fdfa0000f8f70000f6f80000fafd0000b5
:10443c00000300000608000009090000080600003f
:10444c0003ff0000fcfa0000f8f70000f7f9000089
:10445c00fbfe000001040000060800000808000034
:10446c000604000001fe0000fcfa0000f8f8000051
:10447c00f9fb0000fd000000020500000708000029
:10448c000807000005030000fffd0000faf900001a
:10449c00f7f80000f9fb0000fe0000000306000026
:1044ac00080800000806000004020000fffc0000e1
:1044bc00faf80000f8f80000fafc0000ff01000018
:1044cc0004060000070800000706000004010000b5
:1044dc00fefc0000faf90000f8f90000fbfd0000fa
:1044ec00ff0200000406000007070000070500009b
:1044fc0003000000fefc0000faf90000f9fa0000cd
:10450c00fbfd00000002000005060000070700008c
:10451c000604000002000000fdfc0000faf9000097
:10452c00f9fb0000fdfe0000000300000506000082
:10453c00060600000503000001ff0000fdfb000063
:10454c00fafa0000fbfc0000fe0000000204000070
:10455c00050600000605000004020000fffd000037
:10456c00fcfb0000fafa0000fbfc0000fe0000005f
:10457c000204000005060000050500000301000010
:10458c00fffd0000fcfb0000fafa0000fbfd000040
:10459c00ff010000030500000505000005040000f4
:1045ac0003010000fffd0000fcfb0000fafb000013
:1045bc00fcfe0000ff0100000305000005050000e3
:1045cc000504000002000000fefd0000fcfb0000e2
:1045dc00fbfb0000fdfe00000001000003040000d6
:1045ec00050500000403000002000000fefd0000b1
:1045fc00fcfb0000fbfc0000feff000000020000c2
:10460c0003040000040400000302000001ff00008a
:10461c00fefd0000fcfc0000fcfd0000ff000000a3
:10462c000102000004040000040300000301000068
:10463c0000fe0000fdfc0000fcfc0000fcfe000085
:10464c00ff0000000103000004040000040300004c
:10465c0002010000fffe0000fdfc0000fcfc00005d
:10466c00fdfe0000ff000000020300000404000037
:10467c000303000002010000fffe0000fdfd00002e
:10468c00fcfc0000fdff0000000100000203000024
:10469c00040300000303000002000000fffe000002
:1046ac00fdfd0000fcfd0000feff0000000100000d
:1046bc0002030000030300000302000001000000dd
:1046cc00fffe0000fdfd0000fdfd0000feff0000f0
:1046dc0000010000020300000303000002020000be
:1046ec0001ff0000fefe0000fefd0000fdfe0000cc
:1046fc00ff000000010100000203000002020000a4
:10470c000201000000ff0000fefe0000fdfd0000a5
:10471c00fdfe0000ff00000001020000030300008a
:10472c000202000001010000fffe0000fefe00007e
:10473c00fdfd0000feff0000000000000102000073
:10474c00030300000202000001000000fffe000055
:10475c00fefe0000fefe0000feff00000001000057
:10476c000102000002020000020200000100000031
:10477c00ffff0000fefe0000fefe0000ffff000039
:10478c000001000000ff0000fcfd0000071b000002
:10479c0024cb0000dbf600000d2b000038c7000016
:1047ac00d8f400000b29000038cb0000d5f3000032
:1047bc00092700003bd30000d1f1000008250000c0
:1047cc003bd80000cef00000062300003ce20000c5
:1047dc00caee0000042100003beb0000c8ed000015
:1047ec00031f00003af50000c4eb0000011d00009f
:1047fc0039000000c1ea0000001b00003707000070
:10480c00bfe80000fe19000035130000bde60000f3
:10481c00fd17000034170000bde40000fb1500007c
:10482c0032230000bce20000fa1200003027000026
:10483c00bde00000f81100002e300000bfdd0000cc
:10484c00f70e00002c340000c3db0000f60d000056
:10485c002a380000c8d70000f40b0000293b0000e8
:10486c00cdd40000f3090000273b0000d3d1000099
:10487c00f1070000253d0000dccd0000f006000033
:10488c00233b0000e2cb0000ee040000213b0000c3
:10489c00eec60000ed0300001f3a0000f4c4000057
:1048ac00eb0100001d38000001c10000eaff000010
:1048bc001a37000009bf0000e8fe000018350000a0
:1048cc0014bd0000e6fc0000163300001dbd000006
:1048dc00e4fb00001431000023bd0000e2f90000ed
:1048ec00123000002cbe0000e0f80000102e00007a
:1048fc002ec00000ddf700000e2c000035c40000b7
:10490c00daf500000c2a000037c70000d7f40000cd
:10491c000a2800003ace0000d3f20000092600005d
:10492c003bd40000d1f10000072400003cdd000066
:10493c00cdef0000052200003ce60000caee0000ae
:10494c00042000003bee0000c6ec0000021e00003c
:10495c003afa0000c3eb0000011c00003800000014
:10496c00c1e90000ff1a0000360c0000bee8000090
:10497c00fe18000035120000bde60000fc16000019
:10498c00331e0000bce40000fb14000031240000c6
:10499c00bde20000f91200002f2c0000bedf000069
:1049ac00f81000002e320000c1dd0000f70e0000f0
:1049bc002b290000fd1200001c2f00003c4b0000b6
:1049cc005f6e0000770a0000fd1000001b31000034
:1049dc003a4e00005e6f000056ec0000030d000024
:1049ec001e2f00003b5000005f6f00001fe900000d
:1049fc00050c0000222d00003e51000061620000f9
:104a0c00eff20000020f0000242d000042520000c3
:104a1c00633a0000ddf800000013000023300000b2
:104a2c004554000063040000e0f900000218000087
:104a3c00233500004757000050de0000eaf8000064
:104a4c00071a0000253a0000495b000023d3000040
:104a5c00f1f800000c1a0000293e00004d5800002f
:104a6c00f0db0000f1fc0000121b00002f400000e6
:104a7c00513f0000d1e60000f1010000141f0000be
:104a8c0035440000550e0000ceeb0000f30800008a
:104a9c0014250000394800004ede0000d9eb000060
:104aac00f80d0000172b00003c4d00002dc9000034
:104abc00e3ec0000fe0f00001c310000404f000032
:104acc00f9cc0000e7ef00000510000022350000d3
:104adc0045430000d0d80000e7f500000a140000a0
:104aec00293900004a1a0000c4e10000e9fd000069
:104afc000b1a00002f3e00004be70000cce4000036
:104b0c00ee0400000e2100003344000037c7000003
:104b1c00d8e40000f4080000132800003849000015
:104b2c0009c20000e0e70000fc090000192e00009b
:104b3c003d460000d9cd0000e1ed0000030d000062
:104b4c0021320000432a0000c0d90000e3f5000028
:104b5c00061200002837000048f90000c2df0000f0
:104b6c00e7fd0000081900002d3d00003fce0000bd
:104b7c00cfe00000ed0200000c21000032430000e9
:104b8c001bbe0000dae20000f5050000132800004f
:104b9c0037460000e8c40000dee70000fd08000016
:104bac001a2d00003e370000c4d20000dfee0000da
:104bbc00020d000022320000430b0000bdda0000a1
:104bcc00e2f70000051400002938000044da000068
:104bdc00c7dd0000e8fe0000081c00002d3e0000b0
:104bec001e0400000f1800001d280000333e0000ba
:104bfc00414e00005a6400006d7900007f2f0000c8
:104c0c00f60400000b1100001a25000034350000da
:104c1c00414c00005a5f00006d7500004ced000027
:104c2c00f9ff0000070e0000192800002c350000c9
:104c3c00404f0000556200006b600000f3ed000077
:104c4c00f5fe0000040f00001c2500002a370000b0
:104c5c00444d00005762000066080000e1ee0000c1
:104c6c00f6fc0000061100001f2100002e39000088
:104c7c00464d00005a62000027d90000e7ee000004
:104c8c00f5fd0000091800001a250000303f000057
:104c9c00455300005b440000dbdf0000e6ef000042
:104cac00f60100000f1600001d290000373f000020
:104cbc004b55000054ec0000d6e10000eaef000078
:104ccc00fa07000012150000232f00003a430000e1
:104cdc004f5700000acd0000dce40000eaf40000ad
:104cec00ff0e0000101c0000283600003c4a00009b
:104cfc00522c0000cdd70000dee60000eef90000db
:104d0c00080d00001622000030370000444d000052
:104d1c0044d80000d0d90000e3e80000f401000002
:104d2c000b0f00001d2a0000333e0000494e00000e
:104d3c00f2c80000d6de0000e4ef0000fa08000024
:104d4c000a18000023300000374500004d15000004
:104d5c00c5d00000a5940000999d0000a5ab0000f3
:104d6c00adb50000bdc30000d0d50000d5dd0000fe
:104d7c00e6ed0000f7000000020b00001519000022
:104d8c0021150000b8a00000a2a60000adb50000df
:104d9c00b6bd0000c5cb0000d6e00000dde500008c
:104dac00edf40000fd080000091100001c200000bb
:104dbc0027280000d7a80000aaad0000b2bc000054
:104dcc00bdc30000cad10000d9e60000e5ea00002e
:104ddc00f2f90000010d0000101500002026000063
:104dec002c320000fab10000b0b20000b7c00000d5
:104dfc00c3c70000ced50000dce90000ebed0000dd
:104e0c00f5fd0000040f000016180000222a000017
:104e1c002f36000019bf0000b4b60000bac2000063
:104e2c00c8c90000d1d80000deea0000f1ef000094
:104e3c00f7000000060f0000191a0000232d0000d7
:104e4c003138000031d50000b7b90000bcc30000f8
:104e5c00cbcc0000d2d90000e0e90000f4f2000055
:104e6c00f8010000071000001b1d0000232e00009d
:104e7c00323900003df20000babc0000bec3000095
:104e8c00ccce0000d3da0000e1e90000f6f500001a
:104e9c00f8010000080f00001b1f0000232d00006c
:104eac003439000040100000c1be0000bfc3000038
:104ebc00ccd00000d3da0000e1e80000f5f80000e7
:104ecc00f8000000080f000019210000232c00003e
:104edc0035390000402a0000cebe0000c0c40000de
:104eec00cbd20000d3da0000e1e70000f2fa0000b8
:104efc00f8000000080e000017220000222b000012
:104f0c0035390000403c0000e4bf0000c1c3000084
:104f1c00c9d20000d3d90000e0e70000f0fb00008c
:104f2c00f9ff0000070d00001621000023290000e6
:104f3c00343900003f44000000c10000c2c300002f
:104f4c00c8d20000d4d80000dfe60000edfa000063
:104f5c00fafd0000050d0000141f000024270000be
:104f6c00313900003d4500001dc80000c2c30000df
:104f7c00c8d00000d4d70000dee50000ebf800003c
:104f8c00f3cc0000c2c00000c2c40000c7cb0000bc
:104f9c00d3d20000d4d80000dce00000e5e800002b
:104fac00eef80000fcf90000fbff0000040a000012
:104fbc000d120000181f000024230000272c0000f5
:104fcc0034380000393f0000424600001ddb000071
:104fdc00c7c10000c2c40000c6ca0000d0d5000082
:104fec00d3d70000dbdf0000e4e70000ecf30000a7
:104ffc00fdfb0000fafe0000020800000d1000008e
:10500c00161b000024240000252b00003038000063
:10501c00393d0000424500003ff80000cfc40000bd
:10502c00c2c40000c6c90000cdd50000d4d5000014
:10503c00d9dd0000e2e70000eaf00000f9fe000014
:10504c00fbfc0000010500000c0e00001319000011
:10505c0020260000242900002d3500003a3a0000db
:10506c004044000048230000dec90000c3c3000018
:10507c00c5c70000cbd10000d6d50000d8dc00009d
:10508c00e0e50000e8ed0000f4fe0000fdfb000090
:10509c00ff030000090e0000111700001c25000082
:1050ac00252600002c310000393a00003d4200005a
:1050bc0046420000fdd10000c5c30000c4c600007c
:1050cc00c9ce0000d5d50000d6da0000dee3000022
:1050dc00e7ea0000f0f90000fffc0000fd01000011
:1050ec00060c00000f1400001921000027250000f9
:1050fc00292e0000353a00003b40000044480000d7
:10510c0027e10000cac40000c4c60000c8cb0000e0
:10511c00d1d70000d5d80000dce00000e5e90000a4
:10512c00edf40000fefe0000fcff0000030900008f
:10513c000e110000171c000025260000262c000074
:10514c00313900003a3d00004346000044010000a4
:10515c00d2c60000c3c50000c7ca0000ced50000ef
:10516c00d6d60000dade0000e3e70000ebf000002a
:10517c00f9ff0000fcfd0000020600000c0f00000f
:10518c00141a000020270000252900002e350000ed
:10519c003b3b000040440000482b0000e4cb0000e7
:1051ac00c4c40000c6c80000cbd10000d7c30000a7
:1051bc00a9a000009c9b00009c9e00009fa10000e9
:1051cc00a3a60000aab00000b2b10000b2b5000066
:1051dc00b8ba0000bdc10000c4c70000c9cd0000b2
:1051ec00d1d60000dee00000dede0000dfe20000d1
:1051fc00e5e80000ecf00000f2f40000f8fc000020
:10520c00ff0400000b0d00000b0d0000101400003b
:10521c00161b00002223000023260000292c00006e
:10522c002f32000031050000dac10000b5b10000da
:10523c00afb00000b1b20000b4b60000b8bc0000c2
:10524c00c2c40000c3c40000c6c80000cbce00001e
:10525c00d1d40000d7d90000dce00000e5ec000060
:10526c00f0ee0000eded0000f0f30000f5f90000a9
:10527c00fe00000001050000090c000010180000e1
:10528c001a180000191c000020220000262d000016
:10529c002e2e000031340000373900003d3e000056
:1052ac0019e90000cfc10000bbb90000b9bb000078
:1052bc00bcbd0000bfc20000c4ca0000cecc0000c0
:1052cc00cdce0000d1d30000d6d90000dcdf000029
:1052dc00e1e40000e7ec0000f3f70000f6f4000056
:1052ec00f5f70000fafc00000004000007080000bd
:1052fc000b0f0000131600001d2000001f1f0000e4
:10530c0021250000282c0000323500003436000026
:10531c00393d00003f42000044280000f3d8000053
:10532c00c7c30000c8ce0000d4da0000dde40000e2
:10533c00e4ea0000efef0000eff30000f6f60000e7
:10534c00f6f70000f7f80000f8f90000fcfc00008c
:10535c00fcfc0000fcfc0000fcfc0000fcfc000061
:10536c00fcfc0000fcfc0000fcfc0000fcfc000051
:10537c00fcfd0000fdfd0000fdfd0000fdfd00003a
:10538c00fdfd0000fdfd0000fdfd0000fdfd000029
:10539c00fdfd0000fdfd0000fdfd0000fdfd000019
:1053ac00fdfd0000fdfd0000fdfd0000fdfd000009
:1053bc00fefe0000fefe0000fefe0000fefe0000f1
:1053cc00fefe0000fefe0000fefe0000fefe0000e1
:1053dc00fefe0000fefe0000fefe0000fefe0000d1
:1053ec00fefe0000fefe0000fefe0000fefe0000c1
:1053fc00fefe0000fefe0000fefe0000fefe0000b1
:10540c00fefe0000fefe0000fefe0000ffff00009e
:10541c00ffff0000ffff0000ffff0000ffff000088
:10542c00ffff0000ffff0000ffff0000ffff000078
:10543c00ffff0000ffff0000ffff0000ffff000068
:10544c00ffff0000ffff0000ffff0000ffff000058
:10579c0000000000020e0000182200002c35000052
:1057ac003e210000e9f20000eeed0000eced0000ff
:1057bc00ef520000665c00005d5900005754000079
:1057cc003bcf0000ddda0000dbdb0000dcdc00009e
:1057dc00e3e30000e3e40000e4e40000e5e00000a3
:1057ec00868500008a8b00008e91000093b6000025
:1057fc0006f70000fbfa0000fbfb0000fbb1000009
:10580c0094a000009fa30000a5a80000b2660000b1
:10581c00736a00006b6800006663000045f20000cc
:10582c0001fd0000fefe0000fefe000044670000cb
:10583c005a5b00005856000054490000eaef000083
:10584c00eeee0000efef0000eff00000f0f00000d3
:10585c00f0f10000f1f10000f09d00008d960000c9
:10586c00969a00009c9e0000b40e000003060000f7
:10587c000505000005060000fdf300000106000010
:10588c000707000007070000267300006364000090
:10589c00615f000059fd0000f6f90000f8f9000006
:1058ac00f92f0000685800005a56000054450000bb
:1058bc00e4ec0000ebeb0000eced0000eded000083
:1058cc00eeee0000eeee0000d38300009493000097
:1058dc00969900009ff8000002fe000000ff0000f7
:1058ec0000d0000095a60000a4a80000aab40000f7
:1058fc00677200006a6b0000676500002ff60000fd
:10590c0004000000010100000e6800005e5e000053
:10591c005b590000560c0000ecf60000f3f400009c
:10592c00f4f40000f4f40000f4f50000f5f20000cb
:10593c009b9400009a9b00009ea00000d2100000d7
:10594c00020600000505000001a90000a4aa000041
:10595c00aaad0000b41600006e4b0000483b0000de
:10596c0031240000090b00000a0a00000a0a00009a
:10597c000a0a00000a0a00000a0a00000a0a0000cb
:10598c000a0a0000547500006869000054f6000013
:10599c0000fe0000ff4200006b5d00005e4e000048
:1059ac00eef40000f4f40000f4f40000f4f4000051
:1059bc00ec8b00009193000095ce00000bfd0000d5
:1059cc0001f90000a1a20000a5a70000e97f0000da
:1059dc0060660000600e0000fc010000ff1a000071
:1059ec00695a00005b5600000bf00000f8f500004f
:1059fc00f6f60000f6f60000f6b10000929e0000ec
:105a0c009db0000009ff000002010000ce990000cb
:105a1c00a9a70000b86c00006a650000643500009e
:105a2c00f7040000000600005b6000005b5a0000f9
:105a3c0032ec0000faf60000f7f70000f7f7000070
:105a4c00f7d800008e9f00009da10000e90900001e
:105a5c0000030000f4aa0000bfc70000d218000029
:105a6c00352100001b0f0000060700000606000091
:105a7c00060600000606000006060000063a0000b6
:105a8c006e5f00005d040000fbff00000968000071
:105a9c005e5d00003fe90000f8f40000f5f5000041
:105aac00f5f50000af8a000097990000f4020000a1
:105abc00fdf700009ba10000a3d000007c6100005a
:105acc0065380000f4020000fe3e0000675a00003a
:105adc0059050000f2f80000f6f70000f7f7000097
:105aec00e58d00009b9b0000c20c0000fd01000036
:105afc00db950000a6a400001d7c00006165000081
:105b0c0012fb000002050000606100005c4b00000d
:105b1c00eff90000f7f80000f8f80000f8c30000f7
:105b2c008e9e00009dea000008ff0000fea500000c
:105b3c00a0a60000bf7800006767000049f60000cf
:105b4c0004010000316c00005c5e000015f10000e7
:105b5c00fbf80000f9f90000f9f80000c7cb0000d1
:105b6c00d7e30000fffd0000fdfd0000fdfe00007e
:105b7c00fefe0000fefe00001a6a00005a30000013
:105b8c00ecfb00003261000052090000ebf4000055
:105b9c00f1f20000ea8f000093a7000002f8000069
:105bac00dd8e00009ff800007858000020f1000006
:105bbc00fe49000062540000fcf10000f6f4000005
:105bcc00f5e2000089980000b8080000f9dc00003c
:105bdc008fa10000027b00005c200000f40100009b
:105bec004e63000055fb0000f5f80000f7f80000cc
:105bfc00e28b00009bbe00000afc0000cc9300006e
:105c0c00a42c0000775e000010fa0000075f000073
:105c1c0062500000f4fa0000f9f90000fae100000b
:105c2c008d9d0000c40c0000fdca000095a600006c
:105c3c00357700005f0f0000fd0a00006362000072
:105c4c0050f40000fcfb0000fbfb0000d18e0000b8
:105c5c00a0d800000cfe0000cbbd0000d22b000031
:105c6c002e1e0000040400000404000004040000c4
:105c7c0004040000040400000404000004040000f8
:105c8c0004040000040400000404000004040000e8
:105c9c0004040000040400000404000000000000e0
:105cac00fffe0000000200000201000000010000e5
:105cbc000202000001000000ff00000000000000d4
:105ccc000101000000ff0000ffff000002060000c1
:105cdc00fff60000f6fe00000b0e0000f8e20000dc
:105cec00ea0600001a17000004f00000f91f00007b
:105cfc00320f0000e3d80000e705000009da0000cd
:105d0c00caf2000018270000170f0000252200001f
:105d1c000cff0000f2f50000eac40000c7f200001e
:105d2c00090a00000c2500003327000013040000b2
:105d3c0001ef0000c8c30000e0f6000004140000ee
:105d4c00252f00002518000014ff0000d5c7000007
:105d5c00cae20000051200001a1e0000232b0000ee
:105d6c001be60000d2dd0000e1e70000fe1e000093
:105d7c00201a000022130000e6dc0000e7e6000019
:105d8c00ec0d00001f1a000022180000ebdd0000d3
:105d9c00eae70000e80700001a2100002c120000be
:105dac00e3e30000f0e60000ea070000192300001e
:105dbc0025010000e4ea0000ecee0000ff0f0000fb
