:020000040000fa
:080000000001040000000000f3
:020000040000fa
:100200000ff721000e7f22000e0188000000000081
:100210000c00070060e82400010020001100070026
:10022000000020000000e000020032000000020098
:1002300000000000104a0200000000000040da0048
:100240000000fe004440a900600220000000e00021
:100250000300320000002000a00188004440a800f4
:100260000000060091018800800078000000eb008b
:1002700015003700e280400032a0b4009101ba00be
:10028000e280400032a0b4009102ba00e280400057
:1002900032a0b4000002eb00472bde00f507b200ed
:1002a000602ce10004003a000059eb008301e900f2
:1002b000fdff3e00040037006128e100010032002c
:1002c0000082eb00040007001101ba000200e00008
:1002d000e8ff3a00000006003159ba008301e90046
:1002e0000c0032002159ba008301e90008003200f5
:1002f0000400e00003003a00e280400032a0b400b5
:10030000f5ff370011d9ba008301e900faff3a007e
:100310008100e800e180400032a0b4000000060047
:100320000040da000000fe00020ab900001bb9001c
:100330000200b80081004200810043000000060076
:100340006022b800060220000000d0008180d200a8
:100350000482d2008582d2000000a0000202520076
:1003600083825a00030031000202420083824a0065
:100370000000a1000603e900f3ff3a0000000600b8
:10038000efff07000400be000000060043158800d0
:100390005415880022158800111588000015880062
:1003a0000000d1006140600000404000012a2000b0
:1003b000914078000114a10080c070000100780015
:1003c000a0e2b7000000060030158800000006001b
:1003d0000080fb00000040000128200060807800c1
:1003e000000006008920a900e7416000c419dd0073
:1003f000810a200091407800f2c8b30082c06000fa
:1004000083c070008000fd00a8e0b7008000fd0000
:10041000680060004300de00004040001109200039
:10042000914078000114a10080c0700001007800a4
:1004300091e0b70000000600221288000012880038
:100440001112880043128800641288000000060020
:100450009183a800000006009183a800801c8800fa
:1004600000000600901c8800a11c88000000060007
:10047000401ade000500200004037800e24f50001f
:100480001300320005003c000004e00009003200c7
:10049000e14f50001e003a0009003700e44f5000c1
:1004a000130032000e003500e54f500018003a00ee
:1004b0001300370001188800141888001600370050
:1004c000411888005418880062188800000006004f
:1004d0008118880094188800a2188800000006007f
:1004e000c1188800d4188800e218880000000600af
:1004f00001198800141988002219880000000600dc
:10050000411988005419880062198800000006000b
:1005100001188800161888002218880000000600bc
:10052000401ade00050020000004e0000600320052
:10053000e14f500004003a00c1198800d419880026
:10054000e2198800000006008119880094198800cb
:10055000a219880000000600e14f5000030032009d
:10056000e24f50000300320004003700f11a880007
:1005700000000600711a880000000600711b880048
:10058000000006000004e00004003200e14f5000cb
:1005900002003a00f11b880000000600711c880070
:1005a000000006009623ef008760a900c01c8800a9
:1005b000e7c16000c419dd00a1c0bf00f2c8b300ec
:1005c0000240600003407000a1e0b700e8806000d6
:1005d000c308de00c308dd008fc0bf000034a100e7
:1005e000014070008fe0b70000000600801c88000a
:1005f000000006008d00a90021e2a9008500a900e5
:10060000000006008500a900e74160008109200084
:100610009140780082cfb30082c0600083c0700038
:100620008000fd0098e0b7008000fd0068006000d9
:100630004300de00d1082000914078000104a100b1
:1006400080c07000010078008de0b7000000060057
:100650001011880001118800000006008cc0a9005c
:1006600011e1a90084c0a9000000060084c0a9000f
:10067000e7416000710920009140780082cfb3000b
:1006800082c0600083c070008000fd0097e0b7006a
:100690008000fd00680060004300de004600dd00d1
:1006a000c1082000914078000164a10080c0700062
:1006b000010078008ce0b700000006000621ef0082
:1006c00061088800800888001061a9000000060009
:1006d0008700a9008720a900e7416000010a2000e7
:1006e0009140780082cfb30082c0600083c0700068
:1006f0008000fd00a0e0b7008000fd0001c7b3004e
:1007000081416000010a200091407800f2c8b300e6
:1007100082c0600083c070008000fd00a0e0b700d0
:100720008000fd00680160004311de00f108200038
:10073000914078000104a10082c070008000fd009b
:100740008fe0b7008000fd000008b2004700de0027
:1007500000404000f1082000914078000114a10001
:1007600080c07000010078008fe0b7000000060034
:10077000f2108800b0108800c11088000000060048
:100780008000780016c2bf0066406000e64f50004f
:1007900001003200f10fb200d11088000000060005
:1007a00016c2bf0066406000e64f500002003a00eb
:1007b000e010800000000600e0108000f00fb200a2
:1007c0000000060018c2bf006100600000000600c3
:1007d0000100200000fb880011fb880011c0b3005d
:1007e000e0f521000148780000000600e2f5210054
:1007f0001204e00006003a00100020000100200072
:1008000000fb880011fb880010c0b300004978008d
:10081000d2e62400631c240000fb800011fb800052
:10082000c1fe07000001be0090032300010020006c
:10083000020040008380480000fb880011fb880014
:100840004088de00cf80de0000f0a100000006003e
:020000040000fa
:0200000401f009
:04000000e6ff000017
:020000040000fa
:0200000401f009
:04000400dfff00001a
:020000040000fa
:0200000401f009
:04000800fcff0000f9
:020000040000fa
:0200000401f009
:04001400ffff0000ea
:020000040000fa
:1000080090010000900100009001000090010000a4
:100018009001000090010000900100009001000094
:100028009001000090010000900100009001000084
:100038009001000090010000a64b00009001000014
:10004800900100009001000090010000d4500000d1
:100058009001000090010000900100009001000054
:100068009001000090010000900100009001000044
:100078009001000090010000900100009001000034
:100088009e4600005e4600009001000030230000fc
:100098009001000090010000900100009001000014
:1000a8009001000090010000900100009001000004
:1000b80090010000900100009001000090010000f4
:1000c800900100000037000090010000900100003e
:1000d80090010000900100009001000090010000d4
:1000e80090010000900100009001000090010000c4
:0800f8009001000090010000de
:020000040000fa
:1001080090010000900100009001000090010000a3
:100118009001000090010000900100009001000093
:100128009001000090010000900100009001000083
:100138009001000090010000a64b00009001000013
:10014800900100009001000090010000d4500000d0
:100158009001000090010000900100009001000053
:100168009001000090010000900100009001000043
:100178009001000090010000900100009001000033
:100188009e4600005e4600009001000030230000fb
:100198009001000090010000900100009001000013
:1001a8009001000090010000900100009001000003
:1001b80090010000900100009001000090010000f3
:1001c800900100000037000090010000900100003d
:1001d80090010000900100009001000090010000d3
:1001e80090010000900100009001000090010000c3
:0801f8009001000090010000dd
:020000040000fa
:10085000777c0000585e0000797100006f74000022
:10086000041e000078380000375400005c7300005c
:100870005d5000006d7800003e1c000049760000cd
:10088000665b00003f0600005b4f0000666d0000e5
:0c0890007d0700007f6f000000000000ea
:020000040000fa
:10089c000200fa000040eb0010479800f60302003b
:1008ac000000000042002000110009000200d800e6
:1008bc008000fd00004f78001e4090000040e800d2
:1008cc001047980020f32100104078009e4f100034
:1008dc0003003a001e4090000004e000efff3d00d2
:1008ec0020f321001e4878001e80fb000080fa00d7
:1008fc00000006000800fa00404798000000eb00da
:10090c00100798000000eb00000f78004e4090009c
:10091c000080fb00300798003e009000e30f500071
:10092c00100032003e009000e40f50001200320024
:10093c003e009000e20f50000500320080012000c4
:10094c00000f7800d0902000100798000e003700a0
:10095c0090012000000f7800e0ab200010079800f9
:10096c0009003700a0012000000f780090cc200077
:10097c001007980004003700b0012000000f780029
:10098c00d0eb2000100798008043eb00f60f2000fe
:10099c009e0290000042eb00130020000041eb008f
:1009ac008040eb0000c0eb0072360200000000003b
:1009bc009e0078000040eb009a340200000000001a
:1009cc001e0090000080fa00000006000800fa00eb
:1009dc00404798000000eb00100798000000eb0067
:1009ec00000f78004e4090000080fb00300798000c
:1009fc003e009000e30f5000100032003e009000cb
:100a0c00e40f5000120032003e009000e20f500044
:100a1c0005003200c0012000000f7800d008200033
:100a2c00100798000e003700d0012000000f78004e
:100a3c00400820001007980009003700e001200052
:100a4c00000f7800c0082000100798000400370041
:100a5c00f0012000000f7800c0082000100798005b
:100a6c008043eb00f60f20009e0290000042eb004a
:100a7c00130020000041eb008040eb0000c0eb00b5
:100a8c0072360200000000009e0078000040eb006f
:100a9c009a340200000000001e0090000080fa0052
:100aac00000006001000fa004047980051479800db
:100abc000000eb00100798000000eb00000f78001e
:100acc004e4090000080fb00700798007e00900064
:100adc00e30f5000460032007e009000e40f5000ff
:100aec00630032007e009000e20f500020003200c4
:100afc005e4090000080fb00600798006e00900044
:100b0c00e20f5000100032006e009000e30f500016
:100b1c00120032006e009000e10f50000500320010
:100b2c000000eb00000f7800200e2000100798004a
:100b3c006e00370010002000000f7800100e20000f
:100b4c00100798006900370020002000000f780083
:100b5c00200e2000100798006400370030002000a1
:100b6c00000f7800100e2000100798005f0037006f
:100b7c005e4090000080fb00500798005e009000e3
:100b8c00e20f5000100032005e009000e30f5000a6
:100b9c00120032005e009000e10f500005003200a0
:100bac0040002000000f7800c00e200010079800b5
:100bbc004e00370050002000000f7800d00e2000af
:100bcc00100798004900370060002000000f7800e3
:100bdc00d00e200010079800440037007000200051
:100bec00000f7800e00e2000100798003f0037003f
:100bfc005e4090000080fb00400798004e00900083
:100c0c00e20f5000100032004e009000e30f500035
:100c1c00120032004e009000e10f5000050032002f
:100c2c0080002000000f7800d012200010079800e0
:100c3c002e00370090002000000f7800d01220000a
:100c4c001007980029003700a0002000000f780042
:100c5c00d01220001007980024003700b0002000ac
:100c6c00000f7800d0122000100798001f003700ea
:100c7c005e4090000080fb00300798003e00900022
:100c8c00e20f5000100032003e009000e30f5000c5
:100c9c00120032003e009000e10f500005003200bf
:100cac00c0002000000f78001019200010079800d9
:100cbc000e003700d0002000000f78002019200013
:100ccc001007980009003700e0002000000f7800a2
:100cdc00101920001007980004003700f0002000c5
:100cec00000f780010192000100798008043eb00cb
:100cfc00060820009e0290000042eb00130020002a
:100d0c005e419000de4090005e4090007236020022
:100d1c00000000009e0078005e4090009a340200b3
:100d2c00000000001e0090000080fa000000060089
:100d3c000800fa00f603020000000000e2002000a8
:100d4c00110009000200d8008000fd006101b9000b
:100d5c000080eb008080eb000201400083814800a2
:100d6c002207980033079800c000200001002000e3
:100d7c002e019000be019000800f5100818f590010
:100d8c0010003e002e009000be009000006001009c
:100d9c001100370015003700190037001d0037000f
:100dac002100370025003700290037002d003700bf
:100dbc003100370035003700390037003d0037006f
:100dcc004100370020022000000f780080422000f4
:100ddc00100798004000370030022000000f780008
:100dec00504c2000100798003b00370040022000b8
:100dfc00000f7800005420001007980036003700d0
:100e0c0050022000000f7800b04b20001007980013
:100e1c003100370060022000000f780010462000df
:100e2c00100798002c00370070022000000f78008b
:100e3c0080732000100798002700370080022000e4
:100e4c00000f7800106e2000100798002200370069
:100e5c0090022000000f7800c0742000100798004a
:100e6c001d003700a0022000000f7800c083200076
:100e7c001007980018003700b0022000000f78000f
:100e8c00c08320001007980013003700c002200018
:100e9c00000f780020822000100798000e00370009
:100eac00d0022000000f7800b07c200010079800c2
:100ebc0009003700e0022000000f78009096200017
:100ecc001007980004003700f0022000000f780093
:100edc00709e2000100798008043eb00f60f200056
:100eec009e0290000042eb00130020000041eb003a
:100efc008040eb0000c0eb007236020000000000e6
:100f0c009e0078000040eb009a34020000000000c4
:100f1c001e0090000080fa00000006000800fa0095
:100f2c00f60302000000000062022000110009001c
:100f3c000200d8008000fd006101b9000080eb00c8
:100f4c008080eb000201400083814800220798005a
:100f5c003307980040022000010020002e01900071
:100f6c00be019000800f5100818f590028003e0077
:100f7c002e009000be009000006001002900370098
:100f8c002d003700310037003500370039003700ad
:100f9c003d0037004100370045003700490037005d
:100fac004d0037001a00370050003700540037004e
:100fbc00580037005c0037005f00370063003700d3
:100fcc00670037006b0037006f0037007300370085
:100fdc00770037007b0037007f0037008300370035
:100fec00870037008b0037008f00370093003700e5
:100ffc00970037009b0037009f003700a300370095
:10100c00a7003700ab003700af003700b300370044
:10101c0000032000000f7800200d2000100798001e
:10102c00b200370010032000000f7800800d200064
:10103c0010079800ad00370020032000000f780047
:10104c00900e200010079800a800370030032000f5
:10105c00000f78008012200010079800a3003700c2
:10106c0040032000000f780070102000100798003b
:10107c009e00370050032000000f7800d00f200096
:10108c00100798009900370060032000000f7800cb
:10109c00900920001007980094003700700320007e
:1010ac00000f7800b0072000100798008f00370061
:1010bc0080032000000f78008008200010079800a3
:1010cc008a00370090032000000f7800c00c20002d
:1010dc001007980085003700a0032000000f78004f
:1010ec00000a20001007980080003700b003200091
:1010fc00000f780040102000100798007b0037008c
:10110c00c0032000000f7800701a20001007980010
:10111c0076003700d0032000000f7800202120003b
:10112c001007980071003700e0032000000f7800d2
:10113c00b011200010079800f0032000000f780079
:10114c00f01c2000100798006800370000042000f5
:10115c00000f780030222000100798006300370041
:10116c0010042000000f7800802020001007980049
:10117c005e00370020042000000f7800a01920002a
:10118c00100798005900370030042000000f780039
:10119c00d01920001007980054003700400420009c
:1011ac00000f7800d0212000100798004f00370066
:1011bc0050042000000f7800e02920001007980050
:1011cc004a00370060042000000f7800102920002e
:1011dc00100798004500370070042000000f7800bd
:1011ec007023200010079800400037008004200076
:1011fc00000f7800302c2000100798003b003700bf
:10120c0090042000000f7800802f20001007980019
:10121c0036003700a0042000000f7800200e2000bc
:10122c001007980031003700b0042000000f780040
:10123c0080122000100798002c003700c0042000fa
:10124c00000f7800800d2000100798002700370051
:10125c00d0042000000f78004010200010079800e8
:10126c0022003700e0042000000f7800701e2000e0
:10127c00100798001d003700f0042000000f7800c4
:10128c00e01a200010079800180037000005200015
:10129c00000f7800c01c20001007980013003700c6
:1012ac0010052000000f7800c02b200010079800bc
:1012bc000e00370020052000000f7800701e200063
:1012cc00100798000900370030052000000f780047
:1012dc0080342000100798000400370040052000df
:1012ec00000f780030272000100798008043eb0097
:1012fc00f60f20009e0290000042eb00130020002d
:10130c000041eb008040eb0000c0eb0072360200a5
:10131c00000000009e0078000040eb009a340200b0
:10132c00000000001e0090000080fa000000060083
:10133c000000fa000080fa00000006000000fa002d
:10134c000080fa00000006000800fa00f603020014
:10135c000000000032042000110009000200d80037
:10136c008000fd006101b9000080eb008080eb0083
:10137c00020140008381480022079800330798003f
:10138c0010042000010020002e019000be019000ee
:10139c00800f5100818f590045003e002e009000b7
:1013ac00be00900000600100460037004a00370084
:1013bc004e00370052003700560037005a003700f5
:1013cc005e00370062003700660037006a003700a5
:1013dc006e0037007200370076003700340037009b
:1013ec00790037007d003700810037008500370019
:1013fc00890037008d0037009100370095003700c9
:10140c00990037009d003700a1003700a500370078
:10141c00a9003700ad003700b1003700b500370028
:10142c00b9003700bd003700c1003700c5003700d8
:10143c00c9003700cd003700d1003700d500370088
:10144c00d9003700dd003700e1003700e500370038
:10145c00e9003700ed003700f1003700f5003700e8
:10146c00f9003700fd003700010137000501370096
:10147c00090137000d013700110137001501370044
:10148c00190137001d0137002101370025013700f4
:10149c00290137002d0137003101370035013700a4
:1014ac00390137003d013700410137004501370054
:1014bc0050052000000f7800800d200010079800c8
:1014cc004401370060052000000f7800a00b2000bd
:1014dc00100798003f01370070052000000f7800be
:1014ec0080112000100798003a0137008005200079
:1014fc00000f7800200e20001007980035013700ef
:10150c0090052000000f7800200e20001007980096
:10151c0030013700a0052000000f7800d00f20000c
:10152c00100798002b013700b0052000000f780041
:10153c00d00a20001007980026013700c0052000b3
:10154c00000f7800a005200010079800210137003b
:10155c00d0052000000f7800a00a2000100798008a
:10156c001c013700e0052000000f78001016200049
:10157c001007980017013700f0052000000f7800c5
:10158c00801220001007980012013700000620007e
:10159c00000f7800000f2000100798000d01370095
:1015ac0010062000000f7800b007200010079800ec
:1015bc000801370020062000000f7800700620007c
:1015cc00100798000301370030062000000f780048
:1015dc00b007200010079800fe00370040062000de
:1015ec00000f78009009200010079800f9003700d0
:1015fc0050062000000f7800300f200010079800d4
:10160c00f400370060062000000f7800200d200049
:10161c0010079800ef00370070062000000f7800cc
:10162c00700b200010079800ea003700800620009d
:10163c00000f7800600f200010079800e5003700bd
:10164c0090062000000f7800201220001007980050
:10165c00e0003700a0062000000f78008016200064
:10166c0010079800db003700b0062000000f780050
:10167c00d014200010079800d6003700c0062000b8
:10168c00000f7800b01a200010079800d100370026
:10169c00d0062000000f7800d01d20001007980005
:1016ac00cc003700e0062000000f7800b0072000c7
:1016bc0010079800c7003700f0062000000f7800d4
:1016cc009009200010079800c20037000007200086
:1016dc00000f78006009200010079800bd0037004b
:1016ec0010072000000f7800a00b200010079800b6
:1016fc00b800370020072000000f7800c009200038
:10170c0010079800b300370030072000000f780056
:10171c00c00e200010079800ae00370040072000d4
:10172c00000f7800300a200010079800a90037003d
:10173c0050072000000f7800c012200010079800fe
:10174c00a400370060072000000f7800c0122000b2
:10175c00100798009f00370070072000000f7800da
:10176c00e0102000100798009a0037008007200036
:10177c00000f7800c0132000100798009500370068
:10178c0090072000000f7800e0112000100798004f
:10179c0090003700a0072000000f78008011200077
:1017ac00100798008b003700b0072000000f78005e
:1017bc00e00c20001007980086003700c0072000be
:1017cc00000f7800000f20001007980081003700f0
:1017dc00d0072000000f7800000b200010079800a5
:1017ec007c003700e0072000000f7800600f20001d
:1017fc001007980077003700f0072000000f7800e2
:10180c00b007200010079800720037000008200075
:10181c00000f7800800c2000100798006d00370036
:10182c0010082000000f7800300a200010079800e4
:10183c006800370020082000000f780020122000dc
:10184c00100798006300370030082000000f780064
:10185c0080162000100798005e003700400820001a
:10186c00000f7800a01420001007980059003700d2
:10187c0050082000000f780050122000100798002c
:10188c005400370060082000000f7800201320005f
:10189c00100798004f00370070082000000f7800e8
:1018ac00600a2000100798004a00370080082000ca
:1018bc00000f7800b0112000100798004500370089
:1018cc0090082000000f7800700b20001007980083
:1018dc0040003700a0082000000f780020082000ee
:1018ec00100798003b003700b0082000000f78006c
:1018fc00200e20001007980036003700c00820008a
:10190c00000f7800000a2000100798003100370003
:10191c00d0082000000f7800f00d20001007980070
:10192c002c003700e0082000000f78009009200000
:10193c001007980027003700f0082000000f7800ef
:10194c00e006200010079800220037000009200054
:10195c00000f780000062000100798001d003700cb
:10196c0010092000000f7800a01920001007980023
:10197c001800370020092000000f7800801220008a
:10198c00100798001300370030092000000f780072
:10199c0080112000100798000e003700400920002d
:1019ac00000f7800600e2000100798000900370027
:1019bc0050092000000f7800200e2000100798001e
:1019cc000400370060092000000f7800701a200016
:1019dc00100798008043eb00f60f20009e02900049
:1019ec000042eb00130020000041eb008040eb00b4
:1019fc0000c0eb0072360200000000009e00780070
:101a0c000040eb009a340200000000001e00900021
:101a1c000080fa00000006000400fa00e004200038
:101a2c001007980000012000000f78008043eb00a5
:101a3c00f60f20009e0290000042eb0013002000e5
:101a4c000041eb008040eb0000c0eb00723602005e
:101a5c00000000009e0078000040eb009a34020069
:101a6c00000000001e0090000080fa00000006003c
:101a7c000800fa00f60302000000000082012000ba
:101a8c00110009000200d8008000fd006101b900be
:101a9c000080eb008080eb00020140008381480055
:101aac0022079800330798006001200001002000f5
:101abc002e019000be019000800f5100818f5900c3
:101acc001a003e002e009000be0090000060010045
:101adc001b0037001f00370023003700270037009a
:101aec002b0037002f00370033003700370037004a
:101afc003b0037003f0037004300370047003700fa
:101b0c004b0037004f0037005300370057003700a9
:101b1c005b0037005f003700630037006700370059
:101b2c006b0037006f00370073003700700920001e
:101b3c00000f780080122000100798007200370008
:101b4c0080092000000f7800b011200010079800c9
:101b5c006d00370090092000000f78006013200002
:101b6c001007980068003700a0092000000f7800cb
:101b7c00f01720001007980063003700b009200010
:101b8c00000f780030142000100798005e0037001a
:101b9c00c0092000000f78000014200010079800e6
:101bac0059003700d0092000000f780030182000b1
:101bbc001007980054003700e0092000000f78004f
:101bcc00301d2000100798004f003700f00920004e
:101bdc00000f780090172000100798004a0037007b
:101bec00000a2000000f7800f01720001007980062
:101bfc0045003700100a2000000f7800901d2000cf
:101c0c001007980040003700200a2000000f7800d1
:101c1c0010152000100798003b003700300a2000f8
:101c2c00000f7800d01820001007980036003700fd
:101c3c00400a2000000f7800901320001007980035
:101c4c0031003700500a2000000f7800c01220002d
:101c5c00100798002c003700600a2000000f780055
:101c6c00f02120001007980027003700700a200090
:101c7c00000f780070232000100798002200370016
:101c8c00800a2000000f7800d02220001007980056
:101c9c001d003700900a2000000f7800d01920009a
:101cac001007980018003700a00a2000000f7800d9
:101cbc00301e20001007980013003700b00a2000d7
:101ccc00000f780050172000100798000e00370006
:101cdc00c00a2000000f7800701f20001007980029
:101cec0009003700d00a2000000f7800e01a20000d
:101cfc001007980004003700e00a2000000f78005d
:101d0c00102e2000100798008043eb00f60f2000e7
:101d1c009e0290000042eb00130020000041eb00fb
:101d2c008040eb0000c0eb007236020000000000a7
:101d3c009e0078000040eb009a3402000000000086
:101d4c001e0090000080fa00000006000800fa0057
:101d5c00f6030200000000008201200011000900bf
:101d6c000200d8008000fd006101b9000080eb008a
:101d7c008080eb000201400083814800220798001c
:101d8c003307980060012000010020002e01900014
:101d9c00be019000800f5100818f59001a003e0047
:101dac002e009000be009000006001001b00370068
:101dbc001f00370023003700270037002b003700a7
:101dcc002f00370033003700370037003b00370057
:101ddc003f00370043003700470037004b00370007
:101dec004f00370053003700570037005b003700b7
:101dfc005f00370063003700670037006b00370067
:101e0c006f00370073003700f00a2000000f7800d5
:101e1c00501c20001007980072003700000b2000a7
:101e2c00000f7800f0172000100798006d003700a5
:101e3c00100b2000000f7800001e200010079800e7
:101e4c0068003700200b2000000f7800e011200004
:101e5c001007980063003700300b2000000f78004b
:101e6c00600f2000100798005e003700400b200028
:101e7c00000f7800801220001007980059003700de
:101e8c00500b2000000f78006022200010079800f3
:101e9c0054003700600b2000000f7800901d2000cc
:101eac00100798004f003700700b2000000f7800cf
:101ebc0020262000100798004a003700800b2000d5
:101ecc00000f7800501b20001007980045003700c9
:101edc00900b2000000f780090172000100798003e
:101eec0040003700a00b2000000f7800d02220000b
:101efc00100798003b003700b00b2000000f780053
:101f0c00a00a20001007980036003700c00b2000f4
:101f1c00000f780080072000100798003100370070
:101f2c00d00b2000000f78008008200010079800cc
:101f3c002c003700e00b2000000f7800302220002e
:101f4c001007980027003700f00b2000000f7800d6
:101f5c00d01e20001007980022003700000c200033
:101f6c00000f7800b0252000100798001d003700e6
:101f7c00100c2000000f7800401a20001007980069
:101f8c0018003700200c2000000f7800a01420004f
:101f9c001007980013003700300c2000000f780059
:101fac00f0162000100798000e003700400c20009f
:101fbc00000f7800101b2000100798000900370054
:101fcc00500c2000000f78005021200010079800c2
:101fdc0004003700600c2000000f7800701f2000f8
:101fec00100798008043eb00f60f20009e02900033
:101ffc000042eb00130020000041eb008040eb009e
:10200c0000c0eb0072360200000000009e00780059
:10201c000040eb009a340200000000001e0090000b
:10202c000080fa00000006000800fa00f603020027
:10203c000000000072012000110009000200d8000d
:10204c008000fd006101b9000080eb008080eb0096
:10205c000201400083814800220798003307980052
:10206c0050012000010020002e019000be019000c4
:10207c00800f5100818f590019003e002e009000f6
:10208c00be009000006001001a0037001e003700ef
:10209c0022003700260037002a0037002e003700b8
:1020ac0032003700360037003a0037003e00370068
:1020bc0042003700460037004a0037004e00370018
:1020cc0052003700560037005a0037005e003700c8
:1020dc0062003700660037006a0037006e00370078
:1020ec00700c2000000f7800701f20001007980063
:1020fc006d003700800c2000000f7800c01c200001
:10210c001007980068003700900c2000000f780032
:10211c00002320001007980063003700a00c20005b
:10212c00000f7800701e2000100798005e0037002a
:10213c00b00c2000000f7800d01d20001007980074
:10214c0059003700c00c2000000f7800d02220006e
:10215c001007980054003700d00c2000000f7800b6
:10216c00d0212000100798004f003700e00c200011
:10217c00000f7800b0292000100798004a003700a3
:10218c00f00c2000000f780070242000100798003d
:10219c0045003700000d2000000f7800802520003e
:1021ac001007980040003700100d2000000f780039
:1021bc0030222000100798003b003700200d200033
:1021cc00000f7800e0292000100798003600370037
:1021dc00300d2000000f7800c01c20001007980064
:1021ec0031003700400d2000000f780050202000f7
:1021fc00100798002c003700500d2000000f7800bd
:10220c00e02420001007980027003700600d200004
:10221c00000f7800802a2000100798002200370059
:10222c00700d2000000f7800801b20001007980014
:10223c001d003700800d2000000f780010202000ba
:10224c001007980018003700900d2000000f780040
:10225c00c02620001007980013003700a00d2000a6
:10226c00000f7800603a2000100798000e0037002d
:10227c00b00d2000000f7800503e20001007980091
:10228c0009003700c00d2000000f7800c039200075
:10229c001007980004003700d00d2000000f7800c4
:1022ac00a03c2000100798008043eb00f60f2000a4
:1022bc009e0290000042eb00130020000041eb0056
:1022cc008040eb0000c0eb00723602000000000002
:1022dc009e0078000040eb009a34020000000000e1
:1022ec001e0090000080fa00000006000400fa00b6
:1022fc00000720001007980010022000000f780043
:10230c008043eb00f60f20009e0290000042eb0091
:10231c00130020000041eb008040eb0000c0eb00fc
:10232c0072360200000000009e0078000040eb00b6
:10233c009a340200000000001e0090000080fa0099
:10234c00000006000000fa00a0f221001040780006
:10235c0068f9070080f98800f6030200000000000d
:10236c0002012000110009000200d8008000fd00cd
:10237c004b0207002000200090fa8800a0f22100f8
:10238c00104078005bf9070080f988000000eb0032
:10239c00c0f78800a1ed210040c0b3008048780050
:1023ac000080fa00000006000400fa0090fa800099
:1023bc006101b800028fbe00400220000100200025
:1023cc001e01be00800f5100818f5900a5013e00f7
:1023dc001e00be0000600100240037002d003700f5
:1023ec003e00370083003700b8003700ae003700de
:1023fc000f013700720137009a013700990137003d
:10240c009801370097013700830137009501370099
:10241c00ea0037008700370092013700910137003e
:10242c00900137008f0137008e0137008d01370086
:10243c008c0137008b0137008a0137008901370086
:10244c008801370087013700860137008501370086
:10245c0084013700830137001a00370081013700ef
:10246c00cb00370024013700350137002a48020021
:10247c000000000021ef21000040eb0080487800b4
:10248c001000200090fa88000000eb00a0f78800f4
:10249c0076013700a1f7800040062000808f5000a5
:1024ac0072013a000002200090fa8800a0f221008c
:1024bc001040780045f90700800cb00080f98800c6
:1024cc006a013700a1f7800080f98000808f5000ee
:1024dc00660136009bff070064013700c1f78000de
:1024ec0080f98000808f500012003600a0ed210092
:1024fc00104078000004e0000c003200a0ed210038
:10250c00104078008040e900a0ed210001487800df
:10251c00a0f2210010407800f6f8070080f988003e
:10252c000000eb00c0f78800020037000000eb0051
:10253c00c0f78800a1f7800030022000808f500087
:10254c004a0136000000eb00a0f78800c0f2210021
:10255c0090407800d0f221001040780080cf5000dd
:10256c0042013100c0f22100104078008080fb0055
:10257c00a0ec2100e1417800c0f22100104078006d
:10258c008080fb00a0eb210061407800b2042000a9
:10259c0083407800ee010700c0f221001040780063
:1025ac008040e800c0f2210001487800c0f2210010
:1025bc0090407800d0f221001040780080cf50007d
:1025cc002a013900f603020000000000020120007d
:1025dc00110009000200d8008000fd00b0010700c6
:1025ec003000200090fa88000000eb00a0f7880073
:1025fc001e013700a1f7800060092000808f500079
:10260c001a0136000000eb00a0f788002000200023
:10261c0090fa8800f603020000000000020120007e
:10262c00110009000200d8008000fd009c01070089
:10263c000e013700a1f7800080f98000808f5000d8
:10264c000a013600e1f221000040eb0080487800de
:10265c000000eb00a0f788005000200090fa8800e2
:10266c000000eb00801f78008003eb000043eb00c0
:10267c008042eb000042eb008041eb000041eb009c
:10268c008040eb0000c0eb002c2e0200000000008c
:10269c008f87e90021fa070080f988000000eb0021
:1026ac00a0f78800f1003700a1f7800080f98000c6
:1026bc00808f5000ed0036004000200090fa88001a
:1026cc000000eb00a0f78800e8003700d0f22100f2
:1026dc00104078008040e800d0f2210001487800da
:1026ec00d0f2210010407800e24f500003003a0075
:1026fc00d1f2210030c0b30080487800d0f2210024
:10270c0010407800f04f500014003600c00020003c
:10271c0090fa8800f00f2000801f7800f70f20003f
:10272c000043eb008042eb000042eb008041eb00e9
:10273c00f2c3b3008040eb0000c0eb002c2e020073
:10274c00000000008f87e9000000eb00a0f7880074
:10275c00e6fe070080f98800c4003700d0f22100a3
:10276c00104078004e0107006000200090fa8800ad
:10277c000000eb00a0f78800c1f221000040eb0044
:10278c00804878004006200080f98800b7003700a8
:10279c00a1f7800080f98000808f5000b3003600d4
:1027ac00e000200090fa8800e7fa070080f9880022
:1027bc000000eb00a0f78800ac003700a1f7800008
:1027cc0080f98000808f5000040036000000eb0080
:1027dc00a0f788004000200090fa8800d0f7800015
:1027ec00ea0f5000a10036000000eb00d0f7880083
:1027fc00b0f22100104078008040e800b0f22100d7
:10280c0001487800b0f2210010407800e3406000ed
:10281c00b0f2210001487800b0f22100104078009d
:10282c00e201200080c0eb00490107008f00370057
:10283c00a1f7800080f98000808f50008b0036005b
:10284c000000eb00a0f78800c0f221009040780057
:10285c00d0f221001040780080cf500008003a00e0
:10286c007000200090fa8800c1f221000040eb00bb
:10287c00804878000000eb00a0f788007b00370050
:10288c00c0f22100104078008080fb00a0eb2100fa
:10289c00e1407800a0f221001040780081f8070098
:1028ac004006200080f9880080f980000001780043
:1028bc00c0f22100104078008080fb00a0ec2100c9
:1028cc00e1417800c0f22100104078008080fb00cc
:1028dc00a0eb210061407800834078001c010700c8
:1028ec00c0f22100104078008040e800c0f22100c6
:1028fc00014878005d003700a1f7800080f9800066
:10290c00808f5000590036004002200090fa880059
:10291c00e0f2210010407800e14f500003003a0033
:10292c0053fc070080f988000200370007fd070000
:10293c0080f988000000eb00a0f788004b003700fe
:10294c00a1f7800080f98000808f5000470036008e
:10295c000000eb00801f78008003eb000043eb00cd
:10296c008042eb000042eb008041eb000041eb00a9
:10297c008040eb0000c0eb002c2e02000000000099
:10298c008f87e900d0f22100104078008040e900e8
:10299c00d0f22100014878004000200090fa880015
:1029ac000000eb00a0f78800c1f221000040eb0012
:1029bc00804878009001200080f988002b003700b7
:1029cc00a1f78000803e2000808f50002700360049
:1029dc0057fa07000000eb00a0f788000000eb009e
:1029ec00801f78008003eb000043eb008042eb007b
:1029fc000042eb008041eb000041eb008040eb001b
:102a0c0000c0eb002c2e0200000000008f87e900b4
:102a1c004cfe070015003700a1f78000803e200017
:102a2c00808f50001100360046fe07000000eb00be
:102a3c00801f78008003eb000043eb008042eb002a
:102a4c000042eb008041eb000041eb008040eb00ca
:102a5c0000c0eb002c2e0200000000008f87e90064
:102a6c00020037000000eb0090fa88000080fa00aa
:102a7c00000006000400fa00004f780090fa800075
:102a8c00100798001e009000e20f500082003900e1
:102a9c001e009000e30f5000040036001e00900052
:102aac00e70f5000190032007b0037000000eb00ec
:102abc00801f78008003eb000043eb00f5c3b300ec
:102acc00f4c3b3008041eb00f2c3b300f1c3b30015
:102adc0000c0eb002c2e0200000000008f87e900e4
:102aec00f000200090fa8800d1f221000040eb00a9
:102afc00804878008ef807004006b00080f9880006
:102b0c000000eb00a0f788006300370030c0b30072
:102b1c009e4f100060003e00c0f221001040780073
:102b2c008080fb00a0eb2100614078009e4f50009c
:102b3c0026003a00c0f22100104078008080fb0093
:102b4c00a0eb2100e1407800a0f2210010407800b9
:102b5c00d4f7070080f98800c0f2210010407800fb
:102b6c008080fb00a0ec2100e1417800c0f2210044
:102b7c00104078008080fb00a0eb210061407800c1
:102b8c00420620008340780071000700c0f221004b
:102b9c00104078008040e800c0f221000148780025
:102bac00c0f2210090407800d0f221001040780053
:102bbc0080cf5000380039000000eb00a0f78800ef
:102bcc002002200090fa880033003700c1f2210067
:102bdc000040eb0080487800e0f2210010407800c3
:102bec008040e800e0f2210001487800e0f221008a
:102bfc0010407800e34f500014003a000afd070023
:102c0c0080f988000000eb00a0f78800a00f2000de
:102c1c00801f7800a70f20000043eb008042eb00e0
:102c2c000042eb008041eb000041eb00f1c3b3002c
:102c3c0000c0eb002c2e0200000000008f87e90082
:102c4c00c000200090fa8800130037000000eb0051
:102c5c00a0f7880070fb070080f988003002200084
:102c6c0090fa88000000eb00801f78008003eb00d6
:102c7c000043eb008042eb00f4c3b3008041eb0057
:102c8c000041eb00f1c3b30000c0eb002c2e02009e
:102c9c00000000008f87e9000080fa0000000600a9
:102cac000400fa00881f7800204798002e409000fe
:102cbc00f04f50000200360000c1b30020479800ce
:102ccc002e4090000004e00002003a0010c0b30057
:102cdc0020479800d0f22100ae40900001487800c7
:102cec00c1f221000040eb00804878000040eb006e
:102cfc00004f7800100037001e84fb00e4f607003c
:102d0c0080407800a0eb2100017478001e84fb0049
:102d1c00f603020000000000320020001100090040
:102d2c000200d8008000fd0080407800a0ec21005b
:102d3c00017478001e4fe8002e4090009e4f10004a
:102d4c00edff39004f0478000080fa000000060007
:102d5c000600fa00004f78001147980012079800ff
:102d6c009e009000e00f2000808f50000200340085
:102d7c00e00f2000100798001e409000e14f40002b
:102d8c0007003a00f60302000000000032002000a9
:102d9c00110009000200d8008000fd0010479800c7
:102dac001e4090000080fb00200798002e00900031
:102dbc00e10f5000230032002e009000e20f500073
:102dcc00400032009e0090001e0090000000e800c1
:102ddc0080037800811f78000043eb008042eb00f9
:102dec000042eb008041eb00f2c3b3008040eb00eb
:102dfc001e4078002c2e0200000000008f87e90096
:102e0c009e0090001e0090000000e80080037800f7
:102e1c001e40780064404000811f78000043eb00a6
:102e2c008042eb000042eb008041eb00f2c3b300a8
:102e3c008040eb002c2e0200000000008f87e90080
:102e4c003f0037009e0090001e0090000000e8003c
:102e5c0080037800811f78000043eb008042eb0078
:102e6c000042eb008041eb00f2c3b300f1c3b300ae
:102e7c001e4078002c2e0200000000008f87e90015
:102e8c009e0090001e0090000000e8008003780077
:102e9c001e40780064404000811f78000043eb0026
:102eac008042eb000042eb008041eb00f2c3b30028
:102ebc00f1c3b3002c2e0200000000008f87e90044
:102ecc001f0037009e0090001e0090000000e800dc
:102edc0080037800811f78000043eb008042eb00f8
:102eec000042eb008041eb000041eb00f1c3b3006a
:102efc001e4078002c2e0200000000008f87e90095
:102f0c009e0090001e0090000000e80080037800f6
:102f1c001e40780064404000811f78000043eb00a5
:102f2c008042eb000042eb008041eb000041eb00e3
:102f3c00f1c3b3002c2e0200000000008f87e900c3
:102f4c000080fa00000006000000fa0081f6210063
:102f5c0040c0b30080487800c1f1210050c0b300dc
:102f6c00804878000080fa00000006000600fa0095
:102f7c00881f7800c0f12100104078000080fb0011
:102f8c006101b90012079800230798005001200036
:102f9c00010020001e019000ae019000800f510036
:102fac00818f5900c6033e001e009000ae009000b9
:102fbc0000600100150037001001370024013700b4
:102fcc004f0137009d013700a7013700b1013700d1
:102fdc00bf013700dc013700f1013700ff0137007a
:102fec0013023700b6033700310237009002370066
:102ffc001b03370057033700940337000e003700cc
:10300c001b00370096003700d6003700b016800042
:10301c000000a000b0168800b1168000d0ff2f0071
:10302c0000806000b0168800c1f1210010c0b30010
:10303c0080487800a8033700c1f1210030c1b300eb
:10304c0080487800a1f6210010c0b30080487800b9
:10305c0081f221000040eb008048780091f22100c1
:10306c000040eb00804878009e0307009a0337006d
:10307c0080f2210010407800e34f500029003e0000
:10308c0090f22100104078000080fb00800cb00012
:10309c008000780030002000e82e020000000000c4
:1030ac0090f22100104478000000eb00801f7800a3
:1030bc008003eb000043eb00f5c3b300f4c3b30093
:1030cc008041eb00f2c3b300f1c3b30008407800b9
:1030dc002c2e0200000000008f87e90061f2210015
:1030ec0010c0b3008048780090f2210010407800a6
:1030fc003f040700c1f1210040c1b30080487800b3
:10310c006000b800f0f8880001f988006000b80091
:10311c0010f9880021f988000000eb0000f8880005
:10312c006d03370090f22100104078000084fb0002
:10313c0090f22100104078000080fb004300dd007d
:10314c008080e80000e12100008040001000be00fb
:10315c004206200003002000a00102000000000035
:10316c000001be004340dd008080e80000e121004a
:10317c00008040000288be0090f2210010407800d0
:10318c000080fb004300dd008080e80000e12100ae
:10319c00008040001001be00f01320000100200050
:1031ac00800f5100818f590006003e00c0f12100b4
:1031bc0051c1b30001487800e0ff2f0000f88800ef
:1031cc004503370090f22100104478000000eb001a
:1031dc00801f78008003eb000043eb008042eb0083
:1031ec000042eb008041eb000041eb008040eb0023
:1031fc00084078002c2e0200000000008f87e900a8
:10320c0090f22100104078008040e80090f22100fc
:10321c000148780090f2210010407800e74f5000f0
:10322c0007003600a1f621000040eb008048780032
:10323c00c1f12100b0c0b3008048780026033700ec
:10324c00c1f1210030c1b30080487800250307008c
:10325c0081f221000040eb00804878001e0337000b
:10326c0000f88000f80f50002d0036000000eb0035
:10327c0000f8880012f9800023f98000f0f8800033
:10328c0001f9800002004000838048004509dd0000
:10329c00cb00de00810071004500dd0050f088009d
:1032ac0061f0880090f22100104078000080fb0053
:1032bc004300dd008080e80000e121000080400038
:1032cc001001be0050f0800061f08000800f5100b2
:1032dc00818f59000a00310090f2210010407800d3
:1032ec000080fb0052f0800063f080004300dd00a2
:1032fc008080e80000e12100008040000288be00d0
:10330c00c1f1210030c1b3008048780080f2210067
:10331c00104078008040e80080f2210001487800dd
:10332c0060f2210010407800e14f5000ea023a00b0
:10333c0090f2210010407800ad03070061f22100eb
:10334c000040eb008048780010f9800021f98000e3
:10335c0061004000e080480010f9880021f98800e5
:10336c00dd02370001f8800040062000808f5000fd
:10337c00d90236000000eb0000f8880090df210035
:10338c00104078000004e0000c003a0091df2100ae
:10339c0010c0b3008048780090f2210010407800f3
:1033ac000080fb00800cb000800078002000200022
:1033bc00e82e020000000000c702370091df210058
:1033cc000040eb008048780090f22100104078001b
:1033dc000080fb004300dd008080e80000e121005c
:1033ec00008040001000be0080007800200020000b
:1033fc00e82e020000000000b7023700a1f6210001
:10340c000040eb008048780061e021000040eb00b8
:10341c0080487800d502070081e021000040eb00d5
:10342c008048780071e021000040eb008048780073
:10343c000000eb0000f888000000eb00b0f78800fb
:10344c00c1f1210020c0b30080487800a2023700ef
:10345c00b0f78000ea0f50009f02360060e02100b8
:10346c00104078000080fb005006b000800078000f
:10347c0030002000e82e0200000000000000eb00ed
:10348c00b0f78800a0df21005c2a020000000000d9
:10349c00202f2000d0ef8800c1df210010c0b30026
:1034ac008048780080e0210090407800d0df210037
:1034bc000148780020882000a1df2100682202004a
:1034cc000000000080e02100104078008040e800ff
:1034dc0080e021000148780080e021001040780055
:1034ec00e74f50007c023600c0f1210031c0b30020
:1034fc00014878000000eb0000f8880076023700e5
:10350c00e0e0210010407800e84f500026003a001f
:10351c0070e0210011c0b300014878000040eb00be
:10352c00004f78000b0037001e80fb00c300dd004d
:10353c0000e121000080400010407800e14f500075
:10354c000300320071e021000040eb00804878005d
:10355c001e4fe80073c0b3009ecf1100f2ff36007f
:10356c0070e0210010407800e14f500007003a0055
:10357c00c1f12100b0c0b3008048780081f6210071
:10358c0040c0b3008048780053023700c1f12100dd
:10359c0050c0b3008048780081f6210040c0b300d1
:1035ac00804878004c02370001f880000019200098
:1035bc00808f5000480236000000eb0000f88800b5
:1035cc0060e02100104078008040e80060e02100bd
:1035dc000148780060e0210010407800e34f500073
:1035ec000c003600e0e02100104078000080fb0069
:1035fc004006b00020f0880081f6210040c0b300e6
:10360c0080487800c1f1210040c0b30080487800a8
:10361c003102370081e021000040eb008048780047
:10362c000000eb00b0f7880050020700c1f1210048
:10363c0020c0b300804878002702370001f88000d2
:10364c0020032000808f5000230236000000eb0086
:10365c0000f8880021f0800020002000e82e0200f5
:10366c00000000001c023700f00f20009802070039
:10367c006248020000000000c1f1210060c0b300ec
:10368c008048780001df21000040eb008048780082
:10369c001102370000df2100104078008080fb0011
:1036ac0000df2100104078000081fb0081017800d0
:1036bc00f10f2000800f2000ee2c02000000000013
:1036cc00c1f1210070c0b3008048780002023700bd
:1036dc0000df2100104478000000eb00801f780010
:1036ec00470620000043eb008042eb00f4c3b3001c
:1036fc008041eb000041eb00f1c3b30008407800bf
:10370c002c2e0200000000008f87e90000df210052
:10371c00104078008080fb000002eb008001eb0081
:10372c000001eb00300e2000842a02000000000093
:10373c000000eb00d0f78800c1f1210080c0b3007d
:10374c0080487800e4013700d1f780001003200096
:10375c00808f5000e00136000000eb00d0f78800ad
:10376c0000df2100104478000000eb00801f78007f
:10377c00970120000043eb008042eb00f4c3b30040
:10378c008041eb000041eb00f1c3b300084078002e
:10379c002c2e0200000000008f87e900ce013700bc
:1037ac00e0f78000f30f5000cb01360000df210062
:1037bc0010407800e74f500004003600c1f12100a2
:1037cc00a0c0b30080487800c3013700c1f12100cc
:1037dc0070c0b30080487800bf0137000002eb00d6
:1037ec008001eb000001eb008000eb00400e20009c
:1037fc00842a0200000000000002eb008001eb00b4
:10380c000001eb008000eb00400e2000842a020037
:10381c000000000081f621000040eb008048780099
:10382c00c1f121000040eb0080487800aa0137006c
:10383c0062480200000000000001eb008000eb0079
:10384c0080cfb300ce2e0200000000000002eb007f
:10385c008001eb000001eb00810f2000000720002d
:10386c00842a020000000000c11220003000200059
:10387c00e82e020000000000c1f12100d0c0b3000e
:10388c008048780081df21000040eb008048780000
:10389c000000eb0000f888006000b80090ef880092
:1038ac00a1ef88000000eb00b0ef88008a01370020
:1038bc0000f88000e50f50000f0036000000eb0010
:1038cc0000f88800c0500200000000006101b80040
:1038dc0090ef8000a1ef8000020040008380480040
:1038ec0090ef8800a1ef880068020700b0ef80001d
:1038fc000000e800b0ef8800b0ef8000ef0f500040
:10390c007501360090ef8000a1ef80004c09dd00be
:10391c004400de0000007100c408de0090ef880057
:10392c00a1ef88000000eb0000f8880092ef800007
:10393c00a3ef8000009b200001002000800f5100ad
:10394c00818f59003400360081df21000040eb00ec
:10395c008048780080df2100104478000000eb00e4
:10396c00801f78008003eb000043eb00f5c3b3002d
:10397c00f4c3b3008041eb00f2c3b300f1c3b30056
:10398c00084078002c2e0200000000008f87e90010
:10399c00c1f12100e0c0b3008048780080df210035
:1039ac00104478000000eb00801f78008003eb00cf
:1039bc000043eb00f5c3b300f4c3b3008041eb004c
:1039cc00f2c3b300f1c3b300084078002c2e020000
:1039dc00000000008f87e9006000b80090ef8800bd
:1039ec00a1ef88000000eb0000f888000000eb005d
:1039fc00b0ef880080df2100104078000080fb00d1
:103a0c00c012b0008000780030002000e82e0200c8
:103a1c000000000030013700c012200020f08800a8
:103a2c00c1f1210040c0b300804878002a01370062
:103a3c0000f88000e50f5000170036000000eb0086
:103a4c0000f88800c0500200000000006101b800be
:103a5c0090ef8000a1ef80000200400083804800be
:103a6c0090ef8800a1ef880008020700b0ef8000fb
:103a7c000000e800b0ef880080df210010407800e3
:103a8c000080fb00c012b0008000780030002000e5
:103a9c00e82e020000000000b0ef8000ef0f500095
:103aac000d01360090ef8000a1ef8000cc09dd0005
:103abc004400de0000807100c408de0090ef880036
:103acc00a1ef88000000eb0000f8880092ef800066
:103adc00a3ef8000009b200001002000800f51000c
:103aec00818f59005500360080df2100104078008e
:103afc008040e80080df21000148780080df210051
:103b0c0010407800e84f500013003a000081eb00a1
:103b1c008080eb0080cfb300ce2e020000000000ae
:103b2c000082eb008081eb000081eb0081ff2f0015
:103b3c0000072000842a020000000000c1f12100cf
:103b4c00f0c0b300804878006000b80090ef8800a7
:103b5c00a1ef8800310037000040eb00004f7800e7
:103b6c002700370080df2100104478000000eb00b4
:103b7c00801f78008083eb000043eb00f5c3b3009b
:103b8c00f4c3b3008041eb00f2c3b300f1c3b30044
:103b9c00084078002c2e0200000000008f87e900fe
:103bac0080df2100104078000080fb00c012b000c4
:103bbc008000780030002000e82e02000000000099
:103bcc0080df2100104478000000eb00801f78009b
:103bdc008083eb000043eb00f5c3b300f4c3b300e8
:103bec008041eb00f2c3b300f1c3b300084078008e
:103bfc002c2e0200000000008f87e9001e4fe80009
:103c0c009e80fb0080df2100104078000080fb00cc
:103c1c000000e800808f5000d2ff35006000b80033
:103c2c0090ef8800a1ef88000000eb0000f88800fe
:103c3c000000eb00b0ef8800a700370080df210008
:103c4c00104078000080fb00d012b00020f08800fb
:103c5c00c1f1210040c0b300804878009e003700bd
:103c6c0000f88000e50f50000f0036000000eb005c
:103c7c0000f88800c0500200000000006101b8008c
:103c8c0090ef8000a1ef800002004000838048008c
:103c9c0090ef8800a1ef88007c010700b0ef800056
:103cac000000e800b0ef8800b0ef8000ef0f50008c
:103cbc008900360090ef8000a1ef80004c09dd00f8
:103ccc004400de0000007100c408de0090ef8800a4
:103cdc00a1ef88000000eb0000f8880092ef800054
:103cec00a3ef8000009b200001002000800f5100fa
:103cfc00818f5900110036000000eb00c0f78800de
:103d0c00c1f1210000c1b300804878006000b80008
:103d1c0090ef8800a1ef88000000eb0000f888000d
:103d2c000000eb00b0ef8800f115200030002000ff
:103d3c00e82e02000000000067003700e0152000ac
:103d4c0020f08800c1f1210040c0b3008048780009
:103d5c006100370000f88000e50f50000f003600be
:103d6c000000eb0000f88800c050020000000000ca
:103d7c006101b80090ef8000a1ef800002004000cc
:103d8c008380480090ef8800a1ef8800b0ef80009e
:103d9c000000e800b0ef88003c010700b0ef8000a5
:103dac00ef0f50004c00360090ef8000a1ef800028
:103dbc00cc09dd004400de0000807100c408de0088
:103dcc0090ef8800a1ef88000000eb0000f888005d
:103ddc0092ef8000a3ef8000009b200001002000e8
:103dec00800f5100818f5900100036003f010700f1
:103dfc0080007800009b2000808f5000050036006a
:103e0c00c1f1210010c1b30080487800bc0007004c
:103e1c00310037000016200020f08800c1f121008d
:103e2c0040c0b300804878002b003700fc350200fe
:103e3c0000000000f015200020f08800c1f12100e6
:103e4c0040c0b3008048780023003700c1f78000e1
:103e5c00803e2000808f50001f0036002a48020050
:103e6c00000000000000eb0090fa8800c1f4210073
:103e7c000040eb008048780081f621000040eb0008
:103e8c00804878000002eb008001eb000001eb00a1
:103e9c008000eb00400e2000842a0200000000008d
:103eac000002eb008001eb000001eb008000eb0056
:103ebc00400e2000842a020000000000060037009b
:103ecc0081f6210040c0b30080487800c1f1210088
:103edc000040eb00804878004f0478000080fa0026
:103eec00000006000200fa000040eb00004f7800d2
:103efc00080037001e80fb004300dd008080e800d6
:103f0c0000e12100008140006000b8000089be0083
:103f1c001e4fe80070c0b3009e4f1000f5ff360036
:103f2c000080fa00000006000200fa000040eb00de
:103f3c00004f7800080037001e80fb004300dd00b6
:103f4c008080e80000e12100008140006000b800a2
:103f5c000089be001e4fe80070c0b3009e4f1000d9
:103f6c00f5ff36000080fa00000006000200fa009f
:103f7c00e0e021008040eb00014878000040eb00bd
:103f8c00004f7800150037001e80fb00c300dd00d9
:103f9c0000e12100808040000040eb008048780068
:103fac001e80fb004300dd008080e80000e1210062
:103fbc00008140006000b8000089be001e80fb003c
:103fcc004300dd00e600400000e12100808040005d
:103fdc000000eb00800878001e4fe80070c0b300b2
:103fec009e4f1000e8ff36000080fa00000006002b
:103ffc000200fa00881f7800004f7800c0f1210001
:10400c00104078000080fb00e80f500001003200e7
:10401c002800370000df2100104478000000eb007e
:10402c00801f7800270320000043eb00f5c3b3008a
:10403c000042eb008041eb00f2c3b3008040eb0088
:10404c00084078002c2e0200000000008f87e90049
:10405c0000df2100104078000080fb001c000700ee
:10406c0000df2100104078008040e80000df2100d4
:10407c000148780000df2100104078008080fb00b0
:10408c0000df2100104078000081fb0081017800e6
:10409c00f10f2000800f2000ee2c02000000000029
:1040ac000000eb00e0f78800c1f1210090c0b300e4
:1040bc00804878004f0478000080fa000000060069
:1040cc000200fa00000f78000080fa0000000600e1
:1040dc000000fa000043eb008042eb000042eb00d2
:1040ec0013c0b30000c1eb008040eb0000c0eb003c
:1040fc00dc370200000000000080fa00000006001f
:10410c000200fa000040eb00004f7800220037005c
:10411c0090f32100104078008080fb001e80fb0093
:10412c00000040008043eb0001037800853e200036
:10413c000042eb00130020000041eb008040eb003c
:10414c007236020000000000164802000000000059
:10415c0090f32100104078008080fb001e80fb0053
:10416c00000040000040e8008043eb0001037800b1
:10417c00853e20000042eb001300200012c0b3006b
:10418c0011c0b30072360200000000001648020095
:10419c00000000001e4fe80020c0b3009e4f10002e
:1041ac00dbff3600a0f621008040eb0001487800d0
:1041bc001648020000000000010820000040eb003f
:1041cc009a340200000000001648020000000000b3
:1041dc001108200010c0b3009a3402000000000047
:1041ec000000eb00c0f788000080fa000000060019
:1041fc000400fa00881f780020479800a0df2100f7
:10420c005c2a020000000000202f2000d0ef880064
:10421c00d0df2100ae40900001487800c1df2100c2
:10422c0070c0b3008048780020c0b300004f780005
:10423c000c0037001e84fb00f60302000000000097
:10424c0080007800f00f20000088b9000041780051
:10425c008880e800a0df2100008040000248780040
:10426c001e4fe80070c0b3009e4f1000f1ff3600e7
:10427c0020882000a1df210068220200000000003d
:10428c004f0478000080fa00000006000200fa00db
:10429c000040eb00004f78000f003700a0df21003a
:1042ac005c2a020000000000202f2000d0ef8800c4
:1042bc00d0df21001e487800c1df210050c0b300c0
:1042cc008048780020882000a1df210068220200ad
:1042dc00000000001e4fe80070c0b3009e4f10009d
:1042ec00eeff36000080fa00000006000400fa0021
:1042fc000080eb00100798000040eb00004f7800a6
:10430c00110037001e80fb004300dd00e60040007a
:10431c0000e1210000804000900078001e00900019
:10432c00808f5000070031001e80fb004300dd0031
:10433c00e600400000e12100008040009000780081
:10434c00110798001e4fe80070c0b3009e4f10007c
:10435c00ecff36001e0090000080fa000000060002
:10436c000200fa00a18720001000200090009800a5
:10437c00a187200010002000a0009800a187200039
:10438c0000082000b0009800a187200020e5200044
:10439c0080087800218820001000200090009800f0
:1043ac002188200010002000a00098002188200007
:1043bc0040092000b000980021882000a08820002f
:1043cc00800878000000eb00000f78000700370031
:1043dc00a0872000100178001e0078006a00b90048
:1043ec0000004100310407001e0fe800f007200018
:1043fc009e0f1000f6ff36000000eb00000f780057
:10440c000700370020882000100178001e0078007b
:10441c006a00b90000004100240407001e0fe800e8
:10442c00300920009e0f1000f6ff36000080fa00c5
:10443c00000006000400fa00000f78001e0078004f
:10444c00900090001e00780020009000808f50009b
:10445c000a0036001e007800b00090001e007800a4
:10446c0010009000808050001e007800200090000a
:10447c0080804000110798000f0037001e00780064
:10448c00a00090001e00780010009000808f50005b
:10449c00070036001e007800a00090001e00780077
:1044ac001000900080805000110798000200370027
:1044bc000000eb00100798001e0090000080fa002e
:1044cc00000006000600fa0010079800210798006b
:1044dc001e009000100178001e009000200090003b
:1044ec006a00b900800041002e0090001000780096
:1044fc00800878000040eb00004f78001000370077
:10450c001e009000100178001e009000200090000a
:10451c006a00b900000141009e81fb001e80fb0077
:10452c00ae0090000080e800010040009040780050
:10453c000380e80002004000014878001e4fe800ac
:10454c0070c0b3009e4f1000edff36001e009000af
:10455c00200090008000e8001e00900021009800d0
:10456c001e009000a00090001e00900030009000f3
:10457c00808f5000030039009e0090000000eb007b
:10458c00a00098000080fa00000006000600fa0067
:10459c0010079800210798001e0090001001780069
:1045ac001e009000100090006a00b900000041004d
:1045bc00900078002e009000010878000040eb007d
:1045cc00004f7800100037009e81fb001e00900009
:1045dc00100178001e009000100090006a00b900d5
:1045ec00800041001e80fb000080e80001004000bc
:1045fc0010417800ae0090000380e80001004000fc
:10460c00024878001e4fe80070c0b3009e4f1000a7
:10461c00edff36001e009000100090008000e800b6
:10462c001e009000110098001e0090009000900059
:10463c001e00900030009000808f50000300390065
:10464c009e0090000000eb00900098000080fa00a3
:10465c00000006003600f800809fbe00829fbe005e
:10466c00849fbe00869fbe003400f800000020002e
:10467c00a00188000200fa008760a90096c3bf0061
:10468c00614060000004e00035003200001c800036
:10469c004200de00000f7800f00f20009e0f10008b
:1046ac0003003600f01f20009e0f1000290036007a
:1046bc001e00780020438800301c80008040780069
:1046cc006086200001487800301c80004800de0025
:1046dc00804078007086200001487800401c8000e3
:1046ec00804078008086200001487800401c8000c3
:1046fc004800de0080407800908620000148780059
:10470c00501c800080407800a08620000148780072
:10471c00501c80004800de0080407800b0862000ed
:10472c0001487800601c800080407800c086200022
:10473c0001487800601c80004800de008040780052
:10474c00d086200001487800a087200041862000f8
:10475c005cff07009603a9000000eb00701c8800aa
:10476c0096c3bf00624060000004e00035003200d8
:10477c00001c80004200de00000f7800f00f2000cb
:10478c009e0f100003003600f01f20009e0f10003b
:10479c00290036001e00780020438800301c800061
:1047ac00804078006086200001487800301c800032
:1047bc004800de00804078007086200001487800b8
:1047cc00401c8000804078008086200001487800e2
:1047dc00401c80004800de0080407800908620005d
:1047ec0001487800501c800080407800a086200092
:1047fc0001487800501c80004800de0080407800a2
:10480c00b086200001487800601c80008040780051
:10481c00c086200001487800601c80004800de0043
:10482c0080407800d086200001487800a0872000c6
:10483c004186200023ff07009623a9000000eb000f
:10484c00f01b880096c3bf000042b2000004e000d9
:10485c0005003200280202000000000097e3a900c6
:10486c0097c3a90096a3a9000080fa003400f900b0
:10487c004f03be004f02be004f01be004f00be00f2
:10488c003600f900004006000000fa0020882000e5
:10489c00e8fe07000000e00038003200701b8000ca
:1048ac004300de000000a200610060000004e00094
:1048bc00320032009643a90000042000201b88001f
:1048cc0020882000e186200030ff07007043800024
:1048dc002b030700001b8800008720001040780085
:1048ec008080fb0010872000104078000080fb00c7
:1048fc004800dd0000807000301b880020872000fd
:10490c00104078008080fb00308720001040780039
:10491c000080fb004800dd0000807000401b880018
:10492c0040872000104078008080fb0050872000da
:10493c00104078000080fb004800dd000080700013
:10494c00501b880060872000104078008080fb009e
:10495c0070872000104078000080fb004800dd00cc
:10496c0000807000601b880030002000701b8800e5
:10497c00701b80000030a000701b88002088200075
:10498c00acfe07000000e00038003200f01a800096
:10499c004300de000000a200610060000004e000a3
:1049ac00320032009663a90000042000a01a88008f
:1049bc0020882000e1862000f4fe07007043800070
:1049cc00ef020700801a8800008720001040780052
:1049dc008080fb0010872000104078000080fb00d6
:1049ec004800dd0000807000b01a8800208720008d
:1049fc00104078008080fb00308720001040780049
:104a0c000080fb004800dd0000807000c01a8800a8
:104a1c0040872000104078008080fb0050872000e9
:104a2c00104078000080fb004800dd000080700022
:104a3c00d01a880060872000104078008080fb002e
:104a4c0070872000104078000080fb004800dd00db
:104a5c0000807000e01a880030002000f01a8800f6
:104a6c00f01a80000030a000f01a88002088200086
:104a7c0070fe07000000e00038003200701a800061
:104a8c004300de000000a200610060000004e000b2
:104a9c00320032009683a90000042000201a8800fe
:104aac0020882000e1862000b8fe070070438000bb
:104abc00b3020700001a880000872000104078001d
:104acc008080fb0010872000104078000080fb00e5
:104adc004800dd0000807000301a8800208720001c
:104aec00104078008080fb00308720001040780058
:104afc000080fb004800dd0000807000401a880038
:104b0c0040872000104078008080fb0050872000f8
:104b1c00104078000080fb004800dd000080700031
:104b2c00501a880060872000104078008080fb00bd
:104b3c0070872000104078000080fb004800dd00ea
:104b4c0000807000601a880030002000701a880005
:104b5c00701a80000030a000701a88000080fa00e3
:104b6c00000006001400fa00a087200031fe0700a8
:104b7c00300798000000eb00400798004502370012
:104b8c00a0872000a185200080fe0700d142800074
:104b9c00f01f2000808f500032003600d142800080
:104bac00f0232000808f50002e003e0090f6210054
:104bbc0010407800e14f50002a003a00d0428000ab
:104bcc00c300dd0000002f0000804000200798008b
:104bdc000000eb00500798000d003700ae0090006d
:104bec005e009000008140005e0090008080e80034
:104bfc00a0852000008040009040780080ae21000d
:104c0c00017178005e0090000000e80050079800e9
:104c1c005e009000e70f5000f0ff3600008520008a
:104c2c0022020700002f20008042880021852000ee
:104c3c0070cfb300804878003185200060c8b30085
:104c4c0080487800d0428000804078004085200069
:104c5c0001487800208820000185200019fe0700fb
:104c6c0009023700d0428000100f9800300f20004e
:104c7c009e089000808f5000f5013200300f20000c
:104c8c001e099000800f510009003e00000f20000b
:104c9c009e089000808f5000e8013200100f200019
:104cac001e099000800f5100f7013200f601370009
:104cbc00102f20009e089000808f500019013200a8
:104ccc00102f20001e099000800f510005003e009f
:104cdc00002f20009e089000808f5000930032001f
:104cec00e9013700202f20001e099000800f510091
:104cfc0005003200302f20009e089000808f50005d
:104d0c00c2013200e0013700c0852000104078005d
:104d1c00e24f500011003a00e0e021001040780012
:104d2c008040e800e0e0210001487800d0852000b8
:104d3c00104078000081fb00c310dd0000e1210071
:104d4c0000804000104078008041e800c310dd0076
:104d5c0000e121000080400003487800c08520005d
:104d6c0010407800e84f500009003a00f0f880003d
:104d7c0001f9800061004000e0804800f0f88800f4
:104d8c0001f9880061f2210010c0b300804878005e
:104d9c00c085200010407800e64f500014003a0007
:104dac00d085200010407800e94f40001000320000
:104dbc00d0852000104078008081fb00f085200019
:104dcc00104078000080fb00c800dd00e08520006a
:104ddc00104078000080fb00008140004318dd008b
:104dec00e600400000e1210000804000020878004d
:104dfc00d085200010407800e94f4000a2013a0015
:104e0c00c0852000104078000080fb00000f980047
:104e1c000e099000e50f51002a0032000e08900098
:104e2c00e70f500001003200970137000085200089
:104e3c009e010700202f2000804288002185200041
:104e4c0080c0b300804878003185200070cfb3005b
:104e5c0080487800e0852000904078004085200054
:104e6c0001487800f08520009040780050852000a3
:104e7c000148780000862000904078006085200072
:104e8c000148780010862000904078007085200042
:104e9c000148780020862000904078008085200012
:104eac0001487800308620009040780090852000e2
:104ebc0001487800208820000185200081fd070032
:104ecc0071013700c050020000000000c043880090
:104edc000085200075010700202f200080428800eb
:104eec002185200060c0b300804878003185200007
:104efc0070cfb30080487800c043800080407800b9
:104f0c004085200001487800c04380004800de0046
:104f1c0080407800508520000148780020882000cf
:104f2c000185200067fd070057013700c085200070
:104f3c0010407800e94f400053013a00d085200022
:104f4c00104078000080fb0070079800fe00900075
:104f5c00e28f50002a0032007e019000e20f5100d7
:104f6c0004003c007e009000e10f5000080032006d
:104f7c0045013700fe009000e38f500031003200f5
:104f8c007e019000e40f51003f0032003e013700db
:104f9c000000eb0050079800070037005e019000fe
:104fac0081ae21000040eb0000f178005e00900023
:104fbc000000e80050079800de009000f01f200071
:104fcc00808f5000f5ff3600008520003701070068
:104fdc00002f2000804288002185200070cfb30074
:104fec00804878003185200010c8b30080487800d4
:104ffc00208820000185200032fd070022013700a7
:10500c0091f6210010c0b300804878000085200084
:10501c0026010700002f20008042880021852000f7
:10502c0070cfb300804878003185200020c8b300d1
:10503c0080487800208820000185200021fd070091
:10504c001101370091f621000040eb0080487800f8
:10505c000085200015010700002f200080428800e9
:10506c002185200070cfb300804878003185200066
:10507c0030c8b300804878002088200001852000cb
:10508c0010fd07000001370090f621001040780059
:10509c00e14f5000fc003a00e08520001040780001
:1050ac000080fb004300dd002007980000852000f5
:1050bc00fe000700e0852000104078000080fb0017
:1050cc000024b000804288000000eb0050079800dc
:1050dc000d003700de019000ae0090005e009000e5
:1050ec008080400080ae2100614178008380e80020
:1050fc000085200000804000024878005e0090008f
:10510c000000e800500798005e009000e70f500088
:10511c00f0ff36002088200001852000e9fc070004
:10512c00d9003700c085200010407800e94f4000be
:10513c00d5003a00e0852000104078000081fb008b
:10514c0003002000f0852000104078000080fb0058
:10515c0001002000c808dd000080fd0080407800c0
:10516c000040eb00020140008381480000862000d3
:10517c00104078000080fb0001002000c000dd0022
:10518c0000002000020140008381480010862000ae
:10519c00104078000080fb0001002000c800dd00fa
:1051ac0000002000001f410001974900d08520001d
:1051bc00104078000080fb00600798006e009000a3
:1051cc00e10f500034003200ee009000e28f5000ee
:1051dc00620032006e0190000200e000010032001b
:1051ec00a900370082ae21001e00be006041020003
:1051fc00000000001e00be00923f020000000000f4
:10520c0000852000a9000700102f20008042880094
:10521c002185200070cfb3008048780031852000b4
:10522c0000c8b300804878001e00780080407800e9
:10523c0040852000014878001e00be004809dd00b2
:10524c004800de0000007100c808de0080407800d5
:10525c0050852000014878001e00be004008de008a
:10526c000100200080407800608520000148780013
:10527c001e00be004808de000100200080407800bf
:10528c0070852000014878002088200001852000ce
:10529c008cfc07007c00370082ae21001e00be0093
:1052ac00b04002000000000082ae21001e00be00d3
:1052bc0060410200000000001e00be00923f020090
:1052cc00000000000085200078000700102f20004f
:1052dc00804288002185200070cfb3008048780080
:1052ec003185200010c8b300804878001e0078007b
:1052fc008040780040852000014878001e00be00e8
:10530c004809dd004800de0000007100c808de001e
:10531c008040780050852000014878001e00be00b7
:10532c004008de00010020008040780060852000ed
:10533c00014878001e00be004808de000100200075
:10534c00804078007085200001487800208820007b
:10535c00018520005bfc07004b0037001e00be00df
:10536c000c420200000000001e00be00923f020032
:10537c0000000000008520004c000700102f2000ca
:10538c00804288002185200070cfb30080487800cf
:10539c003185200020c8b300804878001e007800ba
:1053ac008040780040852000014878001e00be0037
:1053bc004809dd004800de0000007100c808de006e
:1053cc008040780050852000014878001e00be0007
:1053dc004008de000100200080407800608520003d
:1053ec00014878001e00be004808de0001002000c5
:1053fc0080407800708520000148780020882000cb
:10540c00018520002ffc07001f003700c0852000fd
:10541c009040780080f6210001487800c1f121000d
:10542c000040eb0080487800864b02000000000032
:10543c000000eb0090fa880013003700c0852000b4
:10544c0010407800704c0200000000000e00370085
:10545c00e08520009040780080f52100014878001c
:10546c00f08520009040780090f5210001487800ec
:10547c000086200090407800a0f5210001487800bb
:10548c00284d0200000000004e0090000000e800d3
:10549c0040079800ce0090003e009000808f500096
:1054ac00b7fd39000080fa00000006000400fa0085
:1054bc00100798000040eb00004f78000700370001
:1054cc001e80fb009e0090000080e80081004000e0
:1054dc000040eb00804878001e4fe80070c0b3001d
:1054ec009e4f1000f6ff36009e0090000000eb006f
:1054fc00800878000080fa00000006001400fa0012
:10550c00500798006107980072079800030f9800e5
:10551c00140f98005e009000000f78006e00900051
:10552c00204798006e0090004800de00304798003d
:10553c007e009000404798007e0090004800de00fe
:10554c00504798000e089000604798000e08900095
:10555c004800de00704798001e089000004f98002d
:10556c001e0890004800de00104f98002088200094
:10557c008e007800d3fb07000080fa0000000600c4
:10558c000200fa00000f7800f00320001e006000fb
:10559c00c200dd00007c20001e0060004500dd0024
:1055ac00008040000080fa00000006000000fa00b5
:1055bc006bfb070000c020002c0202000000000062
:1055cc0090c3bf000080fb004500de000080fb00a4
:1055dc00e30f5000faff3400912820000000eb008c
:1055ec0032020200000000006011b8008000eb00e5
:1055fc000040eb0038020200000000006011b8000f
:10560c008000eb0010c0b300380202000000000064
:10561c006011b8008000eb0020c0b300380202001b
:10562c00000000006011b8008000eb0030c0b30037
:10563c0038020200000000006011b8008000eb008e
:10564c0040c0b30038020200000000006011b80036
:10565c008000eb000040eb00900202000000000014
:10566c006011b8008000eb0010c0b3009002020083
:10567c0000000000310020000040eb00ac020200f2
:10568c00000000003100200010c0b300ac0202008a
:10569c00000000003100200020c0b300ac0202006a
:1056ac0000000000410020000040eb00c20202009c
:1056bc00000000004100200010c0b300c202020034
:1056cc0000000000e1ff2f0030022000d202020097
:1056dc000000000000802000f60202000000000024
:1056ec0090c3bf0001ceb300014060000004e00095
:1056fc00fbff3a000080fa00000006000400fa00ec
:10570c00100798009e00900020442800614078000b
:10571c000000fb00000f78001e0078000080fa00eb
:10572c00000006000800fa00881f78002007980087
:10573c0031079800be009000703e2000808f500012
:10574c0031003e003e009000a20020001100090034
:10575c000280d8008000fd00e8ff07004800dd0053
:10576c0000f788003e009000a20020001100090004
:10577c000280d800a2002000110009000280d8008d
:10578c008000fd00ddff0700100798003e00900030
:10579c0042062000110009000280d800a20020005f
:1057ac00110009000280d8008000fd00d3ff070023
:1057bc00000f7800f00320009e0f100002003a004a
:1057cc000000eb00000f78001e00e00006003a001d
:1057dc009e009000f0032000808f500002003a00e1
:1057ec000000eb001007980001f780001e009000ed
:1057fc000080400000f788001e0078004800dd00a3
:10580c00f0f68800040037000000eb0000f7880079
:10581c000000eb00f0f68800ae009000703e200017
:10582c00808f50002f003e00f8f680002e00900074
:10583c00a2002000110009000280d8008000fd00a9
:10584c00aeff070000004400f0f688002e00900028
:10585c00a2002000110009000280d800a200200044
:10586c00110009000280d8008000fd00a3ff070092
:10587c00100798002e00900042062000110009002d
:10588c000280d800a2002000110009000280d8007c
:10589c008000fd0099ff0700000f7800f003200046
:1058ac009e0f100002003a000000eb00000f780081
:1058bc001e00e00006003a009e009000f00320005d
:1058cc00808f500002003a000000eb001007980097
:1058dc001e0090004800dd001e004000e0f688002d
:1058ec0006003700f1f6800000f02f000080600009
:1058fc00f0f688000000eb00e0f688004f0478001a
:10590c000080fa00000006000600fa00000f780084
:10591c00110798002207980030672000e0f68800f5
:10592c000000eb00f0f688002e009000e20f500013
:10593c0003003a0030b7250000f78800020037005a
:10594c000000eb0000f7880002f78000f3f68000ff
:10595c00e5f680001e0090004800dd009e0040002f
:10596c00020278000501780000072000842a02005a
:10597c00000000000080fa00000006000800fa0099
:10598c00000f780011079800220798003307980041
:10599c00be0090002e00900062ff070002f780000e
:1059ac00f3f68000e5f680001e0090004800dd0054
:1059bc009e004000020278000501780000072000dc
:1059cc00842a0200000000000080fa00000006009b
:1059dc000800fa00000f78001107980022079800c1
:1059ec0033079800be0090002e0090004dff07007a
:1059fc0070e72500e0f68800f1f6800000f02f003b
:105a0c0000806000f0f68800f1f6800000052000b0
:105a1c0000807000f0f6880002f78000f3f680003a
:105a2c00e5f680001e0090004800dd009e0040005e
:105a3c00020278000501780000072000842a020089
:105a4c00000000000080fa00000006000c00fa00c4
:105a5c00000f780011079800220798003307980070
