:020000040000fa
:080000000001040000000000f3
:020000040000fa
:100200008ff621000e7f22000e0188000000000002
:100210000c000700400e2400010020001100070020
:10022000000020000000e000020032000000020098
:10023000000000006e3c0200000000000040da00f8
:100240000000fe004440a900600220000000e00021
:100250000300320000002000a00188004440a800f4
:100260000000060091018800800078000000eb008b
:1002700015003700e280400032a0b4009101ba00be
:10028000e280400032a0b4009102ba00e280400057
:1002900032a0b4000002eb00472bde00f507b200ed
:1002a000602ce10004003a000059eb008301e900f2
:1002b000fdff3e00040037006128e100010032002c
:1002c0000082eb00040007001101ba000200e00008
:1002d000e8ff3a00000006003159ba008301e90046
:1002e0000c0032002159ba008301e90008003200f5
:1002f0000400e00003003a00e280400032a0b400b5
:10030000f5ff370011d9ba008301e900faff3a007e
:100310008100e800e180400032a0b4000000060047
:100320000040da000000fe00020ab900001bb9001c
:100330000200b80081004200810043000000060076
:100340006022b800060220000000d0008180d200a8
:100350000482d2008582d2000000a0000202520076
:1003600083825a00030031000202420083824a0065
:100370000000a1000603e900f3ff3a0000000600b8
:10038000efff07000400be000000060043158800d0
:100390005415880022158800111588000015880062
:1003a0000000d1006140600000404000012a2000b0
:1003b000914078000114a10080c070000100780015
:1003c000a0e2b7000000060030158800000006001b
:1003d0000080fb00000040000128200060807800c1
:1003e000000006008920a900e7416000c419dd0073
:1003f000810a200091407800f2c8b30082c06000fa
:1004000083c070008000fd00a8e0b7008000fd0000
:10041000680060004300de00004040001109200039
:10042000914078000114a10080c0700001007800a4
:1004300091e0b70000000600221288000012880038
:100440001112880043128800641288000000060020
:100450009183a800000006009183a800801c8800fa
:1004600000000600901c8800a11c88000000060007
:10047000401ade000500200004037800e24f50001f
:100480001300320005003c000004e00009003200c7
:10049000e14f50001e003a0009003700e44f5000c1
:1004a000130032000e003500e54f500018003a00ee
:1004b0001300370001188800141888001600370050
:1004c000411888005418880062188800000006004f
:1004d0008118880094188800a2188800000006007f
:1004e000c1188800d4188800e218880000000600af
:1004f00001198800141988002219880000000600dc
:10050000411988005419880062198800000006000b
:1005100001188800161888002218880000000600bc
:10052000401ade00050020000004e0000600320052
:10053000e14f500004003a00c1198800d419880026
:10054000e2198800000006008119880094198800cb
:10055000a219880000000600e14f5000030032009d
:10056000e24f50000300320004003700f11a880007
:1005700000000600711a880000000600711b880048
:10058000000006000004e00004003200e14f5000cb
:1005900002003a00f11b880000000600711c880070
:1005a000000006009623ef008760a900c01c8800a9
:1005b000e7c16000c419dd00a1c0bf00f2c8b300ec
:1005c0000240600003407000a1e0b700e8806000d6
:1005d000c308de00c308dd008fc0bf000034a100e7
:1005e000014070008fe0b70000000600801c88000a
:1005f000000006008d00a90021e2a9008500a900e5
:10060000000006008500a900e74160008109200084
:100610009140780082cfb30082c0600083c0700038
:100620008000fd0098e0b7008000fd0068006000d9
:100630004300de00d1082000914078000104a100b1
:1006400080c07000010078008de0b7000000060057
:100650001011880001118800000006008cc0a9005c
:1006600011e1a90084c0a9000000060084c0a9000f
:10067000e7416000710920009140780082cfb3000b
:1006800082c0600083c070008000fd0097e0b7006a
:100690008000fd00680060004300de004600dd00d1
:1006a000c1082000914078000164a10080c0700062
:1006b000010078008ce0b700000006000621ef0082
:1006c00061088800800888001061a9000000060009
:1006d0008700a9008720a900e7416000010a2000e7
:1006e0009140780082cfb30082c0600083c0700068
:1006f0008000fd00a0e0b7008000fd0001c7b3004e
:1007000081416000010a200091407800f2c8b300e6
:1007100082c0600083c070008000fd00a0e0b700d0
:100720008000fd00680160004311de00f108200038
:10073000914078000104a10082c070008000fd009b
:100740008fe0b7008000fd000008b2004700de0027
:1007500000404000f1082000914078000114a10001
:1007600080c07000010078008fe0b7000000060034
:10077000f2108800b0108800c11088000000060048
:100780008000780016c2bf0066406000e64f50004f
:1007900001003200f10fb200d11088000000060005
:1007a00016c2bf0066406000e64f500002003a00eb
:1007b000e010800000000600e0108000f00fb200a2
:1007c0000000060018c2bf006100600000000600c3
:1007d00001002000a0fa8800b1fa880011c0b3001f
:1007e00020f52100014878000000060022f52100d4
:1007f0001204e00006003a00100020000100200072
:10080000a0fa8800b1fa880010c0b300004978004f
:10081000d2e62400631c2400a0fa8000b1fa800014
:10082000c1fe07000001be0090032300010020006c
:100830000200400083804800a0fa8800b1fa8800d6
:100840004088de00cf80de0000f0a100000006003e
:020000040000fa
:0200000401f009
:04000000e6ff000017
:020000040000fa
:0200000401f009
:04000400dfff00001a
:020000040000fa
:0200000401f009
:04000800fcff0000f9
:020000040000fa
:0200000401f009
:04001400ffff0000ea
:020000040000fa
:1000080090010000900100009001000090010000a4
:100018009001000090010000900100009001000094
:100028009001000090010000900100009001000084
:100038009001000090010000043e000090010000c3
:100048009001000090010000900100002e43000084
:100058009001000090010000900100009001000054
:100068009001000090010000900100009001000044
:100078009001000090010000900100009001000034
:10008800fc380000bc38000090010000d40f0000cc
:100098009001000090010000900100009001000014
:1000a8009001000090010000900100009001000004
:1000b80090010000900100009001000090010000f4
:1000c80090010000a42300009001000090010000ae
:1000d80090010000900100009001000090010000d4
:1000e80090010000900100009001000090010000c4
:0800f8009001000090010000de
:020000040000fa
:1001080090010000900100009001000090010000a3
:100118009001000090010000900100009001000093
:100128009001000090010000900100009001000083
:100138009001000090010000043e000090010000c2
:100148009001000090010000900100002e43000083
:100158009001000090010000900100009001000053
:100168009001000090010000900100009001000043
:100178009001000090010000900100009001000033
:10018800fc380000bc38000090010000d40f0000cb
:100198009001000090010000900100009001000013
:1001a8009001000090010000900100009001000003
:1001b80090010000900100009001000090010000f3
:1001c80090010000a42300009001000090010000ad
:1001d80090010000900100009001000090010000d3
:1001e80090010000900100009001000090010000c3
:0801f8009001000090010000dd
:020000040000fa
:10085000777c0000585e0000797100006f74000022
:10086000041e000078380000375400005c7300005c
:100870005d5000006d7800003e1c000049760000cd
:10088000665b00003f0600005b4f0000666d0000e5
:0c0890007d0700007f6f000000000000ea
:020000040000fa
:10089c000000fa00c1f5210040c0b3008048780088
:1008ac00a1f1210050c0b300804878000080fa000c
:1008bc00000006000600fa00881f7800a0f1210055
:1008cc00104078000080fb006101b900120798000d
:1008dc002307980050012000010020001e01900009
:1008ec00ae019000800f5100818f5900c6033e006d
:1008fc001e009000ae009000006001001500370053
:10090c0010013700240137004f0137009d013700db
:10091c00a7013700b1013700bf013700dc013700f8
:10092c00f1013700ff01370013023700b60337001f
:10093c0031023700900237001b0337005703370092
:10094c00940337000e0037001b0037009600370069
:10095c00d6003700b01680000000a000b01688004a
:10096c00b1168000d0ff2f0000806000b016880008
:10097c00a1f1210010c0b30080487800a803370013
:10098c00a1f1210030c1b30080487800e1f52100cd
:10099c0010c0b3008048780061f221000040eb00e9
:1009ac008048780071f221000040eb00804878000c
:1009bc009e0307009a03370060f221001040780074
:1009cc00e34f500029003e0070f2210010407800e7
:1009dc000080fb00800cb00080007800300020000c
:1009ec008c1b02000000000070f221001044780003
:1009fc000000eb00801f78008003eb000043eb004d
:100a0c00f5c3b300f4c3b3008041eb00f2c3b300f1
:100a1c00f1c3b30008407800d01a020000000000b7
:100a2c008f87e90041f2210010c0b30080487800a4
:100a3c0070f22100104078003f040700a1f1210062
:100a4c0040c1b300804878006000b800e0f888002e
:100a5c00f1f888006000b80000f9880011f98800ee
:100a6c000000eb00f0f788006d03370070f22100f6
:100a7c00104078000084fb0070f2210010407800d8
:100a8c000080fb004300dd008080e80000e12100d5
:100a9c00008040001000be00420620000300200031
:100aac00a0010200000000000001be004340dd0078
:100abc008080e80000e12100008040000288be0038
:100acc0070f22100104078000080fb004300dd0034
:100adc008080e80000e12100008040001001be0091
:100aec00f013200001002000800f5100818f59006d
:100afc0006003e00a0f1210051c1b300014878006e
:100b0c00e0ff2f00f0f788004503370070f221005a
:100b1c00104478000000eb00801f78008003eb008d
:100b2c000043eb008042eb000042eb008041eb0005
:100b3c000041eb008040eb0008407800d01a020026
:100b4c00000000008f87e90070f22100104078004f
:100b5c008040e80070f221000148780070f221001a
:100b6c0010407800e74f500007003600e1f52100f7
:100b7c000040eb0080487800a1f12100b0c0b30028
:100b8c008048780026033700a1f1210030c1b30062
:100b9c00804878002503070061f221000040eb003b
:100bac00804878001e033700f0f78000f80f5000e3
:100bbc002d0036000000eb00f0f7880002f98000f1
:100bcc0013f98000e0f88000f1f88000020040008a
:100bdc00838048004509dd00cb00de0081007100f8
:100bec004500dd0050f0880061f0880070f22100b3
:100bfc00104078000080fb004300dd008080e8009e
:100c0c0000e12100008040001001be0050f0800087
:100c1c0061f08000800f5100818f59000a00310073
:100c2c0070f22100104078000080fb0052f0800030
:100c3c0063f080004300dd008080e80000e12100cb
:100c4c00008040000288be00a1f1210030c1b30039
:100c5c008048780060f22100104078008040e80065
:100c6c0060f221000148780040f221001040780029
:100c7c00e14f5000ea023a0070f221001040780077
:100c8c00ad03070041f221000040eb0080487800e2
:100c9c0000f9800011f9800061004000e0804800fc
:100cac0000f9880011f98800dd023700f1f78000a7
:100cbc0040062000808f5000d90236000000eb0067
:100ccc00f0f7880090df2100104078000004e0006d
:100cdc000c003a0091df210010c0b300804878006e
:100cec0070f22100104078000080fb00800cb000f6
:100cfc0080007800200020008c1b02000000000007
:100d0c00c702370091df21000040eb0080487800db
:100d1c0070f22100104078000080fb004300dd00e1
:100d2c008080e80000e12100008040001000be003f
:100d3c0080007800200020008c1b020000000000c6
:100d4c00b7023700e1f521000040eb008048780045
:100d5c0061e021000040eb0080487800d5020700dc
:100d6c0081e021000040eb008048780071e0210018
:100d7c000040eb00804878000000eb00f0f78800a2
:100d8c000000eb00a0f78800a1f1210020c0b30007
:100d9c0080487800a2023700a0f78000ea0f5000cc
:100dac009f02360060e02100104078000080fb00bc
:100dbc005006b00080007800300020008c1b020030
:100dcc00000000000000eb00a0f78800a0df21006d
:100ddc000017020000000000202f2000d0ef880038
:100dec00c1df210010c0b3008048780080e02100f2
:100dfc0090407800d0df2100014878002088200046
:100e0c00a1df21000c0f02000000000080e0210097
:100e1c00104078008040e80080e021000148780014
:100e2c0080e0210010407800e74f50007c02360033
:100e3c00a0f1210031c0b300014878000000eb00a4
:100e4c00f0f7880076023700e0e0210010407800cf
:100e5c00e84f500026003a0070e0210011c0b300aa
:100e6c00014878000040eb00004f78000b00370081
:100e7c001e80fb00c300dd0000e12100008040006b
:100e8c0010407800e14f50000300320071e0210067
:100e9c000040eb00804878001e4fe80073c0b300a0
:100eac009ecf1100f2ff360070e021001040780058
:100ebc00e14f500007003a00a1f12100b0c0b3008f
:100ecc0080487800c1f5210040c0b300804878000c
:100edc0053023700a1f1210050c0b30080487800c4
:100eec00c1f5210040c0b300804878004c023700a7
:100efc00f1f7800000192000808f50004802360066
:100f0c000000eb00f0f7880060e021001040780052
:100f1c008040e80060e021000148780060e021009a
:100f2c0010407800e34f50000c003600e0e0210048
:100f3c00104078000080fb004006b00020f08800d4
:100f4c00c1f5210040c0b30080487800a1f1210018
:100f5c0040c0b300804878003102370081e02100a6
:100f6c000040eb00804878000000eb00a0f7880000
:100f7c0050020700a1f1210020c0b3008048780086
:100f8c0027023700f1f7800020032000808f5000eb
:100f9c00230236000000eb00f0f7880021f08000ff
:100fac00200020008c1b0200000000001c023700f7
:100fbc00f00f200098020700c03a02000000000069
:100fcc00a1f1210060c0b3008048780001df21004e
:100fdc000040eb00804878001102370000df210050
:100fec00104078008080fb0000df2100104078006a
:100ffc000081fb0081017800f10f2000800f2000a0
:10100c009219020000000000a1f1210070c0b30091
:10101c00804878000202370000df2100104478007d
:10102c000000eb00801f7800470620000043eb0017
:10103c008042eb00f4c3b3008041eb000041eb00b5
:10104c00f1c3b30008407800d01a02000000000081
:10105c008f87e90000df2100104078008080fb00c2
:10106c000002eb008001eb000001eb00300e2000d1
:10107c0028170200000000000000eb00c0f78800f9
:10108c00a1f1210080c0b30080487800e401370052
:10109c00c1f7800010032000808f5000e001360063
:1010ac000000eb00c0f7880000df2100104478003e
:1010bc000000eb00801f7800970120000043eb003c
:1010cc008042eb00f4c3b3008041eb000041eb0025
:1010dc00f1c3b30008407800d01a020000000000f1
:1010ec008f87e900ce013700d0f78000f30f500056
:1010fc00cb01360000df210010407800e74f500094
:10110c0004003600a1f12100a0c0b3008048780093
:10111c00c3013700a1f1210070c0b30080487800f2
:10112c00bf0137000002eb008001eb000001eb0077
:10113c008000eb00400e2000281702000000000089
:10114c000002eb008001eb000001eb008000eb00e3
:10115c00400e20002817020000000000c1f52100fd
:10116c000040eb0080487800a1f121000040eb002a
:10117c0080487800aa013700c03a02000000000045
:10118c000001eb008000eb0080cfb300721b02006b
:10119c00000000000002eb008001eb000001eb00fe
:1011ac00810f20000007200028170200000000001b
:1011bc00c1122000300020008c1b02000000000037
:1011cc00a1f12100d0c0b3008048780081df21005c
:1011dc000040eb00804878000000eb00f0f788003e
:1011ec006000b80090ef8800a1ef88000000eb00d1
:1011fc00b0ef88008a013700f0f78000e50f50004f
:10120c000f0036000000eb00f0f788001a430200d4
:10121c00000000006101b80090ef8000a1ef800099
:10122c00020040008380480090ef8800a1ef880006
:10123c0068020700b0ef80000000e800b0ef880003
:10124c00b0ef8000ef0f50007501360090ef80007a
:10125c00a1ef80004c09dd004400de0000007100ad
:10126c00c408de0090ef8800a1ef88000000eb00be
:10127c00f0f7880092ef8000a3ef8000009b200025
:10128c0001002000800f5100818f5900340036007e
:10129c0081df21000040eb008048780080df2100d6
:1012ac00104478000000eb00801f78008003eb00f6
:1012bc000043eb00f5c3b300f4c3b3008041eb0073
:1012cc00f2c3b300f1c3b30008407800d01a020097
:1012dc00000000008f87e900a1f12100e0c0b300fd
:1012ec008048780080df2100104478000000eb007b
:1012fc00801f78008003eb000043eb00f5c3b300c4
:10130c00f4c3b3008041eb00f2c3b300f1c3b300ec
:10131c0008407800d01a0200000000008f87e90016
:10132c006000b80090ef8800a1ef88000000eb008f
:10133c00f0f788000000eb00b0ef880080df2100a0
:10134c00104078000080fb00c012b00080007800d4
:10135c00300020008c1b0200000000003001370020
:10136c00c012200020f08800a1f1210040c0b30081
:10137c00804878002a013700f0f78000e50f500014
:10138c00170036000000eb00f0f788001a4302004b
:10139c00000000006101b80090ef8000a1ef800018
:1013ac00020040008380480090ef8800a1ef880085
:1013bc0008020700b0ef80000000e800b0ef8800e2
:1013cc0080df2100104078000080fb00c012b000cc
:1013dc0080007800300020008c1b02000000000010
:1013ec00b0ef8000ef0f50000d01360090ef800041
:1013fc00a1ef8000cc09dd004400de00008071000c
:10140c00c408de0090ef8800a1ef88000000eb001c
:10141c00f0f7880092ef8000a3ef8000009b200083
:10142c0001002000800f5100818f590055003600bb
:10143c0080df2100104078008040e80080df210030
:10144c000148780080df210010407800e84f500000
:10145c0013003a000081eb008080eb0080cfb300da
:10146c00721b0200000000000082eb008081eb0088
:10147c000081eb0081ff2f000007200028170200dd
:10148c0000000000a1f12100f0c0b30080487800fa
:10149c006000b80090ef8800a1ef880031003700a1
:1014ac000040eb00004f78002700370080df210060
:1014bc00104478000000eb00801f78008083eb0064
:1014cc000043eb00f5c3b300f4c3b3008041eb0061
:1014dc00f2c3b300f1c3b30008407800d01a020085
:1014ec00000000008f87e90080df210010407800a9
:1014fc000080fb00c012b00080007800300020009b
:10150c008c1b02000000000080df210010447800da
:10151c000000eb00801f78008083eb000043eb00a1
:10152c00f5c3b300f4c3b3008041eb00f2c3b300c6
:10153c00f1c3b30008407800d01a0200000000008c
:10154c008f87e9001e4fe8009e80fb0080df2100a2
:10155c00104078000080fb000000e800808f5000f5
:10156c00d2ff35006000b80090ef8800a1ef880032
:10157c000000eb00f0f788000000eb00b0ef8800f3
:10158c00a700370080df2100104078000080fb00ae
:10159c00d012b00020f08800a1f1210040c0b300af
:1015ac00804878009e003700f0f78000e50f50006f
:1015bc000f0036000000eb00f0f788001a43020021
:1015cc00000000006101b80090ef8000a1ef8000e6
:1015dc00020040008380480090ef8800a1ef880053
:1015ec007c010700b0ef80000000e800b0ef88003d
:1015fc00b0ef8000ef0f50008900360090ef8000b4
:10160c00a1ef80004c09dd004400de0000007100f9
:10161c00c408de0090ef8800a1ef88000000eb000a
:10162c00f0f7880092ef8000a3ef8000009b200071
:10163c0001002000800f5100818f590011003600ed
:10164c000000eb00b0f78800a1f1210000c1b3004d
:10165c00804878006000b80090ef8800a1ef880007
:10166c000000eb00f0f788000000eb00b0ef880002
:10167c00f1152000300020008c1b0200000000003f
:10168c0067003700e015200020f08800a1f1210050
:10169c0040c0b3008048780061003700f0f780004c
:1016ac00e50f50000f0036000000eb00f0f788004b
:1016bc001a430200000000006101b80090ef8000a6
:1016cc00a1ef8000020040008380480090ef88006a
:1016dc00a1ef8800b0ef80000000e800b0ef8800b8
:1016ec003c010700b0ef8000ef0f50004c003600bb
:1016fc0090ef8000a1ef8000cc09dd004400de00fb
:10170c0000807100c408de0090ef8800a1ef880013
:10171c000000eb00f0f7880092ef8000a3ef800050
:10172c00009b200001002000800f5100818f590088
:10173c00100036003f01070080007800009b20005d
:10174c00808f500005003600a1f1210010c1b300bc
:10175c0080487800bc0007003100370000162000dc
:10176c0020f08800a1f1210040c0b300804878002f
:10177c002b003700a022020000000000f015200012
:10178c0020f08800a1f1210040c0b300804878000f
:10179c0023003700b1f78000803e2000808f50007e
:1017ac001f003600883a0200000000000000eb0029
:1017bc0030fa880001f421000040eb0080487800ea
:1017cc00c1f521000040eb00804878000002eb00de
:1017dc008001eb000001eb008000eb00400e2000cc
:1017ec0028170200000000000002eb008001eb0053
:1017fc000001eb008000eb00400e200028170200d7
:10180c000000000006003700c1f5210040c0b30005
:10181c0080487800a1f121000040eb00804878005e
:10182c004f0478000080fa00000006000200fa0065
:10183c000040eb00004f7800080037001e80fb00d2
:10184c004300dd008080e80000e1210000814000c1
:10185c006000b8000089be001e4fe80070c0b300e5
:10186c009e4f1000f5ff36000080fa0000000600c5
:10187c000200fa000040eb00004f7800080037002f
:10188c001e80fb004300dd008080e80000e12100a9
:10189c00008140006000b8000089be001e4fe800c7
:1018ac0070c0b3009e4f1000f5ff36000080fa00a8
:1018bc00000006000200fa00e0e021008040eb008e
:1018cc00014878000040eb00004f7800150037000d
:1018dc001e80fb00c300dd0000e121008080400081
:1018ec000040eb00804878001e80fb004300dd00c8
:1018fc008080e80000e12100008140006000b80019
:10190c000089be001e80fb004300dd00e6004000a5
:10191c0000e12100808040000000eb00800878008e
:10192c001e4fe80070c0b3009e4f1000e8ff360059
:10193c000080fa00000006000200fa00881f780000
:10194c00004f7800a0f12100104078000080fb00cf
:10195c00e80f5000010032002800370000df2100a2
:10196c00104478000000eb00801f78002703200053
:10197c000043eb00f5c3b3000042eb008041eb00e9
:10198c00f2c3b3008040eb0008407800d01a02008c
:10199c00000000008f87e90000df21001040780074
:1019ac000080fb001c00070000df210010407800c5
:1019bc008040e80000df21000148780000df2100b2
:1019cc00104078008080fb0000df21001040780080
:1019dc000081fb0081017800f10f2000800f2000b6
:1019ec0092190200000000000000eb00d0f7880004
:1019fc00a1f1210090c0b300804878004f0478001a
:101a0c000080fa00000006000200fa00000f7800c7
:101a1c000080fa00000006000000fa000043eb0012
:101a2c008042eb000042eb0013c0b30000c1eb009e
:101a3c008040eb0000c0eb0080240200000000009e
:101a4c000080fa00000006000200fa000040eb00e3
:101a5c00004f780022003700d0f2210010407800af
:101a6c008080fb001e80fb00000040008043eb00e8
:101a7c0001037800853e20000042eb00130020009b
:101a8c000041eb008040eb00162302000000000038
:101a9c00743a020000000000d0f2210010407800df
:101aac008080fb001e80fb00000040000040e8002e
:101abc008043eb0001037800853e20000042eb00e0
:101acc001300200012c0b30011c0b3001623020093
:101adc0000000000743a0200000000001e4fe800f5
:101aec0020c0b3009e4f1000dbff3600e0f5210054
:101afc008040eb0001487800743a020000000000be
:101b0c00010820000040eb003e2102000000000014
:101b1c00743a0200000000001108200010c0b3004d
:101b2c003e210200000000000000eb00b0f788002e
:101b3c000080fa00000006000400fa00881f7800fc
:101b4c0020479800a0df21000017020000000000d1
:101b5c00202f2000d0ef8800d0df2100ae40900075
:101b6c0001487800c1df210070c0b30080487800c4
:101b7c0020c0b300004f78000c0037001e84fb001f
:101b8c00f60302000000000080007800f00f200037
:101b9c000088b900004178008880e800a0df2100af
:101bac0000804000024878001e4fe80070c0b3006f
:101bbc009e4f1000f1ff360020882000a1df21008d
:101bcc000c0f0200000000004f0478000080fa00a7
:101bdc00000006000200fa000040eb00004f780005
:101bec000f003700a0df21000017020000000000ea
:101bfc00202f2000d0ef8800d0df21001e48780075
:101c0c00c1df210050c0b30080487800208820003c
:101c1c00a1df21000c0f0200000000001e4fe800a5
:101c2c0070c0b3009e4f1000eeff36000080fa002b
:101c3c00000006000400fa000080eb00100798007a
:101c4c000040eb00004f7800110037001e80fb00b5
:101c5c004300dd00e600400000e121000080400070
:101c6c00900078001e009000808f5000070031001b
:101c7c001e80fb004300dd00e600400000e1210077
:101c8c000080400090007800110798001e4fe8007b
:101c9c0070c0b3009e4f1000ecff36001e00900089
:101cac000080fa00000006000200fa00a187200064
:101cbc001000200090009800a18720001000200048
:101ccc00a0009800a187200000082000b000980018
:101cdc00a187200020e520008008780021882000c2
:101cec001000200090009800218820001000200097
:101cfc00a00098002188200040092000b000980026
:101d0c0021882000a0882000800878000000eb00cb
:101d1c00000f780007003700a08720001001780022
:101d2c001e0078006a00b900000041003104070071
:101d3c001e0fe800f00720009e0f1000f6ff360083
:101d4c000000eb00000f780007003700208820000f
:101d5c00100178001e0078006a00b90000004100f4
:101d6c00240407001e0fe800300920009e0f10000d
:101d7c00f6ff36000080fa00000006000400fa00ae
:101d8c00000f78001e007800900090001e00780074
:101d9c0020009000808f50000a0036001e00780052
:101dac00b00090001e007800100090008080500061
:101dbc001e007800200090008080400011079800e1
:101dcc000f0037001e007800a00090001e00780065
:101ddc0010009000808f5000070036001e00780025
:101dec00a00090001e007800100090008080500031
:101dfc0011079800020037000000eb001007980054
:101e0c001e0090000080fa00000006000600fa0098
:101e1c0010079800210798001e0090001001780010
:101e2c001e009000200090006a00b9008000410064
:101e3c002e00900010007800800878000040eb0025
:101e4c00004f7800100037001e0090001001780041
:101e5c001e009000200090006a00b90000014100b3
:101e6c009e81fb001e80fb00ae0090000080e8000d
:101e7c0001004000904078000380e8000200400020
:101e8c00014878001e4fe80070c0b3009e4f100050
:101e9c00edff36001e009000200090008000e8004e
:101eac001e009000210098001e009000a0009000e1
:101ebc001e00900030009000808f5000030039000d
:101ecc009e0090000000eb00a00098000080fa003b
:101edc00000006000600fa00100798002107980081
:101eec001e009000100178001e0090001000900061
:101efc006a00b90000004100900078002e009000ac
:101f0c00010878000040eb00004f7800100037000b
:101f1c009e81fb001e009000100178001e009000b6
:101f2c00100090006a00b900800041001e80fb0088
:101f3c000080e8000100400010417800ae009000e5
:101f4c000380e80001004000024878001e4fe800c2
:101f5c0070c0b3009e4f1000edff36001e009000c5
:101f6c00100090008000e8001e0090001100980006
:101f7c001e009000900090001e0090003000900019
:101f8c00808f5000030039009e0090000000eb0091
:101f9c00900098000080fa00000006003600f8005f
:101fac00809fbe00829fbe00849fbe00869fbe00a5
:101fbc003400f80000002000a00188000200fa00a4
:101fcc008760a90096c3bf00614060000004e00078
:101fdc0035003200001c80004200de00000f78004b
:101fec00f00f20009e0f100003003600f01f2000a1
:101ffc009e0f1000290036001e0078002043880038
:10200c00301c8000804078006086200001487800f9
:10201c00301c80004800de00804078007086200074
:10202c0001487800401c80008040780080862000a9
:10203c0001487800401c80004800de008040780099
:10204c009086200001487800501c80008040780069
:10205c00a086200001487800501c80004800de005b
:10206c0080407800b086200001487800601c800019
:10207c0080407800c086200001487800601c8000f9
:10208c004800de0080407800d086200001487800af
:10209c00a0872000418620005cff07009603a90062
:1020ac000000eb00701c880096c3bf00624060000b
:1020bc000004e00035003200001c80004200de000d
:1020cc00000f7800f00f20009e0f10000300360068
:1020dc00f01f20009e0f1000290036001e00780013
:1020ec0020438800301c80008040780060862000ef
:1020fc0001487800301c80004800de0080407800e9
:10210c007086200001487800401c800080407800d8
:10211c008086200001487800401c80004800de00ca
:10212c00804078009086200001487800501c800088
:10213c0080407800a086200001487800501c800068
:10214c004800de0080407800b0862000014878000e
:10215c00601c800080407800c08620000148780018
:10216c00601c80004800de0080407800d086200093
:10217c0001487800a08720004186200023ff07003b
:10218c009623a9000000eb00f01b880096c3bf004b
:10219c000042b2000004e0000500320028020200f8
:1021ac000000000097e3a90097c3a90096a3a9001b
:1021bc000080fa003400f9004f03be004f02be004d
:1021cc004f01be004f00be003600f9000040060073
:1021dc000000fa0020882000e8fe07000000e00064
:1021ec0038003200701b80004300de000000a200ab
:1021fc00610060000004e000320032009643a90048
:10220c0000042000201b880020882000e18620008c
:10221c0030ff0700704380002b030700001b880071
:10222c0000872000104078008080fb001087200081
:10223c00104078000080fb004800dd00008070003a
:10224c00301b880020872000104078008080fb0025
:10225c0030872000104078000080fb004800dd0033
:10226c0000807000401b88004087200010407800e0
:10227c008080fb0050872000104078000080fb001d
:10228c004800dd0000807000501b88006087200033
:10229c00104078008080fb00708720001040780090
:1022ac000080fb004800dd0000807000601b88008f
:1022bc0030002000701b8800701b80000030a000d4
:1022cc00701b880020882000acfe07000000e00096
:1022dc0038003200f01a80004300de000000a2003b
:1022ec00610060000004e000320032009663a90037
:1022fc0000042000a01a880020882000e18620001d
:10230c00f4fe070070438000ef020700801a88007b
:10231c0000872000104078008080fb001087200090
:10232c00104078000080fb004800dd000080700049
:10233c00b01a880020872000104078008080fb00b5
:10234c0030872000104078000080fb004800dd0042
:10235c0000807000c01a8800408720001040780070
:10236c008080fb0050872000104078000080fb002c
:10237c004800dd0000807000d01a880060872000c3
:10238c00104078008080fb0070872000104078009f
:10239c000080fb004800dd0000807000e01a88001f
:1023ac0030002000f01a8800f01a80000030a000e5
:1023bc00f01a88002088200070fe07000000e00062
:1023cc0038003200701a80004300de000000a200ca
:1023dc00610060000004e000320032009683a90026
:1023ec0000042000201a880020882000e1862000ac
:1023fc00b8fe070070438000b3020700001a880083
:10240c0000872000104078008080fb00108720009f
:10241c00104078000080fb004800dd000080700058
:10242c00301a880020872000104078008080fb0044
:10243c0030872000104078000080fb004800dd0051
:10244c0000807000401a88004087200010407800ff
:10245c008080fb0050872000104078000080fb003b
:10246c004800dd0000807000501a88006087200052
:10247c00104078008080fb007087200010407800ae
:10248c000080fb004800dd0000807000601a8800ae
:10249c0030002000701a8800701a80000030a000f4
:1024ac00701a88000080fa00000006001400fa0080
:1024bc00a087200031fe0700300798000000eb00d9
:1024cc004007980045023700a0872000a185200016
:1024dc0080fe0700d1428000f01f2000808f50004a
:1024ec0032003600d1428000f0232000808f500053
:1024fc002e003e00d0f5210010407800e14f500036
:10250c002a003a00d0428000c300dd0000002f00fa
:10251c0000804000200798000000eb005007980056
:10252c000d003700ae0090005e009000008140006e
:10253c005e0090008080e800a085200000804000b4
:10254c009040780080ae2100017178005e00900010
:10255c000000e800500798005e009000e70f500064
:10256c00f0ff36000085200022020700002f20001b
:10257c00804288002185200070cfb300804878000d
:10258c003185200060c8b30080487800d0428000bc
:10259c008040780040852000014878002088200089
:1025ac000185200019fe070009023700d042800087
:1025bc00100f9800300f20009e089000808f500064
:1025cc00f5013200300f20001e099000800f5100e1
:1025dc0009003e00000f20009e089000808f5000e4
:1025ec00e8013200100f20001e099000800f5100ee
:1025fc00f7013200f6013700102f20009e089000e2
:10260c00808f500019013200102f20001e099000fd
:10261c00800f510005003e00002f20009e08900006
:10262c00808f500093003200e9013700202f2000ea
:10263c001e099000800f510005003200302f200041
:10264c009e089000808f5000c2013200e0013700dc
:10265c00c085200010407800e24f500011003a0075
:10266c00e0e02100104078008040e800e0e021002c
:10267c0001487800d0852000104078000081fb00d4
:10268c00c310dd0000e12100008040001040780004
:10269c008041e800c310dd0000e121000080400013
:1026ac0003487800c085200010407800e84f5000a7
:1026bc0009003a00e0f88000f1f880006100400069
:1026cc00e0804800e0f88800f1f8880041f2210031
:1026dc0010c0b30080487800c085200010407800fe
:1026ec00e64f500014003a00d085200010407800ce
:1026fc00e94f400010003200d085200010407800d7
:10270c008081fb00f0852000104078000080fb00e9
:10271c00c800dd00e0852000104078000080fb0040
:10272c00008140004318dd00e600400000e121007c
:10273c000080400002087800d0852000104078000e
:10274c00e94f4000a2013a00c085200010407800fb
:10275c000080fb00000f98000e099000e50f51005f
:10276c002a0032000e089000e70f500001003200e2
:10277c0097013700008520009e010700202f2000c4
:10278c00804288002185200080c0b30080487800fa
:10279c003185200070cfb30080487800e0852000a0
:1027ac00904078004085200001487800f08520009a
:1027bc009040780050852000014878000086200069
:1027cc009040780060852000014878001086200039
:1027dc009040780070852000014878002086200009
:1027ec0090407800808520000148780030862000d9
:1027fc0090407800908520000148780020882000c7
:10280c000185200081fd0700710137001a43020089
:10281c0000000000c04388000085200075010700ff
:10282c00202f2000804288002185200060c0b3004a
:10283c00804878003185200070cfb3008048780044
:10284c00c04380008040780040852000014878001b
:10285c00c04380004800de00804078005085200096
:10286c0001487800208820000185200067fd0700c2
:10287c0057013700c085200010407800e94f400018
:10288c0053013a00d0852000104078000080fb00f6
:10289c0070079800fe009000e28f50002a00320072
:1028ac007e019000e20f510004003c007e0090007d
:1028bc00e10f50000800320045013700fe00900087
:1028cc00e38f5000310032007e019000e40f510084
:1028dc003f0032003e0137000000eb00500798002b
:1028ec00070037005e01900081ae21000040eb0034
:1028fc0000f178005e0090000000e800500798009e
:10290c00de009000f01f2000808f5000f5ff360095
:10291c000085200037010700002f2000804288002e
:10292c002185200070cfb3008048780031852000cd
:10293c0010c8b30080487800208820000185200052
:10294c0032fd070022013700d1f5210010c0b30081
:10295c00804878000085200026010700002f200009
:10296c00804288002185200070cfb3008048780019
:10297c003185200020c8b3008048780020882000d2
:10298c000185200021fd070011013700d1f5210040
:10299c000040eb00804878000085200015010700fe
:1029ac00002f2000804288002185200070cfb300ca
:1029bc00804878003185200030c8b300804878000a
:1029cc00208820000185200010fd07000001370041
:1029dc00d0f5210010407800e14f5000fc003a0087
:1029ec00e0852000104078000080fb004300dd00f3
:1029fc002007980000852000fe000700e0852000dd
:102a0c00104078000080fb000024b0008042880059
:102a1c000000eb00500798000d003700de0190001d
:102a2c00ae0090005e0090008080400080ae2100df
:102a3c00614178008380e800008520000080400020
:102a4c00024878005e0090000000e80050079800f3
:102a5c005e009000e70f5000f0ff36002088200049
:102a6c0001852000e9fc0700d9003700c085200053
:102a7c0010407800e94f4000d5003a00e085200076
:102a8c00104078000081fb0003002000f08520003e
:102a9c00104078000080fb0001002000c808dd0019
:102aac000080fd00804078000040eb0002014000f7
:102abc008381480000862000104078000080fb00d5
:102acc0001002000c000dd000000200002014000d9
:102adc008381480010862000104078000080fb00a5
:102aec0001002000c800dd0000002000001f410094
:102afc0001974900d0852000104078000080fb0031
:102b0c00600798006e009000e10f50003400320016
:102b1c00ee009000e28f5000620032006e019000d7
:102b2c000200e00001003200a900370082ae210053
:102b3c001e00be00be330200000000001e00be00de
:102b4c00f03102000000000000852000a900070001
:102b5c00102f2000804288002185200070cfb30008
:102b6c00804878003185200000c8b3008048780088
:102b7c001e007800804078004085200001487800d5
:102b8c001e00be004809dd004800de000000710098
:102b9c00c808de008040780050852000014878008d
:102bac001e00be004008de000100200080407800be
:102bbc0060852000014878001e00be004808de0039
:102bcc0001002000804078007085200001487800ca
:102bdc0020882000018520008cfc07007c00370039
:102bec0082ae21001e00be000e3302000000000069
:102bfc0082ae21001e00be00be33020000000000a9
:102c0c001e00be00f0310200000000000085200014
:102c1c0078000700102f20008042880021852000ba
:102c2c0070cfb300804878003185200010c8b30005
:102c3c00804878001e007800804078004085200095
:102c4c00014878001e00be004809dd004800de0087
:102c5c0000007100c808de0080407800508520001c
:102c6c00014878001e00be004008de000100200074
:102c7c008040780060852000014878001e00be006e
:102c8c004808de000100200080407800708520009c
:102c9c000148780020882000018520005bfc07009b
:102cac004b0037001e00be006a340200000000001a
:102cbc001e00be00f0310200000000000085200064
:102ccc004c000700102f2000804288002185200036
:102cdc0070cfb300804878003185200020c8b30045
:102cec00804878001e0078008040780040852000e5
:102cfc00014878001e00be004809dd004800de00d7
:102d0c0000007100c808de0080407800508520006b
:102d1c00014878001e00be004008de0001002000c3
:102d2c008040780060852000014878001e00be00bd
:102d3c004808de00010020008040780070852000eb
:102d4c000148780020882000018520002ffc070016
:102d5c001f003700c085200090407800c0f521008e
:102d6c0001487800a1f121000040eb008048780078
:102d7c00e43d0200000000000000eb0030fa880087
:102d8c0013003700c085200010407800ce3e0200b2
:102d9c00000000000e003700e08520009040780015
:102dac00c0f4210001487800f085200090407800a4
:102dbc00d0f4210001487800008620009040780073
:102dcc00e0f4210001487800863f0200000000007a
:102ddc004e0090000000e80040079800ce009000e4
:102dec003e009000808f5000b7fd39000080fa0043
:102dfc00000006000400fa00100798000040eb00e9
:102e0c00004f7800070037001e80fb009e009000ea
:102e1c000080e800810040000040eb008048780012
:102e2c001e4fe80070c0b3009e4f1000f6ff360036
:102e3c009e0090000000eb00800878000080fa00f3
:102e4c00000006001400fa00500798006107980073
:102e5c0072079800030f9800140f98005e00900002
:102e6c00000f78006e009000204798006e009000d4
:102e7c004800de00304798007e00900040479800e4
:102e8c007e0090004800de00504798000e0890002d
:102e9c00604798000e0890004800de0070479800cc
:102eac001e089000004f98001e0890004800de009d
:102ebc00104f9800208820008e007800d3fb07006c
:102ecc000080fa00000006000200fa00000f7800f3
:102edc00f00320001e006000c200dd00007c20001a
:102eec001e0060004500dd00008040000080fa00fc
:102efc00000006000000fa006bfb070000c0200079
:102f0c002c0202000000000090c3bf000080fb00f8
:102f1c004500de000080fb00e30f5000faff340098
:102f2c00912820000000eb0032020200000000009b
:102f3c006011b8008000eb000040eb00380202008a
:102f4c00000000006011b8008000eb0010c0b3005e
:102f5c0038020200000000006011b8008000eb0095
:102f6c0020c0b30038020200000000006011b8005d
:102f7c008000eb0030c0b3003802020000000000fb
:102f8c006011b8008000eb0040c0b30038020200b2
:102f9c00000000006011b8008000eb000040eb0066
:102fac0090020200000000006011b8008000eb00ed
:102fbc0010c0b3009002020000000000310020009d
:102fcc000040eb00ac0202000000000031002000c9
:102fdc0010c0b300ac020200000000003100200061
:102fec0020c0b300ac020200000000004100200031
:102ffc000040eb00c2020200000000004100200073
:10300c0010c0b300c202020000000000e1ff2f005c
:10301c0030022000d20202000000000000802000dc
:10302c00f60202000000000090c3bf0001ceb30006
:10303c00014060000004e000fbff3a000080fa0051
:10304c00000006000400fa00100798009e00900093
:10305c0020442800614078000000fb00000f78003d
:10306c001e0078000080fa00000006000800fa003c
:10307c00881f78002007980031079800be00900048
:10308c00703e2000808f500031003e003e009000ca
:10309c00a2002000110009000280d8008000fd0071
:1030ac00e8ff07004800dd00f0f688003e009000c5
:1030bc00a2002000110009000280d800a20020000c
:1030cc00110009000280d8008000fd00ddff070020
:1030dc00100798003e0090004206200011000900e5
:1030ec000280d800a2002000110009000280d80044
:1030fc008000fd00d3ff0700000f7800f0032000d4
:10310c009e0f100002003a000000eb00000f780048
:10311c001e00e00006003a009e009000f003200024
:10312c00808f500002003a000000eb00100798005e
:10313c00f1f680001e00900000804000f0f6880040
:10314c001e0078004800dd00e0f68800040037001f
:10315c000000eb00f0f688000000eb00e0f68800c1
:10316c00ae009000703e2000808f50002f003e007b
:10317c00e8f680002e009000a2002000110009004b
:10318c000280d8008000fd00aeff07000000440064
:10319c00e0f688002e009000a2002000110009002b
:1031ac000280d800a2002000110009000280d80083
:1031bc008000fd00a3ff0700100798002e00900070
:1031cc0042062000110009000280d800a200200055
:1031dc00110009000280d8008000fd0099ff070053
:1031ec00000f7800f00320009e0f100002003a0040
:1031fc000000eb00000f78001e00e00006003a0013
:10320c009e009000f0032000808f500002003a00d6
:10321c000000eb00100798001e0090004800dd0035
:10322c001e004000d0f6880006003700e1f6800052
:10323c0000f02f0000806000e0f688000000eb003a
:10324c00d0f688004f0478000080fa0000000600d9
:10325c000600fa00000f780011079800220798006a
:10326c0030672000d0f688000000eb00e0f6880004
:10327c002e009000e20f500003003a0030b72500fa
:10328c00f0f68800020037000000eb00f0f6880032
:10329c00f2f68000e3f68000d5f680001e00900068
:1032ac004800dd009e004000020278000501780015
:1032bc000007200028170200000000000080fa0020
:1032cc00000006000800fa00000f780011079800b3
:1032dc002207980033079800be0090002e00900043
:1032ec0062ff0700f2f68000e3f68000d5f680005e
:1032fc001e0090004800dd009e0040000202780095
:10330c0005017800000720002817020000000000cb
:10331c000080fa00000006000800fa00000f780098
:10332c00110798002207980033079800be00900000
:10333c002e0090004dff070070e72500d0f68800a6
:10334c00e1f6800000f02f0000806000e0f68800bd
:10335c00e1f680000005200000807000e0f6880097
:10336c00f2f68000e3f68000d5f680001e00900097
:10337c004800dd009e004000020278000501780044
:10338c000007200028170200000000000080fa004f
:10339c00000006000c00fa00000f780011079800de
:1033ac002207980033079800044f9800154f980097
:1033bc00264f9800be0090002e0090002bff0700b7
:1033cc000e4890008080fb00f0fb2f0080804000b6
:1033dc0080422800614078000001fb001e489000ec
:1033ec008080fb00f0fb2f00808040008042280092
:1033fc00614078000000fb004800dd000000410047
:10340c00d0f68800e1f6800000f02f00008060000c
:10341c00e0f68800e2f680002e4890008080fb00e9
:10342c00f0fb2f0080804000804228006140780033
:10343c000000fb0000007100e0f68800f2f680004e
:10344c00e3f68000d5f680001e0090004800dd00f9
:10345c009e00400002027800050178000007200061
:10346c0028170200000000000080fa00000006008f
:10347c000a00fa00000f78001107980042479800e4
:10348c00534798006447980075479800064f98007a
:10349c00174f98004e4090008080fb00f0fb2f00ef
:1034ac008080400080422800614078000001fb00d1
:1034bc005e4090008080fb00f0fb2f00808040007d
:1034cc0080422800614078000000fb004800dd00cd
:1034dc0000004100d0f688006e4090008080fb0018
:1034ec00f0fb2f0080804000804228006140780073
:1034fc000001fb007e4090008080fb00f0fb2f0061
:10350c008080400080422800614078000000fb0071
:10351c004800dd0000004100e0f688000e489000f5
:10352c008080fb00f0fb2f00808040008042280050
:10353c00614078000001fb001e4890008080fb0079
:10354c00f0fb2f0080804000804228006140780012
:10355c000000fb004800dd0000004100f0f6880090
:10356c00f2f68000e3f68000d5f680001e00900095
:10357c004800dd009e004000020278000501780042
:10358c000007200028170200000000000080fa004d
:10359c00000006001200fa00004f9800114f98002e
:1035ac00224f9800334f9800444f9800554f980085
:1035bc00664f9800070f98001e4890008080fb0013
:1035cc00f0032000008160002e4890008080fb00fa
:1035dc00f0032000008060004600dd008000410008
:1035ec003e4890000080fb006f0060004c00dd0046
:1035fc0000804000300798003e4890008080fb001f
:10360c0000032000008060004481de004e489000e2
:10361c008080fb00f0032000008060004200dd0091
:10362c00000141005e4890008080fb00f003200008
:10363c00008060004800dd00800041006e48900072
:10364c000080fb00630060004e00dd000080400045
:10365c00200798006e4890008080fb00c00320007b
:10366c00008060004280de00000178008e0890002f
:10367c00f03f2000008060004400dd00800041002d
:10368c004eb89700630060004e00dd0000804000e3
:10369c0010079800ceb89700c03f20000080600053
:1036ac00c200de000e4890000080fb004800dd00e8
:1036bc00008f40001e0278009e0190002e019000a9
:1036cc00be0090000001200028170200000000003e
:1036dc000080fa00000006000600fa00004f780097
:1036ec0011079800220798009e80fb000002eb0057
:1036fc00ae0190001e019000200720002817020048
:10370c00000000000080fa00000006000a00fa0029
:10371c0020079800310798002e0090004007980071
:10372c004e009000e20f50001f0032004e0090003f
:10373c00e20f500007003e004e0090000000e00039
:10374c000b0032004e009000e10f50000f003200d1
:10375c00290037004e009000e30f50001900320092
:10376c004e009000e40f50001d0032002200370084
:10377c0060c5b30020479800f0c4b3001047980010
:10378c00c0c4b300004f78001b00370020c4b30046
:10379c002047980020c5b3001047980090c4b30090
:1037ac00004f78001400370050c4b3002047980035
:1037bc0020c5b3001047980020c5b300004f780017
:1037cc000d00370040c4b3002047980090c4b300ec
:1037dc001047980010c4b300004f78000600370063
:1037ec0060c5b3002047980050c4b3001047980040
:1037fc0020c5b300004f78001e4078009e4090001a
:10380c002e419000004378008142780002427800fb
:10381c00be0190000001eb00f10f2000800f200092
:10382c00dcfe07000080fa00000006000a00fa0027
:10383c00000f7800214798003247980043479800c2
:10384c00544798006547980076479800074f9800b2
:10385c003e4090008080fb002044280061407800ae
:10386c000001fb004e4090008080fb0020442800ab
:10387c00614078000000fb004800dd0000004100c2
:10388c00d0f688005e4090008080fb002044280029
:10389c00614078000001fb006e4090008080fb00ce
:1038ac0020442800614078000000fb004800dd0047
:1038bc0000004100e0f688007e4090008080fb0014
:1038cc0020442800614078000001fb000e48900065
:1038dc008080fb0020442800614078000000fb0041
:1038ec004800dd0000004100f0f68800f2f6800090
:1038fc00e3f68000d5f680002e4090000080fb009f
:10390c004800dd009e0040000202780005017800ae
:10391c000007200028170200000000000080fa00b9
:10392c00000006000600fa00881f780040f98000ad
:10393c0051f98000a200200003002000c001020009
:10394c00000000005047980040f9800051f98000b9
:10395c00a200200003002000a001020000000000d3
:10396c00a200200003002000c001020000000000a3
:10397c004047980040f9800051f980004206200031
:10398c0003002000a001020000000000a2002000a3
:10399c0003002000c0010200000000003047980026
:1039ac0040f9800051f98000823e20000300200085
:1039bc00a001020000000000a20020000300200073
:1039cc00c0010200000000002047980040f9800070
:1039dc0051f980000271220003002000a0010200b6
:1039ec0000000000a200200003002000c001020023
:1039fc00000000001047980040f9800051f9800049
:103a0c00026a280013002000a00102000000000040
:103a1c00a200200003002000c001020000000000f2
:103a2c00004f7800de4390004e409000be40900066
:103a3c002e4190009e4190001e4478000043780077
:103a4c0081427800024278000841780080c0eb0087
:103a5c00800f200075ff07004f0478000080fa00eb
:103a6c00000006000000fa000000eb0000f78800e0
:103a7c000000eb0010f7880041ee21000040eb0045
:103a8c008048780051ee21000040eb00804878001f
:103a9c000000eb0030f788000000eb0040f78800d6
:103aac00a1ee21000040eb0080487800b1ee21002f
:103abc000040eb0080487800c1ee210090c1b300bb
:103acc0080487800d1ee210090c1b3008048780086
:103adc0011ef210010c0b300804878000000eb000b
:103aec0070f7880001ef21000040eb00804878005f
:103afc000080fa00000006000400fa0000ef21002c
:103b0c0010407800e14f50006e003a0040ee21006a
:103b1c00104078000080fb00100798001e009000f9
:103b2c00e10f50000f0032001e009000e20f500019
:103b3c002400320011fa8000703e2000808f50006b
:103b4c0005003600703e200010fa8800703e200000
:103b5c0030f788001d00370010fa800030f788001d
:103b6c001a003700c0ee2100104078008080fb0066
:103b7c0000f78000808f5000140031000000eb0033
:103b8c0000f78800a0ee2100104078000004e0004f
:103b9c0006003a00a0ee210011c0b30001487800e5
:103bac0010fa800030f7880008003700a0ee2100e2
:103bbc008040eb0001487800803e200030f7880000
:103bcc0002003700803e200030f7880050ee2100c4
:103bdc00104078000080fb00000f78001e00780079
:103bec00e10f50000f0032001e007800e20f500071
:103bfc002400320021fa8000703e2000808f50009b
:103c0c0005003600703e200020fa8800703e20002f
:103c1c0040f788001d00370020fa800040f788002c
:103c2c001a003700c0ee2100104078008080fb00a5
:103c3c0010f78000808f5000140031000000eb0062
:103c4c0010f78800b0ee2100104078000004e0006e
:103c5c0006003a00b0ee210011c0b3000148780014
:103c6c0020fa800040f7880008003700b0ee2100f1
:103c7c008040eb0001487800803e200040f788002f
:103c8c0002003700803e200040f7880010ef210032
:103c9c00104078008080fb0070f78000808f50000f
:103cac00080031000000eb0070f7880040f780003e
:103cbc0032f7800080017800f10f2000800f200087
:103ccc0080fd07000080fa00000006000000fa00ea
:103cdc000000eb0000f788000000eb0010f78800f4
:103cec00a1ee21000040eb0080487800b1ee2100ed
:103cfc000040eb00804878000080fa0000000600cd
:103d0c000200fa00004f7800114798001e40900006
:103d1c000080fb0080c3eb00000378008082eb0086
:103d2c000042eb00130020001e4178009e407800fa
:103d3c000040eb003a0207001e4090000080fb00a0
:103d4c0080c3eb00000378008082eb000042eb00a4
:103d5c00130020001e4178009e40780010c0b30074
:103d6c002f0207001e4090000080fb0080c3eb0078
:103d7c00000378008082eb000042eb00130020006f
:103d8c001e4178009e40780020c0b300240207003a
:103d9c001e4090000080fb0080c3eb000003780005
:103dac008082eb000042eb00130020001e417800e3
:103dbc009e40780030c0b300190207001e409000ee
:103dcc000080fb0080c3eb00000378008082eb00d6
:103ddc000042eb00130020001e4178009e4078004a
:103dec0040c0b3000e0207001e4090000080fb0094
:103dfc0080c3eb00000378008082eb000042eb00f4
:103e0c00130020001e4178009e40780050c0b30083
:103e1c00030207001e4090000080fb0080c3eb00f3
:103e2c00000378008082eb000042eb0013002000be
:103e3c001e4178009e40780060c0b300f801070076
:103e4c001e4090000080fb0080c3eb000003780054
:103e5c008082eb000042eb00130020001e41780032
:103e6c009e40780070c0b300ed0107001e4090002a
:103e7c000080fb0080c3eb00000378008082eb0025
:103e8c000042eb00130020001e4178009e40780099
:103e9c0080c0b300e20107001e4090000080fb00d0
:103eac0080c3eb00000378008082eb000042eb0043
:103ebc00130020001e4178009e40780090c0b30093
:103ecc00d70107001e4090000080fb0080c3eb0070
:103edc00000378008082eb000042eb00130020000e
:103eec001e4178009e407800a0c0b300cc010700b2
:103efc001e4090000080fb0080c3eb0000037800a4
:103f0c008082eb000042eb00130020001e41780081
:103f1c009e407800b0c0b300c10107001e40900065
:103f2c000080fb0080c3eb00000378008082eb0074
:103f3c000042eb00130020001e4178009e407800e8
:103f4c00c0c0b300b60107001e4090000080fb000b
:103f5c0080c3eb00000378008082eb000042eb0092
:103f6c00130020001e4178009e407800d0c0b300a2
:103f7c00ab0107001e4090000080fb0080c3eb00eb
:103f8c00000378008082eb000042eb00130020005d
:103f9c001e4178009e407800e0c0b300a0010700ed
:103fac001e4090000080fb0080c3eb0000037800f3
:103fbc008082eb000042eb00130020001e417800d1
:103fcc009e407800f0c0b300950107000080fa0015
:103fdc00000006000600fa00e0f521001040780011
:103fec000004e000a0003a000000eb00200798005d
:103ffc009a0037002e00900081e5210060c0780007
:10400c000004e000920032002e009000c200dd009f
:10401c00c0e52100008040001001be0030c4b30098
:10402c0026350200000000002e0290002e009000a9
:10403c00c200dd00c0e52100008040001000be0081
:10404c000001be000204b0000380b000c220dd00fd
:10405c00c0e52100008040000288be002e009000c8
:10406c00c200dd00c0e52100008040001002be004f
:10407c002e009000c200dd00c0e621000080400050
:10408c001001be002e009000c200dd00c0e7210030
:10409c00008040001000be000200400083804800f9
:1040ac00800f5200818f5a000a0039002e029000b6
:1040bc002e009000c200dd00c0e621000080400010
:1040cc001001be00c220dd00c0e5210000804000d0
:1040dc000288be000000eb00100798005500370066
:1040ec00ae00900080e52100614078000080fb006c
:1040fc000000a200610060000004e0000300320038
:10410c0080002000000f7800020037000000eb0058
:10411c00000f78001e0090009e0040002e009000c2
:10412c004600dd0080814000ae00900080e521005b
:10413c00614078000080fb000000e90022002000b4
:10414c00110009000200d8004500dd00008041008c
:10415c000010b00060f488001e0090004300dd00e9
:10416c00000f78009e007800309e2100e14078001e
:10417c00e0e82100014878009e00e800309e210014
:10418c00e1407800f0e82100014878009e80e800ca
:10419c00309e2100e140780000e9210001487800c0
:1041ac001e007800e3004000309e2100e1407800c2
:1041bc0010e92100014878001e007800e40040005e
:1041cc00309e2100e140780020e921000148780070
:1041dc001e007800e5004000309e2100e140780090
:1041ec0030e92100014878001e007800e60040000c
:1041fc00309e2100e140780040e921000148780020
:10420c001e007800e7004000309e2100e14078005d
:10421c0050e921000148780020882000c1e82100e5
:10422c000c0f0200000000001e0090000000e800cf
:10423c00100798001e009000e70f5000a8ff3400f4
:10424c002e01900081e521000040eb0000f1780088
:10425c002e0090000000e800200798002e0090002f
:10426c00e30f500063ff34000080fa0000000600ea
:10427c001000fa00404f9800710798004e489000cb
:10428c0063406000404f98007e0090004300dd00ca
:10429c006101b80030c3b3002635020000000000f5
:1042ac00409e2100104078000080fb00010020009f
:1042bc004007980051079800509e2100104078004c
:1042cc000080fb00010020002007980031079800b7
:1042dc00609e2100104078000080fb00010020004f
:1042ec00008fbe004e4890000082fb004e009000f4
:1042fc00de0090004809dd00c801de00830171007a
:10430c004801dd002e009000be009000c000dd00d2
:10431c000000200002014000838148001e00be0006
:10432c00c800dd000000200002014000838148002d
:10433c00309e2100104078000080fb00010020001e
:10434c000201400083814800c220dd00c0e521004d
:10435c00008040000288be004e4890000082fb00a6
:10436c004e4890000080fb00c200dd00c0e521003b
:10437c00008040001001be00c220dd00c0e621001c
:10438c00008040000288be00809e21001040780012
:10439c000080fb00010020004007980051079800a6
:1043ac00909e2100104078000080fb00010020004e
:1043bc002007980031079800a09e2100104078003b
:1043cc000080fb0001002000008fbe004e489000d2
:1043dc000082fb004e009000de0090004809dd00da
:1043ec00c801de00830171004801dd002e00900041
:1043fc00be009000c000dd00000020000201400063
:10440c00838148001e00be00c800dd0000002000b3
:10441c000201400083814800309e2100104078004a
:10442c000080fb0001002000020140008381480055
:10443c00c220dd00c0e72100008040000288be00e1
:10444c000002eb008001eb000001eb008000eb00b0
:10445c00c008200028170200000000000002eb003a
:10446c008001eb000001eb008000eb00c008200095
:10447c0028170200000000000002eb008001eb0096
:10448c000001eb008000eb00c008200028170200a0
:10449c00000000004e4890008080fb000002eb0002
:1044ac008001eb000001eb00a0082000281702009f
:1044bc00000000004e4890000081fb0081f52100b7
:1044cc000040eb0000f178004e4890000081fb00aa
:1044dc0081e5210010c0b30000f178000080fa00e3
:1044ec00000006000400fa00004f78001147980005
:1044fc0022479800334798003e4090008081fb0093
:10450c002e4090008080fb001e4090000081fb003c
:10451c001e80fb0003027800810178008000780087
:10452c00f008200028170200000000000080fa00ac
:10453c00000006000000fa000002eb008001eb0016
:10454c000001eb008000eb00e008200028170200bf
:10455c00000000000080fa00000006000200fa00d3
:10456c00000f78000002eb008001eb000001eb0073
:10457c008000eb00c008200028170200000000009b
:10458c000002eb008001eb000001eb008000eb006f
:10459c00c008200028170200000000000002eb00f9
:1045ac008001eb000001eb008000eb00c008200054
:1045bc0028170200000000000002eb008001eb0055
:1045cc000001eb009e0078009008200028170200e4
:1045dc00000000000080fa00000006000a00fa004b
:1045ec00004f7800110798002207980033079800b5
:1045fc00440798001e80fb00630060000008b000b8
:10460c004e029000be0190002e0190009e00900082
:10461c0028170200000000000080fa0000000600cd
:10462c001200fa00404798005147980062479800e2
:10463c0043079800244f9800650798007607980068
:10464c00075798004e4090008080fb005e40900021
:10465c000080fb004800dd00808040006e40900030
:10466c000080fb004a00dd000080400080007800e4
:10467c004e0090004c00dd00808040002e489000e1
:10468c000080fb004d00dd0000804000100798000a
:10469c000e5090000080fb004800dd008000780088
:1046ac007e009000008f40000002eb009e0178001d
:1046bc006e0190009e0090008008200028170200d8
:1046cc00000000000080fa00000006000800fa005c
:1046dc00000f780011079800220798003307980004
:1046ec003e029000ae0190001e0190009e007800ea
:1046fc004008200028170200000000000080fa008b
:10470c00000006000000fa009120a8000080eb00d9
:10471c00f2010200000000000002eb001300200078
:10472c0072002000f1e32f00d0232f001c020200a6
:10473c00000000000080fa0000000600809fbe0010
:10474c003400f80000002000a00188000400fa00ea
:10475c0080f52100104078000040e800804078008f
:10476c0080f521000148780090f521001040780078
:10477c000040e8008040780090f521000148780066
:10478c00a0f52100104078000040e800804078003f
:10479c00a0f5210001487800b0f521001040780008
:1047ac000040e80080407800b0f521000148780016
:1047bc0080f52100104078008080fb00f003200081
:1047cc00008060000000e00008003a0080f5210045
:1047dc00104078000080fb004600de000040e8003e
:1047ec008040780080e521000148780090f5210098
:1047fc00104078008080fb00f003200000806000f7
:10480c000000e00008003a0090f52100104078000c
:10481c000080fb004600de000040e800804078008d
:10482c0090e5210001487800a0f5210010407800a7
:10483c008080fb00f0032000008060000000e0009e
:10484c0008003a00a0f52100104078000080fb0021
:10485c004600de000040e80080407800a0e5210022
:10486c0001487800b0f52100104078008080fb00f2
:10487c00f0032000008060000000e00008003a0017
:10488c00b0f52100104078000080fb004600de00ef
:10489c000040e80080407800b0e521000148780035
:1048ac008920a900801280001007980090128000c7
:1048bc0010079800a012800010079800b01280001a
:1048cc00100798001e007800c01288001e007800a7
:1048dc00d01288001e007800e01288001e007800bc
:1048ec00f01288000080fa003400f9004f00be007e
:1048fc00004006000800fa00004f780011479800ad
:10490c002247980033479800444798005547980031
:10491c00664798006e4090008081fb005e409000de
:10492c000080fb004800dd00800078004e409000c5
:10493c000080fb00808270003e4090000080fb00f5
:10494c004800dd00800078002e4090000080fb00c5
:10495c00008170001e4090000080fb004800dd00cc
:10496c00800078001e80fb008080700003027800bd
:10497c0085017800b0082000281702000000000014
:10498c000080fa00000006000000fa0041f321004c
:10499c000040eb00804878000000eb00b0f9880084
:1049ac000000eb00e0be88000080fa00000006006a
:1049bc000000fa000000eb0090f98800415921003a
:1049cc00a0cab3008048780051592100a0cab30096
:1049dc00804878006159210030c0b30080487800cd
:1049ec00715921000040eb0080487800815921006a
:1049fc0020c0b300804878009159210010c0b3004a
:104a0c0080487800a15921000040eb0080487800d4
:104a1c0071002000405921001c3a020000000000e7
:104a2c00f0a38800f0a3800080407800b0592100ea
:104a3c0001487800f0a380004800de008040780038
:104a4c00c059210001487800415a2100a0cab30086
:104a5c0080487800515a2100a0cab30080487800e1
:104a6c00615a210010c0b30080487800715a2100af
:104a7c000040eb0080487800815a210080c0b300d0
:104a8c008048780051002000405a21001c3a020056
:104a9c0000000000f0a38800f0a3800080407800a4
:104aac00905a210001487800f0a380004800de00f5
:104abc0080407800a05a210001487800415b210019
:104acc00a0cab30080487800515b2100a0cab30093
:104adc0080487800615b210010c0b30080487800ea
:104aec00715b21000040eb0080487800815b210065
:104afc0000c1b3008048780051002000405b2100c9
:104b0c001c3a020000000000f0a38800f0a3800013
:104b1c0080407800905b210001487800f0a3800071
:104b2c004800de0080407800a05b2100014878003e
:104b3c00415c2100a0cab30080487800515c210080
:104b4c00a0cab30080487800615c210010c0b3009b
:104b5c0080487800715c21000040eb0080487800b0
:104b6c00815c210020c1b3008048780051002000f6
:104b7c00405b21001c3a020000000000f0a38800fa
:104b8c00f0a3800080407800905c21000148780000
:104b9c00f0a380004800de0080407800a05c21007b
:104bac000148780041582100a0cab3008048780021
:104bbc0051582100a0cab3008048780061582100e8
:104bcc0010c0b30080487800715821000040eb0001
:104bdc00804878008158210010c0b30080487800cc
:104bec0051002000405821001c3a02000000000037
:104bfc00f0a38800f0a3800080407800905821003a
:104c0c0001487800f0a380004800de008040780066
:104c1c00a0582100014878000080fa00000006002e
:104c2c000600fa00204798000040eb00004f780087
:104c3c0040f32100104078000080fb002007980012
:104c4c002e009000e30f500040003200ae009000a8
:104c5c00e38f50000a003c002e009000e10f500042
:104c6c0022003200ae009000e18f50002e003c007c
:104c7c002e0090000000e0000b0032007c0037009a
:104c8c00ae009000e58f5000550032002e009000d1
:104c9c00e50f50003b003500ae009000e68f500051
:104cac005a00320072003700ae409000a0cab30028
:104cbc0080cf500007003a0040f3210011c0b30030
:104ccc0001487800605d2100ae40900001487800fa
:104cdc000300370041f321000040eb0080487800ce
:104cec000040eb00004f780066003700ae409000ab
:104cfc00a0cab30080cf500007003a0040f3210057
:104d0c0021c0b30001487800705d2100ae409000d6
:104d1c00014878005b00370041f321000040eb00b4
:104d2c0080487800570037002e4090000080fb0030
:104d3c00c0ae880041f3210030c0b3008048780039
:104d4c000040eb00004f78004e003700c1ae8000f1
:104d5c002e4090000080fb004800dd0000804000e9
:104d6c00c0ae88000000eb00b0f9880041f32100d0
:104d7c0040c0b300804878000040eb00004f780042
:104d8c0040003700b0f98000e4004000605d210075
:104d9c0000804000ae40900001487800b0f98000df
:104dac000000e800b0f98800c1ae8000b0f98000c6
:104dbc00808f500004003a0041f3210050c0b30032
:104dcc00804878000300370041f3210040c0b30055
:104ddc00804878000040eb00004f78002900370035
:104dec000000eb00d0be88002e4090000080fb003d
:104dfc00d0be880041f3210060c0b3008048780029
:104e0c000040eb00004f78001e003700d1be800040
:104e1c002e4090000080fb004800dd000080400028
:104e2c00d0be880041f321000040eb0080487800a0
:104e3c00c0ae8000e4004000605d21001c3a02001e
:104e4c0000000000e0be8800d1be8000e0be800003
:104e5c00808f500003003a0010c0b300004f780060
:104e6c000800370020c0b300004f78000500370061
:104e7c0040f321008040eb00014878000040eb003b
:104e8c00004f78001e80fb000080fa000000060036
:104e9c001400fa000000eb00200798000000eb0063
:104eac00100798000040eb00004f7800a05d210037
:104ebc00104078000080fb00300798003e00900006
:104ecc00e90f50003c013200be009000e98f500009
:104edc000a003c003e019000e70f510061003200d7
:104eec00be019000e78f5100bd003c003e029000d7
:104efc00e20f5200460032005f0137000002200032
:104f0c00be029000808f5200080032000009200081
:104f1c00be009000808f50004a0032003e0190008d
:104f2c00f30f51005001320053013700c0ae800026
:104f3c00e60f500054013a00b05d2100104078009b
:104f4c000080fb0020079800c05d21001040780015
:104f5c000080fb004800dd00800078002e009000ef
:104f6c000100700020079800d05d210010407800ef
:104f7c000080fb0010079800e05d210010407800d5
:104f8c000080fb004800dd00800078001e009000cf
:104f9c000100700010079800f05d2100104f7800a0
:104fac008043eb00f60f20009e0290000042eb00c5
:104fbc00130020001e4178009e40780000c0eb00da
:104fcc0016230200000000000000eb00801f780098
:104fdc00470620000043eb008042eb00f4c3b30013
:104fec008041eb000041eb00f1c3b30000c0eb00cb
:104ffc00d01a0200000000008f87e900ae0090007c
:10500c001e4078003e210200000000001e01370007
:10501c00c0ae8000e10f500005003a009100200066
:10502c00405921004c3902000000000016013700e5
:10503c0071002000405821004c3902000000000093
:10504c0011013700c0ae8000e20f50000e013a0093
:10505c00b05d210090407800c0f521000148780037
:10506c0009013700c0ae8000e30f500057003a0032
:10507c0021352100a0cab3008048780031352100c9
:10508c00a0cab300804878004135210010c0b3009d
:10509c00804878005135210010c0b300804878005a
:1050ac006135210070c0b30080487800b05d2100ec
:1050bc00104078000080fb0001002000c808dd00d3
:1050cc000080fd00804078000040eb0000ac8800c0
:1050dc0011ac8800c05d2100104078000080fb00fe
:1050ec0001002000c000dd000000200002002000b4
:1050fc00f30f200000027800810278000200780093
:10510c008300780000016200018062006102b80037
:10511c0044079800550798004e009000de00900060
:10512c00c000dd00000020004007980051079800e7
:10513c004e009000de0090006112b8004407980009
:10514c00550798004e019000de019000020070009f
:10515c008380700002ac800013ac800002007000f1
:10516c008380700000ac880011ac8800723521007f
:10517c0000ac800011ac80000e3302000000000077
:10518c0051102000203521001c3a020000000000c4
:10519c00f0a38800f0a380008040780070452100c7
:1051ac0001487800f0a380004800de0080407800c1
:1051bc008045210001487800711020002035210025
:1051cc004c39020000000000af00370071002000d5
:1051dc00405821004c39020000000000aa003700a2
:1051ec00c1ae800040102000808f50006d003a004e
:1051fc006000b80000ac880011ac8800b05d2100e4
:10520c00104078000080fb0001002000c808dd0081
:10521c000080fd00804078000040eb0000ac88006e
:10522c0011ac8800c05d2100104078000080fb00ac
:10523c0001002000c000dd00000020000200200062
:10524c00f30f200000027800810278000200780041
:10525c008300780000016200018062006102b800e6
:10526c0064079800750798006e009000fe0090008f
:10527c00c000dd0000002000600798007107980056
:10528c006e009000fe0090006112b8006407980058
:10529c00750798006e019000fe01900002007000ee
:1052ac008380700002ac800013ac800002007000a0
:1052bc008380700000ac880011ac8800d05d2100a8
:1052cc00104078000080fb0001002000c800dd00c9
:1052dc00000020000200200003f02f0000027800e4
:1052ec0081027800020078008300780000016200df
:1052fc00018062006102b800040f9800150f98003d
:10530c000e0890009e089000c000dd0000002000f8
:10531c00000f9800110f98000e0890009e08900046
:10532c006112b800040f9800150f98000e09900038
:10533c009e099000020070008380700002ac800017
:10534c0013ac8000020070008380700000ac8800f9
:10535c0011ac8800e25d210000ac800011ac800033
:10536c00be3302000000000000ac800011ac8000d5
:10537c00f031020000000000fc39020000000000c7
:10538c000000e000fcff3a0071002000405b2100af
:10539c004c390200000000000000eb00a0ae8800b9
:1053ac003900370071002000405821004c390200b0
:1053bc000000000034003700c0ae8000e30f500046
:1053cc0024003a006000b80000ac880011ac8800e2
:1053dc00b05d2100104078000080fb00010020002f
:1053ec00c001dd0002002000c05d210010407800eb
:1053fc000080fb0001002000c800dd000000200040
:10540c00000071008180710000ac880011ac880034
:10541c0000ac800011ac80006a3402000000000077
:10542c0000ac800011ac8000f031020000000000e4
:10543c00fc390200000000000000e000fcff3a0014
:10544c0071002000405b21004c390200000000007c
:10545c000d00370071002000405821004c3902002b
:10546c000000000008003700c1f5210030c0b30077
:10547c00804878000400370071002000405821005b
:10548c004c390200000000000080fa000000060009
:10549c000400fa00f4390200000000001007980024
:1054ac001e0090000000e0001b0032009e009000e7
:1054bc0000102000808f50000500360001102000e5
:1054cc00e07d21007c390200000000000400370060
:1054dc009e009000e07d21007c390200000000005d
:1054ec000000eb00000f7800080037009e007800e9
:1054fc00e07d210061407800c9fd0700e14f5000bc
:10550c0001003a0062fe07001e0fe8001e0090002a
:10551c009e0f1000f5ff39000080fa000000060015
:10552c000000fa008043eb00f6032000e50f20009a
:10553c000042eb00130020000041eb008040eb0028
:10554c0000c0eb00162302000000000051012000f7
:10555c000040eb003e210200000000000080fa0039
:10556c00000006000000fa008043eb00f603200068
:10557c00b52620000042eb00130020000041eb0098
:10558c008040eb0000c0eb0016230200000000007e
:10559c00110020000040eb003e2102000000000042
:1055ac000080fa00000006000000fa008043eb00c7
:1055bc00f6032000e50f20000042eb001300200052
:1055cc000041eb008040eb0000c0eb001623020012
:1055dc0000000000210020000040eb003e210200f2
:1055ec00000000000080fa00000006000000fa0035
:1055fc008043eb00f6032000a51920000042eb00cd
:10560c00130020000041eb008040eb0000c0eb00d9
:10561c001623020000000000410120000040eb00b6
:10562c003e210200000000000080fa00000006008d
:10563c000000fa008043eb00f6032000e503200095
:10564c000042eb00130020000041eb008040eb0017
:10565c0000c0eb001623020000000000c100200077
:10566c000040eb003e210200000000000080fa0028
:10567c00000006000000fa008043eb00f603200057
:10568c00e50720000042eb00130020000041eb0076
:10569c008040eb0000c0eb0016230200000000006d
:1056ac00310120000040eb003e2102000000000010
:1056bc000080fa00000006000200fa00f603020067
:1056cc000000000032002000110009000200d80088
:1056dc008000fd00000f78001e007800e10f5000e4
:1056ec00120032001e007800e20f50001e00320043
:1056fc008043eb00f6032000050a20000042eb007b
:10570c00130020000041eb008040eb0000c0eb00d8
:10571c001623020000000000010120000040eb00f5
:10572c003e210200000000001d0037008043eb000a
:10573c00f6032000650820000042eb001300200057
:10574c000041eb008040eb0000c0eb001623020090
:10575c0000000000110120000040eb003e2102007f
:10576c00000000000e0037008043eb00f603200021
:10577c00a50d20000042eb00130020000041eb00bf
:10578c008040eb0000c0eb0016230200000000007c
:10579c00210120000040eb003e210200000000002f
:1057ac000080fa00000006000400fa0030fa8000c5
:1057bc006101b800028fbe00f00020000100200043
:1057cc001e01be00800f5100818f590010013e0058
:1057dc001e00be00006001000f00370018003700eb
:1057ec00260037005b0037008e003700a50037001d
:1057fc00ba003700e3003700050137000401370019
:10580c000001370002013700f500370000013700b6
:10581c00690037005f003700883a02000000000082
:10582c0001ef21000040eb008048780010002000c0
:10583c0030fa88000000eb0090f78800f600370083
:10584c0090f78000f90f5000f3003a000080eb0055
:10585c00b0f78800f60302000000000002012000ef
:10586c00110009000200d8008000fd00540107005f
:10587c002000200030fa8800e7003700b1f78000e4
:10588c00803e2000808f5000030036000000eb00ab
:10589c00b0f7880022ff070090f78000f90f500046
:1058ac00dd0036000000eb0090f7880010f62100b8
:1058bc009040780020f621001040780080cf5000f6
:1058cc00d500310010f62100104078008080fb00dc
:1058dc00a0ec2100e141780010f621001040780086
:1058ec008080fb00a0eb210061407800b2c4b300c3
:1058fc00834078006301070010f621001040780007
:10590c008040e80010f621000148780010f62100d4
:10591c009040780020f621001040780080cf500095
:10592c00bd003900f6030200000000000201200057
:10593c00110009000200d8008000fd0020010700c2
:10594c003000200030fa88000000eb0090f788004f
:10595c00b100370091f7800060092000808f500063
:10596c00ad0036000000eb0090f78800200020000e
:10597c0030fa8800f603020000000000020120004b
:10598c00110009000200d8008000fd000c01070086
:10599c00a100370091f78000c0122000808f5000ca
:1059ac009d0036000000eb0090f7880040002000be
:1059bc0030fa88009800370091f78000c012200060
:1059cc00808f5000020036004000200030fa880022
:1059dc00c0f78000ea0f50008f0036000000eb008b
:1059ec00c0f7880000f62100104078008040e800e5
:1059fc0000f621000148780000f6210010407800e4
:105a0c00e340600000f621000148780000f6210018
:105a1c0010407800a2c0b30080c0eb001901070051
:105a2c007d00370020f62100104078008040e8000f
:105a3c0020f621000148780020f621001040780063
:105a4c00df00070020f6210010407800f04f5000d6
:105a5c0003003600a000200030fa88006e003700ea
